{
  "address": "0x97d6d47d324Be259b16C182CFA7287799Ddc514a",
  "abi": [
    {
      "anonymous": false,
      "inputs": [
        {
          "indexed": true,
          "internalType": "address",
          "name": "asset",
          "type": "address"
        },
        {
          "indexed": true,
          "internalType": "address",
          "name": "from",
          "type": "address"
        },
        {
          "indexed": true,
          "internalType": "address",
          "name": "to",
          "type": "address"
        },
        {
          "indexed": false,
          "internalType": "uint256",
          "name": "amount",
          "type": "uint256"
        },
        {
          "indexed": false,
          "internalType": "uint256",
          "name": "borrowRate",
          "type": "uint256"
        }
      ],
      "name": "Borrowed",
      "type": "event"
    },
    {
      "anonymous": false,
      "inputs": [
        {
          "indexed": true,
          "internalType": "address",
          "name": "asset",
          "type": "address"
        },
        {
          "indexed": true,
          "internalType": "address",
          "name": "user",
          "type": "address"
        },
        {
          "indexed": false,
          "internalType": "bool",
          "name": "status",
          "type": "bool"
        }
      ],
      "name": "CollateralStatusUpdated",
      "type": "event"
    },
    {
      "anonymous": false,
      "inputs": [
        {
          "indexed": true,
          "internalType": "address",
          "name": "asset",
          "type": "address"
        },
        {
          "indexed": false,
          "internalType": "address",
          "name": "user",
          "type": "address"
        },
        {
          "indexed": true,
          "internalType": "address",
          "name": "to",
          "type": "address"
        },
        {
          "indexed": false,
          "internalType": "uint256",
          "name": "amount",
          "type": "uint256"
        }
      ],
      "name": "Deposited",
      "type": "event"
    },
    {
      "anonymous": false,
      "inputs": [
        {
          "indexed": false,
          "internalType": "uint8",
          "name": "version",
          "type": "uint8"
        }
      ],
      "name": "Initialized",
      "type": "event"
    },
    {
      "anonymous": false,
      "inputs": [
        {
          "indexed": false,
          "internalType": "address",
          "name": "nft",
          "type": "address"
        },
        {
          "indexed": false,
          "internalType": "uint256",
          "name": "tokenId",
          "type": "uint256"
        },
        {
          "indexed": false,
          "internalType": "uint256",
          "name": "amount",
          "type": "uint256"
        },
        {
          "indexed": false,
          "internalType": "address",
          "name": "debt",
          "type": "address"
        },
        {
          "indexed": false,
          "internalType": "address",
          "name": "user",
          "type": "address"
        },
        {
          "indexed": false,
          "internalType": "uint256",
          "name": "debtCovered",
          "type": "uint256"
        },
        {
          "indexed": false,
          "internalType": "address",
          "name": "liquidator",
          "type": "address"
        },
        {
          "indexed": false,
          "internalType": "address",
          "name": "to",
          "type": "address"
        },
        {
          "indexed": false,
          "internalType": "bool",
          "name": "receiveTNFT",
          "type": "bool"
        }
      ],
      "name": "Liquidated",
      "type": "event"
    },
    {
      "anonymous": false,
      "inputs": [
        {
          "indexed": false,
          "internalType": "address[]",
          "name": "nfts",
          "type": "address[]"
        },
        {
          "indexed": false,
          "internalType": "address",
          "name": "user",
          "type": "address"
        },
        {
          "indexed": true,
          "internalType": "address",
          "name": "onBehalfOf",
          "type": "address"
        },
        {
          "indexed": false,
          "internalType": "uint256[]",
          "name": "tokenIds",
          "type": "uint256[]"
        },
        {
          "indexed": false,
          "internalType": "uint256[]",
          "name": "amounts",
          "type": "uint256[]"
        }
      ],
      "name": "NFTsDeposited",
      "type": "event"
    },
    {
      "anonymous": false,
      "inputs": [
        {
          "indexed": false,
          "internalType": "address[]",
          "name": "nfts",
          "type": "address[]"
        },
        {
          "indexed": true,
          "internalType": "address",
          "name": "user",
          "type": "address"
        },
        {
          "indexed": true,
          "internalType": "address",
          "name": "to",
          "type": "address"
        },
        {
          "indexed": false,
          "internalType": "uint256[]",
          "name": "tokenIds",
          "type": "uint256[]"
        },
        {
          "indexed": false,
          "internalType": "uint256[]",
          "name": "amounts",
          "type": "uint256[]"
        }
      ],
      "name": "NFTsWithdrawn",
      "type": "event"
    },
    {
      "anonymous": false,
      "inputs": [
        {
          "indexed": true,
          "internalType": "address",
          "name": "asset",
          "type": "address"
        },
        {
          "indexed": true,
          "internalType": "address",
          "name": "initiator",
          "type": "address"
        },
        {
          "indexed": true,
          "internalType": "address",
          "name": "to",
          "type": "address"
        },
        {
          "indexed": false,
          "internalType": "uint256",
          "name": "amount",
          "type": "uint256"
        }
      ],
      "name": "Repaid",
      "type": "event"
    },
    {
      "anonymous": false,
      "inputs": [
        {
          "indexed": true,
          "internalType": "address",
          "name": "asset",
          "type": "address"
        },
        {
          "indexed": false,
          "internalType": "uint256",
          "name": "depositRate",
          "type": "uint256"
        },
        {
          "indexed": false,
          "internalType": "uint256",
          "name": "borrowRate",
          "type": "uint256"
        },
        {
          "indexed": false,
          "internalType": "uint256",
          "name": "liquidityIndex",
          "type": "uint256"
        },
        {
          "indexed": false,
          "internalType": "uint256",
          "name": "debtIndex",
          "type": "uint256"
        }
      ],
      "name": "ReserveDataUpdated",
      "type": "event"
    },
    {
      "anonymous": false,
      "inputs": [
        {
          "indexed": true,
          "internalType": "address",
          "name": "asset",
          "type": "address"
        },
        {
          "indexed": true,
          "internalType": "address",
          "name": "user",
          "type": "address"
        },
        {
          "indexed": true,
          "internalType": "address",
          "name": "to",
          "type": "address"
        },
        {
          "indexed": false,
          "internalType": "uint256",
          "name": "amount",
          "type": "uint256"
        }
      ],
      "name": "Withdrawn",
      "type": "event"
    },
    {
      "inputs": [],
      "name": "ADDRESS_PROVIDER",
      "outputs": [
        {
          "internalType": "contract ITakerAddressesProvider",
          "name": "",
          "type": "address"
        }
      ],
      "stateMutability": "view",
      "type": "function"
    },
    {
      "inputs": [],
      "name": "MAX_NUMBER_NFT_RESERVES",
      "outputs": [
        {
          "internalType": "uint256",
          "name": "",
          "type": "uint256"
        }
      ],
      "stateMutability": "view",
      "type": "function"
    },
    {
      "inputs": [],
      "name": "MAX_NUMBER_RESERVES",
      "outputs": [
        {
          "internalType": "uint256",
          "name": "",
          "type": "uint256"
        }
      ],
      "stateMutability": "view",
      "type": "function"
    },
    {
      "inputs": [],
      "name": "NAME",
      "outputs": [
        {
          "internalType": "string",
          "name": "",
          "type": "string"
        }
      ],
      "stateMutability": "view",
      "type": "function"
    },
    {
      "inputs": [
        {
          "internalType": "address",
          "name": "asset",
          "type": "address"
        },
        {
          "internalType": "uint256",
          "name": "amount",
          "type": "uint256"
        },
        {
          "internalType": "address",
          "name": "from",
          "type": "address"
        }
      ],
      "name": "borrow",
      "outputs": [],
      "stateMutability": "nonpayable",
      "type": "function"
    },
    {
      "inputs": [
        {
          "internalType": "address",
          "name": "asset",
          "type": "address"
        },
        {
          "internalType": "uint256",
          "name": "amount",
          "type": "uint256"
        },
        {
          "internalType": "address",
          "name": "to",
          "type": "address"
        }
      ],
      "name": "deposit",
      "outputs": [],
      "stateMutability": "nonpayable",
      "type": "function"
    },
    {
      "inputs": [
        {
          "internalType": "address[]",
          "name": "nfts",
          "type": "address[]"
        },
        {
          "internalType": "uint256[]",
          "name": "tokenIds",
          "type": "uint256[]"
        },
        {
          "internalType": "uint256[]",
          "name": "amounts",
          "type": "uint256[]"
        },
        {
          "internalType": "address",
          "name": "to",
          "type": "address"
        }
      ],
      "name": "depositNFTs",
      "outputs": [],
      "stateMutability": "nonpayable",
      "type": "function"
    },
    {
      "inputs": [
        {
          "internalType": "address",
          "name": "asset",
          "type": "address"
        }
      ],
      "name": "dropReserve",
      "outputs": [],
      "stateMutability": "nonpayable",
      "type": "function"
    },
    {
      "inputs": [
        {
          "internalType": "address",
          "name": "asset",
          "type": "address"
        }
      ],
      "name": "getAssetValues",
      "outputs": [
        {
          "internalType": "uint256",
          "name": "",
          "type": "uint256"
        },
        {
          "internalType": "uint256",
          "name": "",
          "type": "uint256"
        }
      ],
      "stateMutability": "view",
      "type": "function"
    },
    {
      "inputs": [
        {
          "internalType": "address",
          "name": "asset",
          "type": "address"
        }
      ],
      "name": "getNftReserveData",
      "outputs": [
        {
          "components": [
            {
              "internalType": "ReserveConfiguration",
              "name": "configuration",
              "type": "uint256"
            },
            {
              "internalType": "address",
              "name": "tNFTAddress",
              "type": "address"
            },
            {
              "internalType": "uint8",
              "name": "id",
              "type": "uint8"
            }
          ],
          "internalType": "struct NFTReserve.ReserveData",
          "name": "",
          "type": "tuple"
        }
      ],
      "stateMutability": "view",
      "type": "function"
    },
    {
      "inputs": [],
      "name": "getPoolValues",
      "outputs": [
        {
          "internalType": "uint256",
          "name": "",
          "type": "uint256"
        },
        {
          "internalType": "uint256",
          "name": "",
          "type": "uint256"
        },
        {
          "internalType": "uint256",
          "name": "",
          "type": "uint256"
        }
      ],
      "stateMutability": "view",
      "type": "function"
    },
    {
      "inputs": [
        {
          "internalType": "address",
          "name": "asset",
          "type": "address"
        },
        {
          "internalType": "bool",
          "name": "isNft",
          "type": "bool"
        }
      ],
      "name": "getReserveConfig",
      "outputs": [
        {
          "internalType": "ReserveConfiguration",
          "name": "",
          "type": "uint256"
        }
      ],
      "stateMutability": "view",
      "type": "function"
    },
    {
      "inputs": [
        {
          "internalType": "address",
          "name": "asset",
          "type": "address"
        }
      ],
      "name": "getReserveData",
      "outputs": [
        {
          "components": [
            {
              "internalType": "ReserveConfiguration",
              "name": "configuration",
              "type": "uint256"
            },
            {
              "internalType": "uint128",
              "name": "liquidityIndex",
              "type": "uint128"
            },
            {
              "internalType": "uint128",
              "name": "debtIndex",
              "type": "uint128"
            },
            {
              "internalType": "uint128",
              "name": "depositRate",
              "type": "uint128"
            },
            {
              "internalType": "uint128",
              "name": "borrowRate",
              "type": "uint128"
            },
            {
              "internalType": "uint40",
              "name": "lastUpdateTimestamp",
              "type": "uint40"
            },
            {
              "internalType": "address",
              "name": "tTokenAddress",
              "type": "address"
            },
            {
              "internalType": "address",
              "name": "debtTokenAddress",
              "type": "address"
            },
            {
              "internalType": "address",
              "name": "interestRateCalculatorAddress",
              "type": "address"
            },
            {
              "internalType": "address",
              "name": "treasury",
              "type": "address"
            },
            {
              "internalType": "uint8",
              "name": "id",
              "type": "uint8"
            }
          ],
          "internalType": "struct Reserve.ReserveData",
          "name": "",
          "type": "tuple"
        }
      ],
      "stateMutability": "view",
      "type": "function"
    },
    {
      "inputs": [
        {
          "internalType": "address",
          "name": "asset",
          "type": "address"
        }
      ],
      "name": "getReserveNormalizedDebtScale",
      "outputs": [
        {
          "internalType": "uint256",
          "name": "",
          "type": "uint256"
        }
      ],
      "stateMutability": "view",
      "type": "function"
    },
    {
      "inputs": [
        {
          "internalType": "address",
          "name": "asset",
          "type": "address"
        }
      ],
      "name": "getReserveNormalizedLiquidityScale",
      "outputs": [
        {
          "internalType": "uint256",
          "name": "",
          "type": "uint256"
        }
      ],
      "stateMutability": "view",
      "type": "function"
    },
    {
      "inputs": [],
      "name": "getReservesList",
      "outputs": [
        {
          "internalType": "address[]",
          "name": "",
          "type": "address[]"
        },
        {
          "internalType": "address[]",
          "name": "",
          "type": "address[]"
        }
      ],
      "stateMutability": "view",
      "type": "function"
    },
    {
      "inputs": [
        {
          "internalType": "address",
          "name": "user",
          "type": "address"
        },
        {
          "internalType": "address",
          "name": "asset",
          "type": "address"
        }
      ],
      "name": "getUserAssetValues",
      "outputs": [
        {
          "internalType": "uint256",
          "name": "",
          "type": "uint256"
        },
        {
          "internalType": "uint256",
          "name": "",
          "type": "uint256"
        },
        {
          "internalType": "uint256",
          "name": "",
          "type": "uint256"
        }
      ],
      "stateMutability": "view",
      "type": "function"
    },
    {
      "inputs": [
        {
          "internalType": "address",
          "name": "user",
          "type": "address"
        }
      ],
      "name": "getUserConfig",
      "outputs": [
        {
          "internalType": "UserConfiguration",
          "name": "",
          "type": "uint256"
        },
        {
          "internalType": "UserNftConfiguration",
          "name": "",
          "type": "uint256"
        }
      ],
      "stateMutability": "view",
      "type": "function"
    },
    {
      "inputs": [
        {
          "internalType": "address",
          "name": "user",
          "type": "address"
        }
      ],
      "name": "getUserState",
      "outputs": [
        {
          "components": [
            {
              "internalType": "uint256",
              "name": "borrowableLiq",
              "type": "uint256"
            },
            {
              "internalType": "uint256",
              "name": "nftLiq",
              "type": "uint256"
            },
            {
              "internalType": "uint256",
              "name": "totalCollateralInEth",
              "type": "uint256"
            },
            {
              "internalType": "uint256",
              "name": "totalDebtInEth",
              "type": "uint256"
            },
            {
              "internalType": "uint256",
              "name": "ltv",
              "type": "uint256"
            },
            {
              "internalType": "uint256",
              "name": "liqThreshold",
              "type": "uint256"
            },
            {
              "internalType": "uint256",
              "name": "hf",
              "type": "uint256"
            }
          ],
          "internalType": "struct UserVariableCalculator.StateVar",
          "name": "",
          "type": "tuple"
        }
      ],
      "stateMutability": "view",
      "type": "function"
    },
    {
      "inputs": [
        {
          "internalType": "address",
          "name": "asset",
          "type": "address"
        },
        {
          "internalType": "ReserveConfiguration",
          "name": "configuration",
          "type": "uint256"
        },
        {
          "internalType": "address",
          "name": "tNFTAddress",
          "type": "address"
        }
      ],
      "name": "initNFTReserve",
      "outputs": [],
      "stateMutability": "nonpayable",
      "type": "function"
    },
    {
      "inputs": [
        {
          "internalType": "address",
          "name": "asset",
          "type": "address"
        },
        {
          "internalType": "ReserveConfiguration",
          "name": "configuration",
          "type": "uint256"
        },
        {
          "internalType": "address",
          "name": "tTokenAddress",
          "type": "address"
        },
        {
          "internalType": "address",
          "name": "debtAddress",
          "type": "address"
        },
        {
          "internalType": "address",
          "name": "interestRateStrategyAddress",
          "type": "address"
        }
      ],
      "name": "initReserve",
      "outputs": [],
      "stateMutability": "nonpayable",
      "type": "function"
    },
    {
      "inputs": [
        {
          "internalType": "contract ITakerAddressesProvider",
          "name": "provider",
          "type": "address"
        }
      ],
      "name": "initialize",
      "outputs": [],
      "stateMutability": "nonpayable",
      "type": "function"
    },
    {
      "inputs": [
        {
          "internalType": "address",
          "name": "nft",
          "type": "address"
        },
        {
          "internalType": "uint256",
          "name": "tokenId",
          "type": "uint256"
        },
        {
          "internalType": "address",
          "name": "debt",
          "type": "address"
        },
        {
          "internalType": "address",
          "name": "user",
          "type": "address"
        },
        {
          "internalType": "address",
          "name": "to",
          "type": "address"
        },
        {
          "internalType": "bool",
          "name": "receiveTNFT",
          "type": "bool"
        }
      ],
      "name": "liquidate",
      "outputs": [],
      "stateMutability": "nonpayable",
      "type": "function"
    },
    {
      "inputs": [
        {
          "internalType": "address",
          "name": "asset",
          "type": "address"
        },
        {
          "internalType": "uint256",
          "name": "amount",
          "type": "uint256"
        },
        {
          "internalType": "address",
          "name": "to",
          "type": "address"
        }
      ],
      "name": "repay",
      "outputs": [
        {
          "internalType": "uint256",
          "name": "",
          "type": "uint256"
        }
      ],
      "stateMutability": "nonpayable",
      "type": "function"
    },
    {
      "inputs": [
        {
          "internalType": "address",
          "name": "asset",
          "type": "address"
        },
        {
          "internalType": "bool",
          "name": "isNft",
          "type": "bool"
        },
        {
          "internalType": "ReserveConfiguration",
          "name": "configuration",
          "type": "uint256"
        }
      ],
      "name": "setReserveConfig",
      "outputs": [],
      "stateMutability": "nonpayable",
      "type": "function"
    },
    {
      "inputs": [
        {
          "internalType": "address",
          "name": "asset",
          "type": "address"
        },
        {
          "internalType": "address",
          "name": "interestRateCalculatorAddress",
          "type": "address"
        }
      ],
      "name": "setReserveInterestRateCalculatorAddress",
      "outputs": [],
      "stateMutability": "nonpayable",
      "type": "function"
    },
    {
      "inputs": [
        {
          "internalType": "address",
          "name": "asset",
          "type": "address"
        },
        {
          "internalType": "bool",
          "name": "usingAsCollateral",
          "type": "bool"
        }
      ],
      "name": "setUserUsingAsCollateral",
      "outputs": [],
      "stateMutability": "nonpayable",
      "type": "function"
    },
    {
      "inputs": [
        {
          "internalType": "address",
          "name": "asset",
          "type": "address"
        },
        {
          "internalType": "address",
          "name": "from",
          "type": "address"
        },
        {
          "internalType": "address",
          "name": "to",
          "type": "address"
        },
        {
          "internalType": "uint256",
          "name": "amount",
          "type": "uint256"
        },
        {
          "internalType": "uint256",
          "name": "balanceFromBefore",
          "type": "uint256"
        }
      ],
      "name": "validateTransfer",
      "outputs": [],
      "stateMutability": "nonpayable",
      "type": "function"
    },
    {
      "inputs": [
        {
          "internalType": "address",
          "name": "asset",
          "type": "address"
        },
        {
          "internalType": "address",
          "name": "from",
          "type": "address"
        },
        {
          "internalType": "address",
          "name": "to",
          "type": "address"
        },
        {
          "internalType": "uint256",
          "name": "amount",
          "type": "uint256"
        }
      ],
      "name": "validateTransferNft",
      "outputs": [],
      "stateMutability": "view",
      "type": "function"
    },
    {
      "inputs": [
        {
          "internalType": "address",
          "name": "asset",
          "type": "address"
        },
        {
          "internalType": "uint256",
          "name": "amount",
          "type": "uint256"
        },
        {
          "internalType": "address",
          "name": "to",
          "type": "address"
        }
      ],
      "name": "withdraw",
      "outputs": [],
      "stateMutability": "nonpayable",
      "type": "function"
    },
    {
      "inputs": [
        {
          "internalType": "address[]",
          "name": "nfts",
          "type": "address[]"
        },
        {
          "internalType": "uint256[]",
          "name": "tokenIds",
          "type": "uint256[]"
        },
        {
          "internalType": "uint256[]",
          "name": "amounts",
          "type": "uint256[]"
        },
        {
          "internalType": "address",
          "name": "to",
          "type": "address"
        }
      ],
      "name": "withdrawNFTs",
      "outputs": [],
      "stateMutability": "nonpayable",
      "type": "function"
    }
  ],
  "transactionHash": "0xd35a67fecc17b674b1939060451b5cc184f1e72a0e8d72a2eba5863d5d8f3ab8",
  "args": [],
  "numDeployments": 3,
  "solcInputHash": "74859cd56720769ef1d216a6b01bc192",
  "bytecode": "0x608060405234801561001057600080fd5b50615a1e80620000216000396000f3fe608060405234801561001057600080fd5b50600436106101e55760003560e01c806377a8313e1161010f578063c4d66de8116100a2578063f45346dc11610071578063f45346dc14610675578063f505743a14610688578063f66fdcca1461074c578063f8119d511461075457600080fd5b8063c4d66de814610630578063cca5bffd14610643578063d1946dbc14610656578063e7dc9ef61461066c57600080fd5b806391978826116100de57806391978826146105ae578063a3f4df7e146105c1578063ac4b088c1461060a578063c1b4ab8f1461061d57600080fd5b806377a8313e146105475780637d2fd4cc1461055a578063903e61a4146105885780639100e4a31461059b57600080fd5b80633c34822e1161018757806363c9b8601161015657806363c9b860146104fb57806369328dec1461050e57806369cab562146105215780636c665a551461053457600080fd5b80633c34822e146104595780633ec8e52d1461046c578063416ae7681461047f5780635ceae9c4146104e857600080fd5b80631848effa116101c35780631848effa1461027d5780631854b241146102c257806322829a21146102d557806335ea6a75146102e857600080fd5b806311de1fee146101ea57806316626ab9146101ff578063178c21a51461025c575b600080fd5b6101fd6101f8366004614a70565b61075c565b005b61024261020d366004614b1e565b73ffffffffffffffffffffffffffffffffffffffff166000908152603660209081526040808320546037909252909120549091565b604080519283526020830191909152015b60405180910390f35b61026f61026a366004614b50565b6108ea565b604051908152602001610253565b60335461029d9073ffffffffffffffffffffffffffffffffffffffff1681565b60405173ffffffffffffffffffffffffffffffffffffffff9091168152602001610253565b6101fd6102d0366004614b85565b61094c565b6101fd6102e3366004614a70565b610e86565b61044c6102f6366004614b1e565b6040805161016081018252600080825260208201819052918101829052606081018290526080810182905260a0810182905260c0810182905260e08101829052610100810182905261012081018290526101408101919091525073ffffffffffffffffffffffffffffffffffffffff9081166000908152603460209081526040918290208251610160810184528154815260018201546fffffffffffffffffffffffffffffffff808216948301949094527001000000000000000000000000000000009081900484169482019490945260028201548084166060830152939093049091166080830152600381015464ffffffffff811660a0840152650100000000009004831660c08301526004810154831660e083015260058101548316610100830152600601549182166101208201527401000000000000000000000000000000000000000090910460ff1661014082015290565b6040516102539190614be0565b6101fd610467366004614d2c565b610f21565b6101fd61047a366004614d65565b610f7f565b61049261048d366004614b1e565b6113be565b6040516102539190600060e082019050825182526020830151602083015260408301516040830152606083015160608301526080830151608083015260a083015160a083015260c083015160c083015292915050565b61026f6104f6366004614db6565b61157c565b6101fd610509366004614b1e565b611658565b6101fd61051c366004614db6565b61184e565b61026f61052f366004614b1e565b6119d3565b6101fd610542366004614db6565b611a01565b6101fd610555366004614b50565b611b72565b61056d610568366004614d2c565b611ce3565b60408051938452602084019290925290820152606001610253565b61026f610596366004614b1e565b611e6c565b6101fd6105a9366004614df8565b611e9a565b6101fd6105bc366004614e6d565b6120df565b6105fd6040518060400160405280600281526020017f4c5000000000000000000000000000000000000000000000000000000000000081525081565b6040516102539190614f25565b6101fd610618366004614db6565b61247b565b6101fd61062b366004614f38565b612aa3565b6101fd61063e366004614b1e565b6130db565b610242610651366004614b1e565b6132ad565b61065e61340b565b604051610253929190614ff1565b61026f61010081565b6101fd610683366004614db6565b6135d3565b610711610696366004614b1e565b60408051606080820183526000808352602080840182905292840181905273ffffffffffffffffffffffffffffffffffffffff948516815260358352839020835191820184528054825260010154938416918101919091527401000000000000000000000000000000000000000090920460ff169082015290565b604080518251815260208084015173ffffffffffffffffffffffffffffffffffffffff16908201529181015160ff1690820152606001610253565b61056d613693565b61026f608081565b610764613838565b6040805160c0810182523360008181526036602090815284822054845282825260378152908490205481840152603a5483850152603b546060840152608083019190915260335483517ffca513a8000000000000000000000000000000000000000000000000000000008152935173253F8A4d800B904E6184f91281d9CCf6C1c21F4294631526ecfc9460349460359460389460399460a085019373ffffffffffffffffffffffffffffffffffffffff9093169263fca513a8926004808401938290030181865afa15801561083d573d6000803e3d6000fd5b505050506040513d601f19601f820116820180604052508101906108619190615016565b73ffffffffffffffffffffffffffffffffffffffff168152508d8d8d8d8d8d8d6040518d63ffffffff1660e01b81526004016108a89c9b9a999897969594939291906150cd565b60006040518083038186803b1580156108c057600080fd5b505af41580156108d4573d6000803e3d6000fd5b505050506108e160018055565b50505050505050565b6000811561091e575073ffffffffffffffffffffffffffffffffffffffff8216600090815260356020526040902054610946565b5073ffffffffffffffffffffffffffffffffffffffff82166000908152603460205260409020545b92915050565b73ffffffffffffffffffffffffffffffffffffffff8086166000908152603460209081526040918290206003015482518084018452600281527f4c500000000000000000000000000000000000000000000000000000000000008184015283518085018552600181527f36000000000000000000000000000000000000000000000000000000000000009381019390935292517f5b70017b0000000000000000000000000000000000000000000000000000000081523365010000000000909204909416149273adf6B6d4F628Cd21a4648FcF859Df33e975ef0cE92635b70017b92610a3a926004016151b6565b600060405180830381865af4158015610a57573d6000803e3d6000fd5b505050506040513d6000823e601f3d9081017fffffffffffffffffffffffffffffffffffffffffffffffffffffffffffffffe0168201604052610a9d919081019061520a565b90610ade576040517f08c379a0000000000000000000000000000000000000000000000000000000008152600401610ad59190614f25565b60405180910390fd5b5073ffffffffffffffffffffffffffffffffffffffff85166000908152603460205260408082205490517f041a352d00000000000000000000000000000000000000000000000000000000815260048101919091526024810184905260448101919091527338d7C2aE08c3080cE1d5a1cBF4B437D6d9CCEFFF9063041a352d9060640160006040518083038186803b158015610b7957600080fd5b505af4158015610b8d573d6000803e3d6000fd5b505050508273ffffffffffffffffffffffffffffffffffffffff168473ffffffffffffffffffffffffffffffffffffffff1614158015610bcc57508115155b15610e7f5773ffffffffffffffffffffffffffffffffffffffff858116600090815260346020908152604080832060060154938816835260369091529020547401000000000000000000000000000000000000000090910460ff1690610c3281836138b1565b156108e1577f5555555555555555555555555555555555555555555555555555555555555555811615610dfe577338d7C2aE08c3080cE1d5a1cBF4B437D6d9CCEFFF633264718560346035603860396040518060c00160405280888152602001603760008f73ffffffffffffffffffffffffffffffffffffffff1673ffffffffffffffffffffffffffffffffffffffff168152602001908152602001600020548152602001603a548152602001603b5481526020018d73ffffffffffffffffffffffffffffffffffffffff168152602001603360009054906101000a900473ffffffffffffffffffffffffffffffffffffffff1673ffffffffffffffffffffffffffffffffffffffff1663fca513a86040518163ffffffff1660e01b8152600401602060405180830381865afa158015610d70573d6000803e3d6000fd5b505050506040513d601f19601f82011682018060405250810190610d949190615016565b73ffffffffffffffffffffffffffffffffffffffff168152506040518663ffffffff1660e01b8152600401610dcd9594939291906152d5565b60006040518083038186803b158015610de557600080fd5b505af4158015610df9573d6000803e3d6000fd5b505050505b8383036108e157610e1181836000613a2c565b508573ffffffffffffffffffffffffffffffffffffffff168773ffffffffffffffffffffffffffffffffffffffff167f6577e2a7395d7723b4b430421166c5269712d1766166379838f96f218c5cde4a6000604051610e74911515815260200190565b60405180910390a350505b5050505050565b6040517f23a6dd8b00000000000000000000000000000000000000000000000000000000815273253F8A4d800B904E6184f91281d9CCf6C1c21F42906323a6dd8b90610ee8906035906037908c908c908c908c908c908c908c9060040161535b565b60006040518083038186803b158015610f0057600080fd5b505af4158015610f14573d6000803e3d6000fd5b5050505050505050505050565b610f29613bb9565b73ffffffffffffffffffffffffffffffffffffffff918216600090815260346020526040902060050180547fffffffffffffffffffffffff00000000000000000000000000000000000000001691909216179055565b73ffffffffffffffffffffffffffffffffffffffff84811660009081526035602090815260409182902060019081015483518085018552600281527f4c5000000000000000000000000000000000000000000000000000000000000081850152845180860186529283527f36000000000000000000000000000000000000000000000000000000000000009383019390935292517f5b70017b0000000000000000000000000000000000000000000000000000000081529290931633149273adf6B6d4F628Cd21a4648FcF859Df33e975ef0cE92635b70017b926110679290916004016151b6565b600060405180830381865af4158015611084573d6000803e3d6000fd5b505050506040513d6000823e601f3d9081017fffffffffffffffffffffffffffffffffffffffffffffffffffffffffffffffe01682016040526110ca919081019061520a565b90611102576040517f08c379a0000000000000000000000000000000000000000000000000000000008152600401610ad59190614f25565b5073ffffffffffffffffffffffffffffffffffffffff84166000908152603560205260408082205490517f041a352d00000000000000000000000000000000000000000000000000000000815260048101919091526024810183905260448101919091527338d7C2aE08c3080cE1d5a1cBF4B437D6d9CCEFFF9063041a352d9060640160006040518083038186803b15801561119d57600080fd5b505af41580156111b1573d6000803e3d6000fd5b5050505073ffffffffffffffffffffffffffffffffffffffff838116600081815260366020526040902054918416148015906111ec57508115155b15610e7f577f5555555555555555555555555555555555555555555555555555555555555555811615610e7f577338d7C2aE08c3080cE1d5a1cBF4B437D6d9CCEFFF633264718560346035603860396040518060c00160405280888152602001603760008d73ffffffffffffffffffffffffffffffffffffffff1673ffffffffffffffffffffffffffffffffffffffff168152602001908152602001600020548152602001603a548152602001603b5481526020018b73ffffffffffffffffffffffffffffffffffffffff168152602001603360009054906101000a900473ffffffffffffffffffffffffffffffffffffffff1673ffffffffffffffffffffffffffffffffffffffff1663fca513a86040518163ffffffff1660e01b8152600401602060405180830381865afa15801561132a573d6000803e3d6000fd5b505050506040513d601f19601f8201168201806040525081019061134e9190615016565b73ffffffffffffffffffffffffffffffffffffffff168152506040518663ffffffff1660e01b81526004016113879594939291906152d5565b60006040518083038186803b15801561139f57600080fd5b505af41580156113b3573d6000803e3d6000fd5b505050505050505050565b6113fe6040518060e00160405280600081526020016000815260200160008152602001600081526020016000815260200160008152602001600081525090565b6040805160c08101825273ffffffffffffffffffffffffffffffffffffffff80851660008181526036602090815285822054855282825260378152908590205481850152603a5484860152603b546060850152608084019190915260335484517ffca513a8000000000000000000000000000000000000000000000000000000008152945173eb202543B4FEf4e51c98116e714DBEC048f0404d9563f74c32ba95603495603595603895603995939460a0860194919093169263fca513a89260048083019391928290030181865afa1580156114de573d6000803e3d6000fd5b505050506040513d601f19601f820116820180604052508101906115029190615016565b73ffffffffffffffffffffffffffffffffffffffff168152506040518663ffffffff1660e01b815260040161153b9594939291906152d5565b60e060405180830381865af4158015611558573d6000803e3d6000fd5b505050506040513d601f19601f8201168201806040525081019061094691906153d0565b73ffffffffffffffffffffffffffffffffffffffff83811660008181526034602052604080822090517f14bd970300000000000000000000000000000000000000000000000000000000815260048101919091526036602482015260448101929092526064820185905291831660848201527351Ae44B191Ad79C217c178BeaD9606A59701aBaf906314bd97039060a401602060405180830381865af415801561162a573d6000803e3d6000fd5b505050506040513d601f19601f8201168201806040525081019061164e9190615454565b90505b9392505050565b611660613bb9565b73ffffffffffffffffffffffffffffffffffffffff81166000908152603460209081526040808320603590925282206116a0916038916039919086613da4565b90508015611750575073ffffffffffffffffffffffffffffffffffffffff16600081815260356020818152604080842060018101805474010000000000000000000000000000000000000000900460ff1686526039845291852080547fffffffffffffffffffffffff0000000000000000000000000000000000000000169055948452919052915580547fffffffffffffffffffffff000000000000000000000000000000000000000000169055565b73ffffffffffffffffffffffffffffffffffffffff8216600081815260346020818152604080842060068101805474010000000000000000000000000000000000000000900460ff1686526038845291852080547fffffffffffffffffffffffff0000000000000000000000000000000000000000908116909155958552929091528282556001820183905560028201929092556003810180547fffffffffffffff0000000000000000000000000000000000000000000000000016905560048101805484169055600501805490921690915580547fffffffffffffffffffffff0000000000000000000000000000000000000000001690555b5050565b611856613838565b6040805160c0810182523360008181526036602081815285832054855283835260378152918590205482850152603a5484860152603b546060850152608084019290925260335484517ffca513a8000000000000000000000000000000000000000000000000000000008152945173253F8A4d800B904E6184f91281d9CCf6C1c21F42956365f37fab95603495603595603895603995929460a085019373ffffffffffffffffffffffffffffffffffffffff9092169263fca513a8926004808401938290030181865afa158015611931573d6000803e3d6000fd5b505050506040513d601f19601f820116820180604052508101906119559190615016565b73ffffffffffffffffffffffffffffffffffffffff168152508a8a8a6040518a63ffffffff1660e01b81526004016119959998979695949392919061546d565b60006040518083038186803b1580156119ad57600080fd5b505af41580156119c1573d6000803e3d6000fd5b505050506119ce60018055565b505050565b73ffffffffffffffffffffffffffffffffffffffff81166000908152603460205260408120610946906145f0565b6040805160c08101825273ffffffffffffffffffffffffffffffffffffffff80841660008181526036602081815286832054865283835260378152918690205482860152603a5485870152603b546060860152608085019290925260335485517ffca513a800000000000000000000000000000000000000000000000000000000815295517351Ae44B191Ad79C217c178BeaD9606A59701aBaf9663272095b4966034966035966038966039969195939460a0860194929093169263fca513a892600480830193928290030181865afa158015611ae2573d6000803e3d6000fd5b505050506040513d601f19601f82011682018060405250810190611b069190615016565b73ffffffffffffffffffffffffffffffffffffffff16815250898b8a6040518a63ffffffff1660e01b8152600401611b469998979695949392919061552c565b60006040518083038186803b158015611b5e57600080fd5b505af41580156108e1573d6000803e3d6000fd5b6040805160c0810182523360008181526036602081815285832054855283835260378152918590205482850152603a5484860152603b546060850152608084019290925260335484517ffca513a8000000000000000000000000000000000000000000000000000000008152945173253F8A4d800B904E6184f91281d9CCf6C1c21F429563c11d580d95603495603595603895603995929460a085019373ffffffffffffffffffffffffffffffffffffffff9092169263fca513a8926004808401938290030181865afa158015611c4d573d6000803e3d6000fd5b505050506040513d601f19601f82011682018060405250810190611c719190615016565b73ffffffffffffffffffffffffffffffffffffffff1681525089896040518963ffffffff1660e01b8152600401611caf9897969594939291906155e8565b60006040518083038186803b158015611cc757600080fd5b505af4158015611cdb573d6000803e3d6000fd5b505050505050565b6040805160c08101825273ffffffffffffffffffffffffffffffffffffffff808516600081815260366020908152858220548552828252603781528582205481860152603a5485870152603b546060860152608085019290925260335485517ffca513a8000000000000000000000000000000000000000000000000000000008152955191958695869573eb202543B4FEf4e51c98116e714DBEC048f0404d95636ac0885e956034956035958d959460a086019492169263fca513a8926004808401939192918290030181865afa158015611dc2573d6000803e3d6000fd5b505050506040513d601f19601f82011682018060405250810190611de69190615016565b73ffffffffffffffffffffffffffffffffffffffff168152506040518563ffffffff1660e01b8152600401611e1e949392919061569d565b606060405180830381865af4158015611e3b573d6000803e3d6000fd5b505050506040513d601f19601f82011682018060405250810190611e5f9190615726565b9250925092509250925092565b73ffffffffffffffffffffffffffffffffffffffff811660009081526034602052604081206109469061466f565b611ea2613838565b6040805161016081018252600060a0820181815260c0830182905260e08301829052610100830182905261012083018290526101408301829052825260208201819052918101829052606081018290526080810191909152604080516101608101825273ffffffffffffffffffffffffffffffffffffffff8087166000818152603660209081528582205460a0860190815283835260378252918690205460c0860152603a5460e0860152603b5461010086015261012085019290925260335485517ffca513a8000000000000000000000000000000000000000000000000000000008152955194958695929461014087019492169263fca513a8926004808401939192918290030181865afa158015611fc0573d6000803e3d6000fd5b505050506040513d601f19601f82011682018060405250810190611fe49190615016565b73ffffffffffffffffffffffffffffffffffffffff1681525081526020013373ffffffffffffffffffffffffffffffffffffffff1681526020018473ffffffffffffffffffffffffffffffffffffffff1681526020018673ffffffffffffffffffffffffffffffffffffffff168152602001831515815250905073e1c29C0fbF6DD761B912920bca197675549dE20a63422054a760346035603860398c8c886040518863ffffffff1660e01b81526004016120a59796959493929190615754565b60006040518083038186803b1580156120bd57600080fd5b505af41580156120d1573d6000803e3d6000fd5b5050505050611cdb60018055565b6120e7613bb9565b81156122b45773ffffffffffffffffffffffffffffffffffffffff8316600090815260356020908152604091829020600101548251808401845260028082527f4c5000000000000000000000000000000000000000000000000000000000000082850152845180860186529081527f31360000000000000000000000000000000000000000000000000000000000009381019390935292517f5b70017b0000000000000000000000000000000000000000000000000000000081527401000000000000000000000000000000000000000090910460ff1615159273adf6B6d4F628Cd21a4648FcF859Df33e975ef0cE92635b70017b926121eb9291906004016151b6565b600060405180830381865af4158015612208573d6000803e3d6000fd5b505050506040513d6000823e601f3d9081017fffffffffffffffffffffffffffffffffffffffffffffffffffffffffffffffe016820160405261224e919081019061520a565b90612286576040517f08c379a0000000000000000000000000000000000000000000000000000000008152600401610ad59190614f25565b5073ffffffffffffffffffffffffffffffffffffffff83166000908152603560205260409020819055505050565b73ffffffffffffffffffffffffffffffffffffffff8316600090815260346020908152604091829020600601548251808401845260028082527f4c5000000000000000000000000000000000000000000000000000000000000082850152845180860186529081527f31360000000000000000000000000000000000000000000000000000000000009381019390935292517f5b70017b0000000000000000000000000000000000000000000000000000000081527401000000000000000000000000000000000000000090910460ff1615159273adf6B6d4F628Cd21a4648FcF859Df33e975ef0cE92635b70017b926123b29291906004016151b6565b600060405180830381865af41580156123cf573d6000803e3d6000fd5b505050506040513d6000823e601f3d9081017fffffffffffffffffffffffffffffffffffffffffffffffffffffffffffffffe0168201604052612415919081019061520a565b9061244d576040517f08c379a0000000000000000000000000000000000000000000000000000000008152600401610ad59190614f25565b5073ffffffffffffffffffffffffffffffffffffffff83166000908152603460205260409020819055505050565b612483613bb9565b73ffffffffffffffffffffffffffffffffffffffff83163b151573adf6B6d4F628Cd21a4648FcF859Df33e975ef0cE635b70017b6040518060400160405280600281526020017f4c500000000000000000000000000000000000000000000000000000000000008152506040518060400160405280600281526020017f32390000000000000000000000000000000000000000000000000000000000008152506040518363ffffffff1660e01b81526004016125409291906151b6565b600060405180830381865af415801561255d573d6000803e3d6000fd5b505050506040513d6000823e601f3d9081017fffffffffffffffffffffffffffffffffffffffffffffffffffffffffffffffe01682016040526125a3919081019061520a565b906125db576040517f08c379a0000000000000000000000000000000000000000000000000000000008152600401610ad59190614f25565b5073ffffffffffffffffffffffffffffffffffffffff831660009081526035602052604090206001015474010000000000000000000000000000000000000000900460ff1615801561266e575073ffffffffffffffffffffffffffffffffffffffff831660009081526034602052604090206006015474010000000000000000000000000000000000000000900460ff16155b73adf6B6d4F628Cd21a4648FcF859Df33e975ef0cE635b70017b6040518060400160405280600281526020017f4c500000000000000000000000000000000000000000000000000000000000008152506040518060400160405280600281526020017f31350000000000000000000000000000000000000000000000000000000000008152506040518363ffffffff1660e01b81526004016127119291906151b6565b600060405180830381865af415801561272e573d6000803e3d6000fd5b505050506040513d6000823e601f3d9081017fffffffffffffffffffffffffffffffffffffffffffffffffffffffffffffffe0168201604052612774919081019061520a565b906127ac576040517f08c379a0000000000000000000000000000000000000000000000000000000008152600401610ad59190614f25565b5073ffffffffffffffffffffffffffffffffffffffff8381166000908152603560205260409081902090517f38f988900000000000000000000000000000000000000000000000000000000081526004810191909152602481018490529082166044820152734a1DbbB24d3d6d368630Ee6f67D8B47d5C3F6203906338f988909060640160006040518083038186803b15801561284857600080fd5b505af415801561285c573d6000803e3d6000fd5b50505050610100603b541073adf6B6d4F628Cd21a4648FcF859Df33e975ef0cE635b70017b6040518060400160405280600281526020017f4c500000000000000000000000000000000000000000000000000000000000008152506040518060400160405280600281526020017f33310000000000000000000000000000000000000000000000000000000000008152506040518363ffffffff1660e01b815260040161290a9291906151b6565b600060405180830381865af4158015612927573d6000803e3d6000fd5b505050506040513d6000823e601f3d9081017fffffffffffffffffffffffffffffffffffffffffffffffffffffffffffffffe016820160405261296d919081019061520a565b906129a5576040517f08c379a0000000000000000000000000000000000000000000000000000000008152600401610ad59190614f25565b50603b546129b4906001615862565b73ffffffffffffffffffffffffffffffffffffffff841660009081526035602052604081206001908101805460ff9490941674010000000000000000000000000000000000000000027fffffffffffffffffffffff00ffffffffffffffffffffffffffffffffffffffff90941693909317909255603b54859260399291612a3a91615887565b815260200190815260200160002060006101000a81548173ffffffffffffffffffffffffffffffffffffffff021916908373ffffffffffffffffffffffffffffffffffffffff1602179055506001603b6000828254612a999190615887565b9091555050505050565b612aab613bb9565b73ffffffffffffffffffffffffffffffffffffffff85163b151573adf6B6d4F628Cd21a4648FcF859Df33e975ef0cE635b70017b6040518060400160405280600281526020017f4c500000000000000000000000000000000000000000000000000000000000008152506040518060400160405280600281526020017f32390000000000000000000000000000000000000000000000000000000000008152506040518363ffffffff1660e01b8152600401612b689291906151b6565b600060405180830381865af4158015612b85573d6000803e3d6000fd5b505050506040513d6000823e601f3d9081017fffffffffffffffffffffffffffffffffffffffffffffffffffffffffffffffe0168201604052612bcb919081019061520a565b90612c03576040517f08c379a0000000000000000000000000000000000000000000000000000000008152600401610ad59190614f25565b5073ffffffffffffffffffffffffffffffffffffffff851660009081526035602052604090206001015474010000000000000000000000000000000000000000900460ff16158015612c96575073ffffffffffffffffffffffffffffffffffffffff851660009081526034602052604090206006015474010000000000000000000000000000000000000000900460ff16155b73adf6B6d4F628Cd21a4648FcF859Df33e975ef0cE635b70017b6040518060400160405280600281526020017f4c500000000000000000000000000000000000000000000000000000000000008152506040518060400160405280600281526020017f31350000000000000000000000000000000000000000000000000000000000008152506040518363ffffffff1660e01b8152600401612d399291906151b6565b600060405180830381865af4158015612d56573d6000803e3d6000fd5b505050506040513d6000823e601f3d9081017fffffffffffffffffffffffffffffffffffffffffffffffffffffffffffffffe0168201604052612d9c919081019061520a565b90612dd4576040517f08c379a0000000000000000000000000000000000000000000000000000000008152600401610ad59190614f25565b5073ffffffffffffffffffffffffffffffffffffffff8581166000908152603460205260409081902090517f274f5c5b000000000000000000000000000000000000000000000000000000008152600481019190915260248101869052848216604482015283821660648201529082166084820152732209fb58a557AE00697DE99997be5d88f9EBfb559063274f5c5b9060a40160006040518083038186803b158015612e8057600080fd5b505af4158015612e94573d6000803e3d6000fd5b505050506080603a541073adf6B6d4F628Cd21a4648FcF859Df33e975ef0cE635b70017b6040518060400160405280600281526020017f4c500000000000000000000000000000000000000000000000000000000000008152506040518060400160405280600281526020017f33300000000000000000000000000000000000000000000000000000000000008152506040518363ffffffff1660e01b8152600401612f419291906151b6565b600060405180830381865af4158015612f5e573d6000803e3d6000fd5b505050506040513d6000823e601f3d9081017fffffffffffffffffffffffffffffffffffffffffffffffffffffffffffffffe0168201604052612fa4919081019061520a565b90612fdc576040517f08c379a0000000000000000000000000000000000000000000000000000000008152600401610ad59190614f25565b50603a54612feb906001615862565b73ffffffffffffffffffffffffffffffffffffffff86166000908152603460205260408120600601805460ff9390931674010000000000000000000000000000000000000000027fffffffffffffffffffffff00ffffffffffffffffffffffffffffffffffffffff90931692909217909155603a548691603891613070906001615887565b815260200190815260200160002060006101000a81548173ffffffffffffffffffffffffffffffffffffffff021916908373ffffffffffffffffffffffffffffffffffffffff1602179055506001603a60008282546130cf9190615887565b90915550505050505050565b600054610100900460ff16158080156130fb5750600054600160ff909116105b806131155750303b158015613115575060005460ff166001145b6131a1576040517f08c379a000000000000000000000000000000000000000000000000000000000815260206004820152602e60248201527f496e697469616c697a61626c653a20636f6e747261637420697320616c72656160448201527f647920696e697469616c697a65640000000000000000000000000000000000006064820152608401610ad5565b600080547fffffffffffffffffffffffffffffffffffffffffffffffffffffffffffffff0016600117905580156131ff57600080547fffffffffffffffffffffffffffffffffffffffffffffffffffffffffffff00ff166101001790555b603380547fffffffffffffffffffffffff00000000000000000000000000000000000000001673ffffffffffffffffffffffffffffffffffffffff8416179055613247614712565b801561184a57600080547fffffffffffffffffffffffffffffffffffffffffffffffffffffffffffff00ff169055604051600181527f7f26b83ff96e1f2b6a682f133852f6798a09c465da95921460cefb38474024989060200160405180910390a15050565b600080739B35eEC54BbE3246E6790d680a7d212Da66e192a6337002cf46034603586603360009054906101000a900473ffffffffffffffffffffffffffffffffffffffff1673ffffffffffffffffffffffffffffffffffffffff1663fca513a86040518163ffffffff1660e01b8152600401602060405180830381865afa15801561333c573d6000803e3d6000fd5b505050506040513d601f19601f820116820180604052508101906133609190615016565b6040517fffffffff0000000000000000000000000000000000000000000000000000000060e087901b1681526004810194909452602484019290925273ffffffffffffffffffffffffffffffffffffffff90811660448401521660648201526084016040805180830381865af41580156133de573d6000803e3d6000fd5b505050506040513d601f19601f82011682018060405250810190613402919061589f565b91509150915091565b6060806000603a5467ffffffffffffffff81111561342b5761342b6151db565b604051908082528060200260200182016040528015613454578160200160208202803683370190505b50905060005b603a548110156134eb5760386000613473836001615887565b815260200190815260200160002060009054906101000a900473ffffffffffffffffffffffffffffffffffffffff168282815181106134b4576134b46158c3565b73ffffffffffffffffffffffffffffffffffffffff90921660209283029190910190910152806134e3816158f2565b91505061345a565b506000603b5467ffffffffffffffff811115613509576135096151db565b604051908082528060200260200182016040528015613532578160200160208202803683370190505b50905060005b603b548110156135c95760396000613551836001615887565b815260200190815260200160002060009054906101000a900473ffffffffffffffffffffffffffffffffffffffff16828281518110613592576135926158c3565b73ffffffffffffffffffffffffffffffffffffffff90921660209283029190910190910152806135c1816158f2565b915050613538565b5090939092509050565b73ffffffffffffffffffffffffffffffffffffffff8381166000818152603460205260409081902090517fda9eaeed00000000000000000000000000000000000000000000000000000000815260048101829052602481018690526044810192909252918316606482015273253F8A4d800B904E6184f91281d9CCf6C1c21F429063da9eaeed9060840160006040518083038186803b15801561367557600080fd5b505af4158015613689573d6000803e3d6000fd5b5050505050505050565b6000806000739B35eEC54BbE3246E6790d680a7d212Da66e192a6371251af860346035603860396040518060600160405280603a548152602001603b548152602001603360009054906101000a900473ffffffffffffffffffffffffffffffffffffffff1673ffffffffffffffffffffffffffffffffffffffff1663fca513a86040518163ffffffff1660e01b8152600401602060405180830381865afa158015613742573d6000803e3d6000fd5b505050506040513d601f19601f820116820180604052508101906137669190615016565b73ffffffffffffffffffffffffffffffffffffffff908116909152604080517fffffffff0000000000000000000000000000000000000000000000000000000060e08a901b168152600481019790975260248701959095526044860193909352606485019190915280516084850152602081015160a4850152909101511660c482015260e401606060405180830381865af4158015613809573d6000803e3d6000fd5b505050506040513d601f19601f8201168201806040525081019061382d9190615726565b925092509250909192565b6002600154036138a4576040517f08c379a000000000000000000000000000000000000000000000000000000000815260206004820152601f60248201527f5265656e7472616e637947756172643a207265656e7472616e742063616c6c006044820152606401610ad5565b6002600155565b60018055565b60008160001080156138c35750608082105b73adf6B6d4F628Cd21a4648FcF859Df33e975ef0cE635b70017b6040518060400160405280600281526020017f55430000000000000000000000000000000000000000000000000000000000008152506040518060400160405280600281526020017f32330000000000000000000000000000000000000000000000000000000000008152506040518363ffffffff1660e01b81526004016139669291906151b6565b600060405180830381865af4158015613983573d6000803e3d6000fd5b505050506040513d6000823e601f3d9081017fffffffffffffffffffffffffffffffffffffffffffffffffffffffffffffffe01682016040526139c9919081019061520a565b90613a01576040517f08c379a0000000000000000000000000000000000000000000000000000000008152600401610ad59190614f25565b5060006001613a1184600261592a565b613a1b9190615967565b9390931c6001908116149392505050565b6000826000108015613a3e5750608083105b73adf6B6d4F628Cd21a4648FcF859Df33e975ef0cE635b70017b6040518060400160405280600281526020017f55430000000000000000000000000000000000000000000000000000000000008152506040518060400160405280600281526020017f32330000000000000000000000000000000000000000000000000000000000008152506040518363ffffffff1660e01b8152600401613ae19291906151b6565b600060405180830381865af4158015613afe573d6000803e3d6000fd5b505050506040513d6000823e601f3d9081017fffffffffffffffffffffffffffffffffffffffffffffffffffffffffffffffe0168201604052613b44919081019061520a565b90613b7c576040517f08c379a0000000000000000000000000000000000000000000000000000000008152600401610ad59190614f25565b5060006001613b8c85600261592a565b613b969190615967565b90506001811b8315613bad57851791506116519050565b19851691506116519050565b603354604080517f85c858b10000000000000000000000000000000000000000000000000000000081529051339273ffffffffffffffffffffffffffffffffffffffff16916385c858b19160048083019260209291908290030181865afa158015613c28573d6000803e3d6000fd5b505050506040513d601f19601f82011682018060405250810190613c4c9190615016565b73ffffffffffffffffffffffffffffffffffffffff161473adf6B6d4F628Cd21a4648FcF859Df33e975ef0cE635b70017b6040518060400160405280600281526020017f4c500000000000000000000000000000000000000000000000000000000000008152506040518060400160405280600181526020017f32000000000000000000000000000000000000000000000000000000000000008152506040518363ffffffff1660e01b8152600401613d069291906151b6565b600060405180830381865af4158015613d23573d6000803e3d6000fd5b505050506040513d6000823e601f3d9081017fffffffffffffffffffffffffffffffffffffffffffffffffffffffffffffffe0168201604052613d69919081019061520a565b90613da1576040517f08c379a0000000000000000000000000000000000000000000000000000000008152600401610ad59190614f25565b50565b60008073ffffffffffffffffffffffffffffffffffffffff168273ffffffffffffffffffffffffffffffffffffffff16141573adf6B6d4F628Cd21a4648FcF859Df33e975ef0cE635b70017b6040518060400160405280600181526020017f56000000000000000000000000000000000000000000000000000000000000008152506040518060400160405280600281526020017f31370000000000000000000000000000000000000000000000000000000000008152506040518363ffffffff1660e01b8152600401613e799291906151b6565b600060405180830381865af4158015613e96573d6000803e3d6000fd5b505050506040513d6000823e601f3d9081017fffffffffffffffffffffffffffffffffffffffffffffffffffffffffffffffe0168201604052613edc919081019061520a565b90613f14576040517f08c379a0000000000000000000000000000000000000000000000000000000008152600401610ad59190614f25565b50600684015474010000000000000000000000000000000000000000900460ff16151580613f68575060008080526020879052604090205473ffffffffffffffffffffffffffffffffffffffff8381169116145b80613f915750600183015474010000000000000000000000000000000000000000900460ff1615155b80613fc2575060008080526020869052604090205473ffffffffffffffffffffffffffffffffffffffff8381169116145b6040518060400160405280600281526020017f313600000000000000000000000000000000000000000000000000000000000081525090614030576040517f08c379a0000000000000000000000000000000000000000000000000000000008152600401610ad59190614f25565b50600384015465010000000000900473ffffffffffffffffffffffffffffffffffffffff161561440d57600480850154604080517f18160ddd000000000000000000000000000000000000000000000000000000008152905173ffffffffffffffffffffffffffffffffffffffff909216926318160ddd9282820192602092908290030181865afa1580156140c9573d6000803e3d6000fd5b505050506040513d601f19601f820116820180604052508101906140ed9190615454565b60001473adf6B6d4F628Cd21a4648FcF859Df33e975ef0cE635b70017b6040518060400160405280600181526020017f56000000000000000000000000000000000000000000000000000000000000008152506040518060400160405280600281526020017f31390000000000000000000000000000000000000000000000000000000000008152506040518363ffffffff1660e01b81526004016141939291906151b6565b600060405180830381865af41580156141b0573d6000803e3d6000fd5b505050506040513d6000823e601f3d9081017fffffffffffffffffffffffffffffffffffffffffffffffffffffffffffffffe01682016040526141f6919081019061520a565b9061422e576040517f08c379a0000000000000000000000000000000000000000000000000000000008152600401610ad59190614f25565b508360030160059054906101000a900473ffffffffffffffffffffffffffffffffffffffff1673ffffffffffffffffffffffffffffffffffffffff166318160ddd6040518163ffffffff1660e01b8152600401602060405180830381865afa15801561429e573d6000803e3d6000fd5b505050506040513d601f19601f820116820180604052508101906142c29190615454565b60001473adf6B6d4F628Cd21a4648FcF859Df33e975ef0cE635b70017b6040518060400160405280600181526020017f56000000000000000000000000000000000000000000000000000000000000008152506040518060400160405280600281526020017f31380000000000000000000000000000000000000000000000000000000000008152506040518363ffffffff1660e01b81526004016143689291906151b6565b600060405180830381865af4158015614385573d6000803e3d6000fd5b505050506040513d6000823e601f3d9081017fffffffffffffffffffffffffffffffffffffffffffffffffffffffffffffffe01682016040526143cb919081019061520a565b90614403576040517f08c379a0000000000000000000000000000000000000000000000000000000008152600401610ad59190614f25565b50600090506145e7565b8260010160009054906101000a900473ffffffffffffffffffffffffffffffffffffffff1673ffffffffffffffffffffffffffffffffffffffff166318160ddd6040518163ffffffff1660e01b8152600401602060405180830381865afa15801561447c573d6000803e3d6000fd5b505050506040513d601f19601f820116820180604052508101906144a09190615454565b60001473adf6B6d4F628Cd21a4648FcF859Df33e975ef0cE635b70017b6040518060400160405280600181526020017f56000000000000000000000000000000000000000000000000000000000000008152506040518060400160405280600281526020017f31380000000000000000000000000000000000000000000000000000000000008152506040518363ffffffff1660e01b81526004016145469291906151b6565b600060405180830381865af4158015614563573d6000803e3d6000fd5b505050506040513d6000823e601f3d9081017fffffffffffffffffffffffffffffffffffffffffffffffffffffffffffffffe01682016040526145a9919081019061520a565b906145e1576040517f08c379a0000000000000000000000000000000000000000000000000000000008152600401610ad59190614f25565b50600190505b95945050505050565b600381015460009064ffffffffff9081169042908116820361462857505050600101546fffffffffffffffffffffffffffffffff1690565b600184015460028501546000916145e7916fffffffffffffffffffffffffffffffff91821691614669911661466464ffffffffff881687615967565b6147b3565b906147e7565b600381015460009064ffffffffff908116904290811682036146bb575050506001015470010000000000000000000000000000000090046fffffffffffffffffffffffffffffffff1690565b600184015460028501546000916145e7916fffffffffffffffffffffffffffffffff7001000000000000000000000000000000009283900481169261466992041661470d64ffffffffff881687615967565b614839565b600054610100900460ff166147a9576040517f08c379a000000000000000000000000000000000000000000000000000000000815260206004820152602b60248201527f496e697469616c697a61626c653a20636f6e7472616374206973206e6f74206960448201527f6e697469616c697a696e670000000000000000000000000000000000000000006064820152608401610ad5565b6147b161496b565b565b6000806147c0838561592a565b6301e13380900490506147df816b033b2e3c9fd0803ce8000000615887565b949350505050565b60008215806147f4575081155b1561480157506000610946565b6b033b2e3c9fd0803ce80000006b019d971e4fe8401e74000000614825848661592a565b61482f9190615887565b61165191906159ad565b60008160000361485657506b033b2e3c9fd0803ce8000000610946565b7fffffffffffffffffffffffffffffffffffffffffffffffffffffffffffffffff8201600080806002861161488c576000614891565b600286035b925066038882915c40006148a588806147e7565b816148b2576148b261597e565b0491506301e133806148c483896147e7565b816148d1576148d161597e565b0490506000826148e1868961592a565b6148eb919061592a565b600290049050600082856148ff888b61592a565b614909919061592a565b614913919061592a565b60069004905080826301e1338061492a8b8d61592a565b61493491906159ad565b61494a906b033b2e3c9fd0803ce8000000615887565b6149549190615887565b61495e9190615887565b9998505050505050505050565b600054610100900460ff166138ab576040517f08c379a000000000000000000000000000000000000000000000000000000000815260206004820152602b60248201527f496e697469616c697a61626c653a20636f6e7472616374206973206e6f74206960448201527f6e697469616c697a696e670000000000000000000000000000000000000000006064820152608401610ad5565b60008083601f840112614a1457600080fd5b50813567ffffffffffffffff811115614a2c57600080fd5b6020830191508360208260051b8501011115614a4757600080fd5b9250929050565b73ffffffffffffffffffffffffffffffffffffffff81168114613da157600080fd5b60008060008060008060006080888a031215614a8b57600080fd5b873567ffffffffffffffff80821115614aa357600080fd5b614aaf8b838c01614a02565b909950975060208a0135915080821115614ac857600080fd5b614ad48b838c01614a02565b909750955060408a0135915080821115614aed57600080fd5b50614afa8a828b01614a02565b9094509250506060880135614b0e81614a4e565b8091505092959891949750929550565b600060208284031215614b3057600080fd5b813561165181614a4e565b80358015158114614b4b57600080fd5b919050565b60008060408385031215614b6357600080fd5b8235614b6e81614a4e565b9150614b7c60208401614b3b565b90509250929050565b600080600080600060a08688031215614b9d57600080fd5b8535614ba881614a4e565b94506020860135614bb881614a4e565b93506040860135614bc881614a4e565b94979396509394606081013594506080013592915050565b81518152602080830151610160830191614c0d908401826fffffffffffffffffffffffffffffffff169052565b506040830151614c3160408401826fffffffffffffffffffffffffffffffff169052565b506060830151614c5560608401826fffffffffffffffffffffffffffffffff169052565b506080830151614c7960808401826fffffffffffffffffffffffffffffffff169052565b5060a0830151614c9260a084018264ffffffffff169052565b5060c0830151614cba60c084018273ffffffffffffffffffffffffffffffffffffffff169052565b5060e0830151614ce260e084018273ffffffffffffffffffffffffffffffffffffffff169052565b506101008381015173ffffffffffffffffffffffffffffffffffffffff9081169184019190915261012080850151909116908301526101409283015160ff16929091019190915290565b60008060408385031215614d3f57600080fd5b8235614d4a81614a4e565b91506020830135614d5a81614a4e565b809150509250929050565b60008060008060808587031215614d7b57600080fd5b8435614d8681614a4e565b93506020850135614d9681614a4e565b92506040850135614da681614a4e565b9396929550929360600135925050565b600080600060608486031215614dcb57600080fd5b8335614dd681614a4e565b9250602084013591506040840135614ded81614a4e565b809150509250925092565b60008060008060008060c08789031215614e1157600080fd5b8635614e1c81614a4e565b9550602087013594506040870135614e3381614a4e565b93506060870135614e4381614a4e565b92506080870135614e5381614a4e565b9150614e6160a08801614b3b565b90509295509295509295565b600080600060608486031215614e8257600080fd5b8335614e8d81614a4e565b9250614e9b60208501614b3b565b9150604084013590509250925092565b60005b83811015614ec6578181015183820152602001614eae565b83811115614ed5576000848401525b50505050565b60008151808452614ef3816020860160208601614eab565b601f017fffffffffffffffffffffffffffffffffffffffffffffffffffffffffffffffe0169290920160200192915050565b6020815260006116516020830184614edb565b600080600080600060a08688031215614f5057600080fd5b8535614f5b81614a4e565b9450602086013593506040860135614f7281614a4e565b92506060860135614f8281614a4e565b91506080860135614f9281614a4e565b809150509295509295909350565b600081518084526020808501945080840160005b83811015614fe657815173ffffffffffffffffffffffffffffffffffffffff1687529582019590820190600101614fb4565b509495945050505050565b6040815260006150046040830185614fa0565b82810360208401526145e78185614fa0565b60006020828403121561502857600080fd5b815161165181614a4e565b8183526000602080850194508260005b85811015614fe657813561505681614a4e565b73ffffffffffffffffffffffffffffffffffffffff1687529582019590820190600101615043565b81835260007f07ffffffffffffffffffffffffffffffffffffffffffffffffffffffffffffff8311156150b057600080fd5b8260051b8083602087013760009401602001938452509192915050565b60006101c08e83528d60208401528c60408401528b6060840152615145608084018c80518252602081015160208301526040810151604083015260608101516060830152608081015173ffffffffffffffffffffffffffffffffffffffff80821660808501528060a08401511660a085015250505050565b806101408401526151598184018a8c615033565b905082810361016084015261516f81888a61507e565b905082810361018084015261518581868861507e565b91505073ffffffffffffffffffffffffffffffffffffffff83166101a08301529d9c50505050505050505050505050565b6040815260006151c96040830185614edb565b82810360208401526145e78185614edb565b7f4e487b7100000000000000000000000000000000000000000000000000000000600052604160045260246000fd5b60006020828403121561521c57600080fd5b815167ffffffffffffffff8082111561523457600080fd5b818401915084601f83011261524857600080fd5b81518181111561525a5761525a6151db565b604051601f82017fffffffffffffffffffffffffffffffffffffffffffffffffffffffffffffffe0908116603f011681019083821181831017156152a0576152a06151db565b816040528281528760208487010111156152b957600080fd5b6152ca836020830160208801614eab565b979650505050505050565b600061014082019050868252856020830152846040830152836060830152615351608083018480518252602081015160208301526040810151604083015260608101516060830152608081015173ffffffffffffffffffffffffffffffffffffffff80821660808501528060a08401511660a085015250505050565b9695505050505050565b89815288602082015260c06040820152600061537b60c08301898b615033565b828103606084015261538e81888a61507e565b905082810360808401526153a381868861507e565b91505073ffffffffffffffffffffffffffffffffffffffff831660a08301529a9950505050505050505050565b600060e082840312156153e257600080fd5b60405160e0810181811067ffffffffffffffff82111715615405576154056151db565b8060405250825181526020830151602082015260408301516040820152606083015160608201526080830151608082015260a083015160a082015260c083015160c08201528091505092915050565b60006020828403121561546657600080fd5b5051919050565b60006101c0820190508a82528960208301528860408301528760608301528660808301526154ef60a083018780518252602081015160208301526040810151604083015260608101516060830152608081015173ffffffffffffffffffffffffffffffffffffffff80821660808501528060a08401511660a085015250505050565b73ffffffffffffffffffffffffffffffffffffffff808616610160840152846101808401528084166101a0840152509a9950505050505050505050565b60006101c0820190508a82528960208301528860408301528760608301528660808301526155ae60a083018780518252602081015160208301526040810151604083015260608101516060830152608081015173ffffffffffffffffffffffffffffffffffffffff80821660808501528060a08401511660a085015250505050565b61016082019490945273ffffffffffffffffffffffffffffffffffffffff92831661018082015291166101a0909101529695505050505050565b60006101a08201905089825288602083015287604083015286606083015285608083015261566a60a083018680518252602081015160208301526040810151604083015260608101516060830152608081015173ffffffffffffffffffffffffffffffffffffffff80821660808501528060a08401511660a085015250505050565b73ffffffffffffffffffffffffffffffffffffffff84166101608301528215156101808301529998505050505050505050565b8481526020810184905273ffffffffffffffffffffffffffffffffffffffff8316604082015261012081016145e7606083018480518252602081015160208301526040810151604083015260608101516060830152608081015173ffffffffffffffffffffffffffffffffffffffff80821660808501528060a08401511660a085015250505050565b60008060006060848603121561573b57600080fd5b8351925060208401519150604084015190509250925092565b60006102008201905088825287602083015286604083015285606083015273ffffffffffffffffffffffffffffffffffffffff80861660808401528460a08401526157f460c08401855180518252602081015160208301526040810151604083015260608101516060830152608081015173ffffffffffffffffffffffffffffffffffffffff80821660808501528060a08401511660a085015250505050565b60208401518116610180840152604084015181166101a08401526060840151166101c083015260809092015115156101e0909101529695505050505050565b7f4e487b7100000000000000000000000000000000000000000000000000000000600052601160045260246000fd5b600060ff821660ff84168060ff0382111561587f5761587f615833565b019392505050565b6000821982111561589a5761589a615833565b500190565b600080604083850312156158b257600080fd5b505080516020909101519092909150565b7f4e487b7100000000000000000000000000000000000000000000000000000000600052603260045260246000fd5b60007fffffffffffffffffffffffffffffffffffffffffffffffffffffffffffffffff820361592357615923615833565b5060010190565b6000817fffffffffffffffffffffffffffffffffffffffffffffffffffffffffffffffff048311821515161561596257615962615833565b500290565b60008282101561597957615979615833565b500390565b7f4e487b7100000000000000000000000000000000000000000000000000000000600052601260045260246000fd5b6000826159e3577f4e487b7100000000000000000000000000000000000000000000000000000000600052601260045260246000fd5b50049056fea2646970667358221220cb51649ad6de17e4e4b01a07bbec7a02a0189a232255742720228b2fe752ef2a64736f6c634300080e0033",
  "deployedBytecode": "0x608060405234801561001057600080fd5b50600436106101e55760003560e01c806377a8313e1161010f578063c4d66de8116100a2578063f45346dc11610071578063f45346dc14610675578063f505743a14610688578063f66fdcca1461074c578063f8119d511461075457600080fd5b8063c4d66de814610630578063cca5bffd14610643578063d1946dbc14610656578063e7dc9ef61461066c57600080fd5b806391978826116100de57806391978826146105ae578063a3f4df7e146105c1578063ac4b088c1461060a578063c1b4ab8f1461061d57600080fd5b806377a8313e146105475780637d2fd4cc1461055a578063903e61a4146105885780639100e4a31461059b57600080fd5b80633c34822e1161018757806363c9b8601161015657806363c9b860146104fb57806369328dec1461050e57806369cab562146105215780636c665a551461053457600080fd5b80633c34822e146104595780633ec8e52d1461046c578063416ae7681461047f5780635ceae9c4146104e857600080fd5b80631848effa116101c35780631848effa1461027d5780631854b241146102c257806322829a21146102d557806335ea6a75146102e857600080fd5b806311de1fee146101ea57806316626ab9146101ff578063178c21a51461025c575b600080fd5b6101fd6101f8366004614a70565b61075c565b005b61024261020d366004614b1e565b73ffffffffffffffffffffffffffffffffffffffff166000908152603660209081526040808320546037909252909120549091565b604080519283526020830191909152015b60405180910390f35b61026f61026a366004614b50565b6108ea565b604051908152602001610253565b60335461029d9073ffffffffffffffffffffffffffffffffffffffff1681565b60405173ffffffffffffffffffffffffffffffffffffffff9091168152602001610253565b6101fd6102d0366004614b85565b61094c565b6101fd6102e3366004614a70565b610e86565b61044c6102f6366004614b1e565b6040805161016081018252600080825260208201819052918101829052606081018290526080810182905260a0810182905260c0810182905260e08101829052610100810182905261012081018290526101408101919091525073ffffffffffffffffffffffffffffffffffffffff9081166000908152603460209081526040918290208251610160810184528154815260018201546fffffffffffffffffffffffffffffffff808216948301949094527001000000000000000000000000000000009081900484169482019490945260028201548084166060830152939093049091166080830152600381015464ffffffffff811660a0840152650100000000009004831660c08301526004810154831660e083015260058101548316610100830152600601549182166101208201527401000000000000000000000000000000000000000090910460ff1661014082015290565b6040516102539190614be0565b6101fd610467366004614d2c565b610f21565b6101fd61047a366004614d65565b610f7f565b61049261048d366004614b1e565b6113be565b6040516102539190600060e082019050825182526020830151602083015260408301516040830152606083015160608301526080830151608083015260a083015160a083015260c083015160c083015292915050565b61026f6104f6366004614db6565b61157c565b6101fd610509366004614b1e565b611658565b6101fd61051c366004614db6565b61184e565b61026f61052f366004614b1e565b6119d3565b6101fd610542366004614db6565b611a01565b6101fd610555366004614b50565b611b72565b61056d610568366004614d2c565b611ce3565b60408051938452602084019290925290820152606001610253565b61026f610596366004614b1e565b611e6c565b6101fd6105a9366004614df8565b611e9a565b6101fd6105bc366004614e6d565b6120df565b6105fd6040518060400160405280600281526020017f4c5000000000000000000000000000000000000000000000000000000000000081525081565b6040516102539190614f25565b6101fd610618366004614db6565b61247b565b6101fd61062b366004614f38565b612aa3565b6101fd61063e366004614b1e565b6130db565b610242610651366004614b1e565b6132ad565b61065e61340b565b604051610253929190614ff1565b61026f61010081565b6101fd610683366004614db6565b6135d3565b610711610696366004614b1e565b60408051606080820183526000808352602080840182905292840181905273ffffffffffffffffffffffffffffffffffffffff948516815260358352839020835191820184528054825260010154938416918101919091527401000000000000000000000000000000000000000090920460ff169082015290565b604080518251815260208084015173ffffffffffffffffffffffffffffffffffffffff16908201529181015160ff1690820152606001610253565b61056d613693565b61026f608081565b610764613838565b6040805160c0810182523360008181526036602090815284822054845282825260378152908490205481840152603a5483850152603b546060840152608083019190915260335483517ffca513a8000000000000000000000000000000000000000000000000000000008152935173__$1ce3dea29f5ec368224a8c5aa624cef9ae$__94631526ecfc9460349460359460389460399460a085019373ffffffffffffffffffffffffffffffffffffffff9093169263fca513a8926004808401938290030181865afa15801561083d573d6000803e3d6000fd5b505050506040513d601f19601f820116820180604052508101906108619190615016565b73ffffffffffffffffffffffffffffffffffffffff168152508d8d8d8d8d8d8d6040518d63ffffffff1660e01b81526004016108a89c9b9a999897969594939291906150cd565b60006040518083038186803b1580156108c057600080fd5b505af41580156108d4573d6000803e3d6000fd5b505050506108e160018055565b50505050505050565b6000811561091e575073ffffffffffffffffffffffffffffffffffffffff8216600090815260356020526040902054610946565b5073ffffffffffffffffffffffffffffffffffffffff82166000908152603460205260409020545b92915050565b73ffffffffffffffffffffffffffffffffffffffff8086166000908152603460209081526040918290206003015482518084018452600281527f4c500000000000000000000000000000000000000000000000000000000000008184015283518085018552600181527f36000000000000000000000000000000000000000000000000000000000000009381019390935292517f5b70017b0000000000000000000000000000000000000000000000000000000081523365010000000000909204909416149273__$61422835ae5e51fb34bedcfef91f75f833$__92635b70017b92610a3a926004016151b6565b600060405180830381865af4158015610a57573d6000803e3d6000fd5b505050506040513d6000823e601f3d9081017fffffffffffffffffffffffffffffffffffffffffffffffffffffffffffffffe0168201604052610a9d919081019061520a565b90610ade576040517f08c379a0000000000000000000000000000000000000000000000000000000008152600401610ad59190614f25565b60405180910390fd5b5073ffffffffffffffffffffffffffffffffffffffff85166000908152603460205260408082205490517f041a352d000000000000000000000000000000000000000000000000000000008152600481019190915260248101849052604481019190915273__$49b23b5becc4a0db881be9d6da702c31a0$__9063041a352d9060640160006040518083038186803b158015610b7957600080fd5b505af4158015610b8d573d6000803e3d6000fd5b505050508273ffffffffffffffffffffffffffffffffffffffff168473ffffffffffffffffffffffffffffffffffffffff1614158015610bcc57508115155b15610e7f5773ffffffffffffffffffffffffffffffffffffffff858116600090815260346020908152604080832060060154938816835260369091529020547401000000000000000000000000000000000000000090910460ff1690610c3281836138b1565b156108e1577f5555555555555555555555555555555555555555555555555555555555555555811615610dfe5773__$49b23b5becc4a0db881be9d6da702c31a0$__633264718560346035603860396040518060c00160405280888152602001603760008f73ffffffffffffffffffffffffffffffffffffffff1673ffffffffffffffffffffffffffffffffffffffff168152602001908152602001600020548152602001603a548152602001603b5481526020018d73ffffffffffffffffffffffffffffffffffffffff168152602001603360009054906101000a900473ffffffffffffffffffffffffffffffffffffffff1673ffffffffffffffffffffffffffffffffffffffff1663fca513a86040518163ffffffff1660e01b8152600401602060405180830381865afa158015610d70573d6000803e3d6000fd5b505050506040513d601f19601f82011682018060405250810190610d949190615016565b73ffffffffffffffffffffffffffffffffffffffff168152506040518663ffffffff1660e01b8152600401610dcd9594939291906152d5565b60006040518083038186803b158015610de557600080fd5b505af4158015610df9573d6000803e3d6000fd5b505050505b8383036108e157610e1181836000613a2c565b508573ffffffffffffffffffffffffffffffffffffffff168773ffffffffffffffffffffffffffffffffffffffff167f6577e2a7395d7723b4b430421166c5269712d1766166379838f96f218c5cde4a6000604051610e74911515815260200190565b60405180910390a350505b5050505050565b6040517f23a6dd8b00000000000000000000000000000000000000000000000000000000815273__$1ce3dea29f5ec368224a8c5aa624cef9ae$__906323a6dd8b90610ee8906035906037908c908c908c908c908c908c908c9060040161535b565b60006040518083038186803b158015610f0057600080fd5b505af4158015610f14573d6000803e3d6000fd5b5050505050505050505050565b610f29613bb9565b73ffffffffffffffffffffffffffffffffffffffff918216600090815260346020526040902060050180547fffffffffffffffffffffffff00000000000000000000000000000000000000001691909216179055565b73ffffffffffffffffffffffffffffffffffffffff84811660009081526035602090815260409182902060019081015483518085018552600281527f4c5000000000000000000000000000000000000000000000000000000000000081850152845180860186529283527f36000000000000000000000000000000000000000000000000000000000000009383019390935292517f5b70017b0000000000000000000000000000000000000000000000000000000081529290931633149273__$61422835ae5e51fb34bedcfef91f75f833$__92635b70017b926110679290916004016151b6565b600060405180830381865af4158015611084573d6000803e3d6000fd5b505050506040513d6000823e601f3d9081017fffffffffffffffffffffffffffffffffffffffffffffffffffffffffffffffe01682016040526110ca919081019061520a565b90611102576040517f08c379a0000000000000000000000000000000000000000000000000000000008152600401610ad59190614f25565b5073ffffffffffffffffffffffffffffffffffffffff84166000908152603560205260408082205490517f041a352d000000000000000000000000000000000000000000000000000000008152600481019190915260248101839052604481019190915273__$49b23b5becc4a0db881be9d6da702c31a0$__9063041a352d9060640160006040518083038186803b15801561119d57600080fd5b505af41580156111b1573d6000803e3d6000fd5b5050505073ffffffffffffffffffffffffffffffffffffffff838116600081815260366020526040902054918416148015906111ec57508115155b15610e7f577f5555555555555555555555555555555555555555555555555555555555555555811615610e7f5773__$49b23b5becc4a0db881be9d6da702c31a0$__633264718560346035603860396040518060c00160405280888152602001603760008d73ffffffffffffffffffffffffffffffffffffffff1673ffffffffffffffffffffffffffffffffffffffff168152602001908152602001600020548152602001603a548152602001603b5481526020018b73ffffffffffffffffffffffffffffffffffffffff168152602001603360009054906101000a900473ffffffffffffffffffffffffffffffffffffffff1673ffffffffffffffffffffffffffffffffffffffff1663fca513a86040518163ffffffff1660e01b8152600401602060405180830381865afa15801561132a573d6000803e3d6000fd5b505050506040513d601f19601f8201168201806040525081019061134e9190615016565b73ffffffffffffffffffffffffffffffffffffffff168152506040518663ffffffff1660e01b81526004016113879594939291906152d5565b60006040518083038186803b15801561139f57600080fd5b505af41580156113b3573d6000803e3d6000fd5b505050505050505050565b6113fe6040518060e00160405280600081526020016000815260200160008152602001600081526020016000815260200160008152602001600081525090565b6040805160c08101825273ffffffffffffffffffffffffffffffffffffffff80851660008181526036602090815285822054855282825260378152908590205481850152603a5484860152603b546060850152608084019190915260335484517ffca513a8000000000000000000000000000000000000000000000000000000008152945173__$d1ac568199f3772e8aebd270d75e55a6d5$__9563f74c32ba95603495603595603895603995939460a0860194919093169263fca513a89260048083019391928290030181865afa1580156114de573d6000803e3d6000fd5b505050506040513d601f19601f820116820180604052508101906115029190615016565b73ffffffffffffffffffffffffffffffffffffffff168152506040518663ffffffff1660e01b815260040161153b9594939291906152d5565b60e060405180830381865af4158015611558573d6000803e3d6000fd5b505050506040513d601f19601f8201168201806040525081019061094691906153d0565b73ffffffffffffffffffffffffffffffffffffffff83811660008181526034602052604080822090517f14bd9703000000000000000000000000000000000000000000000000000000008152600481019190915260366024820152604481019290925260648201859052918316608482015273__$eb3b57b2f7b5c89a83de55d6db18b0536a$__906314bd97039060a401602060405180830381865af415801561162a573d6000803e3d6000fd5b505050506040513d601f19601f8201168201806040525081019061164e9190615454565b90505b9392505050565b611660613bb9565b73ffffffffffffffffffffffffffffffffffffffff81166000908152603460209081526040808320603590925282206116a0916038916039919086613da4565b90508015611750575073ffffffffffffffffffffffffffffffffffffffff16600081815260356020818152604080842060018101805474010000000000000000000000000000000000000000900460ff1686526039845291852080547fffffffffffffffffffffffff0000000000000000000000000000000000000000169055948452919052915580547fffffffffffffffffffffff000000000000000000000000000000000000000000169055565b73ffffffffffffffffffffffffffffffffffffffff8216600081815260346020818152604080842060068101805474010000000000000000000000000000000000000000900460ff1686526038845291852080547fffffffffffffffffffffffff0000000000000000000000000000000000000000908116909155958552929091528282556001820183905560028201929092556003810180547fffffffffffffff0000000000000000000000000000000000000000000000000016905560048101805484169055600501805490921690915580547fffffffffffffffffffffff0000000000000000000000000000000000000000001690555b5050565b611856613838565b6040805160c0810182523360008181526036602081815285832054855283835260378152918590205482850152603a5484860152603b546060850152608084019290925260335484517ffca513a8000000000000000000000000000000000000000000000000000000008152945173__$1ce3dea29f5ec368224a8c5aa624cef9ae$__956365f37fab95603495603595603895603995929460a085019373ffffffffffffffffffffffffffffffffffffffff9092169263fca513a8926004808401938290030181865afa158015611931573d6000803e3d6000fd5b505050506040513d601f19601f820116820180604052508101906119559190615016565b73ffffffffffffffffffffffffffffffffffffffff168152508a8a8a6040518a63ffffffff1660e01b81526004016119959998979695949392919061546d565b60006040518083038186803b1580156119ad57600080fd5b505af41580156119c1573d6000803e3d6000fd5b505050506119ce60018055565b505050565b73ffffffffffffffffffffffffffffffffffffffff81166000908152603460205260408120610946906145f0565b6040805160c08101825273ffffffffffffffffffffffffffffffffffffffff80841660008181526036602081815286832054865283835260378152918690205482860152603a5485870152603b546060860152608085019290925260335485517ffca513a8000000000000000000000000000000000000000000000000000000008152955173__$eb3b57b2f7b5c89a83de55d6db18b0536a$__9663272095b4966034966035966038966039969195939460a0860194929093169263fca513a892600480830193928290030181865afa158015611ae2573d6000803e3d6000fd5b505050506040513d601f19601f82011682018060405250810190611b069190615016565b73ffffffffffffffffffffffffffffffffffffffff16815250898b8a6040518a63ffffffff1660e01b8152600401611b469998979695949392919061552c565b60006040518083038186803b158015611b5e57600080fd5b505af41580156108e1573d6000803e3d6000fd5b6040805160c0810182523360008181526036602081815285832054855283835260378152918590205482850152603a5484860152603b546060850152608084019290925260335484517ffca513a8000000000000000000000000000000000000000000000000000000008152945173__$1ce3dea29f5ec368224a8c5aa624cef9ae$__9563c11d580d95603495603595603895603995929460a085019373ffffffffffffffffffffffffffffffffffffffff9092169263fca513a8926004808401938290030181865afa158015611c4d573d6000803e3d6000fd5b505050506040513d601f19601f82011682018060405250810190611c719190615016565b73ffffffffffffffffffffffffffffffffffffffff1681525089896040518963ffffffff1660e01b8152600401611caf9897969594939291906155e8565b60006040518083038186803b158015611cc757600080fd5b505af4158015611cdb573d6000803e3d6000fd5b505050505050565b6040805160c08101825273ffffffffffffffffffffffffffffffffffffffff808516600081815260366020908152858220548552828252603781528582205481860152603a5485870152603b546060860152608085019290925260335485517ffca513a8000000000000000000000000000000000000000000000000000000008152955191958695869573__$d1ac568199f3772e8aebd270d75e55a6d5$__95636ac0885e956034956035958d959460a086019492169263fca513a8926004808401939192918290030181865afa158015611dc2573d6000803e3d6000fd5b505050506040513d601f19601f82011682018060405250810190611de69190615016565b73ffffffffffffffffffffffffffffffffffffffff168152506040518563ffffffff1660e01b8152600401611e1e949392919061569d565b606060405180830381865af4158015611e3b573d6000803e3d6000fd5b505050506040513d601f19601f82011682018060405250810190611e5f9190615726565b9250925092509250925092565b73ffffffffffffffffffffffffffffffffffffffff811660009081526034602052604081206109469061466f565b611ea2613838565b6040805161016081018252600060a0820181815260c0830182905260e08301829052610100830182905261012083018290526101408301829052825260208201819052918101829052606081018290526080810191909152604080516101608101825273ffffffffffffffffffffffffffffffffffffffff8087166000818152603660209081528582205460a0860190815283835260378252918690205460c0860152603a5460e0860152603b5461010086015261012085019290925260335485517ffca513a8000000000000000000000000000000000000000000000000000000008152955194958695929461014087019492169263fca513a8926004808401939192918290030181865afa158015611fc0573d6000803e3d6000fd5b505050506040513d601f19601f82011682018060405250810190611fe49190615016565b73ffffffffffffffffffffffffffffffffffffffff1681525081526020013373ffffffffffffffffffffffffffffffffffffffff1681526020018473ffffffffffffffffffffffffffffffffffffffff1681526020018673ffffffffffffffffffffffffffffffffffffffff168152602001831515815250905073__$81eb085430cddbec7bc4c83cc90f74f0ef$__63422054a760346035603860398c8c886040518863ffffffff1660e01b81526004016120a59796959493929190615754565b60006040518083038186803b1580156120bd57600080fd5b505af41580156120d1573d6000803e3d6000fd5b5050505050611cdb60018055565b6120e7613bb9565b81156122b45773ffffffffffffffffffffffffffffffffffffffff8316600090815260356020908152604091829020600101548251808401845260028082527f4c5000000000000000000000000000000000000000000000000000000000000082850152845180860186529081527f31360000000000000000000000000000000000000000000000000000000000009381019390935292517f5b70017b0000000000000000000000000000000000000000000000000000000081527401000000000000000000000000000000000000000090910460ff1615159273__$61422835ae5e51fb34bedcfef91f75f833$__92635b70017b926121eb9291906004016151b6565b600060405180830381865af4158015612208573d6000803e3d6000fd5b505050506040513d6000823e601f3d9081017fffffffffffffffffffffffffffffffffffffffffffffffffffffffffffffffe016820160405261224e919081019061520a565b90612286576040517f08c379a0000000000000000000000000000000000000000000000000000000008152600401610ad59190614f25565b5073ffffffffffffffffffffffffffffffffffffffff83166000908152603560205260409020819055505050565b73ffffffffffffffffffffffffffffffffffffffff8316600090815260346020908152604091829020600601548251808401845260028082527f4c5000000000000000000000000000000000000000000000000000000000000082850152845180860186529081527f31360000000000000000000000000000000000000000000000000000000000009381019390935292517f5b70017b0000000000000000000000000000000000000000000000000000000081527401000000000000000000000000000000000000000090910460ff1615159273__$61422835ae5e51fb34bedcfef91f75f833$__92635b70017b926123b29291906004016151b6565b600060405180830381865af41580156123cf573d6000803e3d6000fd5b505050506040513d6000823e601f3d9081017fffffffffffffffffffffffffffffffffffffffffffffffffffffffffffffffe0168201604052612415919081019061520a565b9061244d576040517f08c379a0000000000000000000000000000000000000000000000000000000008152600401610ad59190614f25565b5073ffffffffffffffffffffffffffffffffffffffff83166000908152603460205260409020819055505050565b612483613bb9565b73ffffffffffffffffffffffffffffffffffffffff83163b151573__$61422835ae5e51fb34bedcfef91f75f833$__635b70017b6040518060400160405280600281526020017f4c500000000000000000000000000000000000000000000000000000000000008152506040518060400160405280600281526020017f32390000000000000000000000000000000000000000000000000000000000008152506040518363ffffffff1660e01b81526004016125409291906151b6565b600060405180830381865af415801561255d573d6000803e3d6000fd5b505050506040513d6000823e601f3d9081017fffffffffffffffffffffffffffffffffffffffffffffffffffffffffffffffe01682016040526125a3919081019061520a565b906125db576040517f08c379a0000000000000000000000000000000000000000000000000000000008152600401610ad59190614f25565b5073ffffffffffffffffffffffffffffffffffffffff831660009081526035602052604090206001015474010000000000000000000000000000000000000000900460ff1615801561266e575073ffffffffffffffffffffffffffffffffffffffff831660009081526034602052604090206006015474010000000000000000000000000000000000000000900460ff16155b73__$61422835ae5e51fb34bedcfef91f75f833$__635b70017b6040518060400160405280600281526020017f4c500000000000000000000000000000000000000000000000000000000000008152506040518060400160405280600281526020017f31350000000000000000000000000000000000000000000000000000000000008152506040518363ffffffff1660e01b81526004016127119291906151b6565b600060405180830381865af415801561272e573d6000803e3d6000fd5b505050506040513d6000823e601f3d9081017fffffffffffffffffffffffffffffffffffffffffffffffffffffffffffffffe0168201604052612774919081019061520a565b906127ac576040517f08c379a0000000000000000000000000000000000000000000000000000000008152600401610ad59190614f25565b5073ffffffffffffffffffffffffffffffffffffffff8381166000908152603560205260409081902090517f38f98890000000000000000000000000000000000000000000000000000000008152600481019190915260248101849052908216604482015273__$1dd31b2b6afa536aed409f4dea44446001$__906338f988909060640160006040518083038186803b15801561284857600080fd5b505af415801561285c573d6000803e3d6000fd5b50505050610100603b541073__$61422835ae5e51fb34bedcfef91f75f833$__635b70017b6040518060400160405280600281526020017f4c500000000000000000000000000000000000000000000000000000000000008152506040518060400160405280600281526020017f33310000000000000000000000000000000000000000000000000000000000008152506040518363ffffffff1660e01b815260040161290a9291906151b6565b600060405180830381865af4158015612927573d6000803e3d6000fd5b505050506040513d6000823e601f3d9081017fffffffffffffffffffffffffffffffffffffffffffffffffffffffffffffffe016820160405261296d919081019061520a565b906129a5576040517f08c379a0000000000000000000000000000000000000000000000000000000008152600401610ad59190614f25565b50603b546129b4906001615862565b73ffffffffffffffffffffffffffffffffffffffff841660009081526035602052604081206001908101805460ff9490941674010000000000000000000000000000000000000000027fffffffffffffffffffffff00ffffffffffffffffffffffffffffffffffffffff90941693909317909255603b54859260399291612a3a91615887565b815260200190815260200160002060006101000a81548173ffffffffffffffffffffffffffffffffffffffff021916908373ffffffffffffffffffffffffffffffffffffffff1602179055506001603b6000828254612a999190615887565b9091555050505050565b612aab613bb9565b73ffffffffffffffffffffffffffffffffffffffff85163b151573__$61422835ae5e51fb34bedcfef91f75f833$__635b70017b6040518060400160405280600281526020017f4c500000000000000000000000000000000000000000000000000000000000008152506040518060400160405280600281526020017f32390000000000000000000000000000000000000000000000000000000000008152506040518363ffffffff1660e01b8152600401612b689291906151b6565b600060405180830381865af4158015612b85573d6000803e3d6000fd5b505050506040513d6000823e601f3d9081017fffffffffffffffffffffffffffffffffffffffffffffffffffffffffffffffe0168201604052612bcb919081019061520a565b90612c03576040517f08c379a0000000000000000000000000000000000000000000000000000000008152600401610ad59190614f25565b5073ffffffffffffffffffffffffffffffffffffffff851660009081526035602052604090206001015474010000000000000000000000000000000000000000900460ff16158015612c96575073ffffffffffffffffffffffffffffffffffffffff851660009081526034602052604090206006015474010000000000000000000000000000000000000000900460ff16155b73__$61422835ae5e51fb34bedcfef91f75f833$__635b70017b6040518060400160405280600281526020017f4c500000000000000000000000000000000000000000000000000000000000008152506040518060400160405280600281526020017f31350000000000000000000000000000000000000000000000000000000000008152506040518363ffffffff1660e01b8152600401612d399291906151b6565b600060405180830381865af4158015612d56573d6000803e3d6000fd5b505050506040513d6000823e601f3d9081017fffffffffffffffffffffffffffffffffffffffffffffffffffffffffffffffe0168201604052612d9c919081019061520a565b90612dd4576040517f08c379a0000000000000000000000000000000000000000000000000000000008152600401610ad59190614f25565b5073ffffffffffffffffffffffffffffffffffffffff8581166000908152603460205260409081902090517f274f5c5b00000000000000000000000000000000000000000000000000000000815260048101919091526024810186905284821660448201528382166064820152908216608482015273__$33f762cd251e217ce6a144dc37d658fca4$__9063274f5c5b9060a40160006040518083038186803b158015612e8057600080fd5b505af4158015612e94573d6000803e3d6000fd5b505050506080603a541073__$61422835ae5e51fb34bedcfef91f75f833$__635b70017b6040518060400160405280600281526020017f4c500000000000000000000000000000000000000000000000000000000000008152506040518060400160405280600281526020017f33300000000000000000000000000000000000000000000000000000000000008152506040518363ffffffff1660e01b8152600401612f419291906151b6565b600060405180830381865af4158015612f5e573d6000803e3d6000fd5b505050506040513d6000823e601f3d9081017fffffffffffffffffffffffffffffffffffffffffffffffffffffffffffffffe0168201604052612fa4919081019061520a565b90612fdc576040517f08c379a0000000000000000000000000000000000000000000000000000000008152600401610ad59190614f25565b50603a54612feb906001615862565b73ffffffffffffffffffffffffffffffffffffffff86166000908152603460205260408120600601805460ff9390931674010000000000000000000000000000000000000000027fffffffffffffffffffffff00ffffffffffffffffffffffffffffffffffffffff90931692909217909155603a548691603891613070906001615887565b815260200190815260200160002060006101000a81548173ffffffffffffffffffffffffffffffffffffffff021916908373ffffffffffffffffffffffffffffffffffffffff1602179055506001603a60008282546130cf9190615887565b90915550505050505050565b600054610100900460ff16158080156130fb5750600054600160ff909116105b806131155750303b158015613115575060005460ff166001145b6131a1576040517f08c379a000000000000000000000000000000000000000000000000000000000815260206004820152602e60248201527f496e697469616c697a61626c653a20636f6e747261637420697320616c72656160448201527f647920696e697469616c697a65640000000000000000000000000000000000006064820152608401610ad5565b600080547fffffffffffffffffffffffffffffffffffffffffffffffffffffffffffffff0016600117905580156131ff57600080547fffffffffffffffffffffffffffffffffffffffffffffffffffffffffffff00ff166101001790555b603380547fffffffffffffffffffffffff00000000000000000000000000000000000000001673ffffffffffffffffffffffffffffffffffffffff8416179055613247614712565b801561184a57600080547fffffffffffffffffffffffffffffffffffffffffffffffffffffffffffff00ff169055604051600181527f7f26b83ff96e1f2b6a682f133852f6798a09c465da95921460cefb38474024989060200160405180910390a15050565b60008073__$65820f34e67aa7e6420fb74324c04c50d3$__6337002cf46034603586603360009054906101000a900473ffffffffffffffffffffffffffffffffffffffff1673ffffffffffffffffffffffffffffffffffffffff1663fca513a86040518163ffffffff1660e01b8152600401602060405180830381865afa15801561333c573d6000803e3d6000fd5b505050506040513d601f19601f820116820180604052508101906133609190615016565b6040517fffffffff0000000000000000000000000000000000000000000000000000000060e087901b1681526004810194909452602484019290925273ffffffffffffffffffffffffffffffffffffffff90811660448401521660648201526084016040805180830381865af41580156133de573d6000803e3d6000fd5b505050506040513d601f19601f82011682018060405250810190613402919061589f565b91509150915091565b6060806000603a5467ffffffffffffffff81111561342b5761342b6151db565b604051908082528060200260200182016040528015613454578160200160208202803683370190505b50905060005b603a548110156134eb5760386000613473836001615887565b815260200190815260200160002060009054906101000a900473ffffffffffffffffffffffffffffffffffffffff168282815181106134b4576134b46158c3565b73ffffffffffffffffffffffffffffffffffffffff90921660209283029190910190910152806134e3816158f2565b91505061345a565b506000603b5467ffffffffffffffff811115613509576135096151db565b604051908082528060200260200182016040528015613532578160200160208202803683370190505b50905060005b603b548110156135c95760396000613551836001615887565b815260200190815260200160002060009054906101000a900473ffffffffffffffffffffffffffffffffffffffff16828281518110613592576135926158c3565b73ffffffffffffffffffffffffffffffffffffffff90921660209283029190910190910152806135c1816158f2565b915050613538565b5090939092509050565b73ffffffffffffffffffffffffffffffffffffffff8381166000818152603460205260409081902090517fda9eaeed00000000000000000000000000000000000000000000000000000000815260048101829052602481018690526044810192909252918316606482015273__$1ce3dea29f5ec368224a8c5aa624cef9ae$__9063da9eaeed9060840160006040518083038186803b15801561367557600080fd5b505af4158015613689573d6000803e3d6000fd5b5050505050505050565b600080600073__$65820f34e67aa7e6420fb74324c04c50d3$__6371251af860346035603860396040518060600160405280603a548152602001603b548152602001603360009054906101000a900473ffffffffffffffffffffffffffffffffffffffff1673ffffffffffffffffffffffffffffffffffffffff1663fca513a86040518163ffffffff1660e01b8152600401602060405180830381865afa158015613742573d6000803e3d6000fd5b505050506040513d601f19601f820116820180604052508101906137669190615016565b73ffffffffffffffffffffffffffffffffffffffff908116909152604080517fffffffff0000000000000000000000000000000000000000000000000000000060e08a901b168152600481019790975260248701959095526044860193909352606485019190915280516084850152602081015160a4850152909101511660c482015260e401606060405180830381865af4158015613809573d6000803e3d6000fd5b505050506040513d601f19601f8201168201806040525081019061382d9190615726565b925092509250909192565b6002600154036138a4576040517f08c379a000000000000000000000000000000000000000000000000000000000815260206004820152601f60248201527f5265656e7472616e637947756172643a207265656e7472616e742063616c6c006044820152606401610ad5565b6002600155565b60018055565b60008160001080156138c35750608082105b73__$61422835ae5e51fb34bedcfef91f75f833$__635b70017b6040518060400160405280600281526020017f55430000000000000000000000000000000000000000000000000000000000008152506040518060400160405280600281526020017f32330000000000000000000000000000000000000000000000000000000000008152506040518363ffffffff1660e01b81526004016139669291906151b6565b600060405180830381865af4158015613983573d6000803e3d6000fd5b505050506040513d6000823e601f3d9081017fffffffffffffffffffffffffffffffffffffffffffffffffffffffffffffffe01682016040526139c9919081019061520a565b90613a01576040517f08c379a0000000000000000000000000000000000000000000000000000000008152600401610ad59190614f25565b5060006001613a1184600261592a565b613a1b9190615967565b9390931c6001908116149392505050565b6000826000108015613a3e5750608083105b73__$61422835ae5e51fb34bedcfef91f75f833$__635b70017b6040518060400160405280600281526020017f55430000000000000000000000000000000000000000000000000000000000008152506040518060400160405280600281526020017f32330000000000000000000000000000000000000000000000000000000000008152506040518363ffffffff1660e01b8152600401613ae19291906151b6565b600060405180830381865af4158015613afe573d6000803e3d6000fd5b505050506040513d6000823e601f3d9081017fffffffffffffffffffffffffffffffffffffffffffffffffffffffffffffffe0168201604052613b44919081019061520a565b90613b7c576040517f08c379a0000000000000000000000000000000000000000000000000000000008152600401610ad59190614f25565b5060006001613b8c85600261592a565b613b969190615967565b90506001811b8315613bad57851791506116519050565b19851691506116519050565b603354604080517f85c858b10000000000000000000000000000000000000000000000000000000081529051339273ffffffffffffffffffffffffffffffffffffffff16916385c858b19160048083019260209291908290030181865afa158015613c28573d6000803e3d6000fd5b505050506040513d601f19601f82011682018060405250810190613c4c9190615016565b73ffffffffffffffffffffffffffffffffffffffff161473__$61422835ae5e51fb34bedcfef91f75f833$__635b70017b6040518060400160405280600281526020017f4c500000000000000000000000000000000000000000000000000000000000008152506040518060400160405280600181526020017f32000000000000000000000000000000000000000000000000000000000000008152506040518363ffffffff1660e01b8152600401613d069291906151b6565b600060405180830381865af4158015613d23573d6000803e3d6000fd5b505050506040513d6000823e601f3d9081017fffffffffffffffffffffffffffffffffffffffffffffffffffffffffffffffe0168201604052613d69919081019061520a565b90613da1576040517f08c379a0000000000000000000000000000000000000000000000000000000008152600401610ad59190614f25565b50565b60008073ffffffffffffffffffffffffffffffffffffffff168273ffffffffffffffffffffffffffffffffffffffff16141573__$61422835ae5e51fb34bedcfef91f75f833$__635b70017b6040518060400160405280600181526020017f56000000000000000000000000000000000000000000000000000000000000008152506040518060400160405280600281526020017f31370000000000000000000000000000000000000000000000000000000000008152506040518363ffffffff1660e01b8152600401613e799291906151b6565b600060405180830381865af4158015613e96573d6000803e3d6000fd5b505050506040513d6000823e601f3d9081017fffffffffffffffffffffffffffffffffffffffffffffffffffffffffffffffe0168201604052613edc919081019061520a565b90613f14576040517f08c379a0000000000000000000000000000000000000000000000000000000008152600401610ad59190614f25565b50600684015474010000000000000000000000000000000000000000900460ff16151580613f68575060008080526020879052604090205473ffffffffffffffffffffffffffffffffffffffff8381169116145b80613f915750600183015474010000000000000000000000000000000000000000900460ff1615155b80613fc2575060008080526020869052604090205473ffffffffffffffffffffffffffffffffffffffff8381169116145b6040518060400160405280600281526020017f313600000000000000000000000000000000000000000000000000000000000081525090614030576040517f08c379a0000000000000000000000000000000000000000000000000000000008152600401610ad59190614f25565b50600384015465010000000000900473ffffffffffffffffffffffffffffffffffffffff161561440d57600480850154604080517f18160ddd000000000000000000000000000000000000000000000000000000008152905173ffffffffffffffffffffffffffffffffffffffff909216926318160ddd9282820192602092908290030181865afa1580156140c9573d6000803e3d6000fd5b505050506040513d601f19601f820116820180604052508101906140ed9190615454565b60001473__$61422835ae5e51fb34bedcfef91f75f833$__635b70017b6040518060400160405280600181526020017f56000000000000000000000000000000000000000000000000000000000000008152506040518060400160405280600281526020017f31390000000000000000000000000000000000000000000000000000000000008152506040518363ffffffff1660e01b81526004016141939291906151b6565b600060405180830381865af41580156141b0573d6000803e3d6000fd5b505050506040513d6000823e601f3d9081017fffffffffffffffffffffffffffffffffffffffffffffffffffffffffffffffe01682016040526141f6919081019061520a565b9061422e576040517f08c379a0000000000000000000000000000000000000000000000000000000008152600401610ad59190614f25565b508360030160059054906101000a900473ffffffffffffffffffffffffffffffffffffffff1673ffffffffffffffffffffffffffffffffffffffff166318160ddd6040518163ffffffff1660e01b8152600401602060405180830381865afa15801561429e573d6000803e3d6000fd5b505050506040513d601f19601f820116820180604052508101906142c29190615454565b60001473__$61422835ae5e51fb34bedcfef91f75f833$__635b70017b6040518060400160405280600181526020017f56000000000000000000000000000000000000000000000000000000000000008152506040518060400160405280600281526020017f31380000000000000000000000000000000000000000000000000000000000008152506040518363ffffffff1660e01b81526004016143689291906151b6565b600060405180830381865af4158015614385573d6000803e3d6000fd5b505050506040513d6000823e601f3d9081017fffffffffffffffffffffffffffffffffffffffffffffffffffffffffffffffe01682016040526143cb919081019061520a565b90614403576040517f08c379a0000000000000000000000000000000000000000000000000000000008152600401610ad59190614f25565b50600090506145e7565b8260010160009054906101000a900473ffffffffffffffffffffffffffffffffffffffff1673ffffffffffffffffffffffffffffffffffffffff166318160ddd6040518163ffffffff1660e01b8152600401602060405180830381865afa15801561447c573d6000803e3d6000fd5b505050506040513d601f19601f820116820180604052508101906144a09190615454565b60001473__$61422835ae5e51fb34bedcfef91f75f833$__635b70017b6040518060400160405280600181526020017f56000000000000000000000000000000000000000000000000000000000000008152506040518060400160405280600281526020017f31380000000000000000000000000000000000000000000000000000000000008152506040518363ffffffff1660e01b81526004016145469291906151b6565b600060405180830381865af4158015614563573d6000803e3d6000fd5b505050506040513d6000823e601f3d9081017fffffffffffffffffffffffffffffffffffffffffffffffffffffffffffffffe01682016040526145a9919081019061520a565b906145e1576040517f08c379a0000000000000000000000000000000000000000000000000000000008152600401610ad59190614f25565b50600190505b95945050505050565b600381015460009064ffffffffff9081169042908116820361462857505050600101546fffffffffffffffffffffffffffffffff1690565b600184015460028501546000916145e7916fffffffffffffffffffffffffffffffff91821691614669911661466464ffffffffff881687615967565b6147b3565b906147e7565b600381015460009064ffffffffff908116904290811682036146bb575050506001015470010000000000000000000000000000000090046fffffffffffffffffffffffffffffffff1690565b600184015460028501546000916145e7916fffffffffffffffffffffffffffffffff7001000000000000000000000000000000009283900481169261466992041661470d64ffffffffff881687615967565b614839565b600054610100900460ff166147a9576040517f08c379a000000000000000000000000000000000000000000000000000000000815260206004820152602b60248201527f496e697469616c697a61626c653a20636f6e7472616374206973206e6f74206960448201527f6e697469616c697a696e670000000000000000000000000000000000000000006064820152608401610ad5565b6147b161496b565b565b6000806147c0838561592a565b6301e13380900490506147df816b033b2e3c9fd0803ce8000000615887565b949350505050565b60008215806147f4575081155b1561480157506000610946565b6b033b2e3c9fd0803ce80000006b019d971e4fe8401e74000000614825848661592a565b61482f9190615887565b61165191906159ad565b60008160000361485657506b033b2e3c9fd0803ce8000000610946565b7fffffffffffffffffffffffffffffffffffffffffffffffffffffffffffffffff8201600080806002861161488c576000614891565b600286035b925066038882915c40006148a588806147e7565b816148b2576148b261597e565b0491506301e133806148c483896147e7565b816148d1576148d161597e565b0490506000826148e1868961592a565b6148eb919061592a565b600290049050600082856148ff888b61592a565b614909919061592a565b614913919061592a565b60069004905080826301e1338061492a8b8d61592a565b61493491906159ad565b61494a906b033b2e3c9fd0803ce8000000615887565b6149549190615887565b61495e9190615887565b9998505050505050505050565b600054610100900460ff166138ab576040517f08c379a000000000000000000000000000000000000000000000000000000000815260206004820152602b60248201527f496e697469616c697a61626c653a20636f6e7472616374206973206e6f74206960448201527f6e697469616c697a696e670000000000000000000000000000000000000000006064820152608401610ad5565b60008083601f840112614a1457600080fd5b50813567ffffffffffffffff811115614a2c57600080fd5b6020830191508360208260051b8501011115614a4757600080fd5b9250929050565b73ffffffffffffffffffffffffffffffffffffffff81168114613da157600080fd5b60008060008060008060006080888a031215614a8b57600080fd5b873567ffffffffffffffff80821115614aa357600080fd5b614aaf8b838c01614a02565b909950975060208a0135915080821115614ac857600080fd5b614ad48b838c01614a02565b909750955060408a0135915080821115614aed57600080fd5b50614afa8a828b01614a02565b9094509250506060880135614b0e81614a4e565b8091505092959891949750929550565b600060208284031215614b3057600080fd5b813561165181614a4e565b80358015158114614b4b57600080fd5b919050565b60008060408385031215614b6357600080fd5b8235614b6e81614a4e565b9150614b7c60208401614b3b565b90509250929050565b600080600080600060a08688031215614b9d57600080fd5b8535614ba881614a4e565b94506020860135614bb881614a4e565b93506040860135614bc881614a4e565b94979396509394606081013594506080013592915050565b81518152602080830151610160830191614c0d908401826fffffffffffffffffffffffffffffffff169052565b506040830151614c3160408401826fffffffffffffffffffffffffffffffff169052565b506060830151614c5560608401826fffffffffffffffffffffffffffffffff169052565b506080830151614c7960808401826fffffffffffffffffffffffffffffffff169052565b5060a0830151614c9260a084018264ffffffffff169052565b5060c0830151614cba60c084018273ffffffffffffffffffffffffffffffffffffffff169052565b5060e0830151614ce260e084018273ffffffffffffffffffffffffffffffffffffffff169052565b506101008381015173ffffffffffffffffffffffffffffffffffffffff9081169184019190915261012080850151909116908301526101409283015160ff16929091019190915290565b60008060408385031215614d3f57600080fd5b8235614d4a81614a4e565b91506020830135614d5a81614a4e565b809150509250929050565b60008060008060808587031215614d7b57600080fd5b8435614d8681614a4e565b93506020850135614d9681614a4e565b92506040850135614da681614a4e565b9396929550929360600135925050565b600080600060608486031215614dcb57600080fd5b8335614dd681614a4e565b9250602084013591506040840135614ded81614a4e565b809150509250925092565b60008060008060008060c08789031215614e1157600080fd5b8635614e1c81614a4e565b9550602087013594506040870135614e3381614a4e565b93506060870135614e4381614a4e565b92506080870135614e5381614a4e565b9150614e6160a08801614b3b565b90509295509295509295565b600080600060608486031215614e8257600080fd5b8335614e8d81614a4e565b9250614e9b60208501614b3b565b9150604084013590509250925092565b60005b83811015614ec6578181015183820152602001614eae565b83811115614ed5576000848401525b50505050565b60008151808452614ef3816020860160208601614eab565b601f017fffffffffffffffffffffffffffffffffffffffffffffffffffffffffffffffe0169290920160200192915050565b6020815260006116516020830184614edb565b600080600080600060a08688031215614f5057600080fd5b8535614f5b81614a4e565b9450602086013593506040860135614f7281614a4e565b92506060860135614f8281614a4e565b91506080860135614f9281614a4e565b809150509295509295909350565b600081518084526020808501945080840160005b83811015614fe657815173ffffffffffffffffffffffffffffffffffffffff1687529582019590820190600101614fb4565b509495945050505050565b6040815260006150046040830185614fa0565b82810360208401526145e78185614fa0565b60006020828403121561502857600080fd5b815161165181614a4e565b8183526000602080850194508260005b85811015614fe657813561505681614a4e565b73ffffffffffffffffffffffffffffffffffffffff1687529582019590820190600101615043565b81835260007f07ffffffffffffffffffffffffffffffffffffffffffffffffffffffffffffff8311156150b057600080fd5b8260051b8083602087013760009401602001938452509192915050565b60006101c08e83528d60208401528c60408401528b6060840152615145608084018c80518252602081015160208301526040810151604083015260608101516060830152608081015173ffffffffffffffffffffffffffffffffffffffff80821660808501528060a08401511660a085015250505050565b806101408401526151598184018a8c615033565b905082810361016084015261516f81888a61507e565b905082810361018084015261518581868861507e565b91505073ffffffffffffffffffffffffffffffffffffffff83166101a08301529d9c50505050505050505050505050565b6040815260006151c96040830185614edb565b82810360208401526145e78185614edb565b7f4e487b7100000000000000000000000000000000000000000000000000000000600052604160045260246000fd5b60006020828403121561521c57600080fd5b815167ffffffffffffffff8082111561523457600080fd5b818401915084601f83011261524857600080fd5b81518181111561525a5761525a6151db565b604051601f82017fffffffffffffffffffffffffffffffffffffffffffffffffffffffffffffffe0908116603f011681019083821181831017156152a0576152a06151db565b816040528281528760208487010111156152b957600080fd5b6152ca836020830160208801614eab565b979650505050505050565b600061014082019050868252856020830152846040830152836060830152615351608083018480518252602081015160208301526040810151604083015260608101516060830152608081015173ffffffffffffffffffffffffffffffffffffffff80821660808501528060a08401511660a085015250505050565b9695505050505050565b89815288602082015260c06040820152600061537b60c08301898b615033565b828103606084015261538e81888a61507e565b905082810360808401526153a381868861507e565b91505073ffffffffffffffffffffffffffffffffffffffff831660a08301529a9950505050505050505050565b600060e082840312156153e257600080fd5b60405160e0810181811067ffffffffffffffff82111715615405576154056151db565b8060405250825181526020830151602082015260408301516040820152606083015160608201526080830151608082015260a083015160a082015260c083015160c08201528091505092915050565b60006020828403121561546657600080fd5b5051919050565b60006101c0820190508a82528960208301528860408301528760608301528660808301526154ef60a083018780518252602081015160208301526040810151604083015260608101516060830152608081015173ffffffffffffffffffffffffffffffffffffffff80821660808501528060a08401511660a085015250505050565b73ffffffffffffffffffffffffffffffffffffffff808616610160840152846101808401528084166101a0840152509a9950505050505050505050565b60006101c0820190508a82528960208301528860408301528760608301528660808301526155ae60a083018780518252602081015160208301526040810151604083015260608101516060830152608081015173ffffffffffffffffffffffffffffffffffffffff80821660808501528060a08401511660a085015250505050565b61016082019490945273ffffffffffffffffffffffffffffffffffffffff92831661018082015291166101a0909101529695505050505050565b60006101a08201905089825288602083015287604083015286606083015285608083015261566a60a083018680518252602081015160208301526040810151604083015260608101516060830152608081015173ffffffffffffffffffffffffffffffffffffffff80821660808501528060a08401511660a085015250505050565b73ffffffffffffffffffffffffffffffffffffffff84166101608301528215156101808301529998505050505050505050565b8481526020810184905273ffffffffffffffffffffffffffffffffffffffff8316604082015261012081016145e7606083018480518252602081015160208301526040810151604083015260608101516060830152608081015173ffffffffffffffffffffffffffffffffffffffff80821660808501528060a08401511660a085015250505050565b60008060006060848603121561573b57600080fd5b8351925060208401519150604084015190509250925092565b60006102008201905088825287602083015286604083015285606083015273ffffffffffffffffffffffffffffffffffffffff80861660808401528460a08401526157f460c08401855180518252602081015160208301526040810151604083015260608101516060830152608081015173ffffffffffffffffffffffffffffffffffffffff80821660808501528060a08401511660a085015250505050565b60208401518116610180840152604084015181166101a08401526060840151166101c083015260809092015115156101e0909101529695505050505050565b7f4e487b7100000000000000000000000000000000000000000000000000000000600052601160045260246000fd5b600060ff821660ff84168060ff0382111561587f5761587f615833565b019392505050565b6000821982111561589a5761589a615833565b500190565b600080604083850312156158b257600080fd5b505080516020909101519092909150565b7f4e487b7100000000000000000000000000000000000000000000000000000000600052603260045260246000fd5b60007fffffffffffffffffffffffffffffffffffffffffffffffffffffffffffffffff820361592357615923615833565b5060010190565b6000817fffffffffffffffffffffffffffffffffffffffffffffffffffffffffffffffff048311821515161561596257615962615833565b500290565b60008282101561597957615979615833565b500390565b7f4e487b7100000000000000000000000000000000000000000000000000000000600052601260045260246000fd5b6000826159e3577f4e487b7100000000000000000000000000000000000000000000000000000000600052601260045260246000fd5b50049056fea2646970667358221220cb51649ad6de17e4e4b01a07bbec7a02a0189a232255742720228b2fe752ef2a64736f6c634300080e0033",
  "libraries": {
    "Errors": "0xadf6B6d4F628Cd21a4648FcF859Df33e975ef0cE",
    "Reserve": "0x2209fb58a557AE00697DE99997be5d88f9EBfb55",
    "NFTReserve": "0x4a1DbbB24d3d6d368630Ee6f67D8B47d5C3F6203",
    "ReserveConfigurator": "0x1435D054d26B601c752407937BD60698Efd3c649",
    "UserConfigurator": "0xa4a58439A6A0b51be0b66b007A0d89c04d154466",
    "UserNftConfigurator": "0xE582F2536b4a27634013A65A4476Dc4820dCdFaC",
    "UserVariableCalculator": "0xeb202543B4FEf4e51c98116e714DBEC048f0404d",
    "ReserveVariableCalculator": "0x9B35eEC54BbE3246E6790d680a7d212Da66e192a",
    "Validator": "0x38d7C2aE08c3080cE1d5a1cBF4B437D6d9CCEFFF",
    "DepositExecutor": "0x253F8A4d800B904E6184f91281d9CCf6C1c21F42",
    "BorrowExecutor": "0x51Ae44B191Ad79C217c178BeaD9606A59701aBaf",
    "LiquidationExecutor": "0xe1c29C0fbF6DD761B912920bca197675549dE20a"
  },
  "devdoc": {
    "author": "Taker",
    "details": "Core functions of Taker lending protocol*",
    "kind": "dev",
    "methods": {
      "borrow(address,uint256,address)": {
        "details": "Borrows amount of asset if have enough collaterals. Receives corresponding debt tokens      User can borrow from another address if credit is delegated",
        "params": {
          "amount": "The amount to borrow",
          "asset": "The address of the asset to borrow",
          "from": "Address that receving the debt.*"
        }
      },
      "deposit(address,uint256,address)": {
        "details": "Deposits an `amount` of borrowable underlying asset into the reserve, receives overlying tTokens.",
        "params": {
          "amount": "The amount to be deposited",
          "asset": "The address of the underlying asset to deposit",
          "to": "The address receives the tTokens*"
        }
      },
      "depositNFTs(address[],uint256[],uint256[],address)": {
        "details": "Deposits an `amount` of NFT with certain tokenId as collateral, receiving in return overlying tNFT. - E.g. User deposits 1 PUNK and gets in return 1 tPUNK",
        "params": {
          "amounts": "The amounts to be deposited, 1 if it's ERC721",
          "nfts": "The address of the NFTs to deposit",
          "to": "The address that will receive the tNFT, same as msg.sender if the user   wants to receive them on his own wallet, or a different address if the beneficiary of tNFT   is a different wallet*",
          "tokenIds": "The tokenIds to be deposited"
        }
      },
      "dropReserve(address)": {
        "details": "Drop reserve",
        "params": {
          "asset": "The underlying asset of the reserve*"
        }
      },
      "getAssetValues(address)": {
        "params": {
          "asset": "The address of the asset"
        },
        "returns": {
          "_0": "The total liquidity and debt in ETH"
        }
      },
      "getNftReserveData(address)": {
        "params": {
          "asset": "The address of the underlying asset of the reserve"
        },
        "returns": {
          "_0": "The reserve data*"
        }
      },
      "getPoolValues()": {
        "returns": {
          "_0": "The borrowable liquidity, NFT liquidity, total debt in ETH"
        }
      },
      "getReserveConfig(address,bool)": {
        "params": {
          "asset": "The address of the underlying asset of the reserve",
          "isNft": "Whether the asset is NFT"
        },
        "returns": {
          "_0": "The configuration of the reserve*"
        }
      },
      "getReserveData(address)": {
        "params": {
          "asset": "The address of the underlying asset of the reserve"
        },
        "returns": {
          "_0": "The reserve data*"
        }
      },
      "getReserveNormalizedDebtScale(address)": {
        "params": {
          "asset": "The address of the underlying asset"
        },
        "returns": {
          "_0": "The normalized debt scale factor"
        }
      },
      "getReserveNormalizedLiquidityScale(address)": {
        "params": {
          "asset": "The address of the underlying asset"
        },
        "returns": {
          "_0": "The normalized income scale factor"
        }
      },
      "getReservesList()": {
        "returns": {
          "_0": "The reserve list",
          "_1": "The nft reserve list*"
        }
      },
      "getUserAssetValues(address,address)": {
        "params": {
          "asset": "The address of the asset",
          "user": "The address of the user"
        },
        "returns": {
          "_0": "The  liquidity, debt, and collateral of asset in ETH"
        }
      },
      "getUserConfig(address)": {
        "params": {
          "user": "The address of the user"
        },
        "returns": {
          "_0": "The configuration of the user for borrowable asset",
          "_1": "The configuration of the user for NFTs*"
        }
      },
      "getUserState(address)": {
        "params": {
          "user": "The address of the user"
        },
        "returns": {
          "_0": "The calculated state variables"
        }
      },
      "initNFTReserve(address,uint256,address)": {
        "details": "Initializes a NFT reserve, assigning an tToken",
        "params": {
          "asset": "The address of the underlying asset of the reserve",
          "configuration": "The configuration of the asset",
          "tNFTAddress": "The address of the associated tNFT*"
        }
      },
      "initReserve(address,uint256,address,address,address)": {
        "details": "Initializes a reserve, assigning an tToken, debt token and an interest rate strategy",
        "params": {
          "asset": "The address of the underlying asset of the reserve",
          "configuration": "The configuration of the asset",
          "debtTokenAddress": "The address of the associated DebtToken",
          "interestRateStrategyAddress": "The address of the interest rate strategy contract*",
          "tTokenAddress": "The address of the associated tToken"
        }
      },
      "initialize(address)": {
        "details": "Called by proxy contract",
        "params": {
          "provider": "The address of the LendingPoolAddressesProvider*"
        }
      },
      "liquidate(address,uint256,address,address,address,bool)": {
        "details": "Liquidates a position if its Health Factor drops below 1",
        "params": {
          "debt": "The address of the underlying borrowed asset to be repaid with the liquidation",
          "nft": "The addresse of nft to be liquidated",
          "receiveTNFT": "Bool value to control send TNFT or underlying asset to the liquidator*",
          "to": "The address receiving the liuquidated nft/tNft",
          "tokenId": "The tokenId to be liquidated",
          "user": "The address of the borrower getting liquidated"
        }
      },
      "repay(address,uint256,address)": {
        "params": {
          "amount": "The amount to repay",
          "asset": "The address of the asset to borrow",
          "to": "Address which debt token is burnt"
        },
        "returns": {
          "_0": "The repaid amount*"
        }
      },
      "setReserveConfig(address,bool,uint256)": {
        "params": {
          "asset": "The address of the underlying asset of the reserve",
          "configuration": "The new configuration*",
          "isNft": "Whether the asset is NFT"
        }
      },
      "setReserveInterestRateCalculatorAddress(address,address)": {
        "params": {
          "asset": "The address of the underlying asset of the reserve",
          "interestRateCalculatorAddress": "The address of the interest rate calculator*"
        }
      },
      "setUserUsingAsCollateral(address,bool)": {
        "params": {
          "asset": "The address of the underlying asset",
          "usingAsCollateral": "`true` if set as collateral, `false` otherwise*"
        }
      },
      "validateTransfer(address,address,address,uint256,uint256)": {
        "params": {
          "amount": "The amount to transfer",
          "asset": "The address of the underlying asset of the tToken",
          "balanceFromBefore": "The tToken balance of `from` address before transfer",
          "from": "The address which tToken is transferred out",
          "to": "The address receiving the tToken"
        }
      },
      "validateTransferNft(address,address,address,uint256)": {
        "params": {
          "amount": "The amount to transfer",
          "asset": "The address of the underlying asset of the tNft",
          "from": "The address which tNft is transferred out",
          "to": "The address receiving the tNft"
        }
      },
      "withdraw(address,uint256,address)": {
        "details": "Withdraws borrowable asset from reserve",
        "params": {
          "amount": "The underlying amount to be withdrawn        type(uint256).max if withdraw full tToken balance",
          "asset": "The address of the underlying asset to withdraw",
          "to": "Address that will receive the underlying*"
        }
      },
      "withdrawNFTs(address[],uint256[],uint256[],address)": {
        "details": "Withdraws an `amount` of NFT with certain tokenId, burning the equivalent tNFT owned E.g. User has 1 tPUNK, calls withdraw() and receives 1 PUNK, burning the 1 tPUNK",
        "params": {
          "amounts": "The amounts to be withdrawn, 1 if it's ERC721        type(uint256).max in order to withdraw the whole tNFT balance",
          "nfts": "The addresses of the NFTs to withdraw",
          "to": "Address that will receive the underlying*",
          "tokenIds": "The tokenIds to be withdrawn"
        }
      }
    },
    "title": "LendingPool contract",
    "version": 1
  },
  "userdoc": {
    "kind": "user",
    "methods": {
      "ADDRESS_PROVIDER()": {
        "notice": "Auto generated function to get address provider address"
      },
      "getAssetValues(address)": {
        "notice": "Get liquidity and debt of given asset"
      },
      "getNftReserveData(address)": {
        "notice": "Returns the reserve data"
      },
      "getPoolValues()": {
        "notice": "Get the pool's liquidity of all borrowable and NFT reserves and total debt"
      },
      "getReserveConfig(address,bool)": {
        "notice": "Returns the reserve configuration of the asset"
      },
      "getReserveData(address)": {
        "notice": "Returns the reserve data"
      },
      "getReserveNormalizedDebtScale(address)": {
        "notice": "Get the normalized debt scale of the asset"
      },
      "getReserveNormalizedLiquidityScale(address)": {
        "notice": "Get the normalized income scale of the asset"
      },
      "getReservesList()": {
        "notice": "Returns the reserve list (both reserve and nft reserve)"
      },
      "getUserAssetValues(address,address)": {
        "notice": "Get user's liquidity, debt, and collateral in given asset"
      },
      "getUserConfig(address)": {
        "notice": "Returns the configuration of the user"
      },
      "getUserState(address)": {
        "notice": "Get the user's state variables"
      },
      "liquidate(address,uint256,address,address,address,bool)": {
        "notice": "Only allow liquidate one token in one transaction"
      },
      "repay(address,uint256,address)": {
        "notice": "Repays amount of asset and burn corresponding debt tokens"
      },
      "setReserveConfig(address,bool,uint256)": {
        "notice": "Sets the nft reserve configuration"
      },
      "setReserveInterestRateCalculatorAddress(address,address)": {
        "notice": "Updates the address of the interest rate calculator"
      },
      "setUserUsingAsCollateral(address,bool)": {
        "notice": "Sets whether to use borrowable asset as collateral"
      },
      "validateTransfer(address,address,address,uint256,uint256)": {
        "notice": "Validate tToken transfer"
      },
      "validateTransferNft(address,address,address,uint256)": {
        "notice": "Validate tNft transfer"
      }
    },
    "version": 1
  },
  "storageLayout": {
    "storage": [
      {
        "astId": 6,
        "contract": "contracts/pool/lendingpool/LendingPool.sol:LendingPool",
        "label": "_initialized",
        "offset": 0,
        "slot": "0",
        "type": "t_uint8"
      },
      {
        "astId": 9,
        "contract": "contracts/pool/lendingpool/LendingPool.sol:LendingPool",
        "label": "_initializing",
        "offset": 1,
        "slot": "0",
        "type": "t_bool"
      },
      {
        "astId": 182,
        "contract": "contracts/pool/lendingpool/LendingPool.sol:LendingPool",
        "label": "_status",
        "offset": 0,
        "slot": "1",
        "type": "t_uint256"
      },
      {
        "astId": 240,
        "contract": "contracts/pool/lendingpool/LendingPool.sol:LendingPool",
        "label": "__gap",
        "offset": 0,
        "slot": "2",
        "type": "t_array(t_uint256)49_storage"
      },
      {
        "astId": 11571,
        "contract": "contracts/pool/lendingpool/LendingPool.sol:LendingPool",
        "label": "ADDRESS_PROVIDER",
        "offset": 0,
        "slot": "51",
        "type": "t_contract(ITakerAddressesProvider)3648"
      },
      {
        "astId": 11576,
        "contract": "contracts/pool/lendingpool/LendingPool.sol:LendingPool",
        "label": "_reserves",
        "offset": 0,
        "slot": "52",
        "type": "t_mapping(t_address,t_struct(ReserveData)8317_storage)"
      },
      {
        "astId": 11581,
        "contract": "contracts/pool/lendingpool/LendingPool.sol:LendingPool",
        "label": "_nftReserves",
        "offset": 0,
        "slot": "53",
        "type": "t_mapping(t_address,t_struct(ReserveData)8089_storage)"
      },
      {
        "astId": 11586,
        "contract": "contracts/pool/lendingpool/LendingPool.sol:LendingPool",
        "label": "_userConfigs",
        "offset": 0,
        "slot": "54",
        "type": "t_mapping(t_address,t_userDefinedValueType(UserConfiguration)9790)"
      },
      {
        "astId": 11591,
        "contract": "contracts/pool/lendingpool/LendingPool.sol:LendingPool",
        "label": "_userNftConfigs",
        "offset": 0,
        "slot": "55",
        "type": "t_mapping(t_address,t_userDefinedValueType(UserNftConfiguration)10097)"
      },
      {
        "astId": 11595,
        "contract": "contracts/pool/lendingpool/LendingPool.sol:LendingPool",
        "label": "_reserveList",
        "offset": 0,
        "slot": "56",
        "type": "t_mapping(t_uint256,t_address)"
      },
      {
        "astId": 11599,
        "contract": "contracts/pool/lendingpool/LendingPool.sol:LendingPool",
        "label": "_nftReserveList",
        "offset": 0,
        "slot": "57",
        "type": "t_mapping(t_uint256,t_address)"
      },
      {
        "astId": 11601,
        "contract": "contracts/pool/lendingpool/LendingPool.sol:LendingPool",
        "label": "_reserveCount",
        "offset": 0,
        "slot": "58",
        "type": "t_uint256"
      },
      {
        "astId": 11603,
        "contract": "contracts/pool/lendingpool/LendingPool.sol:LendingPool",
        "label": "_nftReserveCount",
        "offset": 0,
        "slot": "59",
        "type": "t_uint256"
      }
    ],
    "types": {
      "t_address": {
        "encoding": "inplace",
        "label": "address",
        "numberOfBytes": "20"
      },
      "t_array(t_uint256)49_storage": {
        "base": "t_uint256",
        "encoding": "inplace",
        "label": "uint256[49]",
        "numberOfBytes": "1568"
      },
      "t_bool": {
        "encoding": "inplace",
        "label": "bool",
        "numberOfBytes": "1"
      },
      "t_contract(ITakerAddressesProvider)3648": {
        "encoding": "inplace",
        "label": "contract ITakerAddressesProvider",
        "numberOfBytes": "20"
      },
      "t_mapping(t_address,t_struct(ReserveData)8089_storage)": {
        "encoding": "mapping",
        "key": "t_address",
        "label": "mapping(address => struct NFTReserve.ReserveData)",
        "numberOfBytes": "32",
        "value": "t_struct(ReserveData)8089_storage"
      },
      "t_mapping(t_address,t_struct(ReserveData)8317_storage)": {
        "encoding": "mapping",
        "key": "t_address",
        "label": "mapping(address => struct Reserve.ReserveData)",
        "numberOfBytes": "32",
        "value": "t_struct(ReserveData)8317_storage"
      },
      "t_mapping(t_address,t_userDefinedValueType(UserConfiguration)9790)": {
        "encoding": "mapping",
        "key": "t_address",
        "label": "mapping(address => UserConfiguration)",
        "numberOfBytes": "32",
        "value": "t_userDefinedValueType(UserConfiguration)9790"
      },
      "t_mapping(t_address,t_userDefinedValueType(UserNftConfiguration)10097)": {
        "encoding": "mapping",
        "key": "t_address",
        "label": "mapping(address => UserNftConfiguration)",
        "numberOfBytes": "32",
        "value": "t_userDefinedValueType(UserNftConfiguration)10097"
      },
      "t_mapping(t_uint256,t_address)": {
        "encoding": "mapping",
        "key": "t_uint256",
        "label": "mapping(uint256 => address)",
        "numberOfBytes": "32",
        "value": "t_address"
      },
      "t_struct(ReserveData)8089_storage": {
        "encoding": "inplace",
        "label": "struct NFTReserve.ReserveData",
        "members": [
          {
            "astId": 8084,
            "contract": "contracts/pool/lendingpool/LendingPool.sol:LendingPool",
            "label": "configuration",
            "offset": 0,
            "slot": "0",
            "type": "t_userDefinedValueType(ReserveConfiguration)8999"
          },
          {
            "astId": 8086,
            "contract": "contracts/pool/lendingpool/LendingPool.sol:LendingPool",
            "label": "tNFTAddress",
            "offset": 0,
            "slot": "1",
            "type": "t_address"
          },
          {
            "astId": 8088,
            "contract": "contracts/pool/lendingpool/LendingPool.sol:LendingPool",
            "label": "id",
            "offset": 20,
            "slot": "1",
            "type": "t_uint8"
          }
        ],
        "numberOfBytes": "64"
      },
      "t_struct(ReserveData)8317_storage": {
        "encoding": "inplace",
        "label": "struct Reserve.ReserveData",
        "members": [
          {
            "astId": 8296,
            "contract": "contracts/pool/lendingpool/LendingPool.sol:LendingPool",
            "label": "configuration",
            "offset": 0,
            "slot": "0",
            "type": "t_userDefinedValueType(ReserveConfiguration)8999"
          },
          {
            "astId": 8298,
            "contract": "contracts/pool/lendingpool/LendingPool.sol:LendingPool",
            "label": "liquidityIndex",
            "offset": 0,
            "slot": "1",
            "type": "t_uint128"
          },
          {
            "astId": 8300,
            "contract": "contracts/pool/lendingpool/LendingPool.sol:LendingPool",
            "label": "debtIndex",
            "offset": 16,
            "slot": "1",
            "type": "t_uint128"
          },
          {
            "astId": 8302,
            "contract": "contracts/pool/lendingpool/LendingPool.sol:LendingPool",
            "label": "depositRate",
            "offset": 0,
            "slot": "2",
            "type": "t_uint128"
          },
          {
            "astId": 8304,
            "contract": "contracts/pool/lendingpool/LendingPool.sol:LendingPool",
            "label": "borrowRate",
            "offset": 16,
            "slot": "2",
            "type": "t_uint128"
          },
          {
            "astId": 8306,
            "contract": "contracts/pool/lendingpool/LendingPool.sol:LendingPool",
            "label": "lastUpdateTimestamp",
            "offset": 0,
            "slot": "3",
            "type": "t_uint40"
          },
          {
            "astId": 8308,
            "contract": "contracts/pool/lendingpool/LendingPool.sol:LendingPool",
            "label": "tTokenAddress",
            "offset": 5,
            "slot": "3",
            "type": "t_address"
          },
          {
            "astId": 8310,
            "contract": "contracts/pool/lendingpool/LendingPool.sol:LendingPool",
            "label": "debtTokenAddress",
            "offset": 0,
            "slot": "4",
            "type": "t_address"
          },
          {
            "astId": 8312,
            "contract": "contracts/pool/lendingpool/LendingPool.sol:LendingPool",
            "label": "interestRateCalculatorAddress",
            "offset": 0,
            "slot": "5",
            "type": "t_address"
          },
          {
            "astId": 8314,
            "contract": "contracts/pool/lendingpool/LendingPool.sol:LendingPool",
            "label": "treasury",
            "offset": 0,
            "slot": "6",
            "type": "t_address"
          },
          {
            "astId": 8316,
            "contract": "contracts/pool/lendingpool/LendingPool.sol:LendingPool",
            "label": "id",
            "offset": 20,
            "slot": "6",
            "type": "t_uint8"
          }
        ],
        "numberOfBytes": "224"
      },
      "t_uint128": {
        "encoding": "inplace",
        "label": "uint128",
        "numberOfBytes": "16"
      },
      "t_uint256": {
        "encoding": "inplace",
        "label": "uint256",
        "numberOfBytes": "32"
      },
      "t_uint40": {
        "encoding": "inplace",
        "label": "uint40",
        "numberOfBytes": "5"
      },
      "t_uint8": {
        "encoding": "inplace",
        "label": "uint8",
        "numberOfBytes": "1"
      },
      "t_userDefinedValueType(ReserveConfiguration)8999": {
        "encoding": "inplace",
        "label": "ReserveConfiguration",
        "numberOfBytes": "32"
      },
      "t_userDefinedValueType(UserConfiguration)9790": {
        "encoding": "inplace",
        "label": "UserConfiguration",
        "numberOfBytes": "32"
      },
      "t_userDefinedValueType(UserNftConfiguration)10097": {
        "encoding": "inplace",
        "label": "UserNftConfiguration",
        "numberOfBytes": "32"
      }
    }
  }
}