{
  "_format": "hh-sol-artifact-1",
  "contractName": "LendingPool",
  "sourceName": "contracts/pool/lendingpool/LendingPool.sol",
  "abi": [
    {
      "anonymous": false,
      "inputs": [
        {
          "indexed": true,
          "internalType": "address",
          "name": "asset",
          "type": "address"
        },
        {
          "indexed": true,
          "internalType": "address",
          "name": "from",
          "type": "address"
        },
        {
          "indexed": true,
          "internalType": "address",
          "name": "to",
          "type": "address"
        },
        {
          "indexed": false,
          "internalType": "uint256",
          "name": "amount",
          "type": "uint256"
        },
        {
          "indexed": false,
          "internalType": "uint256",
          "name": "borrowRate",
          "type": "uint256"
        }
      ],
      "name": "Borrowed",
      "type": "event"
    },
    {
      "anonymous": false,
      "inputs": [
        {
          "indexed": true,
          "internalType": "address",
          "name": "asset",
          "type": "address"
        },
        {
          "indexed": true,
          "internalType": "address",
          "name": "user",
          "type": "address"
        },
        {
          "indexed": false,
          "internalType": "bool",
          "name": "status",
          "type": "bool"
        }
      ],
      "name": "CollateralStatusUpdated",
      "type": "event"
    },
    {
      "anonymous": false,
      "inputs": [
        {
          "indexed": true,
          "internalType": "address",
          "name": "asset",
          "type": "address"
        },
        {
          "indexed": false,
          "internalType": "address",
          "name": "user",
          "type": "address"
        },
        {
          "indexed": true,
          "internalType": "address",
          "name": "to",
          "type": "address"
        },
        {
          "indexed": false,
          "internalType": "uint256",
          "name": "amount",
          "type": "uint256"
        }
      ],
      "name": "Deposited",
      "type": "event"
    },
    {
      "anonymous": false,
      "inputs": [
        {
          "indexed": false,
          "internalType": "uint8",
          "name": "version",
          "type": "uint8"
        }
      ],
      "name": "Initialized",
      "type": "event"
    },
    {
      "anonymous": false,
      "inputs": [
        {
          "indexed": false,
          "internalType": "address[]",
          "name": "nfts",
          "type": "address[]"
        },
        {
          "indexed": false,
          "internalType": "uint256[]",
          "name": "tokenIds",
          "type": "uint256[]"
        },
        {
          "indexed": false,
          "internalType": "uint256[]",
          "name": "amounts",
          "type": "uint256[]"
        },
        {
          "indexed": false,
          "internalType": "address",
          "name": "debt",
          "type": "address"
        },
        {
          "indexed": true,
          "internalType": "address",
          "name": "user",
          "type": "address"
        },
        {
          "indexed": false,
          "internalType": "uint256",
          "name": "debtCovered",
          "type": "uint256"
        },
        {
          "indexed": true,
          "internalType": "address",
          "name": "liquidator",
          "type": "address"
        },
        {
          "indexed": false,
          "internalType": "bool",
          "name": "receiveTNFT",
          "type": "bool"
        }
      ],
      "name": "Liquidated",
      "type": "event"
    },
    {
      "anonymous": false,
      "inputs": [
        {
          "indexed": false,
          "internalType": "address[]",
          "name": "nfts",
          "type": "address[]"
        },
        {
          "indexed": false,
          "internalType": "address",
          "name": "user",
          "type": "address"
        },
        {
          "indexed": true,
          "internalType": "address",
          "name": "onBehalfOf",
          "type": "address"
        },
        {
          "indexed": false,
          "internalType": "uint256[]",
          "name": "tokenIds",
          "type": "uint256[]"
        },
        {
          "indexed": false,
          "internalType": "uint256[]",
          "name": "amounts",
          "type": "uint256[]"
        }
      ],
      "name": "NFTsDeposited",
      "type": "event"
    },
    {
      "anonymous": false,
      "inputs": [
        {
          "indexed": false,
          "internalType": "address[]",
          "name": "nfts",
          "type": "address[]"
        },
        {
          "indexed": true,
          "internalType": "address",
          "name": "user",
          "type": "address"
        },
        {
          "indexed": true,
          "internalType": "address",
          "name": "to",
          "type": "address"
        },
        {
          "indexed": false,
          "internalType": "uint256[]",
          "name": "tokenIds",
          "type": "uint256[]"
        },
        {
          "indexed": false,
          "internalType": "uint256[]",
          "name": "amounts",
          "type": "uint256[]"
        }
      ],
      "name": "NFTsWithdrawn",
      "type": "event"
    },
    {
      "anonymous": false,
      "inputs": [
        {
          "indexed": false,
          "internalType": "address",
          "name": "account",
          "type": "address"
        }
      ],
      "name": "Paused",
      "type": "event"
    },
    {
      "anonymous": false,
      "inputs": [
        {
          "indexed": true,
          "internalType": "address",
          "name": "asset",
          "type": "address"
        },
        {
          "indexed": true,
          "internalType": "address",
          "name": "initiator",
          "type": "address"
        },
        {
          "indexed": true,
          "internalType": "address",
          "name": "to",
          "type": "address"
        },
        {
          "indexed": false,
          "internalType": "uint256",
          "name": "amount",
          "type": "uint256"
        }
      ],
      "name": "Repaid",
      "type": "event"
    },
    {
      "anonymous": false,
      "inputs": [
        {
          "indexed": true,
          "internalType": "address",
          "name": "asset",
          "type": "address"
        },
        {
          "indexed": false,
          "internalType": "uint256",
          "name": "depositRate",
          "type": "uint256"
        },
        {
          "indexed": false,
          "internalType": "uint256",
          "name": "borrowRate",
          "type": "uint256"
        },
        {
          "indexed": false,
          "internalType": "uint256",
          "name": "liquidityIndex",
          "type": "uint256"
        },
        {
          "indexed": false,
          "internalType": "uint256",
          "name": "debtIndex",
          "type": "uint256"
        }
      ],
      "name": "ReserveDataUpdated",
      "type": "event"
    },
    {
      "anonymous": false,
      "inputs": [
        {
          "indexed": false,
          "internalType": "address",
          "name": "account",
          "type": "address"
        }
      ],
      "name": "Unpaused",
      "type": "event"
    },
    {
      "anonymous": false,
      "inputs": [
        {
          "indexed": true,
          "internalType": "address",
          "name": "asset",
          "type": "address"
        },
        {
          "indexed": true,
          "internalType": "address",
          "name": "user",
          "type": "address"
        },
        {
          "indexed": true,
          "internalType": "address",
          "name": "to",
          "type": "address"
        },
        {
          "indexed": false,
          "internalType": "uint256",
          "name": "amount",
          "type": "uint256"
        }
      ],
      "name": "Withdrawn",
      "type": "event"
    },
    {
      "inputs": [],
      "name": "ADDRESS_PROVIDER",
      "outputs": [
        {
          "internalType": "contract ITakerAddressesProvider",
          "name": "",
          "type": "address"
        }
      ],
      "stateMutability": "view",
      "type": "function"
    },
    {
      "inputs": [],
      "name": "MAX_NUMBER_NFT_RESERVES",
      "outputs": [
        {
          "internalType": "uint256",
          "name": "",
          "type": "uint256"
        }
      ],
      "stateMutability": "view",
      "type": "function"
    },
    {
      "inputs": [],
      "name": "MAX_NUMBER_RESERVES",
      "outputs": [
        {
          "internalType": "uint256",
          "name": "",
          "type": "uint256"
        }
      ],
      "stateMutability": "view",
      "type": "function"
    },
    {
      "inputs": [],
      "name": "NAME",
      "outputs": [
        {
          "internalType": "string",
          "name": "",
          "type": "string"
        }
      ],
      "stateMutability": "view",
      "type": "function"
    },
    {
      "inputs": [],
      "name": "WETHGateway",
      "outputs": [
        {
          "internalType": "address",
          "name": "",
          "type": "address"
        }
      ],
      "stateMutability": "view",
      "type": "function"
    },
    {
      "inputs": [
        {
          "internalType": "address",
          "name": "asset",
          "type": "address"
        },
        {
          "internalType": "uint256",
          "name": "amount",
          "type": "uint256"
        },
        {
          "internalType": "address",
          "name": "from",
          "type": "address"
        }
      ],
      "name": "borrow",
      "outputs": [],
      "stateMutability": "nonpayable",
      "type": "function"
    },
    {
      "inputs": [
        {
          "internalType": "address",
          "name": "asset",
          "type": "address"
        },
        {
          "internalType": "uint256",
          "name": "amount",
          "type": "uint256"
        },
        {
          "internalType": "address",
          "name": "to",
          "type": "address"
        }
      ],
      "name": "deposit",
      "outputs": [],
      "stateMutability": "nonpayable",
      "type": "function"
    },
    {
      "inputs": [
        {
          "internalType": "address[]",
          "name": "nfts",
          "type": "address[]"
        },
        {
          "internalType": "uint256[]",
          "name": "tokenIds",
          "type": "uint256[]"
        },
        {
          "internalType": "uint256[]",
          "name": "amounts",
          "type": "uint256[]"
        },
        {
          "internalType": "address",
          "name": "to",
          "type": "address"
        }
      ],
      "name": "depositNFTs",
      "outputs": [],
      "stateMutability": "nonpayable",
      "type": "function"
    },
    {
      "inputs": [
        {
          "internalType": "address",
          "name": "asset",
          "type": "address"
        }
      ],
      "name": "getAssetValues",
      "outputs": [
        {
          "internalType": "uint256",
          "name": "",
          "type": "uint256"
        },
        {
          "internalType": "uint256",
          "name": "",
          "type": "uint256"
        }
      ],
      "stateMutability": "view",
      "type": "function"
    },
    {
      "inputs": [
        {
          "internalType": "address",
          "name": "asset",
          "type": "address"
        }
      ],
      "name": "getNftReserveConfig",
      "outputs": [
        {
          "internalType": "ReserveConfiguration",
          "name": "",
          "type": "uint256"
        }
      ],
      "stateMutability": "view",
      "type": "function"
    },
    {
      "inputs": [
        {
          "internalType": "address",
          "name": "asset",
          "type": "address"
        }
      ],
      "name": "getNftReserveData",
      "outputs": [
        {
          "components": [
            {
              "internalType": "ReserveConfiguration",
              "name": "configuration",
              "type": "uint256"
            },
            {
              "internalType": "address",
              "name": "tNFTAddress",
              "type": "address"
            },
            {
              "internalType": "uint8",
              "name": "id",
              "type": "uint8"
            }
          ],
          "internalType": "struct NFTReserve.ReserveData",
          "name": "",
          "type": "tuple"
        }
      ],
      "stateMutability": "view",
      "type": "function"
    },
    {
      "inputs": [],
      "name": "getPoolValues",
      "outputs": [
        {
          "internalType": "uint256",
          "name": "",
          "type": "uint256"
        },
        {
          "internalType": "uint256",
          "name": "",
          "type": "uint256"
        },
        {
          "internalType": "uint256",
          "name": "",
          "type": "uint256"
        }
      ],
      "stateMutability": "view",
      "type": "function"
    },
    {
      "inputs": [
        {
          "internalType": "address",
          "name": "asset",
          "type": "address"
        }
      ],
      "name": "getReserveConfig",
      "outputs": [
        {
          "internalType": "ReserveConfiguration",
          "name": "",
          "type": "uint256"
        }
      ],
      "stateMutability": "view",
      "type": "function"
    },
    {
      "inputs": [
        {
          "internalType": "address",
          "name": "asset",
          "type": "address"
        }
      ],
      "name": "getReserveData",
      "outputs": [
        {
          "components": [
            {
              "internalType": "ReserveConfiguration",
              "name": "configuration",
              "type": "uint256"
            },
            {
              "internalType": "uint128",
              "name": "liquidityIndex",
              "type": "uint128"
            },
            {
              "internalType": "uint128",
              "name": "debtIndex",
              "type": "uint128"
            },
            {
              "internalType": "uint128",
              "name": "depositRate",
              "type": "uint128"
            },
            {
              "internalType": "uint128",
              "name": "borrowRate",
              "type": "uint128"
            },
            {
              "internalType": "uint40",
              "name": "lastUpdateTimestamp",
              "type": "uint40"
            },
            {
              "internalType": "address",
              "name": "tTokenAddress",
              "type": "address"
            },
            {
              "internalType": "address",
              "name": "debtTokenAddress",
              "type": "address"
            },
            {
              "internalType": "address",
              "name": "interestRateCalculatorAddress",
              "type": "address"
            },
            {
              "internalType": "address",
              "name": "treasury",
              "type": "address"
            },
            {
              "internalType": "uint8",
              "name": "id",
              "type": "uint8"
            }
          ],
          "internalType": "struct Reserve.ReserveData",
          "name": "",
          "type": "tuple"
        }
      ],
      "stateMutability": "view",
      "type": "function"
    },
    {
      "inputs": [
        {
          "internalType": "address",
          "name": "asset",
          "type": "address"
        }
      ],
      "name": "getReserveNormalizedDebtScale",
      "outputs": [
        {
          "internalType": "uint256",
          "name": "",
          "type": "uint256"
        }
      ],
      "stateMutability": "view",
      "type": "function"
    },
    {
      "inputs": [
        {
          "internalType": "address",
          "name": "asset",
          "type": "address"
        }
      ],
      "name": "getReserveNormalizedLiquidityScale",
      "outputs": [
        {
          "internalType": "uint256",
          "name": "",
          "type": "uint256"
        }
      ],
      "stateMutability": "view",
      "type": "function"
    },
    {
      "inputs": [
        {
          "internalType": "address",
          "name": "user",
          "type": "address"
        },
        {
          "internalType": "address",
          "name": "asset",
          "type": "address"
        }
      ],
      "name": "getUserAssetValues",
      "outputs": [
        {
          "internalType": "uint256",
          "name": "",
          "type": "uint256"
        },
        {
          "internalType": "uint256",
          "name": "",
          "type": "uint256"
        },
        {
          "internalType": "uint256",
          "name": "",
          "type": "uint256"
        }
      ],
      "stateMutability": "view",
      "type": "function"
    },
    {
      "inputs": [
        {
          "internalType": "address",
          "name": "user",
          "type": "address"
        }
      ],
      "name": "getUserConfig",
      "outputs": [
        {
          "internalType": "UserConfiguration",
          "name": "",
          "type": "uint256"
        }
      ],
      "stateMutability": "view",
      "type": "function"
    },
    {
      "inputs": [
        {
          "internalType": "address",
          "name": "user",
          "type": "address"
        }
      ],
      "name": "getUserNftConfig",
      "outputs": [
        {
          "internalType": "UserNftConfiguration",
          "name": "",
          "type": "uint256"
        }
      ],
      "stateMutability": "view",
      "type": "function"
    },
    {
      "inputs": [
        {
          "internalType": "address",
          "name": "user",
          "type": "address"
        }
      ],
      "name": "getUserState",
      "outputs": [
        {
          "internalType": "uint256",
          "name": "",
          "type": "uint256"
        },
        {
          "internalType": "uint256",
          "name": "",
          "type": "uint256"
        },
        {
          "internalType": "uint256",
          "name": "",
          "type": "uint256"
        }
      ],
      "stateMutability": "view",
      "type": "function"
    },
    {
      "inputs": [
        {
          "internalType": "address",
          "name": "user",
          "type": "address"
        }
      ],
      "name": "getUserValues",
      "outputs": [
        {
          "internalType": "uint256",
          "name": "",
          "type": "uint256"
        },
        {
          "internalType": "uint256",
          "name": "",
          "type": "uint256"
        },
        {
          "internalType": "uint256",
          "name": "",
          "type": "uint256"
        },
        {
          "internalType": "uint256",
          "name": "",
          "type": "uint256"
        }
      ],
      "stateMutability": "view",
      "type": "function"
    },
    {
      "inputs": [
        {
          "internalType": "address",
          "name": "asset",
          "type": "address"
        },
        {
          "internalType": "ReserveConfiguration",
          "name": "configuration",
          "type": "uint256"
        },
        {
          "internalType": "address",
          "name": "tNFTAddress",
          "type": "address"
        }
      ],
      "name": "initNFTReserve",
      "outputs": [],
      "stateMutability": "nonpayable",
      "type": "function"
    },
    {
      "inputs": [
        {
          "internalType": "address",
          "name": "asset",
          "type": "address"
        },
        {
          "internalType": "ReserveConfiguration",
          "name": "configuration",
          "type": "uint256"
        },
        {
          "internalType": "address",
          "name": "tTokenAddress",
          "type": "address"
        },
        {
          "internalType": "address",
          "name": "debtAddress",
          "type": "address"
        },
        {
          "internalType": "address",
          "name": "interestRateStrategyAddress",
          "type": "address"
        }
      ],
      "name": "initReserve",
      "outputs": [],
      "stateMutability": "nonpayable",
      "type": "function"
    },
    {
      "inputs": [
        {
          "internalType": "contract ITakerAddressesProvider",
          "name": "provider",
          "type": "address"
        }
      ],
      "name": "initialize",
      "outputs": [],
      "stateMutability": "nonpayable",
      "type": "function"
    },
    {
      "inputs": [
        {
          "internalType": "address[]",
          "name": "nfts",
          "type": "address[]"
        },
        {
          "internalType": "uint256[]",
          "name": "tokenIds",
          "type": "uint256[]"
        },
        {
          "internalType": "uint256[]",
          "name": "amounts",
          "type": "uint256[]"
        },
        {
          "internalType": "address",
          "name": "debt",
          "type": "address"
        },
        {
          "internalType": "address",
          "name": "user",
          "type": "address"
        },
        {
          "internalType": "bool",
          "name": "receiveTNFT",
          "type": "bool"
        }
      ],
      "name": "liquidate",
      "outputs": [],
      "stateMutability": "nonpayable",
      "type": "function"
    },
    {
      "inputs": [],
      "name": "paused",
      "outputs": [
        {
          "internalType": "bool",
          "name": "",
          "type": "bool"
        }
      ],
      "stateMutability": "view",
      "type": "function"
    },
    {
      "inputs": [
        {
          "internalType": "address",
          "name": "asset",
          "type": "address"
        },
        {
          "internalType": "uint256",
          "name": "amount",
          "type": "uint256"
        },
        {
          "internalType": "address",
          "name": "to",
          "type": "address"
        }
      ],
      "name": "repay",
      "outputs": [
        {
          "internalType": "uint256",
          "name": "",
          "type": "uint256"
        }
      ],
      "stateMutability": "nonpayable",
      "type": "function"
    },
    {
      "inputs": [
        {
          "internalType": "address",
          "name": "asset",
          "type": "address"
        },
        {
          "internalType": "ReserveConfiguration",
          "name": "configuration",
          "type": "uint256"
        }
      ],
      "name": "setNftReserveConfig",
      "outputs": [],
      "stateMutability": "nonpayable",
      "type": "function"
    },
    {
      "inputs": [
        {
          "internalType": "address",
          "name": "asset",
          "type": "address"
        },
        {
          "internalType": "ReserveConfiguration",
          "name": "configuration",
          "type": "uint256"
        }
      ],
      "name": "setReserveConfig",
      "outputs": [],
      "stateMutability": "nonpayable",
      "type": "function"
    },
    {
      "inputs": [
        {
          "internalType": "address",
          "name": "asset",
          "type": "address"
        },
        {
          "internalType": "address",
          "name": "interestRateCalculatorAddress",
          "type": "address"
        }
      ],
      "name": "setReserveInterestRateCalculatorAddress",
      "outputs": [],
      "stateMutability": "nonpayable",
      "type": "function"
    },
    {
      "inputs": [
        {
          "internalType": "address",
          "name": "asset",
          "type": "address"
        },
        {
          "internalType": "bool",
          "name": "usingAsCollateral",
          "type": "bool"
        }
      ],
      "name": "setUserUsingAsCollateral",
      "outputs": [],
      "stateMutability": "nonpayable",
      "type": "function"
    },
    {
      "inputs": [
        {
          "internalType": "address",
          "name": "wETHGateway",
          "type": "address"
        }
      ],
      "name": "setWETHGateway",
      "outputs": [],
      "stateMutability": "nonpayable",
      "type": "function"
    },
    {
      "inputs": [
        {
          "internalType": "address",
          "name": "asset",
          "type": "address"
        },
        {
          "internalType": "address",
          "name": "from",
          "type": "address"
        },
        {
          "internalType": "address",
          "name": "to",
          "type": "address"
        },
        {
          "internalType": "uint256",
          "name": "amount",
          "type": "uint256"
        },
        {
          "internalType": "uint256",
          "name": "balanceFromBefore",
          "type": "uint256"
        }
      ],
      "name": "validateTransfer",
      "outputs": [],
      "stateMutability": "nonpayable",
      "type": "function"
    },
    {
      "inputs": [
        {
          "internalType": "address",
          "name": "asset",
          "type": "address"
        },
        {
          "internalType": "uint256",
          "name": "amount",
          "type": "uint256"
        },
        {
          "internalType": "address",
          "name": "to",
          "type": "address"
        }
      ],
      "name": "withdraw",
      "outputs": [],
      "stateMutability": "nonpayable",
      "type": "function"
    },
    {
      "inputs": [
        {
          "internalType": "address[]",
          "name": "nfts",
          "type": "address[]"
        },
        {
          "internalType": "uint256[]",
          "name": "tokenIds",
          "type": "uint256[]"
        },
        {
          "internalType": "uint256[]",
          "name": "amounts",
          "type": "uint256[]"
        },
        {
          "internalType": "address",
          "name": "to",
          "type": "address"
        }
      ],
      "name": "withdrawNFTs",
      "outputs": [],
      "stateMutability": "nonpayable",
      "type": "function"
    }
  ],
  "bytecode": "0x608060405234801561001057600080fd5b5061593280620000216000396000f3fe608060405234801561001057600080fd5b50600436106102115760003560e01c80636c665a5511610125578063c1b4ab8f116100ad578063e7dc9ef61161007c578063e7dc9ef61461066b578063f45346dc14610674578063f505743a14610687578063f66fdcca14610720578063f8119d511461072857600080fd5b8063c1b4ab8f1461060a578063c4d66de81461061d578063cca5bffd14610630578063d6cc07ae1461065857600080fd5b8063903e61a4116100f4578063903e61a41461057a578063a0367eb81461058d578063a3f4df7e146105a0578063ac4b088c146105ce578063bd05bdb4146105e157600080fd5b80636c665a551461050e5780637439e7871461052157806377a8313e146105545780637d2fd4cc1461056757600080fd5b806337789562116101a85780634d8da72c116101775780634d8da72c146104ac5780635c975abb146104bf5780635ceae9c4146104d557806369328dec146104e857806369cab562146104fb57600080fd5b8063377895621461042f5780633c34822e14610442578063416ae7681461045557806342cc41e51461048357600080fd5b80631ac73466116101e45780631ac73466146102a557806321da5837146102ce57806322829a21146102e157806335ea6a75146102f457600080fd5b806311de1fee1461021657806316626ab91461022b5780631848effa146102675780631854b24114610292575b600080fd5b610229610224366004614e0a565b610730565b005b610254610239366004614eb8565b6001600160a01b031660009081526068602052604090205490565b6040519081526020015b60405180910390f35b60655461027a906001600160a01b031681565b6040516001600160a01b03909116815260200161025e565b6102296102a0366004614ed5565b610cce565b6102546102b3366004614eb8565b6001600160a01b031660009081526069602052604090205490565b6102296102dc366004614eb8565b61101f565b6102296102ef366004614e0a565b611188565b610422610302366004614eb8565b6040805161016081018252600080825260208201819052918101829052606081018290526080810182905260a0810182905260c0810182905260e0810182905261010081018290526101208101829052610140810191909152506001600160a01b039081166000908152606660209081526040918290208251610160810184528154815260018201546001600160801b0380821694830194909452600160801b9081900484169482019490945260028201548084166060830152939093049091166080830152600381015464ffffffffff811660a0840152600160281b9004831660c08301526004810154831660e08301526005810154831661010083015260060154918216610120820152600160a01b90910460ff1661014082015290565b60405161025e9190614f30565b61022961043d366004615031565b61172c565b61022961045036600461505d565b61188f565b610468610463366004614eb8565b611a07565b6040805193845260208401929092529082015260600161025e565b610254610491366004614eb8565b6001600160a01b031660009081526067602052604090205490565b6102296104ba3660046150a4565b611b75565b60335460ff16604051901515815260200161025e565b6102546104e3366004615176565b611d4a565b6102296104f6366004615176565b611fe0565b610254610509366004614eb8565b61236e565b61022961051c366004615176565b612395565b61053461052f366004614eb8565b6126c1565b60408051948552602085019390935291830152606082015260800161025e565b6102296105623660046151b8565b612835565b61046861057536600461505d565b612a9b565b610254610588366004614eb8565b612bf1565b606e5461027a906001600160a01b031681565b6105c16040518060400160405280600281526020016104c560f41b81525081565b60405161025e919061523e565b6102296105dc366004615176565b612c12565b6102546105ef366004614eb8565b6001600160a01b031660009081526066602052604090205490565b610229610618366004615251565b61319a565b61022961062b366004614eb8565b613731565b61064361063e366004614eb8565b613856565b6040805192835260208301919091520161025e565b610229610666366004615031565b613975565b61025461010081565b610229610682366004615176565b613ad8565b6106f2610695366004614eb8565b6040805160608082018352600080835260208084018290529284018190526001600160a01b0394851681526067835283902083519182018452805482526001015493841691810191909152600160a01b90920460ff169082015290565b60408051825181526020808401516001600160a01b0316908201529181015160ff169082015260600161025e565b610468613c7f565b610254608081565b858414801561073e57508582145b73__$61422835ae5e51fb34bedcfef91f75f833$__635b70017b6040518060400160405280600281526020016104c560f41b81525060405180604001604052806002815260200161032360f41b8152506040518363ffffffff1660e01b81526004016107ab9291906152b9565b600060405180830381865af41580156107c8573d6000803e3d6000fd5b505050506040513d6000823e601f3d908101601f191682016040526107f091908101906152f4565b906108175760405162461bcd60e51b815260040161080e919061523e565b60405180910390fd5b5060005b86811015610b0257600088888381811061083757610837615396565b905060200201602081019061084c9190614eb8565b6001600160a01b038116600090815260676020526040902080549192509073__$49b23b5becc4a0db881be9d6da702c31a0$__63eaeac4988289898881811061089757610897615396565b905060200201356040518363ffffffff1660e01b81526004016108c4929190918252602082015260400190565b60006040518083038186803b1580156108dc57600080fd5b505af41580156108f0573d6000803e3d6000fd5b5050505060006108ff82613de5565b60018401549091506001600160a01b03166000826002811115610924576109246153ac565b036109c157806001600160a01b031663f6b911bc33898c8c8b81811061094c5761094c615396565b6040516001600160e01b031960e088901b1681526001600160a01b039586166004820152949093166024850152506020909102013560448201526064015b600060405180830381600087803b1580156109a457600080fd5b505af11580156109b8573d6000803e3d6000fd5b50505050610aea565b60018260028111156109d5576109d56153ac565b03610a3657806001600160a01b0316639dc29fac888d8d8a8181106109fc576109fc615396565b6040516001600160e01b031960e087901b1681526001600160a01b039094166004850152602002919091013560248301525060440161098a565b806001600160a01b031663d7020d0a33898e8e8b818110610a5957610a59615396565b905060200201358d8d8c818110610a7257610a72615396565b6040516001600160e01b031960e089901b1681526001600160a01b039687166004820152959094166024860152506044840191909152602090910201356064820152608401600060405180830381600087803b158015610ad157600080fd5b505af1158015610ae5573d6000803e3d6000fd5b505050505b50505050508080610afa906153d8565b91505061081b565b50336000908152606860205260409020547f5555555555555555555555555555555555555555555555555555555555555555811615610c6f576040805160c0810182523360008181526068602090815284822054845282825260698152908490205481840152606c5483850152606d54606084015260808301919091526065548351631f94a27560e31b8152935173__$49b23b5becc4a0db881be9d6da702c31a0$__94633264718594606694606794606a94606b9460a08501936001600160a01b039093169263fca513a8926004808401938290030181865afa158015610bee573d6000803e3d6000fd5b505050506040513d601f19601f82011682018060405250810190610c1291906153f1565b6001600160a01b03168152506040518663ffffffff1660e01b8152600401610c3e959493929190615454565b60006040518083038186803b158015610c5657600080fd5b505af4158015610c6a573d6000803e3d6000fd5b505050505b816001600160a01b0316336001600160a01b03167f48eac33deb1e55a1830198e6ac4844ec184d637a9b123d0fce3f38c8a4f6d3028a8a8a8a8a8a604051610cbc96959493929190615508565b60405180910390a35050505050505050565b610cd6613e00565b6001600160a01b038086166000908152606660209081526040918290206003015482518084018452600281526104c560f41b818401528351808501855260018152601b60f91b938101939093529251635b70017b60e01b815233600160281b909204909416149273__$61422835ae5e51fb34bedcfef91f75f833$__92635b70017b92610d65926004016152b9565b600060405180830381865af4158015610d82573d6000803e3d6000fd5b505050506040513d6000823e601f3d908101601f19168201604052610daa91908101906152f4565b90610dc85760405162461bcd60e51b815260040161080e919061523e565b50826001600160a01b0316846001600160a01b031614158015610dea57508115155b15611018576001600160a01b0385811660009081526066602090815260408083206006015493881683526068909152902054600160a01b90910460ff1690610e328183613e48565b15611015577f5555555555555555555555555555555555555555555555555555555555555555811615610fb05773__$49b23b5becc4a0db881be9d6da702c31a0$__633264718560666067606a606b6040518060c00160405280888152602001606960008f6001600160a01b03166001600160a01b03168152602001908152602001600020548152602001606c548152602001606d5481526020018d6001600160a01b03168152602001606560009054906101000a90046001600160a01b03166001600160a01b031663fca513a86040518163ffffffff1660e01b8152600401602060405180830381865afa158015610f2f573d6000803e3d6000fd5b505050506040513d601f19601f82011682018060405250810190610f5391906153f1565b6001600160a01b03168152506040518663ffffffff1660e01b8152600401610f7f959493929190615454565b60006040518083038186803b158015610f9757600080fd5b505af4158015610fab573d6000803e3d6000fd5b505050505b83830361101557610fc381836000613f55565b50856001600160a01b0316876001600160a01b03167f6577e2a7395d7723b4b430421166c5269712d1766166379838f96f218c5cde4a600060405161100c911515815260200190565b60405180910390a35b50505b5050505050565b606554604080516385c858b160e01b8152905133926001600160a01b0316916385c858b19160048083019260209291908290030181865afa158015611068573d6000803e3d6000fd5b505050506040513d601f19601f8201168201806040525081019061108c91906153f1565b6001600160a01b03161473__$61422835ae5e51fb34bedcfef91f75f833$__635b70017b6040518060400160405280600281526020016104c560f41b815250604051806040016040528060018152602001601960f91b8152506040518363ffffffff1660e01b81526004016111029291906152b9565b600060405180830381865af415801561111f573d6000803e3d6000fd5b505050506040513d6000823e601f3d908101601f1916820160405261114791908101906152f4565b906111655760405162461bcd60e51b815260040161080e919061523e565b50606e80546001600160a01b0319166001600160a01b0392909216919091179055565b611190613e00565b858414801561119e57508582145b73__$61422835ae5e51fb34bedcfef91f75f833$__635b70017b6040518060400160405280600281526020016104c560f41b81525060405180604001604052806002815260200161032360f41b8152506040518363ffffffff1660e01b815260040161120b9291906152b9565b600060405180830381865af4158015611228573d6000803e3d6000fd5b505050506040513d6000823e601f3d908101601f1916820160405261125091908101906152f4565b9061126e5760405162461bcd60e51b815260040161080e919061523e565b5060005b868110156116d557600088888381811061128e5761128e615396565b90506020020160208101906112a39190614eb8565b6001600160a01b038116600090815260676020526040902080549192509073__$49b23b5becc4a0db881be9d6da702c31a0$__63eaeac498828989888181106112ee576112ee615396565b905060200201356040518363ffffffff1660e01b815260040161131b929190918252602082015260400190565b60006040518083038186803b15801561133357600080fd5b505af4158015611347573d6000803e3d6000fd5b50505050600061135682613de5565b60018401549091506001600160a01b0316600082600281111561137b5761137b6153ac565b03611446576113b833828b8b8a81811061139757611397615396565b90506020020135886001600160a01b0316614074909392919063ffffffff16565b806001600160a01b03166340c10f19888b8b8a8181106113da576113da615396565b6040516001600160e01b031960e087901b1681526001600160a01b0390941660048501526020029190910135602483015250604401600060405180830381600087803b15801561142957600080fd5b505af115801561143d573d6000803e3d6000fd5b5050505061167e565b600182600281111561145a5761145a6153ac565b0361151357846001600160a01b03166342842e0e33838e8e8b81811061148257611482615396565b6040516001600160e01b031960e088901b1681526001600160a01b03958616600482015294909316602485015250602090910201356044820152606401600060405180830381600087803b1580156114d957600080fd5b505af11580156114ed573d6000803e3d6000fd5b50505050806001600160a01b03166340c10f19888d8d8a8181106113da576113da615396565b846001600160a01b031663f242432a33838e8e8b81811061153657611536615396565b905060200201358d8d8c81811061154f5761154f615396565b6040516001600160e01b031960e089901b1681526001600160a01b03968716600482015295909416602486015250604484019190915260209091020135606482015260a06084820152600060a482015260c401600060405180830381600087803b1580156115bc57600080fd5b505af11580156115d0573d6000803e3d6000fd5b50505050806001600160a01b031663156e29f6888d8d8a8181106115f6576115f6615396565b905060200201358c8c8b81811061160f5761160f615396565b6040516001600160e01b031960e088901b1681526001600160a01b039095166004860152602485019390935250602090910201356044820152606401600060405180830381600087803b15801561166557600080fd5b505af1158015611679573d6000803e3d6000fd5b505050505b600184810154336000908152606960205260409020546116aa929091600160a01b900460ff16906140d4565b33600090815260696020526040902055508493506116cd92508391506153d89050565b915050611272565b50806001600160a01b03167fe8fc25468d5934edd8e14713fb476225e79e9f1c482a30a89b23e3168009269b8888338989898960405161171b9796959493929190615544565b60405180910390a250505050505050565b606554604080516385c858b160e01b8152905133926001600160a01b0316916385c858b19160048083019260209291908290030181865afa158015611775573d6000803e3d6000fd5b505050506040513d601f19601f8201168201806040525081019061179991906153f1565b6001600160a01b03161473__$61422835ae5e51fb34bedcfef91f75f833$__635b70017b6040518060400160405280600281526020016104c560f41b815250604051806040016040528060018152602001601960f91b8152506040518363ffffffff1660e01b815260040161180f9291906152b9565b600060405180830381865af415801561182c573d6000803e3d6000fd5b505050506040513d6000823e601f3d908101601f1916820160405261185491908101906152f4565b906118725760405162461bcd60e51b815260040161080e919061523e565b506001600160a01b03909116600090815260666020526040902055565b606554604080516385c858b160e01b8152905133926001600160a01b0316916385c858b19160048083019260209291908290030181865afa1580156118d8573d6000803e3d6000fd5b505050506040513d601f19601f820116820180604052508101906118fc91906153f1565b6001600160a01b03161473__$61422835ae5e51fb34bedcfef91f75f833$__635b70017b6040518060400160405280600281526020016104c560f41b815250604051806040016040528060018152602001601960f91b8152506040518363ffffffff1660e01b81526004016119729291906152b9565b600060405180830381865af415801561198f573d6000803e3d6000fd5b505050506040513d6000823e601f3d908101601f191682016040526119b791908101906152f4565b906119d55760405162461bcd60e51b815260040161080e919061523e565b506001600160a01b03918216600090815260666020526040902060050180546001600160a01b03191691909216179055565b6040805160c0810182526001600160a01b03808416600081815260686020908152858220548552828252606981528582205481860152606c5485870152606d54606086015260808501929092526065548551631f94a27560e31b81529551919586958695869573__$d1ac568199f3772e8aebd270d75e55a6d5$__9563f74c32ba95606695606795606a95606b95919460a08601949091169263fca513a89260048083019391928290030181865afa158015611ac7573d6000803e3d6000fd5b505050506040513d601f19601f82011682018060405250810190611aeb91906153f1565b6001600160a01b03168152506040518663ffffffff1660e01b8152600401611b17959493929190615454565b60e060405180830381865af4158015611b34573d6000803e3d6000fd5b505050506040513d601f19601f82011682018060405250810190611b58919061559d565b608081015160a082015160c0909201519097919650945092505050565b604080516101408101825260006080820181815260a0830182905260c0830182905260e0830182905261010083018290526101208301829052825260208201819052918101829052606081019190915260408051610140810182526001600160a01b03808616600081815260686020908152858220546080860190815283835260698252918690205460a0860152606c5460c0860152606d5460e08601526101008501929092526065548551631f94a27560e31b8152955194958695929461012087019492169263fca513a8926004808401939192918290030181865afa158015611c64573d6000803e3d6000fd5b505050506040513d601f19601f82011682018060405250810190611c8891906153f1565b6001600160a01b03168152508152602001336001600160a01b03168152602001856001600160a01b03168152602001831515815250905073__$81eb085430cddbec7bc4c83cc90f74f0ef$__63d40b5a5960666067606a606b8f8f8f8f8f8f8c6040518c63ffffffff1660e01b8152600401611d0e9b9a9998979695949392919061565b565b60006040518083038186803b158015611d2657600080fd5b505af4158015611d3a573d6000803e3d6000fd5b5050505050505050505050505050565b6001600160a01b0383166000908152606660205260408120611d6b816141c6565b6004818101546040516365c950db60e01b81526001600160a01b0386811693820193909352600092909116906365c950db90602401602060405180830381865afa158015611dbd573d6000803e3d6000fd5b505050506040513d601f19601f82011682018060405250810190611de19190615709565b604051630103b8a560e61b815260048101849052602481018790526044810182905290915073__$49b23b5becc4a0db881be9d6da702c31a0$__906340ee29409060640160006040518083038186803b158015611e3d57600080fd5b505af4158015611e51573d6000803e3d6000fd5b5050505080851115611e61578094505b6004828101546001840154604051637a94c56560e11b81526001600160a01b038881169482019490945260248101899052600160801b9091046001600160801b0316604482015291169063f5298aca90606401600060405180830381600087803b158015611ece57600080fd5b505af1158015611ee2573d6000803e3d6000fd5b505050506003820154600160281b90046001600160a01b0316611f06838883614265565b611f108683615722565b600003611f665760068301546001600160a01b038616600090815260686020526040812054611f4c929091600160a01b90910460ff16906144c8565b6001600160a01b0386166000908152606860205260409020555b611f7b6001600160a01b038816338389614074565b846001600160a01b0316336001600160a01b0316886001600160a01b03167f861660e9b7ead7183d53fe928b5638c7b57a7bcf16a89d7fdb04db65ce3ad6d589604051611fca91815260200190565b60405180910390a48593505050505b9392505050565b611fe8613e00565b6001600160a01b0383166000908152606660205260409020612009816141c6565b60038101548154604051631d5d589360e31b8152600481019190915260248101859052600160281b9091046001600160a01b03169073__$49b23b5becc4a0db881be9d6da702c31a0$__9063eaeac4989060440160006040518083038186803b15801561207557600080fd5b505af4158015612089573d6000803e3d6000fd5b5050506001830154604051636b81068560e11b81526001600160a01b038416925063d7020d0a916120cc91339188918a916001600160801b031690600401615739565b600060405180830381600087803b1580156120e657600080fd5b505af11580156120fa573d6000803e3d6000fd5b505033600090815260686020526040902054600685015490925061212a91508290600160a01b900460ff16613e48565b15612304577f555555555555555555555555555555555555555555555555555555555555555581161561228b576040805160c0810182523360008181526068602090815284822054845282825260698152908490205481840152606c5483850152606d54606084015260808301919091526065548351631f94a27560e31b8152935173__$49b23b5becc4a0db881be9d6da702c31a0$__94633264718594606694606794606a94606b9460a08501936001600160a01b039093169263fca513a8926004808401938290030181865afa15801561220a573d6000803e3d6000fd5b505050506040513d601f19601f8201168201806040525081019061222e91906153f1565b6001600160a01b03168152506040518663ffffffff1660e01b815260040161225a959493929190615454565b60006040518083038186803b15801561227257600080fd5b505af4158015612286573d6000803e3d6000fd5b505050505b60001985036123045760068301546122b0908290600160a01b900460ff166000613f55565b33600081815260686020908152604080832094909455925190815290916001600160a01b038916917f6577e2a7395d7723b4b430421166c5269712d1766166379838f96f218c5cde4a910160405180910390a35b61230f838784614265565b836001600160a01b0316336001600160a01b0316876001600160a01b03167fa4195c37c2947bbe89165f03e320b6903116f0b10d8cfdb522330f7ce6f9fa248860405161235e91815260200190565b60405180910390a4505050505050565b6001600160a01b038116600090815260666020526040812061238f906145ea565b92915050565b6001600160a01b038084166000908152606660209081526040808320938516835260689091529020546123c7826141c6565b6040805160c0810182526001600160a01b0380861660008181526068602090815285822054855282825260698152908590205481850152606c5484860152606d54606085015260808401919091526065548451631f94a27560e31b8152945173__$49b23b5becc4a0db881be9d6da702c31a0$__9563bf0acb57958c958a958d95606695606795606a95606b95909460a08601949091169263fca513a89260048082019392918290030181865afa158015612486573d6000803e3d6000fd5b505050506040513d601f19601f820116820180604052508101906124aa91906153f1565b6001600160a01b03168152506040518963ffffffff1660e01b81526004016124d998979695949392919061576a565b60006040518083038186803b1580156124f157600080fd5b505af4158015612505573d6000803e3d6000fd5b505050600480840154600185015460405163b3f1c93d60e01b8152600094506001600160a01b039092169263b3f1c93d926125589233928a928c926001600160801b03600160801b909104169101615739565b6020604051808303816000875af1158015612577573d6000803e3d6000fd5b505050506040513d601f19601f8201168201806040525081019061259b91906157b2565b905080156125d95760068301546125bf908390600160a01b900460ff1660016144c8565b6001600160a01b0385166000908152606860205260409020555b6003830154600160281b90046001600160a01b03166125f9848883614265565b6040516319b6934960e11b8152336004820152602481018790526001600160a01b0382169063336d269290604401600060405180830381600087803b15801561264157600080fd5b505af1158015612655573d6000803e3d6000fd5b50505050600284015460408051888152600160801b9092046001600160801b031660208301526001600160a01b03878116923392918b16917f8d2cf1d80f06f87e6690c4e9bbe4750f3f8affc42dea16d0d82687c849c4f422910160405180910390a450505050505050565b6040805160c0810182526001600160a01b03808416600081815260686020908152858220548552828252606981528582205481860152606c5485870152606d54606086015260808501929092526065548551631f94a27560e31b815295519195869586958695869573__$d1ac568199f3772e8aebd270d75e55a6d5$__9563f74c32ba95606695606795606a95606b95929460a086019492169263fca513a89260048082019392918290030181865afa158015612782573d6000803e3d6000fd5b505050506040513d601f19601f820116820180604052508101906127a691906153f1565b6001600160a01b03168152506040518663ffffffff1660e01b81526004016127d2959493929190615454565b60e060405180830381865af41580156127ef573d6000803e3d6000fd5b505050506040513d601f19601f82011682018060405250810190612813919061559d565b8051602082015160608301516040909301519199909850919650945092505050565b61283d613e00565b6001600160a01b038281166000818152606660208181526040808420338086526068845282862054968652939092528154600383015491516370a0823160e01b815260048101949094529195919392600160281b909104909116906370a0823190602401602060405180830381865afa1580156128be573d6000803e3d6000fd5b505050506040513d601f19601f820116820180604052508101906128e29190615709565b90506128ee8282614660565b84612a1d576040805160c08101825284815233600081815260696020908152908490205481840152606c5483850152606d54606084015260808301919091526065548351631f94a27560e31b8152935173__$49b23b5becc4a0db881be9d6da702c31a0$__94633264718594606694606794606a94606b9460a08501936001600160a01b039093169263fca513a8926004808401938290030181865afa15801561299c573d6000803e3d6000fd5b505050506040513d601f19601f820116820180604052508101906129c091906153f1565b6001600160a01b03168152506040518663ffffffff1660e01b81526004016129ec959493929190615454565b60006040518083038186803b158015612a0457600080fd5b505af4158015612a18573d6000803e3d6000fd5b505050505b6006840154612a38908490600160a01b900460ff1687613f55565b33600081815260686020526040908190209290925590516001600160a01b038816907f6577e2a7395d7723b4b430421166c5269712d1766166379838f96f218c5cde4a90612a8b90891515815260200190565b60405180910390a3505050505050565b6040805160c0810182526001600160a01b03808516600081815260686020908152858220548552828252606981528582205481860152606c5485870152606d54606086015260808501929092526065548551631f94a27560e31b8152955191958695869573__$d1ac568199f3772e8aebd270d75e55a6d5$__95636ac0885e956066956067958d959460a086019492169263fca513a8926004808401939192918290030181865afa158015612b54573d6000803e3d6000fd5b505050506040513d601f19601f82011682018060405250810190612b7891906153f1565b6001600160a01b03168152506040518563ffffffff1660e01b8152600401612ba394939291906157cf565b606060405180830381865af4158015612bc0573d6000803e3d6000fd5b505050506040513d601f19601f82011682018060405250810190612be491906157fa565b9250925092509250925092565b6001600160a01b038116600090815260666020526040812061238f90614811565b606554604080516385c858b160e01b8152905133926001600160a01b0316916385c858b19160048083019260209291908290030181865afa158015612c5b573d6000803e3d6000fd5b505050506040513d601f19601f82011682018060405250810190612c7f91906153f1565b6001600160a01b03161473__$61422835ae5e51fb34bedcfef91f75f833$__635b70017b6040518060400160405280600281526020016104c560f41b815250604051806040016040528060018152602001601960f91b8152506040518363ffffffff1660e01b8152600401612cf59291906152b9565b600060405180830381865af4158015612d12573d6000803e3d6000fd5b505050506040513d6000823e601f3d908101601f19168201604052612d3a91908101906152f4565b90612d585760405162461bcd60e51b815260040161080e919061523e565b506001600160a01b0383163b151573__$61422835ae5e51fb34bedcfef91f75f833$__635b70017b6040518060400160405280600281526020016104c560f41b81525060405180604001604052806002815260200161033360f41b8152506040518363ffffffff1660e01b8152600401612dd39291906152b9565b600060405180830381865af4158015612df0573d6000803e3d6000fd5b505050506040513d6000823e601f3d908101601f19168201604052612e1891908101906152f4565b90612e365760405162461bcd60e51b815260040161080e919061523e565b506001600160a01b038316600090815260676020526040902060010154600160a01b900460ff16158015612e8d57506001600160a01b038316600090815260666020526040902060060154600160a01b900460ff16155b73__$61422835ae5e51fb34bedcfef91f75f833$__635b70017b6040518060400160405280600281526020016104c560f41b815250604051806040016040528060028152602001610c4d60f21b8152506040518363ffffffff1660e01b8152600401612efa9291906152b9565b600060405180830381865af4158015612f17573d6000803e3d6000fd5b505050506040513d6000823e601f3d908101601f19168201604052612f3f91908101906152f4565b90612f5d5760405162461bcd60e51b815260040161080e919061523e565b506001600160a01b0383811660009081526067602052604090819020905163038f988960e41b8152600481019190915260248101849052908216604482015273__$1dd31b2b6afa536aed409f4dea44446001$__906338f988909060640160006040518083038186803b158015612fd357600080fd5b505af4158015612fe7573d6000803e3d6000fd5b50505050610100606d541073__$61422835ae5e51fb34bedcfef91f75f833$__635b70017b6040518060400160405280600281526020016104c560f41b81525060405180604001604052806002815260200161199960f11b8152506040518363ffffffff1660e01b815260040161305f9291906152b9565b600060405180830381865af415801561307c573d6000803e3d6000fd5b505050506040513d6000823e601f3d908101601f191682016040526130a491908101906152f4565b906130c25760405162461bcd60e51b815260040161080e919061523e565b506001600160a01b038316600090815260666020526040812060060154600160a01b900460ff16900361319557606d546130fd906001615828565b6001600160a01b03841660009081526067602052604081206001908101805460ff94909416600160a01b0260ff60a01b1990941693909317909255606d548592606b929161314a9161584d565b815260200190815260200160002060006101000a8154816001600160a01b0302191690836001600160a01b031602179055506001606d600082825461318f919061584d565b90915550505b505050565b606554604080516385c858b160e01b8152905133926001600160a01b0316916385c858b19160048083019260209291908290030181865afa1580156131e3573d6000803e3d6000fd5b505050506040513d601f19601f8201168201806040525081019061320791906153f1565b6001600160a01b03161473__$61422835ae5e51fb34bedcfef91f75f833$__635b70017b6040518060400160405280600281526020016104c560f41b815250604051806040016040528060018152602001601960f91b8152506040518363ffffffff1660e01b815260040161327d9291906152b9565b600060405180830381865af415801561329a573d6000803e3d6000fd5b505050506040513d6000823e601f3d908101601f191682016040526132c291908101906152f4565b906132e05760405162461bcd60e51b815260040161080e919061523e565b506001600160a01b0385163b151573__$61422835ae5e51fb34bedcfef91f75f833$__635b70017b6040518060400160405280600281526020016104c560f41b81525060405180604001604052806002815260200161033360f41b8152506040518363ffffffff1660e01b815260040161335b9291906152b9565b600060405180830381865af4158015613378573d6000803e3d6000fd5b505050506040513d6000823e601f3d908101601f191682016040526133a091908101906152f4565b906133be5760405162461bcd60e51b815260040161080e919061523e565b506001600160a01b038516600090815260676020526040902060010154600160a01b900460ff1615801561341557506001600160a01b038516600090815260666020526040902060060154600160a01b900460ff16155b73__$61422835ae5e51fb34bedcfef91f75f833$__635b70017b6040518060400160405280600281526020016104c560f41b815250604051806040016040528060028152602001610c4d60f21b8152506040518363ffffffff1660e01b81526004016134829291906152b9565b600060405180830381865af415801561349f573d6000803e3d6000fd5b505050506040513d6000823e601f3d908101601f191682016040526134c791908101906152f4565b906134e55760405162461bcd60e51b815260040161080e919061523e565b506001600160a01b0385811660009081526066602052604090819020905163274f5c5b60e01b815260048101919091526024810186905284821660448201528382166064820152908216608482015273__$33f762cd251e217ce6a144dc37d658fca4$__9063274f5c5b9060a40160006040518083038186803b15801561356b57600080fd5b505af415801561357f573d6000803e3d6000fd5b505050506080606c541073__$61422835ae5e51fb34bedcfef91f75f833$__635b70017b6040518060400160405280600281526020016104c560f41b81525060405180604001604052806002815260200161333160f01b8152506040518363ffffffff1660e01b81526004016135f69291906152b9565b600060405180830381865af4158015613613573d6000803e3d6000fd5b505050506040513d6000823e601f3d908101601f1916820160405261363b91908101906152f4565b906136595760405162461bcd60e51b815260040161080e919061523e565b506001600160a01b038516600090815260666020526040812060060154600160a01b900460ff16900361101857606c54613694906001615828565b6001600160a01b0386166000908152606660205260408120600601805460ff93909316600160a01b0260ff60a01b1990931692909217909155606c548691606a916136e090600161584d565b815260200190815260200160002060006101000a8154816001600160a01b0302191690836001600160a01b031602179055506001606c6000828254613725919061584d565b90915550505050505050565b600054610100900460ff16158080156137515750600054600160ff909116105b8061376b5750303b15801561376b575060005460ff166001145b6137ce5760405162461bcd60e51b815260206004820152602e60248201527f496e697469616c697a61626c653a20636f6e747261637420697320616c72656160448201526d191e481a5b9a5d1a585b1a5e995960921b606482015260840161080e565b6000805460ff1916600117905580156137f1576000805461ff0019166101001790555b606580546001600160a01b0319166001600160a01b0384161790558015613852576000805461ff0019169055604051600181527f7f26b83ff96e1f2b6a682f133852f6798a09c465da95921460cefb38474024989060200160405180910390a15b5050565b60008073__$65820f34e67aa7e6420fb74324c04c50d3$__6337002cf46066606786606560009054906101000a90046001600160a01b03166001600160a01b031663fca513a86040518163ffffffff1660e01b8152600401602060405180830381865afa1580156138cb573d6000803e3d6000fd5b505050506040513d601f19601f820116820180604052508101906138ef91906153f1565b6040516001600160e01b031960e087901b168152600481019490945260248401929092526001600160a01b0390811660448401521660648201526084016040805180830381865af4158015613948573d6000803e3d6000fd5b505050506040513d601f19601f8201168201806040525081019061396c9190615865565b91509150915091565b606554604080516385c858b160e01b8152905133926001600160a01b0316916385c858b19160048083019260209291908290030181865afa1580156139be573d6000803e3d6000fd5b505050506040513d601f19601f820116820180604052508101906139e291906153f1565b6001600160a01b03161473__$61422835ae5e51fb34bedcfef91f75f833$__635b70017b6040518060400160405280600281526020016104c560f41b815250604051806040016040528060018152602001601960f91b8152506040518363ffffffff1660e01b8152600401613a589291906152b9565b600060405180830381865af4158015613a75573d6000803e3d6000fd5b505050506040513d6000823e601f3d908101601f19168201604052613a9d91908101906152f4565b90613abb5760405162461bcd60e51b815260040161080e919061523e565b506001600160a01b03909116600090815260676020526040902055565b613ae0613e00565b6001600160a01b0383166000908152606660205260409081902080549151631d5d589360e31b81526004810192909252602482018490529073__$49b23b5becc4a0db881be9d6da702c31a0$__9063eaeac4989060440160006040518083038186803b158015613b4f57600080fd5b505af4158015613b63573d6000803e3d6000fd5b505050506003810154600160281b90046001600160a01b0316613b85826141c6565b613b9a6001600160a01b038616338387614074565b6001820154604051630ab714fb60e11b81526001600160a01b038581166004830152602482018790526001600160801b0390921660448201529082169063156e29f6906064016020604051808303816000875af1158015613bff573d6000803e3d6000fd5b505050506040513d601f19601f82011682018060405250810190613c2391906157b2565b50613c2f828683614265565b60408051338152602081018690526001600160a01b0380861692908816917f4174a9435a04d04d274c76779cad136a41fde6937c56241c09ab9d3c7064a1a9910160405180910390a35050505050565b600080600073__$65820f34e67aa7e6420fb74324c04c50d3$__6371251af860666067606a606b6040518060600160405280606c548152602001606d548152602001606560009054906101000a90046001600160a01b03166001600160a01b031663fca513a86040518163ffffffff1660e01b8152600401602060405180830381865afa158015613d14573d6000803e3d6000fd5b505050506040513d601f19601f82011682018060405250810190613d3891906153f1565b6001600160a01b03908116909152604080516001600160e01b031960e08a901b168152600481019790975260248701959095526044860193909352606485019190915280516084850152602081015160a4850152909101511660c482015260e401606060405180830381865af4158015613db6573d6000803e3d6000fd5b505050506040513d601f19601f82011682018060405250810190613dda91906157fa565b925092509250909192565b60006003603e83901c16600281111561238f5761238f6153ac565b60335460ff1615613e465760405162461bcd60e51b815260206004820152601060248201526f14185d5cd8589b194e881c185d5cd95960821b604482015260640161080e565b565b6000816000108015613e5a5750608082105b73__$61422835ae5e51fb34bedcfef91f75f833$__635b70017b60405180604001604052806002815260200161554360f01b81525060405180604001604052806002815260200161323360f01b8152506040518363ffffffff1660e01b8152600401613ec79291906152b9565b600060405180830381865af4158015613ee4573d6000803e3d6000fd5b505050506040513d6000823e601f3d908101601f19168201604052613f0c91908101906152f4565b90613f2a5760405162461bcd60e51b815260040161080e919061523e565b5060006001613f3a846002615889565b613f449190615722565b9390931c6001908116149392505050565b6000826000108015613f675750608083105b73__$61422835ae5e51fb34bedcfef91f75f833$__635b70017b60405180604001604052806002815260200161554360f01b81525060405180604001604052806002815260200161323360f01b8152506040518363ffffffff1660e01b8152600401613fd49291906152b9565b600060405180830381865af4158015613ff1573d6000803e3d6000fd5b505050506040513d6000823e601f3d908101601f1916820160405261401991908101906152f4565b906140375760405162461bcd60e51b815260040161080e919061523e565b5060006001614047856002615889565b6140519190615722565b90506001811b83156140685785179150611fd99050565b1985169150611fd99050565b604080516001600160a01b0385811660248301528416604482015260648082018490528251808303909101815260849091019091526020810180516001600160e01b03166323b872dd60e01b1790526140ce908590614888565b50505050565b60008260001080156140e7575061010083105b73__$61422835ae5e51fb34bedcfef91f75f833$__635b70017b60405180604001604052806003815260200162554e4360e81b81525060405180604001604052806002815260200161323360f01b8152506040518363ffffffff1660e01b81526004016141559291906152b9565b600060405180830381865af4158015614172573d6000803e3d6000fd5b505050506040513d6000823e601f3d908101601f1916820160405261419a91908101906152f4565b906141b85760405162461bcd60e51b815260040161080e919061523e565b506000614051600185615722565b60008160040160009054906101000a90046001600160a01b03166001600160a01b031663635ea27c6040518163ffffffff1660e01b8152600401602060405180830381865afa15801561421d573d6000803e3d6000fd5b505050506040513d601f19601f820116820180604052508101906142419190615709565b90506000806000614252858561495a565b9250925092506110188585848487614a86565b6001830154600480850154604080516318160ddd60e01b815290516001600160801b0380861695600160801b9004169360009385936001600160a01b03909116926318160ddd928281019260209291908290030181865afa1580156142ce573d6000803e3d6000fd5b505050506040513d601f19601f820116820180604052508101906142f29190615709565b6142fc9190615889565b905060008660010160009054906101000a90046001600160801b03166001600160801b0316856001600160a01b03166318160ddd6040518163ffffffff1660e01b8152600401602060405180830381865afa15801561435f573d6000803e3d6000fd5b505050506040513d601f19601f820116820180604052508101906143839190615709565b61438d9190615889565b600588015460408051633d9ada5160e21b8152600481018490526024810186905260006044820181905282519495509384936001600160a01b03169263f66b694492606480820193918290030181865afa1580156143ef573d6000803e3d6000fd5b505050506040513d601f19601f820116820180604052508101906144139190615865565b9150915061442082614a8b565b60028a0180546001600160801b0319166001600160801b039290921691909117905561444b81614a8b565b60028a0180546001600160801b03928316600160801b0292169190911790556040805183815260208101839052908101879052606081018690526001600160a01b038916907f4063a2df84b66bb796eb32622851d833e57b2c4292900c18f963af8808b13e359060800160405180910390a2505050505050505050565b60008260001080156144da5750608083105b73__$61422835ae5e51fb34bedcfef91f75f833$__635b70017b60405180604001604052806002815260200161554360f01b81525060405180604001604052806002815260200161323360f01b8152506040518363ffffffff1660e01b81526004016145479291906152b9565b600060405180830381865af4158015614564573d6000803e3d6000fd5b505050506040513d6000823e601f3d908101601f1916820160405261458c91908101906152f4565b906145aa5760405162461bcd60e51b815260040161080e919061523e565b50600060016145ba856002615889565b6145c49190615722565b905060006145d3600183615722565b6001901b905083156140685785179150611fd99050565b600381015460009064ffffffffff9081169042908116820361461957505050600101546001600160801b031690565b60018401546002850154600091614657916001600160801b0391821691614651911661464c64ffffffffff881687615722565b614af8565b90614b2c565b95945050505050565b806000141573__$61422835ae5e51fb34bedcfef91f75f833$__635b70017b604051806040016040528060018152602001602b60f91b81525060405180604001604052806002815260200161333360f01b8152506040518363ffffffff1660e01b81526004016146d19291906152b9565b600060405180830381865af41580156146ee573d6000803e3d6000fd5b505050506040513d6000823e601f3d908101601f1916820160405261471691908101906152f4565b906147345760405162461bcd60e51b815260040161080e919061523e565b506701000100000000008216151573__$61422835ae5e51fb34bedcfef91f75f833$__635b70017b604051806040016040528060018152602001602b60f91b81525060405180604001604052806002815260200161189960f11b8152506040518363ffffffff1660e01b81526004016147ae9291906152b9565b600060405180830381865af41580156147cb573d6000803e3d6000fd5b505050506040513d6000823e601f3d908101601f191682016040526147f391908101906152f4565b906131955760405162461bcd60e51b815260040161080e919061523e565b600381015460009064ffffffffff908116904290811682036148475750505060010154600160801b90046001600160801b031690565b60018401546002850154600091614657916001600160801b03600160801b9283900481169261465192041661488364ffffffffff881687615722565b614b7e565b60006148dd826040518060400160405280602081526020017f5361666545524332303a206c6f772d6c6576656c2063616c6c206661696c6564815250856001600160a01b0316614c929092919063ffffffff16565b80519091501561319557808060200190518101906148fb91906157b2565b6131955760405162461bcd60e51b815260206004820152602a60248201527f5361666545524332303a204552433230206f7065726174696f6e20646964206e6044820152691bdd081cdd58d8d9595960b21b606482015260840161080e565b600182015460038301546000916001600160801b03600160801b82048116928492919091169082906149939064ffffffffff1642615722565b60028801549091506001600160801b031615614a615760028701546000906149cb906001600160801b031664ffffffffff8416614af8565b90506149d78382614b2c565b95506149e286614a8b565b6001890180546001600160801b0319166001600160801b03929092169190911790558615614a5f576002880154600090614a3390600160801b90046001600160801b031664ffffffffff8516614b7e565b9050614a3f8682614b2c565b60018a0180546001600160801b03808416600160801b0291161790559450505b505b5050600394909401805464ffffffffff19164264ffffffffff16179055909390929150565b611018565b60006001600160801b03821115614af45760405162461bcd60e51b815260206004820152602760248201527f53616665436173743a2076616c756520646f65736e27742066697420696e20316044820152663238206269747360c81b606482015260840161080e565b5090565b600080614b058385615889565b6301e1338090049050614b24816b033b2e3c9fd0803ce800000061584d565b949350505050565b6000821580614b39575081155b15614b465750600061238f565b6b033b2e3c9fd0803ce80000006b019d971e4fe8401e74000000614b6a8486615889565b614b74919061584d565b611fd991906158be565b600081600003614b9b57506b033b2e3c9fd0803ce800000061238f565b60001982016000808060028611614bb3576000614bb8565b600286035b925066038882915c4000614bcc8880614b2c565b81614bd957614bd96158a8565b0491506301e13380614beb8389614b2c565b81614bf857614bf86158a8565b049050600082614c088689615889565b614c129190615889565b60029004905060008285614c26888b615889565b614c309190615889565b614c3a9190615889565b60069004905080826301e13380614c518b8d615889565b614c5b91906158be565b614c71906b033b2e3c9fd0803ce800000061584d565b614c7b919061584d565b614c85919061584d565b9998505050505050505050565b6060614b248484600085856001600160a01b0385163b614cf45760405162461bcd60e51b815260206004820152601d60248201527f416464726573733a2063616c6c20746f206e6f6e2d636f6e7472616374000000604482015260640161080e565b600080866001600160a01b03168587604051614d1091906158e0565b60006040518083038185875af1925050503d8060008114614d4d576040519150601f19603f3d011682016040523d82523d6000602084013e614d52565b606091505b5091509150614d62828286614d6d565b979650505050505050565b60608315614d7c575081611fd9565b825115614d8c5782518084602001fd5b8160405162461bcd60e51b815260040161080e919061523e565b60008083601f840112614db857600080fd5b50813567ffffffffffffffff811115614dd057600080fd5b6020830191508360208260051b8501011115614deb57600080fd5b9250929050565b6001600160a01b0381168114614e0757600080fd5b50565b60008060008060008060006080888a031215614e2557600080fd5b873567ffffffffffffffff80821115614e3d57600080fd5b614e498b838c01614da6565b909950975060208a0135915080821115614e6257600080fd5b614e6e8b838c01614da6565b909750955060408a0135915080821115614e8757600080fd5b50614e948a828b01614da6565b9094509250506060880135614ea881614df2565b8091505092959891949750929550565b600060208284031215614eca57600080fd5b8135611fd981614df2565b600080600080600060a08688031215614eed57600080fd5b8535614ef881614df2565b94506020860135614f0881614df2565b93506040860135614f1881614df2565b94979396509394606081013594506080013592915050565b81518152602080830151610160830191614f54908401826001600160801b03169052565b506040830151614f6f60408401826001600160801b03169052565b506060830151614f8a60608401826001600160801b03169052565b506080830151614fa560808401826001600160801b03169052565b5060a0830151614fbe60a084018264ffffffffff169052565b5060c0830151614fd960c08401826001600160a01b03169052565b5060e0830151614ff460e08401826001600160a01b03169052565b50610100838101516001600160a01b039081169184019190915261012080850151909116908301526101409283015160ff16929091019190915290565b6000806040838503121561504457600080fd5b823561504f81614df2565b946020939093013593505050565b6000806040838503121561507057600080fd5b823561507b81614df2565b9150602083013561508b81614df2565b809150509250929050565b8015158114614e0757600080fd5b600080600080600080600080600060c08a8c0312156150c257600080fd5b893567ffffffffffffffff808211156150da57600080fd5b6150e68d838e01614da6565b909b50995060208c01359150808211156150ff57600080fd5b61510b8d838e01614da6565b909950975060408c013591508082111561512457600080fd5b506151318c828d01614da6565b90965094505060608a013561514581614df2565b925060808a013561515581614df2565b915060a08a013561516581615096565b809150509295985092959850929598565b60008060006060848603121561518b57600080fd5b833561519681614df2565b92506020840135915060408401356151ad81614df2565b809150509250925092565b600080604083850312156151cb57600080fd5b82356151d681614df2565b9150602083013561508b81615096565b60005b838110156152015781810151838201526020016151e9565b838111156140ce5750506000910152565b6000815180845261522a8160208601602086016151e6565b601f01601f19169290920160200192915050565b602081526000611fd96020830184615212565b600080600080600060a0868803121561526957600080fd5b853561527481614df2565b945060208601359350604086013561528b81614df2565b9250606086013561529b81614df2565b915060808601356152ab81614df2565b809150509295509295909350565b6040815260006152cc6040830185615212565b82810360208401526146578185615212565b634e487b7160e01b600052604160045260246000fd5b60006020828403121561530657600080fd5b815167ffffffffffffffff8082111561531e57600080fd5b818401915084601f83011261533257600080fd5b815181811115615344576153446152de565b604051601f8201601f19908116603f0116810190838211818310171561536c5761536c6152de565b8160405282815287602084870101111561538557600080fd5b614d628360208301602088016151e6565b634e487b7160e01b600052603260045260246000fd5b634e487b7160e01b600052602160045260246000fd5b634e487b7160e01b600052601160045260246000fd5b6000600182016153ea576153ea6153c2565b5060010190565b60006020828403121561540357600080fd5b8151611fd981614df2565b805182526020808201519083015260408082015190830152606080820151908301526080808201516001600160a01b039081169184019190915260a09182015116910152565b60006101408201905086825285602083015284604083015283606083015261547f608083018461540e565b9695505050505050565b8183526000602080850194508260005b858110156154c75781356154ac81614df2565b6001600160a01b031687529582019590820190600101615499565b509495945050505050565b81835260006001600160fb1b038311156154eb57600080fd5b8260051b8083602087013760009401602001938452509192915050565b60608152600061551c60608301888a615489565b828103602084015261552f8187896154d2565b90508281036040840152614c858185876154d2565b60808152600061555860808301898b615489565b6001600160a01b0388166020840152828103604084015261557a8187896154d2565b9050828103606084015261558f8185876154d2565b9a9950505050505050505050565b600060e082840312156155af57600080fd5b60405160e0810181811067ffffffffffffffff821117156155d2576155d26152de565b8060405250825181526020830151602082015260408301516040820152606083015160608201526080830151608082015260a083015160a082015260c083015160c08201528091505092915050565b61562c82825161540e565b60208101516001600160a01b0390811660c084015260408201511660e083015260600151151561010090910152565b8b815260208082018c9052604082018b9052606082018a90526102006080830181905282018890526000906102208301908a90835b8b8110156156be5782356156a381614df2565b6001600160a01b031684529281019291810191600101615690565b50505082810360a08401526156d481888a6154d2565b905082810360c08401526156e98186886154d2565b9150506156f960e0830184615621565b9c9b505050505050505050505050565b60006020828403121561571b57600080fd5b5051919050565b600082821015615734576157346153c2565b500390565b6001600160a01b03948516815292909316602083015260408201526001600160801b03909116606082015260800190565b6001600160a01b03891681526020810188905260408101879052606081018690526080810185905260a0810184905260c081018390526101a08101614c8560e083018461540e565b6000602082840312156157c457600080fd5b8151611fd981615096565b848152602081018490526001600160a01b03831660408201526101208101614657606083018461540e565b60008060006060848603121561580f57600080fd5b8351925060208401519150604084015190509250925092565b600060ff821660ff84168060ff03821115615845576158456153c2565b019392505050565b60008219821115615860576158606153c2565b500190565b6000806040838503121561587857600080fd5b505080516020909101519092909150565b60008160001904831182151516156158a3576158a36153c2565b500290565b634e487b7160e01b600052601260045260246000fd5b6000826158db57634e487b7160e01b600052601260045260246000fd5b500490565b600082516158f28184602087016151e6565b919091019291505056fea2646970667358221220c26338851ab13353d10d1e28817b42ab31896ed898ac3ffe1c8f1efe0c522a8864736f6c634300080e0033",
  "linkReferences": {
    "contracts/libraries/Errors.sol": {
      "Errors": [
        {
          "length": 20,
          "start": 1889
        },
        {
          "length": 20,
          "start": 3424
        },
        {
          "length": 20,
          "start": 4281
        },
        {
          "length": 20,
          "start": 4545
        },
        {
          "length": 20,
          "start": 6086
        },
        {
          "length": 20,
          "start": 6441
        },
        {
          "length": 20,
          "start": 11436
        },
        {
          "length": 20,
          "start": 11657
        },
        {
          "length": 20,
          "start": 11952
        },
        {
          "length": 20,
          "start": 12309
        },
        {
          "length": 20,
          "start": 12852
        },
        {
          "length": 20,
          "start": 13073
        },
        {
          "length": 20,
          "start": 13368
        },
        {
          "length": 20,
          "start": 13740
        },
        {
          "length": 20,
          "start": 14863
        },
        {
          "length": 20,
          "start": 15997
        },
        {
          "length": 20,
          "start": 16266
        },
        {
          "length": 20,
          "start": 16650
        },
        {
          "length": 20,
          "start": 17661
        },
        {
          "length": 20,
          "start": 18056
        },
        {
          "length": 20,
          "start": 18277
        }
      ]
    },
    "contracts/libraries/core/LiquidationExecutor.sol": {
      "LiquidationExecutor": [
        {
          "length": 20,
          "start": 7394
        }
      ]
    },
    "contracts/libraries/core/ReserveVariableCalculator.sol": {
      "ReserveVariableCalculator": [
        {
          "length": 20,
          "start": 14460
        },
        {
          "length": 20,
          "start": 15527
        }
      ]
    },
    "contracts/libraries/core/UserVariableCalculator.sol": {
      "UserVariableCalculator": [
        {
          "length": 20,
          "start": 6800
        },
        {
          "length": 20,
          "start": 10060
        },
        {
          "length": 20,
          "start": 11042
        }
      ]
    },
    "contracts/libraries/core/Validator.sol": {
      "Validator": [
        {
          "length": 20,
          "start": 2189
        },
        {
          "length": 20,
          "start": 2995
        },
        {
          "length": 20,
          "start": 3714
        },
        {
          "length": 20,
          "start": 4836
        },
        {
          "length": 20,
          "start": 7721
        },
        {
          "length": 20,
          "start": 8289
        },
        {
          "length": 20,
          "start": 8655
        },
        {
          "length": 20,
          "start": 9289
        },
        {
          "length": 20,
          "start": 10593
        },
        {
          "length": 20,
          "start": 15163
        }
      ]
    },
    "contracts/libraries/types/NFTReserve.sol": {
      "NFTReserve": [
        {
          "length": 20,
          "start": 12223
        }
      ]
    },
    "contracts/libraries/types/Reserve.sol": {
      "Reserve": [
        {
          "length": 20,
          "start": 13655
        }
      ]
    }
  },
  "deployedLinkReferences": {
    "contracts/libraries/Errors.sol": {
      "Errors": [
        {
          "length": 20,
          "start": 1856
        },
        {
          "length": 20,
          "start": 3391
        },
        {
          "length": 20,
          "start": 4248
        },
        {
          "length": 20,
          "start": 4512
        },
        {
          "length": 20,
          "start": 6053
        },
        {
          "length": 20,
          "start": 6408
        },
        {
          "length": 20,
          "start": 11403
        },
        {
          "length": 20,
          "start": 11624
        },
        {
          "length": 20,
          "start": 11919
        },
        {
          "length": 20,
          "start": 12276
        },
        {
          "length": 20,
          "start": 12819
        },
        {
          "length": 20,
          "start": 13040
        },
        {
          "length": 20,
          "start": 13335
        },
        {
          "length": 20,
          "start": 13707
        },
        {
          "length": 20,
          "start": 14830
        },
        {
          "length": 20,
          "start": 15964
        },
        {
          "length": 20,
          "start": 16233
        },
        {
          "length": 20,
          "start": 16617
        },
        {
          "length": 20,
          "start": 17628
        },
        {
          "length": 20,
          "start": 18023
        },
        {
          "length": 20,
          "start": 18244
        }
      ]
    },
    "contracts/libraries/core/LiquidationExecutor.sol": {
      "LiquidationExecutor": [
        {
          "length": 20,
          "start": 7361
        }
      ]
    },
    "contracts/libraries/core/ReserveVariableCalculator.sol": {
      "ReserveVariableCalculator": [
        {
          "length": 20,
          "start": 14427
        },
        {
          "length": 20,
          "start": 15494
        }
      ]
    },
    "contracts/libraries/core/UserVariableCalculator.sol": {
      "UserVariableCalculator": [
        {
          "length": 20,
          "start": 6767
        },
        {
          "length": 20,
          "start": 10027
        },
        {
          "length": 20,
          "start": 11009
        }
      ]
    },
    "contracts/libraries/core/Validator.sol": {
      "Validator": [
        {
          "length": 20,
          "start": 2156
        },
        {
          "length": 20,
          "start": 2962
        },
        {
          "length": 20,
          "start": 3681
        },
        {
          "length": 20,
          "start": 4803
        },
        {
          "length": 20,
          "start": 7688
        },
        {
          "length": 20,
          "start": 8256
        },
        {
          "length": 20,
          "start": 8622
        },
        {
          "length": 20,
          "start": 9256
        },
        {
          "length": 20,
          "start": 10560
        },
        {
          "length": 20,
          "start": 15130
        }
      ]
    },
    "contracts/libraries/types/NFTReserve.sol": {
      "NFTReserve": [
        {
          "length": 20,
          "start": 12190
        }
      ]
    },
    "contracts/libraries/types/Reserve.sol": {
      "Reserve": [
        {
          "length": 20,
          "start": 13622
        }
      ]
    }
  }
}