{
  "_format": "hh-sol-artifact-1",
  "contractName": "LendingPool",
  "sourceName": "contracts/pool/lendingpool/LendingPool.sol",
  "abi": [
    {
      "anonymous": false,
      "inputs": [
        {
          "indexed": true,
          "internalType": "address",
          "name": "asset",
          "type": "address"
        },
        {
          "indexed": true,
          "internalType": "address",
          "name": "from",
          "type": "address"
        },
        {
          "indexed": true,
          "internalType": "address",
          "name": "to",
          "type": "address"
        },
        {
          "indexed": false,
          "internalType": "uint256",
          "name": "amount",
          "type": "uint256"
        },
        {
          "indexed": false,
          "internalType": "uint256",
          "name": "borrowRate",
          "type": "uint256"
        }
      ],
      "name": "Borrowed",
      "type": "event"
    },
    {
      "anonymous": false,
      "inputs": [
        {
          "indexed": true,
          "internalType": "address",
          "name": "asset",
          "type": "address"
        },
        {
          "indexed": true,
          "internalType": "address",
          "name": "user",
          "type": "address"
        },
        {
          "indexed": false,
          "internalType": "bool",
          "name": "status",
          "type": "bool"
        }
      ],
      "name": "CollateralStatusUpdated",
      "type": "event"
    },
    {
      "anonymous": false,
      "inputs": [
        {
          "indexed": true,
          "internalType": "address",
          "name": "asset",
          "type": "address"
        },
        {
          "indexed": false,
          "internalType": "address",
          "name": "user",
          "type": "address"
        },
        {
          "indexed": true,
          "internalType": "address",
          "name": "to",
          "type": "address"
        },
        {
          "indexed": false,
          "internalType": "uint256",
          "name": "amount",
          "type": "uint256"
        }
      ],
      "name": "Deposited",
      "type": "event"
    },
    {
      "anonymous": false,
      "inputs": [
        {
          "indexed": false,
          "internalType": "uint8",
          "name": "version",
          "type": "uint8"
        }
      ],
      "name": "Initialized",
      "type": "event"
    },
    {
      "anonymous": false,
      "inputs": [
        {
          "indexed": false,
          "internalType": "address[]",
          "name": "nfts",
          "type": "address[]"
        },
        {
          "indexed": false,
          "internalType": "uint256[]",
          "name": "tokenIds",
          "type": "uint256[]"
        },
        {
          "indexed": false,
          "internalType": "uint256[]",
          "name": "amounts",
          "type": "uint256[]"
        },
        {
          "indexed": false,
          "internalType": "address",
          "name": "debt",
          "type": "address"
        },
        {
          "indexed": false,
          "internalType": "address",
          "name": "user",
          "type": "address"
        },
        {
          "indexed": false,
          "internalType": "uint256",
          "name": "debtCovered",
          "type": "uint256"
        },
        {
          "indexed": false,
          "internalType": "address",
          "name": "liquidator",
          "type": "address"
        },
        {
          "indexed": false,
          "internalType": "bool",
          "name": "receiveTNFT",
          "type": "bool"
        }
      ],
      "name": "Liquidated",
      "type": "event"
    },
    {
      "anonymous": false,
      "inputs": [
        {
          "indexed": false,
          "internalType": "address[]",
          "name": "nfts",
          "type": "address[]"
        },
        {
          "indexed": false,
          "internalType": "address",
          "name": "user",
          "type": "address"
        },
        {
          "indexed": true,
          "internalType": "address",
          "name": "onBehalfOf",
          "type": "address"
        },
        {
          "indexed": false,
          "internalType": "uint256[]",
          "name": "tokenIds",
          "type": "uint256[]"
        },
        {
          "indexed": false,
          "internalType": "uint256[]",
          "name": "amounts",
          "type": "uint256[]"
        }
      ],
      "name": "NFTsDeposited",
      "type": "event"
    },
    {
      "anonymous": false,
      "inputs": [
        {
          "indexed": false,
          "internalType": "address[]",
          "name": "nfts",
          "type": "address[]"
        },
        {
          "indexed": true,
          "internalType": "address",
          "name": "user",
          "type": "address"
        },
        {
          "indexed": true,
          "internalType": "address",
          "name": "to",
          "type": "address"
        },
        {
          "indexed": false,
          "internalType": "uint256[]",
          "name": "tokenIds",
          "type": "uint256[]"
        },
        {
          "indexed": false,
          "internalType": "uint256[]",
          "name": "amounts",
          "type": "uint256[]"
        }
      ],
      "name": "NFTsWithdrawn",
      "type": "event"
    },
    {
      "anonymous": false,
      "inputs": [
        {
          "indexed": false,
          "internalType": "address",
          "name": "account",
          "type": "address"
        }
      ],
      "name": "Paused",
      "type": "event"
    },
    {
      "anonymous": false,
      "inputs": [
        {
          "indexed": true,
          "internalType": "address",
          "name": "asset",
          "type": "address"
        },
        {
          "indexed": true,
          "internalType": "address",
          "name": "initiator",
          "type": "address"
        },
        {
          "indexed": true,
          "internalType": "address",
          "name": "to",
          "type": "address"
        },
        {
          "indexed": false,
          "internalType": "uint256",
          "name": "amount",
          "type": "uint256"
        }
      ],
      "name": "Repaid",
      "type": "event"
    },
    {
      "anonymous": false,
      "inputs": [
        {
          "indexed": true,
          "internalType": "address",
          "name": "asset",
          "type": "address"
        },
        {
          "indexed": false,
          "internalType": "uint256",
          "name": "depositRate",
          "type": "uint256"
        },
        {
          "indexed": false,
          "internalType": "uint256",
          "name": "borrowRate",
          "type": "uint256"
        },
        {
          "indexed": false,
          "internalType": "uint256",
          "name": "liquidityIndex",
          "type": "uint256"
        },
        {
          "indexed": false,
          "internalType": "uint256",
          "name": "debtIndex",
          "type": "uint256"
        }
      ],
      "name": "ReserveDataUpdated",
      "type": "event"
    },
    {
      "anonymous": false,
      "inputs": [
        {
          "indexed": false,
          "internalType": "address",
          "name": "account",
          "type": "address"
        }
      ],
      "name": "Unpaused",
      "type": "event"
    },
    {
      "anonymous": false,
      "inputs": [
        {
          "indexed": true,
          "internalType": "address",
          "name": "asset",
          "type": "address"
        },
        {
          "indexed": true,
          "internalType": "address",
          "name": "user",
          "type": "address"
        },
        {
          "indexed": true,
          "internalType": "address",
          "name": "to",
          "type": "address"
        },
        {
          "indexed": false,
          "internalType": "uint256",
          "name": "amount",
          "type": "uint256"
        }
      ],
      "name": "Withdrawn",
      "type": "event"
    },
    {
      "inputs": [],
      "name": "ADDRESS_PROVIDER",
      "outputs": [
        {
          "internalType": "contract ITakerAddressesProvider",
          "name": "",
          "type": "address"
        }
      ],
      "stateMutability": "view",
      "type": "function"
    },
    {
      "inputs": [],
      "name": "MAX_NUMBER_NFT_RESERVES",
      "outputs": [
        {
          "internalType": "uint256",
          "name": "",
          "type": "uint256"
        }
      ],
      "stateMutability": "view",
      "type": "function"
    },
    {
      "inputs": [],
      "name": "MAX_NUMBER_RESERVES",
      "outputs": [
        {
          "internalType": "uint256",
          "name": "",
          "type": "uint256"
        }
      ],
      "stateMutability": "view",
      "type": "function"
    },
    {
      "inputs": [],
      "name": "NAME",
      "outputs": [
        {
          "internalType": "string",
          "name": "",
          "type": "string"
        }
      ],
      "stateMutability": "view",
      "type": "function"
    },
    {
      "inputs": [],
      "name": "WETHGateway",
      "outputs": [
        {
          "internalType": "address",
          "name": "",
          "type": "address"
        }
      ],
      "stateMutability": "view",
      "type": "function"
    },
    {
      "inputs": [
        {
          "internalType": "address",
          "name": "asset",
          "type": "address"
        },
        {
          "internalType": "uint256",
          "name": "amount",
          "type": "uint256"
        },
        {
          "internalType": "address",
          "name": "from",
          "type": "address"
        }
      ],
      "name": "borrow",
      "outputs": [],
      "stateMutability": "nonpayable",
      "type": "function"
    },
    {
      "inputs": [
        {
          "internalType": "address",
          "name": "asset",
          "type": "address"
        }
      ],
      "name": "deleteReserve",
      "outputs": [],
      "stateMutability": "nonpayable",
      "type": "function"
    },
    {
      "inputs": [
        {
          "internalType": "address",
          "name": "asset",
          "type": "address"
        },
        {
          "internalType": "uint256",
          "name": "amount",
          "type": "uint256"
        },
        {
          "internalType": "address",
          "name": "to",
          "type": "address"
        }
      ],
      "name": "deposit",
      "outputs": [],
      "stateMutability": "nonpayable",
      "type": "function"
    },
    {
      "inputs": [
        {
          "internalType": "address[]",
          "name": "nfts",
          "type": "address[]"
        },
        {
          "internalType": "uint256[]",
          "name": "tokenIds",
          "type": "uint256[]"
        },
        {
          "internalType": "uint256[]",
          "name": "amounts",
          "type": "uint256[]"
        },
        {
          "internalType": "address",
          "name": "to",
          "type": "address"
        }
      ],
      "name": "depositNFTs",
      "outputs": [],
      "stateMutability": "nonpayable",
      "type": "function"
    },
    {
      "inputs": [
        {
          "internalType": "address",
          "name": "asset",
          "type": "address"
        }
      ],
      "name": "getAssetValues",
      "outputs": [
        {
          "internalType": "uint256",
          "name": "",
          "type": "uint256"
        },
        {
          "internalType": "uint256",
          "name": "",
          "type": "uint256"
        }
      ],
      "stateMutability": "view",
      "type": "function"
    },
    {
      "inputs": [
        {
          "internalType": "address",
          "name": "asset",
          "type": "address"
        }
      ],
      "name": "getNftReserveConfig",
      "outputs": [
        {
          "internalType": "ReserveConfiguration",
          "name": "",
          "type": "uint256"
        }
      ],
      "stateMutability": "view",
      "type": "function"
    },
    {
      "inputs": [
        {
          "internalType": "address",
          "name": "asset",
          "type": "address"
        }
      ],
      "name": "getNftReserveData",
      "outputs": [
        {
          "components": [
            {
              "internalType": "ReserveConfiguration",
              "name": "configuration",
              "type": "uint256"
            },
            {
              "internalType": "address",
              "name": "tNFTAddress",
              "type": "address"
            },
            {
              "internalType": "uint8",
              "name": "id",
              "type": "uint8"
            }
          ],
          "internalType": "struct NFTReserve.ReserveData",
          "name": "",
          "type": "tuple"
        }
      ],
      "stateMutability": "view",
      "type": "function"
    },
    {
      "inputs": [],
      "name": "getPoolValues",
      "outputs": [
        {
          "internalType": "uint256",
          "name": "",
          "type": "uint256"
        },
        {
          "internalType": "uint256",
          "name": "",
          "type": "uint256"
        },
        {
          "internalType": "uint256",
          "name": "",
          "type": "uint256"
        }
      ],
      "stateMutability": "view",
      "type": "function"
    },
    {
      "inputs": [
        {
          "internalType": "address",
          "name": "asset",
          "type": "address"
        }
      ],
      "name": "getReserveConfig",
      "outputs": [
        {
          "internalType": "ReserveConfiguration",
          "name": "",
          "type": "uint256"
        }
      ],
      "stateMutability": "view",
      "type": "function"
    },
    {
      "inputs": [
        {
          "internalType": "address",
          "name": "asset",
          "type": "address"
        }
      ],
      "name": "getReserveData",
      "outputs": [
        {
          "components": [
            {
              "internalType": "ReserveConfiguration",
              "name": "configuration",
              "type": "uint256"
            },
            {
              "internalType": "uint128",
              "name": "liquidityIndex",
              "type": "uint128"
            },
            {
              "internalType": "uint128",
              "name": "debtIndex",
              "type": "uint128"
            },
            {
              "internalType": "uint128",
              "name": "depositRate",
              "type": "uint128"
            },
            {
              "internalType": "uint128",
              "name": "borrowRate",
              "type": "uint128"
            },
            {
              "internalType": "uint40",
              "name": "lastUpdateTimestamp",
              "type": "uint40"
            },
            {
              "internalType": "address",
              "name": "tTokenAddress",
              "type": "address"
            },
            {
              "internalType": "address",
              "name": "debtTokenAddress",
              "type": "address"
            },
            {
              "internalType": "address",
              "name": "interestRateCalculatorAddress",
              "type": "address"
            },
            {
              "internalType": "address",
              "name": "treasury",
              "type": "address"
            },
            {
              "internalType": "uint8",
              "name": "id",
              "type": "uint8"
            }
          ],
          "internalType": "struct Reserve.ReserveData",
          "name": "",
          "type": "tuple"
        }
      ],
      "stateMutability": "view",
      "type": "function"
    },
    {
      "inputs": [
        {
          "internalType": "address",
          "name": "asset",
          "type": "address"
        }
      ],
      "name": "getReserveNormalizedDebtScale",
      "outputs": [
        {
          "internalType": "uint256",
          "name": "",
          "type": "uint256"
        }
      ],
      "stateMutability": "view",
      "type": "function"
    },
    {
      "inputs": [
        {
          "internalType": "address",
          "name": "asset",
          "type": "address"
        }
      ],
      "name": "getReserveNormalizedLiquidityScale",
      "outputs": [
        {
          "internalType": "uint256",
          "name": "",
          "type": "uint256"
        }
      ],
      "stateMutability": "view",
      "type": "function"
    },
    {
      "inputs": [
        {
          "internalType": "address",
          "name": "user",
          "type": "address"
        },
        {
          "internalType": "address",
          "name": "asset",
          "type": "address"
        }
      ],
      "name": "getUserAssetValues",
      "outputs": [
        {
          "internalType": "uint256",
          "name": "",
          "type": "uint256"
        },
        {
          "internalType": "uint256",
          "name": "",
          "type": "uint256"
        },
        {
          "internalType": "uint256",
          "name": "",
          "type": "uint256"
        }
      ],
      "stateMutability": "view",
      "type": "function"
    },
    {
      "inputs": [
        {
          "internalType": "address",
          "name": "user",
          "type": "address"
        }
      ],
      "name": "getUserConfig",
      "outputs": [
        {
          "internalType": "UserConfiguration",
          "name": "",
          "type": "uint256"
        }
      ],
      "stateMutability": "view",
      "type": "function"
    },
    {
      "inputs": [
        {
          "internalType": "address",
          "name": "user",
          "type": "address"
        }
      ],
      "name": "getUserNftConfig",
      "outputs": [
        {
          "internalType": "UserNftConfiguration",
          "name": "",
          "type": "uint256"
        }
      ],
      "stateMutability": "view",
      "type": "function"
    },
    {
      "inputs": [
        {
          "internalType": "address",
          "name": "user",
          "type": "address"
        }
      ],
      "name": "getUserState",
      "outputs": [
        {
          "internalType": "uint256",
          "name": "",
          "type": "uint256"
        },
        {
          "internalType": "uint256",
          "name": "",
          "type": "uint256"
        },
        {
          "internalType": "uint256",
          "name": "",
          "type": "uint256"
        }
      ],
      "stateMutability": "view",
      "type": "function"
    },
    {
      "inputs": [
        {
          "internalType": "address",
          "name": "user",
          "type": "address"
        }
      ],
      "name": "getUserValues",
      "outputs": [
        {
          "internalType": "uint256",
          "name": "",
          "type": "uint256"
        },
        {
          "internalType": "uint256",
          "name": "",
          "type": "uint256"
        },
        {
          "internalType": "uint256",
          "name": "",
          "type": "uint256"
        },
        {
          "internalType": "uint256",
          "name": "",
          "type": "uint256"
        }
      ],
      "stateMutability": "view",
      "type": "function"
    },
    {
      "inputs": [
        {
          "internalType": "address",
          "name": "asset",
          "type": "address"
        },
        {
          "internalType": "ReserveConfiguration",
          "name": "configuration",
          "type": "uint256"
        },
        {
          "internalType": "address",
          "name": "tNFTAddress",
          "type": "address"
        }
      ],
      "name": "initNFTReserve",
      "outputs": [],
      "stateMutability": "nonpayable",
      "type": "function"
    },
    {
      "inputs": [
        {
          "internalType": "address",
          "name": "asset",
          "type": "address"
        },
        {
          "internalType": "ReserveConfiguration",
          "name": "configuration",
          "type": "uint256"
        },
        {
          "internalType": "address",
          "name": "tTokenAddress",
          "type": "address"
        },
        {
          "internalType": "address",
          "name": "debtAddress",
          "type": "address"
        },
        {
          "internalType": "address",
          "name": "interestRateStrategyAddress",
          "type": "address"
        }
      ],
      "name": "initReserve",
      "outputs": [],
      "stateMutability": "nonpayable",
      "type": "function"
    },
    {
      "inputs": [
        {
          "internalType": "contract ITakerAddressesProvider",
          "name": "provider",
          "type": "address"
        }
      ],
      "name": "initialize",
      "outputs": [],
      "stateMutability": "nonpayable",
      "type": "function"
    },
    {
      "inputs": [
        {
          "internalType": "address[]",
          "name": "nfts",
          "type": "address[]"
        },
        {
          "internalType": "uint256[]",
          "name": "tokenIds",
          "type": "uint256[]"
        },
        {
          "internalType": "uint256[]",
          "name": "amounts",
          "type": "uint256[]"
        },
        {
          "internalType": "address",
          "name": "debt",
          "type": "address"
        },
        {
          "internalType": "address",
          "name": "user",
          "type": "address"
        },
        {
          "internalType": "bool",
          "name": "receiveTNFT",
          "type": "bool"
        }
      ],
      "name": "liquidate",
      "outputs": [],
      "stateMutability": "nonpayable",
      "type": "function"
    },
    {
      "inputs": [],
      "name": "paused",
      "outputs": [
        {
          "internalType": "bool",
          "name": "",
          "type": "bool"
        }
      ],
      "stateMutability": "view",
      "type": "function"
    },
    {
      "inputs": [
        {
          "internalType": "address",
          "name": "asset",
          "type": "address"
        },
        {
          "internalType": "uint256",
          "name": "amount",
          "type": "uint256"
        },
        {
          "internalType": "address",
          "name": "to",
          "type": "address"
        }
      ],
      "name": "repay",
      "outputs": [
        {
          "internalType": "uint256",
          "name": "",
          "type": "uint256"
        }
      ],
      "stateMutability": "nonpayable",
      "type": "function"
    },
    {
      "inputs": [
        {
          "internalType": "address",
          "name": "asset",
          "type": "address"
        },
        {
          "internalType": "ReserveConfiguration",
          "name": "configuration",
          "type": "uint256"
        }
      ],
      "name": "setNftReserveConfig",
      "outputs": [],
      "stateMutability": "nonpayable",
      "type": "function"
    },
    {
      "inputs": [
        {
          "internalType": "address",
          "name": "asset",
          "type": "address"
        },
        {
          "internalType": "ReserveConfiguration",
          "name": "configuration",
          "type": "uint256"
        }
      ],
      "name": "setReserveConfig",
      "outputs": [],
      "stateMutability": "nonpayable",
      "type": "function"
    },
    {
      "inputs": [
        {
          "internalType": "address",
          "name": "asset",
          "type": "address"
        },
        {
          "internalType": "address",
          "name": "interestRateCalculatorAddress",
          "type": "address"
        }
      ],
      "name": "setReserveInterestRateCalculatorAddress",
      "outputs": [],
      "stateMutability": "nonpayable",
      "type": "function"
    },
    {
      "inputs": [
        {
          "internalType": "address",
          "name": "asset",
          "type": "address"
        },
        {
          "internalType": "bool",
          "name": "usingAsCollateral",
          "type": "bool"
        }
      ],
      "name": "setUserUsingAsCollateral",
      "outputs": [],
      "stateMutability": "nonpayable",
      "type": "function"
    },
    {
      "inputs": [
        {
          "internalType": "address",
          "name": "wETHGateway",
          "type": "address"
        }
      ],
      "name": "setWETHGateway",
      "outputs": [],
      "stateMutability": "nonpayable",
      "type": "function"
    },
    {
      "inputs": [
        {
          "internalType": "address",
          "name": "asset",
          "type": "address"
        },
        {
          "internalType": "uint256",
          "name": "amount",
          "type": "uint256"
        },
        {
          "internalType": "address",
          "name": "from",
          "type": "address"
        },
        {
          "internalType": "address",
          "name": "to",
          "type": "address"
        }
      ],
      "name": "withdraw",
      "outputs": [],
      "stateMutability": "nonpayable",
      "type": "function"
    },
    {
      "inputs": [
        {
          "internalType": "address[]",
          "name": "nfts",
          "type": "address[]"
        },
        {
          "internalType": "uint256[]",
          "name": "tokenIds",
          "type": "uint256[]"
        },
        {
          "internalType": "uint256[]",
          "name": "amounts",
          "type": "uint256[]"
        },
        {
          "internalType": "address",
          "name": "to",
          "type": "address"
        }
      ],
      "name": "withdrawNFTs",
      "outputs": [],
      "stateMutability": "nonpayable",
      "type": "function"
    }
  ],
  "bytecode": "0x608060405234801561001057600080fd5b50615ab780620000216000396000f3fe608060405234801561001057600080fd5b50600436106102115760003560e01c80637439e78711610125578063c4d66de8116100ad578063e7dc9ef61161007c578063e7dc9ef61461066b578063f45346dc14610674578063f505743a14610687578063f66fdcca14610720578063f8119d511461072857600080fd5b8063c4d66de81461060a578063cca5bffd1461061d578063d6cc07ae14610645578063dfcd412e1461065857600080fd5b8063a0367eb8116100f4578063a0367eb81461057a578063a3f4df7e1461058d578063ac4b088c146105bb578063bd05bdb4146105ce578063c1b4ab8f146105f757600080fd5b80637439e7871461050e57806377a8313e146105415780637d2fd4cc14610554578063903e61a41461056757600080fd5b80633c34822e116101a85780635c975abb116101775780635c975abb146104ac5780635ceae9c4146104c257806363814192146104d557806369cab562146104e85780636c665a55146104fb57600080fd5b80633c34822e1461042f578063416ae7681461044257806342cc41e5146104705780634d8da72c1461049957600080fd5b806321da5837116101e457806321da5837146102bb57806322829a21146102ce57806335ea6a75146102e1578063377895621461041c57600080fd5b806311de1fee1461021657806316626ab91461022b5780631848effa146102675780631ac7346614610292575b600080fd5b610229610224366004614f1f565b610730565b005b610254610239366004614fcd565b6001600160a01b031660009081526068602052604090205490565b6040519081526020015b60405180910390f35b60655461027a906001600160a01b031681565b6040516001600160a01b03909116815260200161025e565b6102546102a0366004614fcd565b6001600160a01b031660009081526069602052604090205490565b6102296102c9366004614fcd565b610ccd565b6102296102dc366004614f1f565b610e36565b61040f6102ef366004614fcd565b6040805161016081018252600080825260208201819052918101829052606081018290526080810182905260a0810182905260c0810182905260e0810182905261010081018290526101208101829052610140810191909152506001600160a01b039081166000908152606660209081526040918290208251610160810184528154815260018201546001600160801b0380821694830194909452600160801b9081900484169482019490945260028201548084166060830152939093049091166080830152600381015464ffffffffff811660a0840152600160281b9004831660c08301526004810154831660e08301526005810154831661010083015260060154918216610120820152600160a01b90910460ff1661014082015290565b60405161025e9190614fea565b61022961042a3660046150eb565b6113f4565b61022961043d366004615117565b611557565b610455610450366004614fcd565b6116cf565b6040805193845260208401929092529082015260600161025e565b61025461047e366004614fcd565b6001600160a01b031660009081526067602052604090205490565b6102296104a736600461515e565b61183d565b60335460ff16604051901515815260200161025e565b6102546104d0366004615230565b611a12565b6102296104e3366004614fcd565b611ca8565b6102546104f6366004614fcd565b612083565b610229610509366004615230565b6120aa565b61052161051c366004614fcd565b6123d7565b60408051948552602085019390935291830152606082015260800161025e565b61022961054f366004615272565b61254b565b610455610562366004615117565b6127cc565b610254610575366004614fcd565b612922565b606e5461027a906001600160a01b031681565b6105ae6040518060400160405280600281526020016104c560f41b81525081565b60405161025e91906152f8565b6102296105c9366004615230565b612943565b6102546105dc366004614fcd565b6001600160a01b031660009081526066602052604090205490565b61022961060536600461530b565b612eca565b610229610618366004614fcd565b613461565b61063061062b366004614fcd565b6134ea565b6040805192835260208301919091520161025e565b6102296106533660046150eb565b613609565b610229610666366004615373565b61376c565b61025461010081565b610229610682366004615230565b613b96565b6106f2610695366004614fcd565b6040805160608082018352600080835260208084018290529284018190526001600160a01b0394851681526067835283902083519182018452805482526001015493841691810191909152600160a01b90920460ff169082015290565b60408051825181526020808401516001600160a01b0316908201529181015160ff169082015260600161025e565b610455613d58565b610254608081565b858414801561073e57508582145b73__$61422835ae5e51fb34bedcfef91f75f833$__635b70017b6040518060400160405280600281526020016104c560f41b815250604051806040016040528060018152602001603960f81b8152506040518363ffffffff1660e01b81526004016107aa9291906153c6565b600060405180830381865af41580156107c7573d6000803e3d6000fd5b505050506040513d6000823e601f3d908101601f191682016040526107ef9190810190615401565b906108165760405162461bcd60e51b815260040161080d91906152f8565b60405180910390fd5b5060005b86811015610b01576000888883818110610836576108366154a3565b905060200201602081019061084b9190614fcd565b6001600160a01b038116600090815260676020526040902080549192509073__$49b23b5becc4a0db881be9d6da702c31a0$__63eaeac49882898988818110610896576108966154a3565b905060200201356040518363ffffffff1660e01b81526004016108c3929190918252602082015260400190565b60006040518083038186803b1580156108db57600080fd5b505af41580156108ef573d6000803e3d6000fd5b5050505060006108fe82613ebe565b60018401549091506001600160a01b03166000826002811115610923576109236154b9565b036109c057806001600160a01b031663f6b911bc33898c8c8b81811061094b5761094b6154a3565b6040516001600160e01b031960e088901b1681526001600160a01b039586166004820152949093166024850152506020909102013560448201526064015b600060405180830381600087803b1580156109a357600080fd5b505af11580156109b7573d6000803e3d6000fd5b50505050610ae9565b60018260028111156109d4576109d46154b9565b03610a3557806001600160a01b0316639dc29fac888d8d8a8181106109fb576109fb6154a3565b6040516001600160e01b031960e087901b1681526001600160a01b0390941660048501526020029190910135602483015250604401610989565b806001600160a01b031663d7020d0a33898e8e8b818110610a5857610a586154a3565b905060200201358d8d8c818110610a7157610a716154a3565b6040516001600160e01b031960e089901b1681526001600160a01b039687166004820152959094166024860152506044840191909152602090910201356064820152608401600060405180830381600087803b158015610ad057600080fd5b505af1158015610ae4573d6000803e3d6000fd5b505050505b50505050508080610af9906154e5565b91505061081a565b50336000908152606860205260409020547f5555555555555555555555555555555555555555555555555555555555555555811615610c6e576040805160c0810182523360008181526068602090815284822054845282825260698152908490205481840152606c5483850152606d54606084015260808301919091526065548351631f94a27560e31b8152935173__$49b23b5becc4a0db881be9d6da702c31a0$__94633264718594606694606794606a94606b9460a08501936001600160a01b039093169263fca513a8926004808401938290030181865afa158015610bed573d6000803e3d6000fd5b505050506040513d601f19601f82011682018060405250810190610c1191906154fe565b6001600160a01b03168152506040518663ffffffff1660e01b8152600401610c3d959493929190615561565b60006040518083038186803b158015610c5557600080fd5b505af4158015610c69573d6000803e3d6000fd5b505050505b816001600160a01b0316336001600160a01b03167f48eac33deb1e55a1830198e6ac4844ec184d637a9b123d0fce3f38c8a4f6d3028a8a8a8a8a8a604051610cbb96959493929190615615565b60405180910390a35050505050505050565b606554604080516385c858b160e01b8152905133926001600160a01b0316916385c858b19160048083019260209291908290030181865afa158015610d16573d6000803e3d6000fd5b505050506040513d601f19601f82011682018060405250810190610d3a91906154fe565b6001600160a01b03161473__$61422835ae5e51fb34bedcfef91f75f833$__635b70017b6040518060400160405280600281526020016104c560f41b815250604051806040016040528060018152602001601960f91b8152506040518363ffffffff1660e01b8152600401610db09291906153c6565b600060405180830381865af4158015610dcd573d6000803e3d6000fd5b505050506040513d6000823e601f3d908101601f19168201604052610df59190810190615401565b90610e135760405162461bcd60e51b815260040161080d91906152f8565b50606e80546001600160a01b0319166001600160a01b0392909216919091179055565b60335460ff1615610e595760405162461bcd60e51b815260040161080d90615651565b8584148015610e6757508582145b73__$61422835ae5e51fb34bedcfef91f75f833$__635b70017b6040518060400160405280600281526020016104c560f41b815250604051806040016040528060018152602001603960f81b8152506040518363ffffffff1660e01b8152600401610ed39291906153c6565b600060405180830381865af4158015610ef0573d6000803e3d6000fd5b505050506040513d6000823e601f3d908101601f19168201604052610f189190810190615401565b90610f365760405162461bcd60e51b815260040161080d91906152f8565b5060005b8681101561139d576000888883818110610f5657610f566154a3565b9050602002016020810190610f6b9190614fcd565b6001600160a01b038116600090815260676020526040902080549192509073__$49b23b5becc4a0db881be9d6da702c31a0$__63eaeac49882898988818110610fb657610fb66154a3565b905060200201356040518363ffffffff1660e01b8152600401610fe3929190918252602082015260400190565b60006040518083038186803b158015610ffb57600080fd5b505af415801561100f573d6000803e3d6000fd5b50505050600061101e82613ebe565b60018401549091506001600160a01b03166000826002811115611043576110436154b9565b0361110e5761108033828b8b8a81811061105f5761105f6154a3565b90506020020135886001600160a01b0316613ed9909392919063ffffffff16565b806001600160a01b03166340c10f19888b8b8a8181106110a2576110a26154a3565b6040516001600160e01b031960e087901b1681526001600160a01b0390941660048501526020029190910135602483015250604401600060405180830381600087803b1580156110f157600080fd5b505af1158015611105573d6000803e3d6000fd5b50505050611346565b6001826002811115611122576111226154b9565b036111db57846001600160a01b03166342842e0e33838e8e8b81811061114a5761114a6154a3565b6040516001600160e01b031960e088901b1681526001600160a01b03958616600482015294909316602485015250602090910201356044820152606401600060405180830381600087803b1580156111a157600080fd5b505af11580156111b5573d6000803e3d6000fd5b50505050806001600160a01b03166340c10f19888d8d8a8181106110a2576110a26154a3565b846001600160a01b031663f242432a33838e8e8b8181106111fe576111fe6154a3565b905060200201358d8d8c818110611217576112176154a3565b6040516001600160e01b031960e089901b1681526001600160a01b03968716600482015295909416602486015250604484019190915260209091020135606482015260a06084820152600060a482015260c401600060405180830381600087803b15801561128457600080fd5b505af1158015611298573d6000803e3d6000fd5b50505050806001600160a01b031663156e29f6888d8d8a8181106112be576112be6154a3565b905060200201358c8c8b8181106112d7576112d76154a3565b6040516001600160e01b031960e088901b1681526001600160a01b039095166004860152602485019390935250602090910201356044820152606401600060405180830381600087803b15801561132d57600080fd5b505af1158015611341573d6000803e3d6000fd5b505050505b60018481015433600090815260696020526040902054611372929091600160a01b900460ff1690613f39565b336000908152606960205260409020555084935061139592508391506154e59050565b915050610f3a565b50806001600160a01b03167fe8fc25468d5934edd8e14713fb476225e79e9f1c482a30a89b23e3168009269b888833898989896040516113e3979695949392919061567b565b60405180910390a250505050505050565b606554604080516385c858b160e01b8152905133926001600160a01b0316916385c858b19160048083019260209291908290030181865afa15801561143d573d6000803e3d6000fd5b505050506040513d601f19601f8201168201806040525081019061146191906154fe565b6001600160a01b03161473__$61422835ae5e51fb34bedcfef91f75f833$__635b70017b6040518060400160405280600281526020016104c560f41b815250604051806040016040528060018152602001601960f91b8152506040518363ffffffff1660e01b81526004016114d79291906153c6565b600060405180830381865af41580156114f4573d6000803e3d6000fd5b505050506040513d6000823e601f3d908101601f1916820160405261151c9190810190615401565b9061153a5760405162461bcd60e51b815260040161080d91906152f8565b506001600160a01b03909116600090815260666020526040902055565b606554604080516385c858b160e01b8152905133926001600160a01b0316916385c858b19160048083019260209291908290030181865afa1580156115a0573d6000803e3d6000fd5b505050506040513d601f19601f820116820180604052508101906115c491906154fe565b6001600160a01b03161473__$61422835ae5e51fb34bedcfef91f75f833$__635b70017b6040518060400160405280600281526020016104c560f41b815250604051806040016040528060018152602001601960f91b8152506040518363ffffffff1660e01b815260040161163a9291906153c6565b600060405180830381865af4158015611657573d6000803e3d6000fd5b505050506040513d6000823e601f3d908101601f1916820160405261167f9190810190615401565b9061169d5760405162461bcd60e51b815260040161080d91906152f8565b506001600160a01b03918216600090815260666020526040902060050180546001600160a01b03191691909216179055565b6040805160c0810182526001600160a01b03808416600081815260686020908152858220548552828252606981528582205481860152606c5485870152606d54606086015260808501929092526065548551631f94a27560e31b81529551919586958695869573__$d1ac568199f3772e8aebd270d75e55a6d5$__9563f74c32ba95606695606795606a95606b95919460a08601949091169263fca513a89260048083019391928290030181865afa15801561178f573d6000803e3d6000fd5b505050506040513d601f19601f820116820180604052508101906117b391906154fe565b6001600160a01b03168152506040518663ffffffff1660e01b81526004016117df959493929190615561565b60e060405180830381865af41580156117fc573d6000803e3d6000fd5b505050506040513d601f19601f8201168201806040525081019061182091906156d4565b608081015160a082015160c0909201519097919650945092505050565b604080516101408101825260006080820181815260a0830182905260c0830182905260e0830182905261010083018290526101208301829052825260208201819052918101829052606081019190915260408051610140810182526001600160a01b03808616600081815260686020908152858220546080860190815283835260698252918690205460a0860152606c5460c0860152606d5460e08601526101008501929092526065548551631f94a27560e31b8152955194958695929461012087019492169263fca513a8926004808401939192918290030181865afa15801561192c573d6000803e3d6000fd5b505050506040513d601f19601f8201168201806040525081019061195091906154fe565b6001600160a01b03168152508152602001336001600160a01b03168152602001856001600160a01b03168152602001831515815250905073__$81eb085430cddbec7bc4c83cc90f74f0ef$__63d40b5a5960666067606a606b8f8f8f8f8f8f8c6040518c63ffffffff1660e01b81526004016119d69b9a99989796959493929190615792565b60006040518083038186803b1580156119ee57600080fd5b505af4158015611a02573d6000803e3d6000fd5b5050505050505050505050505050565b6001600160a01b0383166000908152606660205260408120611a338161404e565b6004818101546040516365c950db60e01b81526001600160a01b0386811693820193909352600092909116906365c950db90602401602060405180830381865afa158015611a85573d6000803e3d6000fd5b505050506040513d601f19601f82011682018060405250810190611aa99190615840565b604051630103b8a560e61b815260048101849052602481018790526044810182905290915073__$49b23b5becc4a0db881be9d6da702c31a0$__906340ee29409060640160006040518083038186803b158015611b0557600080fd5b505af4158015611b19573d6000803e3d6000fd5b5050505080851115611b29578094505b6004828101546001840154604051637a94c56560e11b81526001600160a01b038881169482019490945260248101899052600160801b9091046001600160801b0316604482015291169063f5298aca90606401600060405180830381600087803b158015611b9657600080fd5b505af1158015611baa573d6000803e3d6000fd5b505050506003820154600160281b90046001600160a01b0316611bce8388836140ed565b611bd88683615859565b600003611c2e5760068301546001600160a01b038616600090815260686020526040812054611c14929091600160a01b90910460ff1690614350565b6001600160a01b0386166000908152606860205260409020555b611c436001600160a01b038816338389613ed9565b846001600160a01b0316336001600160a01b0316886001600160a01b03167f861660e9b7ead7183d53fe928b5638c7b57a7bcf16a89d7fdb04db65ce3ad6d589604051611c9291815260200190565b60405180910390a48593505050505b9392505050565b606554604080516385c858b160e01b8152905133926001600160a01b0316916385c858b19160048083019260209291908290030181865afa158015611cf1573d6000803e3d6000fd5b505050506040513d601f19601f82011682018060405250810190611d1591906154fe565b6001600160a01b03161473__$61422835ae5e51fb34bedcfef91f75f833$__635b70017b6040518060400160405280600281526020016104c560f41b815250604051806040016040528060018152602001601960f91b8152506040518363ffffffff1660e01b8152600401611d8b9291906153c6565b600060405180830381865af4158015611da8573d6000803e3d6000fd5b505050506040513d6000823e601f3d908101601f19168201604052611dd09190810190615401565b90611dee5760405162461bcd60e51b815260040161080d91906152f8565b506001600160a01b038116600090815260666020526040812060060154600160a01b900460ff169003611f37576001600160a01b03811660009081526067602090815260409182902060019081015483518085018552600281526104c560f41b8185015284518086018652928352601b60f91b938301939093529251635b70017b60e01b8152600160a01b90930460ff1615159273__$61422835ae5e51fb34bedcfef91f75f833$__92635b70017b92611eaa926004016153c6565b600060405180830381865af4158015611ec7573d6000803e3d6000fd5b505050506040513d6000823e601f3d908101601f19168201604052611eef9190810190615401565b90611f0d5760405162461bcd60e51b815260040161080d91906152f8565b506001600160a01b038116600090815260676020526040812060018101805460ff60a01b19169055555b6001600160a01b038116600090815260676020526040812060010154600160a01b900460ff169003612080576001600160a01b0381166000908152606660209081526040918290206006015482518084018452600281526104c560f41b818401528351808501855260018152601b60f91b938101939093529251635b70017b60e01b8152600160a01b90910460ff1615159273__$61422835ae5e51fb34bedcfef91f75f833$__92635b70017b92611ff39291906004016153c6565b600060405180830381865af4158015612010573d6000803e3d6000fd5b505050506040513d6000823e601f3d908101601f191682016040526120389190810190615401565b906120565760405162461bcd60e51b815260040161080d91906152f8565b506001600160a01b038116600090815260666020526040812060068101805460ff60a01b19169055555b50565b6001600160a01b03811660009081526066602052604081206120a490614472565b92915050565b6001600160a01b038084166000908152606660209081526040808320938516835260689091529020546120dc8261404e565b6040805160c0810182526001600160a01b0380861660008181526068602090815285822054855282825260698152908590205481850152606c5484860152606d54606085015260808401919091526065548451631f94a27560e31b8152945173__$49b23b5becc4a0db881be9d6da702c31a0$__9563bf0acb57958c958a958d95606695606795606a95606b95909460a08601949091169263fca513a89260048082019392918290030181865afa15801561219b573d6000803e3d6000fd5b505050506040513d601f19601f820116820180604052508101906121bf91906154fe565b6001600160a01b03168152506040518963ffffffff1660e01b81526004016121ee989796959493929190615870565b60006040518083038186803b15801561220657600080fd5b505af415801561221a573d6000803e3d6000fd5b505050600480840154600185015460405163b3f1c93d60e01b8152600094506001600160a01b039092169263b3f1c93d9261226d9233928a928c926001600160801b03600160801b9091041691016158b8565b6020604051808303816000875af115801561228c573d6000803e3d6000fd5b505050506040513d601f19601f820116820180604052508101906122b091906158e9565b905080156122ee5760068301546122d4908390600160a01b900460ff166001614350565b6001600160a01b0385166000908152606860205260409020555b6003830154600160281b90046001600160a01b031661230e8488836140ed565b6040516319b6934960e11b8152336004820152602481018790526001600160a01b0382169063336d269290604401600060405180830381600087803b15801561235657600080fd5b505af115801561236a573d6000803e3d6000fd5b50505050600284015460408051888152600160801b9092046001600160801b031660208301526001600160a01b03878116923392918b16917f8d2cf1d80f06f87e6690c4e9bbe4750f3f8affc42dea16d0d82687c849c4f42291015b60405180910390a450505050505050565b6040805160c0810182526001600160a01b03808416600081815260686020908152858220548552828252606981528582205481860152606c5485870152606d54606086015260808501929092526065548551631f94a27560e31b815295519195869586958695869573__$d1ac568199f3772e8aebd270d75e55a6d5$__9563f74c32ba95606695606795606a95606b95929460a086019492169263fca513a89260048082019392918290030181865afa158015612498573d6000803e3d6000fd5b505050506040513d601f19601f820116820180604052508101906124bc91906154fe565b6001600160a01b03168152506040518663ffffffff1660e01b81526004016124e8959493929190615561565b60e060405180830381865af4158015612505573d6000803e3d6000fd5b505050506040513d601f19601f8201168201806040525081019061252991906156d4565b8051602082015160608301516040909301519199909850919650945092505050565b60335460ff161561256e5760405162461bcd60e51b815260040161080d90615651565b6001600160a01b038281166000818152606660208181526040808420338086526068845282862054968652939092528154600383015491516370a0823160e01b815260048101949094529195919392600160281b909104909116906370a0823190602401602060405180830381865afa1580156125ef573d6000803e3d6000fd5b505050506040513d601f19601f820116820180604052508101906126139190615840565b905061261f82826144e8565b8461274e576040805160c08101825284815233600081815260696020908152908490205481840152606c5483850152606d54606084015260808301919091526065548351631f94a27560e31b8152935173__$49b23b5becc4a0db881be9d6da702c31a0$__94633264718594606694606794606a94606b9460a08501936001600160a01b039093169263fca513a8926004808401938290030181865afa1580156126cd573d6000803e3d6000fd5b505050506040513d601f19601f820116820180604052508101906126f191906154fe565b6001600160a01b03168152506040518663ffffffff1660e01b815260040161271d959493929190615561565b60006040518083038186803b15801561273557600080fd5b505af4158015612749573d6000803e3d6000fd5b505050505b6006840154612769908490600160a01b900460ff1687614698565b33600081815260686020526040908190209290925590516001600160a01b038816907f6577e2a7395d7723b4b430421166c5269712d1766166379838f96f218c5cde4a906127bc90891515815260200190565b60405180910390a3505050505050565b6040805160c0810182526001600160a01b03808516600081815260686020908152858220548552828252606981528582205481860152606c5485870152606d54606086015260808501929092526065548551631f94a27560e31b8152955191958695869573__$d1ac568199f3772e8aebd270d75e55a6d5$__95636ac0885e956066956067958d959460a086019492169263fca513a8926004808401939192918290030181865afa158015612885573d6000803e3d6000fd5b505050506040513d601f19601f820116820180604052508101906128a991906154fe565b6001600160a01b03168152506040518563ffffffff1660e01b81526004016128d49493929190615906565b606060405180830381865af41580156128f1573d6000803e3d6000fd5b505050506040513d601f19601f820116820180604052508101906129159190615931565b9250925092509250925092565b6001600160a01b03811660009081526066602052604081206120a490614794565b606554604080516385c858b160e01b8152905133926001600160a01b0316916385c858b19160048083019260209291908290030181865afa15801561298c573d6000803e3d6000fd5b505050506040513d601f19601f820116820180604052508101906129b091906154fe565b6001600160a01b03161473__$61422835ae5e51fb34bedcfef91f75f833$__635b70017b6040518060400160405280600281526020016104c560f41b815250604051806040016040528060018152602001601960f91b8152506040518363ffffffff1660e01b8152600401612a269291906153c6565b600060405180830381865af4158015612a43573d6000803e3d6000fd5b505050506040513d6000823e601f3d908101601f19168201604052612a6b9190810190615401565b90612a895760405162461bcd60e51b815260040161080d91906152f8565b506001600160a01b0383163b151573__$61422835ae5e51fb34bedcfef91f75f833$__635b70017b6040518060400160405280600281526020016104c560f41b81525060405180604001604052806002815260200161313960f01b8152506040518363ffffffff1660e01b8152600401612b049291906153c6565b600060405180830381865af4158015612b21573d6000803e3d6000fd5b505050506040513d6000823e601f3d908101601f19168201604052612b499190810190615401565b90612b675760405162461bcd60e51b815260040161080d91906152f8565b506001600160a01b038316600090815260676020526040902060010154600160a01b900460ff16158015612bbe57506001600160a01b038316600090815260666020526040902060060154600160a01b900460ff16155b73__$61422835ae5e51fb34bedcfef91f75f833$__635b70017b6040518060400160405280600281526020016104c560f41b815250604051806040016040528060018152602001600760fb1b8152506040518363ffffffff1660e01b8152600401612c2a9291906153c6565b600060405180830381865af4158015612c47573d6000803e3d6000fd5b505050506040513d6000823e601f3d908101601f19168201604052612c6f9190810190615401565b90612c8d5760405162461bcd60e51b815260040161080d91906152f8565b506001600160a01b0383811660009081526067602052604090819020905163038f988960e41b8152600481019190915260248101849052908216604482015273__$1dd31b2b6afa536aed409f4dea44446001$__906338f988909060640160006040518083038186803b158015612d0357600080fd5b505af4158015612d17573d6000803e3d6000fd5b50505050610100606d541073__$61422835ae5e51fb34bedcfef91f75f833$__635b70017b6040518060400160405280600281526020016104c560f41b81525060405180604001604052806002815260200161323160f01b8152506040518363ffffffff1660e01b8152600401612d8f9291906153c6565b600060405180830381865af4158015612dac573d6000803e3d6000fd5b505050506040513d6000823e601f3d908101601f19168201604052612dd49190810190615401565b90612df25760405162461bcd60e51b815260040161080d91906152f8565b506001600160a01b038316600090815260666020526040812060060154600160a01b900460ff169003612ec557606d54612e2d90600161595f565b6001600160a01b03841660009081526067602052604081206001908101805460ff94909416600160a01b0260ff60a01b1990941693909317909255606d548592606b9291612e7a91615984565b815260200190815260200160002060006101000a8154816001600160a01b0302191690836001600160a01b031602179055506001606d6000828254612ebf9190615984565b90915550505b505050565b606554604080516385c858b160e01b8152905133926001600160a01b0316916385c858b19160048083019260209291908290030181865afa158015612f13573d6000803e3d6000fd5b505050506040513d601f19601f82011682018060405250810190612f3791906154fe565b6001600160a01b03161473__$61422835ae5e51fb34bedcfef91f75f833$__635b70017b6040518060400160405280600281526020016104c560f41b815250604051806040016040528060018152602001601960f91b8152506040518363ffffffff1660e01b8152600401612fad9291906153c6565b600060405180830381865af4158015612fca573d6000803e3d6000fd5b505050506040513d6000823e601f3d908101601f19168201604052612ff29190810190615401565b906130105760405162461bcd60e51b815260040161080d91906152f8565b506001600160a01b0385163b151573__$61422835ae5e51fb34bedcfef91f75f833$__635b70017b6040518060400160405280600281526020016104c560f41b81525060405180604001604052806002815260200161313960f01b8152506040518363ffffffff1660e01b815260040161308b9291906153c6565b600060405180830381865af41580156130a8573d6000803e3d6000fd5b505050506040513d6000823e601f3d908101601f191682016040526130d09190810190615401565b906130ee5760405162461bcd60e51b815260040161080d91906152f8565b506001600160a01b038516600090815260676020526040902060010154600160a01b900460ff1615801561314557506001600160a01b038516600090815260666020526040902060060154600160a01b900460ff16155b73__$61422835ae5e51fb34bedcfef91f75f833$__635b70017b6040518060400160405280600281526020016104c560f41b815250604051806040016040528060018152602001600760fb1b8152506040518363ffffffff1660e01b81526004016131b19291906153c6565b600060405180830381865af41580156131ce573d6000803e3d6000fd5b505050506040513d6000823e601f3d908101601f191682016040526131f69190810190615401565b906132145760405162461bcd60e51b815260040161080d91906152f8565b506001600160a01b0385811660009081526066602052604090819020905163274f5c5b60e01b815260048101919091526024810186905284821660448201528382166064820152908216608482015273__$33f762cd251e217ce6a144dc37d658fca4$__9063274f5c5b9060a40160006040518083038186803b15801561329a57600080fd5b505af41580156132ae573d6000803e3d6000fd5b505050506080606c541073__$61422835ae5e51fb34bedcfef91f75f833$__635b70017b6040518060400160405280600281526020016104c560f41b81525060405180604001604052806002815260200161032360f41b8152506040518363ffffffff1660e01b81526004016133259291906153c6565b600060405180830381865af4158015613342573d6000803e3d6000fd5b505050506040513d6000823e601f3d908101601f1916820160405261336a9190810190615401565b906133885760405162461bcd60e51b815260040161080d91906152f8565b506001600160a01b038516600090815260666020526040812060060154600160a01b900460ff16900361345a57606c546133c390600161595f565b6001600160a01b0386166000908152606660205260408120600601805460ff93909316600160a01b0260ff60a01b1990931692909217909155606c548691606a9161340f906001615984565b815260200190815260200160002060006101000a8154816001600160a01b0302191690836001600160a01b031602179055506001606c60008282546134549190615984565b90915550505b5050505050565b600061346d600161480b565b90508015613485576000805461ff0019166101001790555b606580546001600160a01b0319166001600160a01b03841617905580156134e6576000805461ff0019169055604051600181527f7f26b83ff96e1f2b6a682f133852f6798a09c465da95921460cefb38474024989060200160405180910390a15b5050565b60008073__$65820f34e67aa7e6420fb74324c04c50d3$__6337002cf46066606786606560009054906101000a90046001600160a01b03166001600160a01b031663fca513a86040518163ffffffff1660e01b8152600401602060405180830381865afa15801561355f573d6000803e3d6000fd5b505050506040513d601f19601f8201168201806040525081019061358391906154fe565b6040516001600160e01b031960e087901b168152600481019490945260248401929092526001600160a01b0390811660448401521660648201526084016040805180830381865af41580156135dc573d6000803e3d6000fd5b505050506040513d601f19601f82011682018060405250810190613600919061599c565b91509150915091565b606554604080516385c858b160e01b8152905133926001600160a01b0316916385c858b19160048083019260209291908290030181865afa158015613652573d6000803e3d6000fd5b505050506040513d601f19601f8201168201806040525081019061367691906154fe565b6001600160a01b03161473__$61422835ae5e51fb34bedcfef91f75f833$__635b70017b6040518060400160405280600281526020016104c560f41b815250604051806040016040528060018152602001601960f91b8152506040518363ffffffff1660e01b81526004016136ec9291906153c6565b600060405180830381865af4158015613709573d6000803e3d6000fd5b505050506040513d6000823e601f3d908101601f191682016040526137319190810190615401565b9061374f5760405162461bcd60e51b815260040161080d91906152f8565b506001600160a01b03909116600090815260676020526040902055565b60335460ff161561378f5760405162461bcd60e51b815260040161080d90615651565b6001600160a01b03841660009081526066602052604090206137b08161404e565b60038101548154604051631d5d589360e31b8152600481019190915260248101869052600160281b9091046001600160a01b03169073__$49b23b5becc4a0db881be9d6da702c31a0$__9063eaeac4989060440160006040518083038186803b15801561381c57600080fd5b505af4158015613830573d6000803e3d6000fd5b5050606e546001600160a01b0316330391506138c4905057606e546001830154604051636b81068560e11b81526001600160a01b038481169363d7020d0a9361388d938a93909216918b916001600160801b0316906004016158b8565b600060405180830381600087803b1580156138a757600080fd5b505af11580156138bb573d6000803e3d6000fd5b50505050613938565b6001820154604051636b81068560e11b81526001600160a01b0383169163d7020d0a9161390591339188918b916001600160801b03909116906004016158b8565b600060405180830381600087803b15801561391f57600080fd5b505af1158015613933573d6000803e3d6000fd5b505050505b336000908152606860205260409020546006830154613962908290600160a01b900460ff16614893565b15613b3c577f5555555555555555555555555555555555555555555555555555555555555555811615613ac3576040805160c0810182523360008181526068602090815284822054845282825260698152908490205481840152606c5483850152606d54606084015260808301919091526065548351631f94a27560e31b8152935173__$49b23b5becc4a0db881be9d6da702c31a0$__94633264718594606694606794606a94606b9460a08501936001600160a01b039093169263fca513a8926004808401938290030181865afa158015613a42573d6000803e3d6000fd5b505050506040513d601f19601f82011682018060405250810190613a6691906154fe565b6001600160a01b03168152506040518663ffffffff1660e01b8152600401613a92959493929190615561565b60006040518083038186803b158015613aaa57600080fd5b505af4158015613abe573d6000803e3d6000fd5b505050505b6000198603613b3c576006830154613ae8908290600160a01b900460ff166000614698565b33600081815260686020908152604080832094909455925190815290916001600160a01b038a16917f6577e2a7395d7723b4b430421166c5269712d1766166379838f96f218c5cde4a910160405180910390a35b613b478388846140ed565b836001600160a01b0316336001600160a01b0316886001600160a01b03167fa4195c37c2947bbe89165f03e320b6903116f0b10d8cfdb522330f7ce6f9fa24896040516123c691815260200190565b60335460ff1615613bb95760405162461bcd60e51b815260040161080d90615651565b6001600160a01b0383166000908152606660205260409081902080549151631d5d589360e31b81526004810192909252602482018490529073__$49b23b5becc4a0db881be9d6da702c31a0$__9063eaeac4989060440160006040518083038186803b158015613c2857600080fd5b505af4158015613c3c573d6000803e3d6000fd5b505050506003810154600160281b90046001600160a01b0316613c5e8261404e565b613c736001600160a01b038616338387613ed9565b6001820154604051630ab714fb60e11b81526001600160a01b038581166004830152602482018790526001600160801b0390921660448201529082169063156e29f6906064016020604051808303816000875af1158015613cd8573d6000803e3d6000fd5b505050506040513d601f19601f82011682018060405250810190613cfc91906158e9565b50613d088286836140ed565b60408051338152602081018690526001600160a01b0380861692908816917f4174a9435a04d04d274c76779cad136a41fde6937c56241c09ab9d3c7064a1a9910160405180910390a35050505050565b600080600073__$65820f34e67aa7e6420fb74324c04c50d3$__6371251af860666067606a606b6040518060600160405280606c548152602001606d548152602001606560009054906101000a90046001600160a01b03166001600160a01b031663fca513a86040518163ffffffff1660e01b8152600401602060405180830381865afa158015613ded573d6000803e3d6000fd5b505050506040513d601f19601f82011682018060405250810190613e1191906154fe565b6001600160a01b03908116909152604080516001600160e01b031960e08a901b168152600481019790975260248701959095526044860193909352606485019190915280516084850152602081015160a4850152909101511660c482015260e401606060405180830381865af4158015613e8f573d6000803e3d6000fd5b505050506040513d601f19601f82011682018060405250810190613eb39190615931565b925092509250909192565b60006003603e83901c1660028111156120a4576120a46154b9565b604080516001600160a01b0385811660248301528416604482015260648082018490528251808303909101815260849091019091526020810180516001600160e01b03166323b872dd60e01b179052613f339085906149a0565b50505050565b6000826000108015613f4c575061010083105b73__$61422835ae5e51fb34bedcfef91f75f833$__635b70017b60405180604001604052806003815260200162554e4360e81b81525060405180604001604052806002815260200161189960f11b8152506040518363ffffffff1660e01b8152600401613fba9291906153c6565b600060405180830381865af4158015613fd7573d6000803e3d6000fd5b505050506040513d6000823e601f3d908101601f19168201604052613fff9190810190615401565b9061401d5760405162461bcd60e51b815260040161080d91906152f8565b50600061402b600185615859565b90506001811b83156140425785179150611ca19050565b1985169150611ca19050565b60008160040160009054906101000a90046001600160a01b03166001600160a01b031663635ea27c6040518163ffffffff1660e01b8152600401602060405180830381865afa1580156140a5573d6000803e3d6000fd5b505050506040513d601f19601f820116820180604052508101906140c99190615840565b905060008060006140da8585614a72565b92509250925061345a8585848487614b9e565b6001830154600480850154604080516318160ddd60e01b815290516001600160801b0380861695600160801b9004169360009385936001600160a01b03909116926318160ddd928281019260209291908290030181865afa158015614156573d6000803e3d6000fd5b505050506040513d601f19601f8201168201806040525081019061417a9190615840565b61418491906159c0565b905060008660010160009054906101000a90046001600160801b03166001600160801b0316856001600160a01b03166318160ddd6040518163ffffffff1660e01b8152600401602060405180830381865afa1580156141e7573d6000803e3d6000fd5b505050506040513d601f19601f8201168201806040525081019061420b9190615840565b61421591906159c0565b600588015460408051633d9ada5160e21b8152600481018490526024810186905260006044820181905282519495509384936001600160a01b03169263f66b694492606480820193918290030181865afa158015614277573d6000803e3d6000fd5b505050506040513d601f19601f8201168201806040525081019061429b919061599c565b915091506142a882614ba3565b60028a0180546001600160801b0319166001600160801b03929092169190911790556142d381614ba3565b60028a0180546001600160801b03928316600160801b0292169190911790556040805183815260208101839052908101879052606081018690526001600160a01b038916907f4063a2df84b66bb796eb32622851d833e57b2c4292900c18f963af8808b13e359060800160405180910390a2505050505050505050565b60008260001080156143625750608083105b73__$61422835ae5e51fb34bedcfef91f75f833$__635b70017b60405180604001604052806002815260200161554360f01b81525060405180604001604052806002815260200161189960f11b8152506040518363ffffffff1660e01b81526004016143cf9291906153c6565b600060405180830381865af41580156143ec573d6000803e3d6000fd5b505050506040513d6000823e601f3d908101601f191682016040526144149190810190615401565b906144325760405162461bcd60e51b815260040161080d91906152f8565b50600060016144428560026159c0565b61444c9190615859565b9050600061445b600183615859565b6001901b905083156140425785179150611ca19050565b600381015460009064ffffffffff908116904290811682036144a157505050600101546001600160801b031690565b600184015460028501546000916144df916001600160801b03918216916144d991166144d464ffffffffff881687615859565b614c10565b90614c44565b95945050505050565b806000141573__$61422835ae5e51fb34bedcfef91f75f833$__635b70017b604051806040016040528060018152602001602b60f91b81525060405180604001604052806002815260200161191960f11b8152506040518363ffffffff1660e01b81526004016145599291906153c6565b600060405180830381865af4158015614576573d6000803e3d6000fd5b505050506040513d6000823e601f3d908101601f1916820160405261459e9190810190615401565b906145bc5760405162461bcd60e51b815260040161080d91906152f8565b506701000100000000008216151573__$61422835ae5e51fb34bedcfef91f75f833$__635b70017b604051806040016040528060018152602001602b60f91b815250604051806040016040528060018152602001601b60f91b8152506040518363ffffffff1660e01b81526004016146359291906153c6565b600060405180830381865af4158015614652573d6000803e3d6000fd5b505050506040513d6000823e601f3d908101601f1916820160405261467a9190810190615401565b90612ec55760405162461bcd60e51b815260040161080d91906152f8565b60008260001080156146aa5750608083105b73__$61422835ae5e51fb34bedcfef91f75f833$__635b70017b60405180604001604052806002815260200161554360f01b81525060405180604001604052806002815260200161189960f11b8152506040518363ffffffff1660e01b81526004016147179291906153c6565b600060405180830381865af4158015614734573d6000803e3d6000fd5b505050506040513d6000823e601f3d908101601f1916820160405261475c9190810190615401565b9061477a5760405162461bcd60e51b815260040161080d91906152f8565b506000600161478a8560026159c0565b61402b9190615859565b600381015460009064ffffffffff908116904290811682036147ca5750505060010154600160801b90046001600160801b031690565b600184015460028501546000916144df916001600160801b03600160801b928390048116926144d992041661480664ffffffffff881687615859565b614c96565b60008054610100900460ff1615614852578160ff16600114801561482e5750303b155b61484a5760405162461bcd60e51b815260040161080d906159df565b506000919050565b60005460ff8084169116106148795760405162461bcd60e51b815260040161080d906159df565b506000805460ff191660ff92909216919091179055600190565b60008160001080156148a55750608082105b73__$61422835ae5e51fb34bedcfef91f75f833$__635b70017b60405180604001604052806002815260200161554360f01b81525060405180604001604052806002815260200161189960f11b8152506040518363ffffffff1660e01b81526004016149129291906153c6565b600060405180830381865af415801561492f573d6000803e3d6000fd5b505050506040513d6000823e601f3d908101601f191682016040526149579190810190615401565b906149755760405162461bcd60e51b815260040161080d91906152f8565b50600060016149858460026159c0565b61498f9190615859565b9390931c6001908116149392505050565b60006149f5826040518060400160405280602081526020017f5361666545524332303a206c6f772d6c6576656c2063616c6c206661696c6564815250856001600160a01b0316614daa9092919063ffffffff16565b805190915015612ec55780806020019051810190614a1391906158e9565b612ec55760405162461bcd60e51b815260206004820152602a60248201527f5361666545524332303a204552433230206f7065726174696f6e20646964206e6044820152691bdd081cdd58d8d9595960b21b606482015260840161080d565b600182015460038301546000916001600160801b03600160801b8204811692849291909116908290614aab9064ffffffffff1642615859565b60028801549091506001600160801b031615614b79576002870154600090614ae3906001600160801b031664ffffffffff8416614c10565b9050614aef8382614c44565b9550614afa86614ba3565b6001890180546001600160801b0319166001600160801b03929092169190911790558615614b77576002880154600090614b4b90600160801b90046001600160801b031664ffffffffff8516614c96565b9050614b578682614c44565b60018a0180546001600160801b03808416600160801b0291161790559450505b505b5050600394909401805464ffffffffff19164264ffffffffff16179055909390929150565b61345a565b60006001600160801b03821115614c0c5760405162461bcd60e51b815260206004820152602760248201527f53616665436173743a2076616c756520646f65736e27742066697420696e20316044820152663238206269747360c81b606482015260840161080d565b5090565b600080614c1d83856159c0565b6301e1338090049050614c3c816b033b2e3c9fd0803ce8000000615984565b949350505050565b6000821580614c51575081155b15614c5e575060006120a4565b6b033b2e3c9fd0803ce80000006b019d971e4fe8401e74000000614c8284866159c0565b614c8c9190615984565b611ca19190615a43565b600081600003614cb357506b033b2e3c9fd0803ce80000006120a4565b60001982016000808060028611614ccb576000614cd0565b600286035b925066038882915c4000614ce48880614c44565b81614cf157614cf1615a2d565b0491506301e13380614d038389614c44565b81614d1057614d10615a2d565b049050600082614d2086896159c0565b614d2a91906159c0565b60029004905060008285614d3e888b6159c0565b614d4891906159c0565b614d5291906159c0565b60069004905080826301e13380614d698b8d6159c0565b614d739190615a43565b614d89906b033b2e3c9fd0803ce8000000615984565b614d939190615984565b614d9d9190615984565b9998505050505050505050565b6060614c3c8484600085856001600160a01b0385163b614e0c5760405162461bcd60e51b815260206004820152601d60248201527f416464726573733a2063616c6c20746f206e6f6e2d636f6e7472616374000000604482015260640161080d565b600080866001600160a01b03168587604051614e289190615a65565b60006040518083038185875af1925050503d8060008114614e65576040519150601f19603f3d011682016040523d82523d6000602084013e614e6a565b606091505b5091509150614e7a828286614e85565b979650505050505050565b60608315614e94575081611ca1565b825115614ea45782518084602001fd5b8160405162461bcd60e51b815260040161080d91906152f8565b60008083601f840112614ed057600080fd5b50813567ffffffffffffffff811115614ee857600080fd5b6020830191508360208260051b8501011115614f0357600080fd5b9250929050565b6001600160a01b038116811461208057600080fd5b60008060008060008060006080888a031215614f3a57600080fd5b873567ffffffffffffffff80821115614f5257600080fd5b614f5e8b838c01614ebe565b909950975060208a0135915080821115614f7757600080fd5b614f838b838c01614ebe565b909750955060408a0135915080821115614f9c57600080fd5b50614fa98a828b01614ebe565b9094509250506060880135614fbd81614f0a565b8091505092959891949750929550565b600060208284031215614fdf57600080fd5b8135611ca181614f0a565b8151815260208083015161016083019161500e908401826001600160801b03169052565b50604083015161502960408401826001600160801b03169052565b50606083015161504460608401826001600160801b03169052565b50608083015161505f60808401826001600160801b03169052565b5060a083015161507860a084018264ffffffffff169052565b5060c083015161509360c08401826001600160a01b03169052565b5060e08301516150ae60e08401826001600160a01b03169052565b50610100838101516001600160a01b039081169184019190915261012080850151909116908301526101409283015160ff16929091019190915290565b600080604083850312156150fe57600080fd5b823561510981614f0a565b946020939093013593505050565b6000806040838503121561512a57600080fd5b823561513581614f0a565b9150602083013561514581614f0a565b809150509250929050565b801515811461208057600080fd5b600080600080600080600080600060c08a8c03121561517c57600080fd5b893567ffffffffffffffff8082111561519457600080fd5b6151a08d838e01614ebe565b909b50995060208c01359150808211156151b957600080fd5b6151c58d838e01614ebe565b909950975060408c01359150808211156151de57600080fd5b506151eb8c828d01614ebe565b90965094505060608a01356151ff81614f0a565b925060808a013561520f81614f0a565b915060a08a013561521f81615150565b809150509295985092959850929598565b60008060006060848603121561524557600080fd5b833561525081614f0a565b925060208401359150604084013561526781614f0a565b809150509250925092565b6000806040838503121561528557600080fd5b823561529081614f0a565b9150602083013561514581615150565b60005b838110156152bb5781810151838201526020016152a3565b83811115613f335750506000910152565b600081518084526152e48160208601602086016152a0565b601f01601f19169290920160200192915050565b602081526000611ca160208301846152cc565b600080600080600060a0868803121561532357600080fd5b853561532e81614f0a565b945060208601359350604086013561534581614f0a565b9250606086013561535581614f0a565b9150608086013561536581614f0a565b809150509295509295909350565b6000806000806080858703121561538957600080fd5b843561539481614f0a565b93506020850135925060408501356153ab81614f0a565b915060608501356153bb81614f0a565b939692955090935050565b6040815260006153d960408301856152cc565b82810360208401526144df81856152cc565b634e487b7160e01b600052604160045260246000fd5b60006020828403121561541357600080fd5b815167ffffffffffffffff8082111561542b57600080fd5b818401915084601f83011261543f57600080fd5b815181811115615451576154516153eb565b604051601f8201601f19908116603f01168101908382118183101715615479576154796153eb565b8160405282815287602084870101111561549257600080fd5b614e7a8360208301602088016152a0565b634e487b7160e01b600052603260045260246000fd5b634e487b7160e01b600052602160045260246000fd5b634e487b7160e01b600052601160045260246000fd5b6000600182016154f7576154f76154cf565b5060010190565b60006020828403121561551057600080fd5b8151611ca181614f0a565b805182526020808201519083015260408082015190830152606080820151908301526080808201516001600160a01b039081169184019190915260a09182015116910152565b60006101408201905086825285602083015284604083015283606083015261558c608083018461551b565b9695505050505050565b8183526000602080850194508260005b858110156155d45781356155b981614f0a565b6001600160a01b0316875295820195908201906001016155a6565b509495945050505050565b81835260006001600160fb1b038311156155f857600080fd5b8260051b8083602087013760009401602001938452509192915050565b60608152600061562960608301888a615596565b828103602084015261563c8187896155df565b90508281036040840152614d9d8185876155df565b60208082526010908201526f14185d5cd8589b194e881c185d5cd95960821b604082015260600190565b60808152600061568f60808301898b615596565b6001600160a01b038816602084015282810360408401526156b18187896155df565b905082810360608401526156c68185876155df565b9a9950505050505050505050565b600060e082840312156156e657600080fd5b60405160e0810181811067ffffffffffffffff82111715615709576157096153eb565b8060405250825181526020830151602082015260408301516040820152606083015160608201526080830151608082015260a083015160a082015260c083015160c08201528091505092915050565b61576382825161551b565b60208101516001600160a01b0390811660c084015260408201511660e083015260600151151561010090910152565b8b815260208082018c9052604082018b9052606082018a90526102006080830181905282018890526000906102208301908a90835b8b8110156157f55782356157da81614f0a565b6001600160a01b0316845292810192918101916001016157c7565b50505082810360a084015261580b81888a6155df565b905082810360c08401526158208186886155df565b91505061583060e0830184615758565b9c9b505050505050505050505050565b60006020828403121561585257600080fd5b5051919050565b60008282101561586b5761586b6154cf565b500390565b6001600160a01b03891681526020810188905260408101879052606081018690526080810185905260a0810184905260c081018390526101a08101614d9d60e083018461551b565b6001600160a01b03948516815292909316602083015260408201526001600160801b03909116606082015260800190565b6000602082840312156158fb57600080fd5b8151611ca181615150565b848152602081018490526001600160a01b038316604082015261012081016144df606083018461551b565b60008060006060848603121561594657600080fd5b8351925060208401519150604084015190509250925092565b600060ff821660ff84168060ff0382111561597c5761597c6154cf565b019392505050565b60008219821115615997576159976154cf565b500190565b600080604083850312156159af57600080fd5b505080516020909101519092909150565b60008160001904831182151516156159da576159da6154cf565b500290565b6020808252602e908201527f496e697469616c697a61626c653a20636f6e747261637420697320616c72656160408201526d191e481a5b9a5d1a585b1a5e995960921b606082015260800190565b634e487b7160e01b600052601260045260246000fd5b600082615a6057634e487b7160e01b600052601260045260246000fd5b500490565b60008251615a778184602087016152a0565b919091019291505056fea2646970667358221220e6af84368e4926cbfa9412bff9ac03ec8ac102562646255460df3d09c153954364736f6c634300080e0033",
  "linkReferences": {
    "contracts/libraries/Errors.sol": {
      "Errors": [
        {
          "length": 20,
          "start": 1889
        },
        {
          "length": 20,
          "start": 3431
        },
        {
          "length": 20,
          "start": 3722
        },
        {
          "length": 20,
          "start": 5262
        },
        {
          "length": 20,
          "start": 5617
        },
        {
          "length": 20,
          "start": 7490
        },
        {
          "length": 20,
          "start": 7845
        },
        {
          "length": 20,
          "start": 8172
        },
        {
          "length": 20,
          "start": 10717
        },
        {
          "length": 20,
          "start": 10938
        },
        {
          "length": 20,
          "start": 11233
        },
        {
          "length": 20,
          "start": 11589
        },
        {
          "length": 20,
          "start": 12132
        },
        {
          "length": 20,
          "start": 12353
        },
        {
          "length": 20,
          "start": 12648
        },
        {
          "length": 20,
          "start": 13019
        },
        {
          "length": 20,
          "start": 13987
        },
        {
          "length": 20,
          "start": 16239
        },
        {
          "length": 20,
          "start": 17285
        },
        {
          "length": 20,
          "start": 17680
        },
        {
          "length": 20,
          "start": 17901
        },
        {
          "length": 20,
          "start": 18125
        },
        {
          "length": 20,
          "start": 18632
        }
      ]
    },
    "contracts/libraries/core/LiquidationExecutor.sol": {
      "LiquidationExecutor": [
        {
          "length": 20,
          "start": 6570
        }
      ]
    },
    "contracts/libraries/core/ReserveVariableCalculator.sol": {
      "ReserveVariableCalculator": [
        {
          "length": 20,
          "start": 13584
        },
        {
          "length": 20,
          "start": 15744
        }
      ]
    },
    "contracts/libraries/core/UserVariableCalculator.sol": {
      "UserVariableCalculator": [
        {
          "length": 20,
          "start": 5976
        },
        {
          "length": 20,
          "start": 9314
        },
        {
          "length": 20,
          "start": 10323
        }
      ]
    },
    "contracts/libraries/core/Validator.sol": {
      "Validator": [
        {
          "length": 20,
          "start": 2188
        },
        {
          "length": 20,
          "start": 2994
        },
        {
          "length": 20,
          "start": 4012
        },
        {
          "length": 20,
          "start": 6897
        },
        {
          "length": 20,
          "start": 8542
        },
        {
          "length": 20,
          "start": 9874
        },
        {
          "length": 20,
          "start": 14344
        },
        {
          "length": 20,
          "start": 14855
        },
        {
          "length": 20,
          "start": 15380
        }
      ]
    },
    "contracts/libraries/types/NFTReserve.sol": {
      "NFTReserve": [
        {
          "length": 20,
          "start": 11503
        }
      ]
    },
    "contracts/libraries/types/Reserve.sol": {
      "Reserve": [
        {
          "length": 20,
          "start": 12934
        }
      ]
    }
  },
  "deployedLinkReferences": {
    "contracts/libraries/Errors.sol": {
      "Errors": [
        {
          "length": 20,
          "start": 1856
        },
        {
          "length": 20,
          "start": 3398
        },
        {
          "length": 20,
          "start": 3689
        },
        {
          "length": 20,
          "start": 5229
        },
        {
          "length": 20,
          "start": 5584
        },
        {
          "length": 20,
          "start": 7457
        },
        {
          "length": 20,
          "start": 7812
        },
        {
          "length": 20,
          "start": 8139
        },
        {
          "length": 20,
          "start": 10684
        },
        {
          "length": 20,
          "start": 10905
        },
        {
          "length": 20,
          "start": 11200
        },
        {
          "length": 20,
          "start": 11556
        },
        {
          "length": 20,
          "start": 12099
        },
        {
          "length": 20,
          "start": 12320
        },
        {
          "length": 20,
          "start": 12615
        },
        {
          "length": 20,
          "start": 12986
        },
        {
          "length": 20,
          "start": 13954
        },
        {
          "length": 20,
          "start": 16206
        },
        {
          "length": 20,
          "start": 17252
        },
        {
          "length": 20,
          "start": 17647
        },
        {
          "length": 20,
          "start": 17868
        },
        {
          "length": 20,
          "start": 18092
        },
        {
          "length": 20,
          "start": 18599
        }
      ]
    },
    "contracts/libraries/core/LiquidationExecutor.sol": {
      "LiquidationExecutor": [
        {
          "length": 20,
          "start": 6537
        }
      ]
    },
    "contracts/libraries/core/ReserveVariableCalculator.sol": {
      "ReserveVariableCalculator": [
        {
          "length": 20,
          "start": 13551
        },
        {
          "length": 20,
          "start": 15711
        }
      ]
    },
    "contracts/libraries/core/UserVariableCalculator.sol": {
      "UserVariableCalculator": [
        {
          "length": 20,
          "start": 5943
        },
        {
          "length": 20,
          "start": 9281
        },
        {
          "length": 20,
          "start": 10290
        }
      ]
    },
    "contracts/libraries/core/Validator.sol": {
      "Validator": [
        {
          "length": 20,
          "start": 2155
        },
        {
          "length": 20,
          "start": 2961
        },
        {
          "length": 20,
          "start": 3979
        },
        {
          "length": 20,
          "start": 6864
        },
        {
          "length": 20,
          "start": 8509
        },
        {
          "length": 20,
          "start": 9841
        },
        {
          "length": 20,
          "start": 14311
        },
        {
          "length": 20,
          "start": 14822
        },
        {
          "length": 20,
          "start": 15347
        }
      ]
    },
    "contracts/libraries/types/NFTReserve.sol": {
      "NFTReserve": [
        {
          "length": 20,
          "start": 11470
        }
      ]
    },
    "contracts/libraries/types/Reserve.sol": {
      "Reserve": [
        {
          "length": 20,
          "start": 12901
        }
      ]
    }
  }
}