{
  "_format": "hh-sol-artifact-1",
  "contractName": "NFTBankConsumer",
  "sourceName": "contracts/oracle/NFTBankConsumer.sol",
  "abi": [
    {
      "inputs": [
        {
          "internalType": "address",
          "name": "_link",
          "type": "address"
        },
        {
          "internalType": "address",
          "name": "_oracle",
          "type": "address"
        },
        {
          "internalType": "address",
          "name": "_takerOracleGetter",
          "type": "address"
        }
      ],
      "stateMutability": "nonpayable",
      "type": "constructor"
    },
    {
      "inputs": [
        {
          "internalType": "address",
          "name": "to",
          "type": "address"
        },
        {
          "internalType": "uint256",
          "name": "amount",
          "type": "uint256"
        }
      ],
      "name": "FailedTransferLINK",
      "type": "error"
    },
    {
      "anonymous": false,
      "inputs": [
        {
          "indexed": true,
          "internalType": "bytes32",
          "name": "id",
          "type": "bytes32"
        }
      ],
      "name": "ChainlinkCancelled",
      "type": "event"
    },
    {
      "anonymous": false,
      "inputs": [
        {
          "indexed": true,
          "internalType": "bytes32",
          "name": "id",
          "type": "bytes32"
        }
      ],
      "name": "ChainlinkFulfilled",
      "type": "event"
    },
    {
      "anonymous": false,
      "inputs": [
        {
          "indexed": true,
          "internalType": "bytes32",
          "name": "id",
          "type": "bytes32"
        }
      ],
      "name": "ChainlinkRequested",
      "type": "event"
    },
    {
      "anonymous": false,
      "inputs": [
        {
          "indexed": true,
          "internalType": "address",
          "name": "asset",
          "type": "address"
        },
        {
          "indexed": false,
          "internalType": "uint256",
          "name": "price",
          "type": "uint256"
        }
      ],
      "name": "NewNFTPrice",
      "type": "event"
    },
    {
      "inputs": [
        {
          "internalType": "bytes32",
          "name": "_requestId",
          "type": "bytes32"
        },
        {
          "internalType": "uint256",
          "name": "_payment",
          "type": "uint256"
        },
        {
          "internalType": "bytes4",
          "name": "_callbackFunctionId",
          "type": "bytes4"
        },
        {
          "internalType": "uint256",
          "name": "_expiration",
          "type": "uint256"
        }
      ],
      "name": "cancelRequest",
      "outputs": [],
      "stateMutability": "nonpayable",
      "type": "function"
    },
    {
      "inputs": [
        {
          "internalType": "bytes32",
          "name": "_requestId",
          "type": "bytes32"
        },
        {
          "internalType": "bytes32",
          "name": "_result",
          "type": "bytes32"
        }
      ],
      "name": "fulfillDateAndPrice",
      "outputs": [],
      "stateMutability": "nonpayable",
      "type": "function"
    },
    {
      "inputs": [
        {
          "internalType": "bytes32",
          "name": "_requestId",
          "type": "bytes32"
        },
        {
          "internalType": "uint256",
          "name": "_estimate",
          "type": "uint256"
        }
      ],
      "name": "fulfillPrice",
      "outputs": [],
      "stateMutability": "nonpayable",
      "type": "function"
    },
    {
      "inputs": [
        {
          "internalType": "bytes32",
          "name": "_specId",
          "type": "bytes32"
        },
        {
          "internalType": "uint256",
          "name": "_payment",
          "type": "uint256"
        },
        {
          "internalType": "address",
          "name": "_assetAddress",
          "type": "address"
        },
        {
          "internalType": "string",
          "name": "_pricingAsset",
          "type": "string"
        }
      ],
      "name": "getDateAndFloorPrice",
      "outputs": [],
      "stateMutability": "nonpayable",
      "type": "function"
    },
    {
      "inputs": [
        {
          "internalType": "bytes32",
          "name": "_specId",
          "type": "bytes32"
        },
        {
          "internalType": "uint256",
          "name": "_payment",
          "type": "uint256"
        },
        {
          "internalType": "address",
          "name": "_assetAddress",
          "type": "address"
        },
        {
          "internalType": "uint256",
          "name": "_tokenId",
          "type": "uint256"
        },
        {
          "internalType": "string",
          "name": "_pricingAsset",
          "type": "string"
        }
      ],
      "name": "getEstimate",
      "outputs": [],
      "stateMutability": "nonpayable",
      "type": "function"
    },
    {
      "inputs": [
        {
          "internalType": "bytes32",
          "name": "_specId",
          "type": "bytes32"
        },
        {
          "internalType": "uint256",
          "name": "_payment",
          "type": "uint256"
        },
        {
          "internalType": "address",
          "name": "_assetAddress",
          "type": "address"
        },
        {
          "internalType": "string",
          "name": "_pricingAsset",
          "type": "string"
        }
      ],
      "name": "getFloorPrice",
      "outputs": [],
      "stateMutability": "nonpayable",
      "type": "function"
    },
    {
      "inputs": [],
      "name": "getOracleAddress",
      "outputs": [
        {
          "internalType": "address",
          "name": "",
          "type": "address"
        }
      ],
      "stateMutability": "view",
      "type": "function"
    },
    {
      "inputs": [
        {
          "internalType": "bytes32",
          "name": "",
          "type": "bytes32"
        }
      ],
      "name": "lastRequestAsset",
      "outputs": [
        {
          "internalType": "address",
          "name": "",
          "type": "address"
        }
      ],
      "stateMutability": "view",
      "type": "function"
    },
    {
      "inputs": [
        {
          "internalType": "bytes32",
          "name": "",
          "type": "bytes32"
        }
      ],
      "name": "requestIdDateAndPrice",
      "outputs": [
        {
          "internalType": "uint128",
          "name": "date",
          "type": "uint128"
        },
        {
          "internalType": "uint128",
          "name": "price",
          "type": "uint128"
        }
      ],
      "stateMutability": "view",
      "type": "function"
    },
    {
      "inputs": [
        {
          "internalType": "bytes32",
          "name": "",
          "type": "bytes32"
        }
      ],
      "name": "requestIdPrice",
      "outputs": [
        {
          "internalType": "uint256",
          "name": "",
          "type": "uint256"
        }
      ],
      "stateMutability": "view",
      "type": "function"
    },
    {
      "inputs": [
        {
          "internalType": "address",
          "name": "_oracle",
          "type": "address"
        }
      ],
      "name": "setOracle",
      "outputs": [],
      "stateMutability": "nonpayable",
      "type": "function"
    },
    {
      "inputs": [
        {
          "internalType": "uint256",
          "name": "_amount",
          "type": "uint256"
        },
        {
          "internalType": "address payable",
          "name": "_payee",
          "type": "address"
        }
      ],
      "name": "withdrawLink",
      "outputs": [],
      "stateMutability": "nonpayable",
      "type": "function"
    }
  ],
  "bytecode": "0x608060405260016004553480156200001657600080fd5b5060405162001783380380620017838339810160408190526200003991620000b5565b600280546001600160a01b0319166001600160a01b038516179055600380546001600160a01b0319166001600160a01b038416179055600880546001600160a01b0319166001600160a01b039290921691909117905550620000ff9050565b80516001600160a01b0381168114620000b057600080fd5b919050565b600080600060608486031215620000cb57600080fd5b620000d68462000098565b9250620000e66020850162000098565b9150620000f66040850162000098565b90509250925092565b611674806200010f6000396000f3fe608060405234801561001057600080fd5b50600436106100b35760003560e01c8063b18b78dd11610071578063b18b78dd1461018b578063b76c27ba146101ab578063d39e6dc6146101be578063e470be8d146101ec578063e7435df614610215578063ec65d0f81461022857600080fd5b8062c06d1b146100b857806307ac70d9146100cd57806341ea27ca146101265780637adbf973146101395780638d2a648d146101655780639e7b14f814610178575b600080fd5b6100cb6100c63660046111b4565b61023b565b005b6101016100db36600461121e565b6007602052600090815260409020546001600160801b0380821691600160801b90041682565b604080516001600160801b039384168152929091166020830152015b60405180910390f35b6100cb610134366004611237565b61035d565b6100cb610147366004611267565b600380546001600160a01b0319166001600160a01b03831617905550565b6100cb610173366004611284565b6103fa565b6100cb6101863660046111b4565b610501565b610193610514565b6040516001600160a01b03909116815260200161011d565b6100cb6101b93660046112a6565b61052d565b6101de6101cc36600461121e565b60066020526000908152604090205481565b60405190815260200161011d565b6101936101fa36600461121e565b6009602052600090815260409020546001600160a01b031681565b6100cb610223366004611284565b610662565b6100cb610236366004611319565b610793565b600061024e86638d2a648d60e01b61079f565b90506102b46040518060400160405280600c81526020016b61737365744164647265737360a01b8152508560405160200161029c919060609190911b6001600160601b031916815260140190565b60408051601f198184030181529190528391906107c5565b61031c6040518060400160405280600c81526020016b1c1c9a58da5b99d05cdcd95d60a21b81525084848080601f0160208091040260200160405190810160405280939291908181526020018383808284376000920191909152508694939250506107e39050565b60006103288287610801565b600090815260096020526040902080546001600160a01b0319166001600160a01b039690961695909517909455505050505050565b60006103716002546001600160a01b031690565b60405163a9059cbb60e01b81526001600160a01b038481166004830152602482018690529192506103f29183169063a9059cbb906044016020604051808303816000875af11580156103c7573d6000803e3d6000fd5b505050506040513d601f19601f820116820180604052508101906103eb9190611365565b8385610822565b505050565b50565b60008281526005602052604090205482906001600160a01b0316331461043b5760405162461bcd60e51b815260040161043290611387565b60405180910390fd5b60008181526005602052604080822080546001600160a01b03191690555182917f7cc135e0cebb02c3480ae5d74d377283180a2601f8f644edf7987b009316c63a91a2600083815260066020908152604080832085905560098252918290205491518481526001600160a01b039092169182917f42d71377d5b6f8f0b494e6eb228149ecfb296d040ba3f8136638afb2fd8c6523910160405180910390a26000848152600960205260409020546104fb906001600160a01b031684610852565b50505050565b600061024e866373a1aefb60e11b61079f565b60006105286003546001600160a01b031690565b905090565b600061054087638d2a648d60e01b61079f565b905061058e6040518060400160405280600c81526020016b61737365744164647265737360a01b8152508660405160200161029c919060609190911b6001600160601b031916815260140190565b6040805180820190915260078152661d1bdad95b925960ca1b60208201526105b89082908661099c565b6106206040518060400160405280600c81526020016b1c1c9a58da5b99d05cdcd95d60a21b81525084848080601f0160208091040260200160405190810160405280939291908181526020018383808284376000920191909152508694939250506107e39050565b600061062c8288610801565b600090815260096020526040902080546001600160a01b0319166001600160a01b03979097169690961790955550505050505050565b60008281526005602052604090205482906001600160a01b0316331461069a5760405162461bcd60e51b815260040161043290611387565b60008181526005602052604080822080546001600160a01b03191690555182917f7cc135e0cebb02c3480ae5d74d377283180a2601f8f644edf7987b009316c63a91a26040805180820182526000808252602091820181905282518084018452608086901c81526001600160801b03808716828501908152888452600780865286852093519151918316600160801b92841683021793849055600986529386902054938552855192041680825293516001600160a01b03909216939284927f42d71377d5b6f8f0b494e6eb228149ecfb296d040ba3f8136638afb2fd8c65239281900390910190a261078c8282610852565b5050505050565b6104fb848484846109ba565b6107a761111b565b6107af61111b565b6107bb81853086610a8c565b9150505b92915050565b60808301516107d49083610ad2565b60808301516103f29082610ae9565b60808301516107f29083610ad2565b60808301516103f29082610ad2565b60035460009061081b906001600160a01b03168484610af6565b9392505050565b826103f257604051637ab2f97760e01b81526001600160a01b038316600482015260248101829052604401610432565b6008546040516001600160a01b03848116602483015260448201849052600092169060640160408051601f198184030181529181526020820180516001600160e01b0316634c2449b960e01b179052516108ac91906113fb565b6000604051808303816000865af19150503d80600081146108e9576040519150601f19603f3d011682016040523d82523d6000602084013e6108ee565b606091505b50509050826001600160a01b03167f42d71377d5b6f8f0b494e6eb228149ecfb296d040ba3f8136638afb2fd8c65238360405161092d91815260200190565b60405180910390a2806103f25760405162461bcd60e51b815260206004820152603160248201527f4e465442616e6b436f6e73756d65723a2063616c6c2074616b6572206f72616360448201527036329033b2ba3a32b9103330b4b632b21760791b6064820152608401610432565b60808301516109ab9083610ad2565b60808301516103f29082610b87565b60008481526005602052604080822080546001600160a01b0319811690915590516001600160a01b039091169186917fe1fe3afa0f7f761ff0a8b89086790efd5140d2907ebd5b7ff6bfcb5e075fd4c59190a2604051636ee4d55360e01b815260048101869052602481018590526001600160e01b031984166044820152606481018390526001600160a01b03821690636ee4d55390608401600060405180830381600087803b158015610a6d57600080fd5b505af1158015610a81573d6000803e3d6000fd5b505050505050505050565b610a9461111b565b610aa48560800151610100610bb1565b50508284526001600160a01b03821660208501526001600160e01b031981166040850152835b949350505050565b610adf8260038351610c16565b6103f28282610d25565b610adf8260028351610c16565b600454600090610b0781600161142d565b60045583516040808601516080870151519151600093633c6d41b960e01b93610b3d938693849392899160029190602401611471565b60408051601f198184030181529190526020810180516001600160e01b03166001600160e01b0319909316929092179091529050610b7d86838684610d4c565b9695505050505050565b67ffffffffffffffff811115610ba557610ba18282610ea5565b5050565b610ba182600083610c16565b604080518082019091526060815260006020820152610bd16020836114c6565b15610bf957610be16020836114c6565b610bec9060206114e8565b610bf6908361142d565b91505b506020828101829052604080518085526000815290920101905290565b60178167ffffffffffffffff1611610c3b576104fb8360e0600585901b168317610edc565b60ff8167ffffffffffffffff1611610c7957610c62836018611fe0600586901b1617610edc565b506104fb8367ffffffffffffffff83166001610f01565b61ffff8167ffffffffffffffff1611610cb857610ca1836019611fe0600586901b1617610edc565b506104fb8367ffffffffffffffff83166002610f01565b63ffffffff8167ffffffffffffffff1611610cf957610ce283601a611fe0600586901b1617610edc565b506104fb8367ffffffffffffffff83166004610f01565b610d0e83601b611fe0600586901b1617610edc565b506104fb8367ffffffffffffffff83166008610f01565b60408051808201909152606081526000602082015261081b83846000015151848551610f27565b6040516001600160601b03193060601b1660208201526034810184905260009060540160408051808303601f1901815282825280516020918201206000818152600590925291812080546001600160a01b0319166001600160a01b038a1617905590925082917fb5e6e01e79f91267dc17b4e6314d5d4d03593d2ceee0fbb452b750bd70ea5af99190a2600254604051630200057560e51b81526001600160a01b0390911690634000aea090610e0a908890879087906004016114ff565b6020604051808303816000875af1158015610e29573d6000803e3d6000fd5b505050506040513d601f19601f82011682018060405250810190610e4d9190611365565b610aca5760405162461bcd60e51b815260206004820152602360248201527f756e61626c6520746f207472616e73666572416e6443616c6c20746f206f7261604482015262636c6560e81b6064820152608401610432565b610eb08260c2610edc565b50610ba18282604051602001610ec891815260200190565b604051602081830303815290604052610ae9565b60408051808201909152606081526000602082015261081b8384600001515184611011565b604080518082019091526060815260006020820152610aca84856000015151858561106c565b6040805180820190915260608152600060208201528251821115610f4a57600080fd5b6020850151610f59838661142d565b1115610f8c57610f8c85610f7c87602001518786610f77919061142d565b6110ed565b610f8790600261152f565b611104565b600080865180518760208301019350808887011115610fab5787860182525b505050602084015b60208410610feb5780518252610fca60208361142d565b9150610fd760208261142d565b9050610fe46020856114e8565b9350610fb3565b51815160001960208690036101000a019081169019919091161790525083949350505050565b60408051808201909152606081526000602082015283602001518310611046576110468485602001516002610f87919061152f565b8351805160208583010184815350808503611062576001810182525b5093949350505050565b6040805180820190915260608152600060208201526020850151611090858461142d565b11156110a4576110a485610f7c868561142d565b600060016110b484610100611632565b6110be91906114e8565b90508551838682010185831982511617815250805184870111156110e25783860181525b509495945050505050565b6000818311156110fe5750816107bf565b50919050565b81516111108383610bb1565b506104fb8382610d25565b6040805160a0810182526000808252602080830182905282840182905260608084018390528451808601909552845283015290608082015290565b6001600160a01b03811681146103f757600080fd5b60008083601f84011261117d57600080fd5b50813567ffffffffffffffff81111561119557600080fd5b6020830191508360208285010111156111ad57600080fd5b9250929050565b6000806000806000608086880312156111cc57600080fd5b853594506020860135935060408601356111e581611156565b9250606086013567ffffffffffffffff81111561120157600080fd5b61120d8882890161116b565b969995985093965092949392505050565b60006020828403121561123057600080fd5b5035919050565b6000806040838503121561124a57600080fd5b82359150602083013561125c81611156565b809150509250929050565b60006020828403121561127957600080fd5b813561081b81611156565b6000806040838503121561129757600080fd5b50508035926020909101359150565b60008060008060008060a087890312156112bf57600080fd5b863595506020870135945060408701356112d881611156565b935060608701359250608087013567ffffffffffffffff8111156112fb57600080fd5b61130789828a0161116b565b979a9699509497509295939492505050565b6000806000806080858703121561132f57600080fd5b843593506020850135925060408501356001600160e01b03198116811461135557600080fd5b9396929550929360600135925050565b60006020828403121561137757600080fd5b8151801515811461081b57600080fd5b60208082526028908201527f536f75726365206d75737420626520746865206f7261636c65206f6620746865604082015267081c995c5d595cdd60c21b606082015260800190565b60005b838110156113ea5781810151838201526020016113d2565b838111156104fb5750506000910152565b6000825161140d8184602087016113cf565b9190910192915050565b634e487b7160e01b600052601160045260246000fd5b6000821982111561144057611440611417565b500190565b6000815180845261145d8160208601602086016113cf565b601f01601f19169290920160200192915050565b60018060a01b038816815286602082015285604082015263ffffffff60e01b851660608201528360808201528260a082015260e060c082015260006114b960e0830184611445565b9998505050505050505050565b6000826114e357634e487b7160e01b600052601260045260246000fd5b500690565b6000828210156114fa576114fa611417565b500390565b60018060a01b03841681528260208201526060604082015260006115266060830184611445565b95945050505050565b600081600019048311821515161561154957611549611417565b500290565b600181815b8085111561158957816000190482111561156f5761156f611417565b8085161561157c57918102915b93841c9390800290611553565b509250929050565b6000826115a0575060016107bf565b816115ad575060006107bf565b81600181146115c357600281146115cd576115e9565b60019150506107bf565b60ff8411156115de576115de611417565b50506001821b6107bf565b5060208310610133831016604e8410600b841016171561160c575081810a6107bf565b611616838361154e565b806000190482111561162a5761162a611417565b029392505050565b600061081b838361159156fea2646970667358221220fa1346a10db288500c3a7897e3d2351f748d4dd8f5601af5a488cff0eb1f3caf64736f6c634300080e0033",
  "linkReferences": {},
  "deployedLinkReferences": {}
}