{
  "_format": "hh-sol-artifact-1",
  "contractName": "NFTBankConsumer",
  "sourceName": "contracts/oracle/NFTBankConsumer.sol",
  "abi": [
    {
      "inputs": [
        {
          "internalType": "address",
          "name": "_link",
          "type": "address"
        },
        {
          "internalType": "address",
          "name": "_oracle",
          "type": "address"
        },
        {
          "internalType": "address",
          "name": "_takerOracleGetter",
          "type": "address"
        }
      ],
      "stateMutability": "nonpayable",
      "type": "constructor"
    },
    {
      "inputs": [
        {
          "internalType": "address",
          "name": "to",
          "type": "address"
        },
        {
          "internalType": "uint256",
          "name": "amount",
          "type": "uint256"
        }
      ],
      "name": "FailedTransferLINK",
      "type": "error"
    },
    {
      "anonymous": false,
      "inputs": [
        {
          "indexed": true,
          "internalType": "bytes32",
          "name": "id",
          "type": "bytes32"
        }
      ],
      "name": "ChainlinkCancelled",
      "type": "event"
    },
    {
      "anonymous": false,
      "inputs": [
        {
          "indexed": true,
          "internalType": "bytes32",
          "name": "id",
          "type": "bytes32"
        }
      ],
      "name": "ChainlinkFulfilled",
      "type": "event"
    },
    {
      "anonymous": false,
      "inputs": [
        {
          "indexed": true,
          "internalType": "bytes32",
          "name": "id",
          "type": "bytes32"
        }
      ],
      "name": "ChainlinkRequested",
      "type": "event"
    },
    {
      "anonymous": false,
      "inputs": [
        {
          "indexed": true,
          "internalType": "address",
          "name": "asset",
          "type": "address"
        },
        {
          "indexed": false,
          "internalType": "uint256",
          "name": "price",
          "type": "uint256"
        }
      ],
      "name": "NewNFTPrice",
      "type": "event"
    },
    {
      "inputs": [
        {
          "internalType": "bytes32",
          "name": "_requestId",
          "type": "bytes32"
        },
        {
          "internalType": "uint256",
          "name": "_payment",
          "type": "uint256"
        },
        {
          "internalType": "bytes4",
          "name": "_callbackFunctionId",
          "type": "bytes4"
        },
        {
          "internalType": "uint256",
          "name": "_expiration",
          "type": "uint256"
        }
      ],
      "name": "cancelRequest",
      "outputs": [],
      "stateMutability": "nonpayable",
      "type": "function"
    },
    {
      "inputs": [
        {
          "internalType": "bytes32",
          "name": "_requestId",
          "type": "bytes32"
        },
        {
          "internalType": "bytes32",
          "name": "_result",
          "type": "bytes32"
        }
      ],
      "name": "fulfillDateAndPrice",
      "outputs": [],
      "stateMutability": "nonpayable",
      "type": "function"
    },
    {
      "inputs": [
        {
          "internalType": "bytes32",
          "name": "_requestId",
          "type": "bytes32"
        },
        {
          "internalType": "uint256",
          "name": "_estimate",
          "type": "uint256"
        }
      ],
      "name": "fulfillPrice",
      "outputs": [],
      "stateMutability": "nonpayable",
      "type": "function"
    },
    {
      "inputs": [
        {
          "internalType": "bytes32",
          "name": "_specId",
          "type": "bytes32"
        },
        {
          "internalType": "uint256",
          "name": "_payment",
          "type": "uint256"
        },
        {
          "internalType": "address",
          "name": "_assetAddress",
          "type": "address"
        },
        {
          "internalType": "string",
          "name": "_pricingAsset",
          "type": "string"
        }
      ],
      "name": "getDateAndFloorPrice",
      "outputs": [],
      "stateMutability": "nonpayable",
      "type": "function"
    },
    {
      "inputs": [
        {
          "internalType": "bytes32",
          "name": "_specId",
          "type": "bytes32"
        },
        {
          "internalType": "uint256",
          "name": "_payment",
          "type": "uint256"
        },
        {
          "internalType": "address",
          "name": "_assetAddress",
          "type": "address"
        },
        {
          "internalType": "uint256",
          "name": "_tokenId",
          "type": "uint256"
        },
        {
          "internalType": "string",
          "name": "_pricingAsset",
          "type": "string"
        }
      ],
      "name": "getEstimate",
      "outputs": [],
      "stateMutability": "nonpayable",
      "type": "function"
    },
    {
      "inputs": [
        {
          "internalType": "bytes32",
          "name": "_specId",
          "type": "bytes32"
        },
        {
          "internalType": "uint256",
          "name": "_payment",
          "type": "uint256"
        },
        {
          "internalType": "address",
          "name": "_assetAddress",
          "type": "address"
        },
        {
          "internalType": "string",
          "name": "_pricingAsset",
          "type": "string"
        }
      ],
      "name": "getFloorPrice",
      "outputs": [],
      "stateMutability": "nonpayable",
      "type": "function"
    },
    {
      "inputs": [],
      "name": "getOracleAddress",
      "outputs": [
        {
          "internalType": "address",
          "name": "",
          "type": "address"
        }
      ],
      "stateMutability": "view",
      "type": "function"
    },
    {
      "inputs": [
        {
          "internalType": "bytes32",
          "name": "",
          "type": "bytes32"
        }
      ],
      "name": "lastRequestAsset",
      "outputs": [
        {
          "internalType": "address",
          "name": "",
          "type": "address"
        }
      ],
      "stateMutability": "view",
      "type": "function"
    },
    {
      "inputs": [
        {
          "internalType": "bytes32",
          "name": "",
          "type": "bytes32"
        }
      ],
      "name": "requestIdDateAndPrice",
      "outputs": [
        {
          "internalType": "uint128",
          "name": "date",
          "type": "uint128"
        },
        {
          "internalType": "uint128",
          "name": "price",
          "type": "uint128"
        }
      ],
      "stateMutability": "view",
      "type": "function"
    },
    {
      "inputs": [
        {
          "internalType": "bytes32",
          "name": "",
          "type": "bytes32"
        }
      ],
      "name": "requestIdPrice",
      "outputs": [
        {
          "internalType": "uint256",
          "name": "",
          "type": "uint256"
        }
      ],
      "stateMutability": "view",
      "type": "function"
    },
    {
      "inputs": [
        {
          "internalType": "address",
          "name": "_oracle",
          "type": "address"
        }
      ],
      "name": "setOracle",
      "outputs": [],
      "stateMutability": "nonpayable",
      "type": "function"
    },
    {
      "inputs": [
        {
          "internalType": "uint256",
          "name": "_amount",
          "type": "uint256"
        },
        {
          "internalType": "address payable",
          "name": "_payee",
          "type": "address"
        }
      ],
      "name": "withdrawLink",
      "outputs": [],
      "stateMutability": "nonpayable",
      "type": "function"
    }
  ],
  "bytecode": "0x608060405260016004553480156200001657600080fd5b5060405162001716380380620017168339810160408190526200003991620000b5565b600280546001600160a01b0319166001600160a01b038516179055600380546001600160a01b0319166001600160a01b038416179055600880546001600160a01b0319166001600160a01b039290921691909117905550620000ff9050565b80516001600160a01b0381168114620000b057600080fd5b919050565b600080600060608486031215620000cb57600080fd5b620000d68462000098565b9250620000e66020850162000098565b9150620000f66040850162000098565b90509250925092565b611607806200010f6000396000f3fe608060405234801561001057600080fd5b50600436106100b35760003560e01c8063b18b78dd11610071578063b18b78dd1461018b578063b76c27ba146101ab578063d39e6dc6146101be578063e470be8d146101ec578063e7435df614610215578063ec65d0f81461022857600080fd5b8062c06d1b146100b857806307ac70d9146100cd57806341ea27ca146101265780637adbf973146101395780638d2a648d146101655780639e7b14f814610178575b600080fd5b6100cb6100c6366004611147565b61023b565b005b6101016100db3660046111b1565b6007602052600090815260409020546001600160801b0380821691600160801b90041682565b604080516001600160801b039384168152929091166020830152015b60405180910390f35b6100cb6101343660046111ca565b61035d565b6100cb6101473660046111fa565b600380546001600160a01b0319166001600160a01b03831617905550565b6100cb610173366004611217565b6103fa565b6100cb610186366004611147565b6104ad565b6101936104c0565b6040516001600160a01b03909116815260200161011d565b6100cb6101b9366004611239565b6104d9565b6101de6101cc3660046111b1565b60066020526000908152604090205481565b60405190815260200161011d565b6101936101fa3660046111b1565b6009602052600090815260409020546001600160a01b031681565b6100cb610223366004611217565b61060e565b6100cb6102363660046112ac565b61070f565b600061024e86638d2a648d60e01b610721565b90506102b46040518060400160405280600c81526020016b61737365744164647265737360a01b8152508560405160200161029c919060609190911b6001600160601b031916815260140190565b60408051601f19818403018152919052839190610747565b61031c6040518060400160405280600c81526020016b1c1c9a58da5b99d05cdcd95d60a21b81525084848080601f0160208091040260200160405190810160405280939291908181526020018383808284376000920191909152508694939250506107659050565b60006103288287610783565b600090815260096020526040902080546001600160a01b0319166001600160a01b039690961695909517909455505050505050565b60006103716002546001600160a01b031690565b60405163a9059cbb60e01b81526001600160a01b038481166004830152602482018690529192506103f29183169063a9059cbb906044016020604051808303816000875af11580156103c7573d6000803e3d6000fd5b505050506040513d601f19601f820116820180604052508101906103eb91906112f8565b83856107a4565b505050565b50565b60008281526005602052604090205482906001600160a01b0316331461043b5760405162461bcd60e51b81526004016104329061131a565b60405180910390fd5b60008181526005602052604080822080546001600160a01b03191690555182917f7cc135e0cebb02c3480ae5d74d377283180a2601f8f644edf7987b009316c63a91a2600083815260066020908152604080832085905560099091529020546103f2906001600160a01b0316836107d4565b600061024e866373a1aefb60e11b610721565b60006104d46003546001600160a01b031690565b905090565b60006104ec87638d2a648d60e01b610721565b905061053a6040518060400160405280600c81526020016b61737365744164647265737360a01b8152508660405160200161029c919060609190911b6001600160601b031916815260140190565b6040805180820190915260078152661d1bdad95b925960ca1b60208201526105649082908661092f565b6105cc6040518060400160405280600c81526020016b1c1c9a58da5b99d05cdcd95d60a21b81525084848080601f0160208091040260200160405190810160405280939291908181526020018383808284376000920191909152508694939250506107659050565b60006105d88288610783565b600090815260096020526040902080546001600160a01b0319166001600160a01b03979097169690961790955550505050505050565b60008281526005602052604090205482906001600160a01b031633146106465760405162461bcd60e51b81526004016104329061131a565b60008181526005602052604080822080546001600160a01b03191690555182917f7cc135e0cebb02c3480ae5d74d377283180a2601f8f644edf7987b009316c63a91a260408051808201825260008082526020918201528151808301909252608084901c82526001600160801b0384169082015260008481526007602081815260408084208551958301516001600160801b03968716600160801b91881682021791829055600984529190942054929091526103f2936001600160a01b039092169204166107d4565b61071b8484848461094d565b50505050565b6107296110ae565b6107316110ae565b61073d81853086610a1f565b9150505b92915050565b60808301516107569083610a65565b60808301516103f29082610a7c565b60808301516107749083610a65565b60808301516103f29082610a65565b60035460009061079d906001600160a01b03168484610a89565b9392505050565b826103f257604051637ab2f97760e01b81526001600160a01b038316600482015260248101829052604401610432565b6107e081612710611378565b6008546040516001600160a01b038581166024830152604482018490529293506000929091169060640160408051601f198184030181529181526020820180516001600160e01b0316634c2449b960e01b1790525161083f91906113c3565b6000604051808303816000865af19150503d806000811461087c576040519150601f19603f3d011682016040523d82523d6000602084013e610881565b606091505b50509050826001600160a01b03167f42d71377d5b6f8f0b494e6eb228149ecfb296d040ba3f8136638afb2fd8c6523836040516108c091815260200190565b60405180910390a2806103f25760405162461bcd60e51b815260206004820152603160248201527f4e465442616e6b436f6e73756d65723a2063616c6c2074616b6572206f72616360448201527036329033b2ba3a32b9103330b4b632b21760791b6064820152608401610432565b608083015161093e9083610a65565b60808301516103f29082610b1a565b60008481526005602052604080822080546001600160a01b0319811690915590516001600160a01b039091169186917fe1fe3afa0f7f761ff0a8b89086790efd5140d2907ebd5b7ff6bfcb5e075fd4c59190a2604051636ee4d55360e01b815260048101869052602481018590526001600160e01b031984166044820152606481018390526001600160a01b03821690636ee4d55390608401600060405180830381600087803b158015610a0057600080fd5b505af1158015610a14573d6000803e3d6000fd5b505050505050505050565b610a276110ae565b610a378560800151610100610b44565b50508284526001600160a01b03821660208501526001600160e01b031981166040850152835b949350505050565b610a728260038351610ba9565b6103f28282610cb8565b610a728260028351610ba9565b600454600090610a9a8160016113df565b60045583516040808601516080870151519151600093633c6d41b960e01b93610ad0938693849392899160029190602401611423565b60408051601f198184030181529190526020810180516001600160e01b03166001600160e01b0319909316929092179091529050610b1086838684610cdf565b9695505050505050565b67ffffffffffffffff811115610b3857610b348282610e38565b5050565b610b3482600083610ba9565b604080518082019091526060815260006020820152610b64602083611478565b15610b8c57610b74602083611478565b610b7f90602061149a565b610b8990836113df565b91505b506020828101829052604080518085526000815290920101905290565b60178167ffffffffffffffff1611610bce5761071b8360e0600585901b168317610e6f565b60ff8167ffffffffffffffff1611610c0c57610bf5836018611fe0600586901b1617610e6f565b5061071b8367ffffffffffffffff83166001610e94565b61ffff8167ffffffffffffffff1611610c4b57610c34836019611fe0600586901b1617610e6f565b5061071b8367ffffffffffffffff83166002610e94565b63ffffffff8167ffffffffffffffff1611610c8c57610c7583601a611fe0600586901b1617610e6f565b5061071b8367ffffffffffffffff83166004610e94565b610ca183601b611fe0600586901b1617610e6f565b5061071b8367ffffffffffffffff83166008610e94565b60408051808201909152606081526000602082015261079d83846000015151848551610eba565b6040516001600160601b03193060601b1660208201526034810184905260009060540160408051808303601f1901815282825280516020918201206000818152600590925291812080546001600160a01b0319166001600160a01b038a1617905590925082917fb5e6e01e79f91267dc17b4e6314d5d4d03593d2ceee0fbb452b750bd70ea5af99190a2600254604051630200057560e51b81526001600160a01b0390911690634000aea090610d9d908890879087906004016114b1565b6020604051808303816000875af1158015610dbc573d6000803e3d6000fd5b505050506040513d601f19601f82011682018060405250810190610de091906112f8565b610a5d5760405162461bcd60e51b815260206004820152602360248201527f756e61626c6520746f207472616e73666572416e6443616c6c20746f206f7261604482015262636c6560e81b6064820152608401610432565b610e438260c2610e6f565b50610b348282604051602001610e5b91815260200190565b604051602081830303815290604052610a7c565b60408051808201909152606081526000602082015261079d8384600001515184610fa4565b604080518082019091526060815260006020820152610a5d848560000151518585610fff565b6040805180820190915260608152600060208201528251821115610edd57600080fd5b6020850151610eec83866113df565b1115610f1f57610f1f85610f0f87602001518786610f0a91906113df565b611080565b610f1a906002611378565b611097565b600080865180518760208301019350808887011115610f3e5787860182525b505050602084015b60208410610f7e5780518252610f5d6020836113df565b9150610f6a6020826113df565b9050610f7760208561149a565b9350610f46565b51815160001960208690036101000a019081169019919091161790525083949350505050565b60408051808201909152606081526000602082015283602001518310610fd957610fd98485602001516002610f1a9190611378565b8351805160208583010184815350808503610ff5576001810182525b5093949350505050565b604080518082019091526060815260006020820152602085015161102385846113df565b11156110375761103785610f0f86856113df565b60006001611047846101006115c5565b611051919061149a565b90508551838682010185831982511617815250805184870111156110755783860181525b509495945050505050565b600081831115611091575081610741565b50919050565b81516110a38383610b44565b5061071b8382610cb8565b6040805160a0810182526000808252602080830182905282840182905260608084018390528451808601909552845283015290608082015290565b6001600160a01b03811681146103f757600080fd5b60008083601f84011261111057600080fd5b50813567ffffffffffffffff81111561112857600080fd5b60208301915083602082850101111561114057600080fd5b9250929050565b60008060008060006080868803121561115f57600080fd5b85359450602086013593506040860135611178816110e9565b9250606086013567ffffffffffffffff81111561119457600080fd5b6111a0888289016110fe565b969995985093965092949392505050565b6000602082840312156111c357600080fd5b5035919050565b600080604083850312156111dd57600080fd5b8235915060208301356111ef816110e9565b809150509250929050565b60006020828403121561120c57600080fd5b813561079d816110e9565b6000806040838503121561122a57600080fd5b50508035926020909101359150565b60008060008060008060a0878903121561125257600080fd5b8635955060208701359450604087013561126b816110e9565b935060608701359250608087013567ffffffffffffffff81111561128e57600080fd5b61129a89828a016110fe565b979a9699509497509295939492505050565b600080600080608085870312156112c257600080fd5b843593506020850135925060408501356001600160e01b0319811681146112e857600080fd5b9396929550929360600135925050565b60006020828403121561130a57600080fd5b8151801515811461079d57600080fd5b60208082526028908201527f536f75726365206d75737420626520746865206f7261636c65206f6620746865604082015267081c995c5d595cdd60c21b606082015260800190565b634e487b7160e01b600052601160045260246000fd5b600081600019048311821515161561139257611392611362565b500290565b60005b838110156113b257818101518382015260200161139a565b8381111561071b5750506000910152565b600082516113d5818460208701611397565b9190910192915050565b600082198211156113f2576113f2611362565b500190565b6000815180845261140f816020860160208601611397565b601f01601f19169290920160200192915050565b60018060a01b038816815286602082015285604082015263ffffffff60e01b851660608201528360808201528260a082015260e060c0820152600061146b60e08301846113f7565b9998505050505050505050565b60008261149557634e487b7160e01b600052601260045260246000fd5b500690565b6000828210156114ac576114ac611362565b500390565b60018060a01b03841681528260208201526060604082015260006114d860608301846113f7565b95945050505050565b600181815b8085111561151c57816000190482111561150257611502611362565b8085161561150f57918102915b93841c93908002906114e6565b509250929050565b60008261153357506001610741565b8161154057506000610741565b816001811461155657600281146115605761157c565b6001915050610741565b60ff84111561157157611571611362565b50506001821b610741565b5060208310610133831016604e8410600b841016171561159f575081810a610741565b6115a983836114e1565b80600019048211156115bd576115bd611362565b029392505050565b600061079d838361152456fea2646970667358221220cd5df0d9a263121584f60e85c037efd5d5005e8eed0f36af8d36160cecd0bb8264736f6c634300080e0033",
  "linkReferences": {},
  "deployedLinkReferences": {}
}