{
  "_format": "hh-sol-artifact-1",
  "contractName": "PoolConfigurator",
  "sourceName": "contracts/pool/lendingpool/LendingPoolConfigurator.sol",
  "abi": [
    {
      "anonymous": false,
      "inputs": [
        {
          "indexed": true,
          "internalType": "address",
          "name": "asset",
          "type": "address"
        },
        {
          "indexed": false,
          "internalType": "bool",
          "name": "active",
          "type": "bool"
        }
      ],
      "name": "AssetActiveUpdated",
      "type": "event"
    },
    {
      "anonymous": false,
      "inputs": [
        {
          "indexed": true,
          "internalType": "address",
          "name": "asset",
          "type": "address"
        },
        {
          "indexed": false,
          "internalType": "bool",
          "name": "freeze",
          "type": "bool"
        }
      ],
      "name": "AssetFreezeUpdated",
      "type": "event"
    },
    {
      "anonymous": false,
      "inputs": [
        {
          "indexed": true,
          "internalType": "address",
          "name": "asset",
          "type": "address"
        },
        {
          "indexed": false,
          "internalType": "bool",
          "name": "pause",
          "type": "bool"
        }
      ],
      "name": "AssetPauseUpdated",
      "type": "event"
    },
    {
      "anonymous": false,
      "inputs": [
        {
          "indexed": true,
          "internalType": "address",
          "name": "asset",
          "type": "address"
        },
        {
          "indexed": false,
          "internalType": "uint256",
          "name": "borrowCap",
          "type": "uint256"
        }
      ],
      "name": "BorrowCapUpdated",
      "type": "event"
    },
    {
      "anonymous": false,
      "inputs": [
        {
          "indexed": true,
          "internalType": "address",
          "name": "asset",
          "type": "address"
        },
        {
          "indexed": false,
          "internalType": "uint256",
          "name": "liqThreshold",
          "type": "uint256"
        },
        {
          "indexed": false,
          "internalType": "uint256",
          "name": "ltv",
          "type": "uint256"
        }
      ],
      "name": "BorrowParamsUpdated",
      "type": "event"
    },
    {
      "anonymous": false,
      "inputs": [
        {
          "indexed": true,
          "internalType": "address",
          "name": "asset",
          "type": "address"
        },
        {
          "indexed": false,
          "internalType": "uint256",
          "name": "depositCap",
          "type": "uint256"
        }
      ],
      "name": "DepositCapUpdated",
      "type": "event"
    },
    {
      "anonymous": false,
      "inputs": [
        {
          "indexed": false,
          "internalType": "uint8",
          "name": "version",
          "type": "uint8"
        }
      ],
      "name": "Initialized",
      "type": "event"
    },
    {
      "anonymous": false,
      "inputs": [
        {
          "indexed": true,
          "internalType": "address",
          "name": "asset",
          "type": "address"
        },
        {
          "indexed": true,
          "internalType": "address",
          "name": "tNft",
          "type": "address"
        },
        {
          "indexed": false,
          "internalType": "uint8",
          "name": "tokenType",
          "type": "uint8"
        },
        {
          "indexed": false,
          "internalType": "uint256",
          "name": "liqThreshold",
          "type": "uint256"
        },
        {
          "indexed": false,
          "internalType": "uint256",
          "name": "ltv",
          "type": "uint256"
        }
      ],
      "name": "NftReserveInitialized",
      "type": "event"
    },
    {
      "anonymous": false,
      "inputs": [
        {
          "indexed": true,
          "internalType": "address",
          "name": "asset",
          "type": "address"
        }
      ],
      "name": "ReserveDropped",
      "type": "event"
    },
    {
      "anonymous": false,
      "inputs": [
        {
          "indexed": true,
          "internalType": "address",
          "name": "asset",
          "type": "address"
        },
        {
          "indexed": false,
          "internalType": "uint256",
          "name": "reserveFactor",
          "type": "uint256"
        }
      ],
      "name": "ReserveFactorUpdated",
      "type": "event"
    },
    {
      "anonymous": false,
      "inputs": [
        {
          "indexed": true,
          "internalType": "address",
          "name": "asset",
          "type": "address"
        },
        {
          "indexed": true,
          "internalType": "address",
          "name": "tToken",
          "type": "address"
        },
        {
          "indexed": false,
          "internalType": "address",
          "name": "debtToken",
          "type": "address"
        },
        {
          "indexed": false,
          "internalType": "address",
          "name": "interestRateStrategyAddress",
          "type": "address"
        },
        {
          "indexed": false,
          "internalType": "uint256",
          "name": "liqThreshold",
          "type": "uint256"
        },
        {
          "indexed": false,
          "internalType": "uint256",
          "name": "ltv",
          "type": "uint256"
        }
      ],
      "name": "ReserveInitialized",
      "type": "event"
    },
    {
      "anonymous": false,
      "inputs": [
        {
          "indexed": true,
          "internalType": "address",
          "name": "asset",
          "type": "address"
        },
        {
          "indexed": false,
          "internalType": "address",
          "name": "interestRateCalculator",
          "type": "address"
        }
      ],
      "name": "ReserveInterestRateCalculatorUpdated",
      "type": "event"
    },
    {
      "anonymous": false,
      "inputs": [
        {
          "indexed": true,
          "internalType": "bytes32",
          "name": "role",
          "type": "bytes32"
        },
        {
          "indexed": true,
          "internalType": "bytes32",
          "name": "previousAdminRole",
          "type": "bytes32"
        },
        {
          "indexed": true,
          "internalType": "bytes32",
          "name": "newAdminRole",
          "type": "bytes32"
        }
      ],
      "name": "RoleAdminChanged",
      "type": "event"
    },
    {
      "anonymous": false,
      "inputs": [
        {
          "indexed": true,
          "internalType": "bytes32",
          "name": "role",
          "type": "bytes32"
        },
        {
          "indexed": true,
          "internalType": "address",
          "name": "account",
          "type": "address"
        },
        {
          "indexed": true,
          "internalType": "address",
          "name": "sender",
          "type": "address"
        }
      ],
      "name": "RoleGranted",
      "type": "event"
    },
    {
      "anonymous": false,
      "inputs": [
        {
          "indexed": true,
          "internalType": "bytes32",
          "name": "role",
          "type": "bytes32"
        },
        {
          "indexed": true,
          "internalType": "address",
          "name": "account",
          "type": "address"
        },
        {
          "indexed": true,
          "internalType": "address",
          "name": "sender",
          "type": "address"
        }
      ],
      "name": "RoleRevoked",
      "type": "event"
    },
    {
      "anonymous": false,
      "inputs": [
        {
          "indexed": true,
          "internalType": "address",
          "name": "asset",
          "type": "address"
        },
        {
          "indexed": true,
          "internalType": "address",
          "name": "proxy",
          "type": "address"
        },
        {
          "indexed": true,
          "internalType": "address",
          "name": "impl",
          "type": "address"
        }
      ],
      "name": "TokenImplUpgraded",
      "type": "event"
    },
    {
      "inputs": [],
      "name": "DEFAULT_ADMIN_ROLE",
      "outputs": [
        {
          "internalType": "bytes32",
          "name": "",
          "type": "bytes32"
        }
      ],
      "stateMutability": "view",
      "type": "function"
    },
    {
      "inputs": [],
      "name": "EMERGENCY_ADMIN",
      "outputs": [
        {
          "internalType": "bytes32",
          "name": "",
          "type": "bytes32"
        }
      ],
      "stateMutability": "view",
      "type": "function"
    },
    {
      "inputs": [],
      "name": "LENDING_POOL_ADMIN",
      "outputs": [
        {
          "internalType": "bytes32",
          "name": "",
          "type": "bytes32"
        }
      ],
      "stateMutability": "view",
      "type": "function"
    },
    {
      "inputs": [],
      "name": "NAME",
      "outputs": [
        {
          "internalType": "string",
          "name": "",
          "type": "string"
        }
      ],
      "stateMutability": "view",
      "type": "function"
    },
    {
      "inputs": [
        {
          "internalType": "address",
          "name": "asset",
          "type": "address"
        }
      ],
      "name": "dropReserve",
      "outputs": [],
      "stateMutability": "nonpayable",
      "type": "function"
    },
    {
      "inputs": [
        {
          "internalType": "bytes32",
          "name": "role",
          "type": "bytes32"
        }
      ],
      "name": "getRoleAdmin",
      "outputs": [
        {
          "internalType": "bytes32",
          "name": "",
          "type": "bytes32"
        }
      ],
      "stateMutability": "view",
      "type": "function"
    },
    {
      "inputs": [
        {
          "internalType": "bytes32",
          "name": "role",
          "type": "bytes32"
        },
        {
          "internalType": "address",
          "name": "account",
          "type": "address"
        }
      ],
      "name": "grantRole",
      "outputs": [],
      "stateMutability": "nonpayable",
      "type": "function"
    },
    {
      "inputs": [
        {
          "internalType": "bytes32",
          "name": "role",
          "type": "bytes32"
        },
        {
          "internalType": "address",
          "name": "account",
          "type": "address"
        }
      ],
      "name": "hasRole",
      "outputs": [
        {
          "internalType": "bool",
          "name": "",
          "type": "bool"
        }
      ],
      "stateMutability": "view",
      "type": "function"
    },
    {
      "inputs": [
        {
          "components": [
            {
              "internalType": "address",
              "name": "tTokenImpl",
              "type": "address"
            },
            {
              "internalType": "string",
              "name": "tTokenNamePrefix",
              "type": "string"
            },
            {
              "internalType": "string",
              "name": "tTokenSymbolPrefix",
              "type": "string"
            },
            {
              "internalType": "address",
              "name": "asset",
              "type": "address"
            },
            {
              "internalType": "enum ReserveConfigurator.TokenType",
              "name": "tokenType",
              "type": "uint8"
            },
            {
              "internalType": "uint8",
              "name": "decimals",
              "type": "uint8"
            },
            {
              "internalType": "address",
              "name": "treasury",
              "type": "address"
            },
            {
              "internalType": "address",
              "name": "incentivesController",
              "type": "address"
            },
            {
              "internalType": "uint256",
              "name": "ltv",
              "type": "uint256"
            },
            {
              "internalType": "uint256",
              "name": "liqThreshold",
              "type": "uint256"
            }
          ],
          "internalType": "struct ILendingPoolConfigurator.NftReserveInitParams[]",
          "name": "paramsList",
          "type": "tuple[]"
        }
      ],
      "name": "initNftReserves",
      "outputs": [],
      "stateMutability": "nonpayable",
      "type": "function"
    },
    {
      "inputs": [
        {
          "components": [
            {
              "internalType": "address",
              "name": "tTokenImpl",
              "type": "address"
            },
            {
              "internalType": "string",
              "name": "tTokenNamePrefix",
              "type": "string"
            },
            {
              "internalType": "string",
              "name": "tTokenSymbolPrefix",
              "type": "string"
            },
            {
              "internalType": "address",
              "name": "debtTokenImpl",
              "type": "address"
            },
            {
              "internalType": "string",
              "name": "debtTokenNamePrefix",
              "type": "string"
            },
            {
              "internalType": "string",
              "name": "debtTokenSymbolPrefix",
              "type": "string"
            },
            {
              "internalType": "address",
              "name": "interestRateStrategyAddress",
              "type": "address"
            },
            {
              "internalType": "address",
              "name": "asset",
              "type": "address"
            },
            {
              "internalType": "uint8",
              "name": "decimals",
              "type": "uint8"
            },
            {
              "internalType": "address",
              "name": "treasury",
              "type": "address"
            },
            {
              "internalType": "address",
              "name": "incentivesController",
              "type": "address"
            },
            {
              "internalType": "uint256",
              "name": "ltv",
              "type": "uint256"
            },
            {
              "internalType": "uint256",
              "name": "liqThreshold",
              "type": "uint256"
            },
            {
              "internalType": "uint256",
              "name": "depositCap",
              "type": "uint256"
            },
            {
              "internalType": "uint256",
              "name": "borrowCap",
              "type": "uint256"
            },
            {
              "internalType": "uint16",
              "name": "reserveFactor",
              "type": "uint16"
            }
          ],
          "internalType": "struct ILendingPoolConfigurator.ReserveInitParams[]",
          "name": "paramsList",
          "type": "tuple[]"
        }
      ],
      "name": "initReserves",
      "outputs": [],
      "stateMutability": "nonpayable",
      "type": "function"
    },
    {
      "inputs": [
        {
          "internalType": "contract ITakerAddressesProvider",
          "name": "provider",
          "type": "address"
        },
        {
          "internalType": "address",
          "name": "admin",
          "type": "address"
        }
      ],
      "name": "initialize",
      "outputs": [],
      "stateMutability": "nonpayable",
      "type": "function"
    },
    {
      "inputs": [
        {
          "internalType": "bytes32",
          "name": "role",
          "type": "bytes32"
        },
        {
          "internalType": "address",
          "name": "account",
          "type": "address"
        }
      ],
      "name": "renounceRole",
      "outputs": [],
      "stateMutability": "nonpayable",
      "type": "function"
    },
    {
      "inputs": [
        {
          "internalType": "bytes32",
          "name": "role",
          "type": "bytes32"
        },
        {
          "internalType": "address",
          "name": "account",
          "type": "address"
        }
      ],
      "name": "revokeRole",
      "outputs": [],
      "stateMutability": "nonpayable",
      "type": "function"
    },
    {
      "inputs": [
        {
          "internalType": "address",
          "name": "WETHGateway",
          "type": "address"
        }
      ],
      "name": "setWETHGateway",
      "outputs": [],
      "stateMutability": "nonpayable",
      "type": "function"
    },
    {
      "inputs": [
        {
          "internalType": "bytes4",
          "name": "interfaceId",
          "type": "bytes4"
        }
      ],
      "name": "supportsInterface",
      "outputs": [
        {
          "internalType": "bool",
          "name": "",
          "type": "bool"
        }
      ],
      "stateMutability": "view",
      "type": "function"
    },
    {
      "inputs": [
        {
          "internalType": "address",
          "name": "asset",
          "type": "address"
        },
        {
          "internalType": "bool",
          "name": "active",
          "type": "bool"
        }
      ],
      "name": "updateAssetActive",
      "outputs": [],
      "stateMutability": "nonpayable",
      "type": "function"
    },
    {
      "inputs": [
        {
          "internalType": "address",
          "name": "asset",
          "type": "address"
        },
        {
          "internalType": "bool",
          "name": "freeze",
          "type": "bool"
        }
      ],
      "name": "updateAssetFreeze",
      "outputs": [],
      "stateMutability": "nonpayable",
      "type": "function"
    },
    {
      "inputs": [
        {
          "internalType": "address",
          "name": "asset",
          "type": "address"
        },
        {
          "internalType": "bool",
          "name": "pause",
          "type": "bool"
        }
      ],
      "name": "updateAssetPause",
      "outputs": [],
      "stateMutability": "nonpayable",
      "type": "function"
    },
    {
      "inputs": [
        {
          "internalType": "address",
          "name": "asset",
          "type": "address"
        },
        {
          "internalType": "uint256",
          "name": "borrowCap",
          "type": "uint256"
        }
      ],
      "name": "updateBorrowCap",
      "outputs": [],
      "stateMutability": "nonpayable",
      "type": "function"
    },
    {
      "inputs": [
        {
          "internalType": "address",
          "name": "asset",
          "type": "address"
        },
        {
          "internalType": "uint256",
          "name": "liqThreshold",
          "type": "uint256"
        },
        {
          "internalType": "uint256",
          "name": "ltv",
          "type": "uint256"
        }
      ],
      "name": "updateBorrowParams",
      "outputs": [],
      "stateMutability": "nonpayable",
      "type": "function"
    },
    {
      "inputs": [
        {
          "internalType": "address",
          "name": "asset",
          "type": "address"
        },
        {
          "internalType": "uint256",
          "name": "depositCap",
          "type": "uint256"
        }
      ],
      "name": "updateDepositCap",
      "outputs": [],
      "stateMutability": "nonpayable",
      "type": "function"
    },
    {
      "inputs": [
        {
          "internalType": "bool",
          "name": "pause",
          "type": "bool"
        }
      ],
      "name": "updatePoolPause",
      "outputs": [],
      "stateMutability": "nonpayable",
      "type": "function"
    },
    {
      "inputs": [
        {
          "internalType": "address",
          "name": "asset",
          "type": "address"
        },
        {
          "internalType": "uint256",
          "name": "reserveFactor",
          "type": "uint256"
        }
      ],
      "name": "updateReserveFactor",
      "outputs": [],
      "stateMutability": "nonpayable",
      "type": "function"
    },
    {
      "inputs": [
        {
          "internalType": "address",
          "name": "asset",
          "type": "address"
        },
        {
          "internalType": "address",
          "name": "interestRateCalculator",
          "type": "address"
        }
      ],
      "name": "updateReserveInterestRateCalculator",
      "outputs": [],
      "stateMutability": "nonpayable",
      "type": "function"
    },
    {
      "inputs": [
        {
          "internalType": "address",
          "name": "asset",
          "type": "address"
        },
        {
          "internalType": "address",
          "name": "newImpl",
          "type": "address"
        },
        {
          "internalType": "enum ILendingPoolConfigurator.TokenType",
          "name": "tokenType",
          "type": "uint8"
        }
      ],
      "name": "upgradeTokenImpl",
      "outputs": [],
      "stateMutability": "nonpayable",
      "type": "function"
    }
  ],
  "bytecode": "0x608060405234801561001057600080fd5b50614784806100206000396000f3fe60806040523480156200001157600080fd5b5060043610620001925760003560e01c806391d1485411620000f0578063bd4067d511620000a3578063d55b6b17116200007a578063d55b6b1714620003bb578063d6585ecf14620003d2578063e8720eac14620003e9578063fb38ee07146200040057600080fd5b8063bd4067d51462000376578063bd87e8d5146200038d578063d547741f14620003a457600080fd5b806391d1485414620002e05780639d6bc70514620002f7578063a217fddf146200030e578063a3f4df7e1462000317578063b5a993e01462000348578063b8e05c2a146200035f57600080fd5b806336568abe116200014957806336568abe1462000256578063485cc955146200026d578063530b9a0f146200028457806363c9b860146200029b578063692346db14620002b2578063768e66d314620002c957600080fd5b806301ffc9a7146200019757806311e1925914620001c357806321da583714620001dc578063248a9ca314620001f357806325c5ba7014620002285780632f2ff15d146200023f575b600080fd5b620001ae620001a836600462002e9b565b62000417565b60405190151581526020015b60405180910390f35b620001da620001d436600462002eeb565b6200044f565b005b620001da620001ed36600462002f3d565b62000660565b620002196200020436600462002f5d565b60009081526020819052604090206001015490565b604051908152602001620001ba565b620001da6200023936600462002f77565b620006e0565b620001da6200025036600462002faf565b6200092d565b620001da6200026736600462002faf565b6200095b565b620001da6200027e36600462002fe2565b620009dd565b620001da6200029536600462003015565b62000bec565b620001da620002ac36600462002f3d565b62000e23565b620001da620002c33660046200305a565b62000ed7565b620001da620002da36600462003015565b6200113a565b620001ae620002f136600462002faf565b62001284565b620001da62000308366004620030e3565b620012ad565b62000219600081565b6200033960405180604001604052806002815260200161504360f01b81525081565b604051620001ba919062003186565b620001da6200035936600462002fe2565b620016e5565b620002196000805160206200472f83398151915281565b620001da620003873660046200319b565b620017ae565b620001da6200039e366004620030e3565b62001949565b620001da620003b536600462002faf565b62001dda565b620001da620003cc36600462003015565b62001e03565b620002196000805160206200470f83398151915281565b620001da620003fa3660046200305a565b62001eb1565b620001da620004113660046200305a565b62002114565b60006001600160e01b03198216637965db0b60e01b14806200044957506301ffc9a760e01b6001600160e01b03198316145b92915050565b6000805160206200472f8339815191526200046a8162002610565b60006002836002811115620004835762000483620031b9565b036200050957600254604051637a82ba1d60e11b81526001600160a01b038781166004830152600092169063f505743a90602401606060405180830381865afa158015620004d5573d6000803e3d6000fd5b505050506040513d601f19601f82011682018060405250810190620004fb919062003270565b602001519150620005b29050565b6002546040516335ea6a7560e01b81526001600160a01b03878116600483015260009216906335ea6a759060240161016060405180830381865afa15801562000556573d6000803e3d6000fd5b505050506040513d601f19601f820116820180604052508101906200057c919062003318565b90506000846002811115620005955762000595620031b9565b03620005a8578060c001519150620005b0565b8060e0015191505b505b604051631b2ce7f360e11b81526001600160a01b038581166004830152821690633659cfe690602401600060405180830381600087803b158015620005f657600080fd5b505af11580156200060b573d6000803e3d6000fd5b50505050836001600160a01b0316816001600160a01b0316866001600160a01b03167f2ceda94e4dd959fa101239cc74310d734265077e82d69764d2ae9b2b70bc014f60405160405180910390a45050505050565b6000805160206200472f8339815191526200067b8162002610565b6002546040516321da583760e01b81526001600160a01b038481166004830152909116906321da583790602401600060405180830381600087803b158015620006c357600080fd5b505af1158015620006d8573d6000803e3d6000fd5b505050505050565b6000805160206200472f833981519152620006fb8162002610565b8282111573__$61422835ae5e51fb34bedcfef91f75f833$__635b70017b60405180604001604052806002815260200161504360f01b81525060405180604001604052806002815260200161333360f01b8152506040518363ffffffff1660e01b81526004016200076e92919062003402565b600060405180830381865af41580156200078c573d6000803e3d6000fd5b505050506040513d6000823e601f3d908101601f19168201604052620007b6919081019062003434565b90620007e05760405162461bcd60e51b8152600401620007d7919062003186565b60405180910390fd5b506002546040516342cc41e560e01b81526001600160a01b03868116600483015260009216906342cc41e590602401602060405180830381865afa1580156200082d573d6000803e3d6000fd5b505050506040513d601f19601f82011682018060405250810190620008539190620034d3565b90506200086181856200261f565b6002549091506001600160a01b031663377895628662000882848762002711565b6040516001600160e01b031960e085901b1681526001600160a01b0390921660048301526024820152604401600060405180830381600087803b158015620008c957600080fd5b505af1158015620008de573d6000803e3d6000fd5b505060408051878152602081018790526001600160a01b03891693507f573c878e64217b243ddd8557b24d40429cddc55f9bb2fbf4a260c0c33e5b6f7792500160405180910390a25050505050565b6000828152602081905260409020600101546200094a8162002610565b620009568383620027fe565b505050565b6001600160a01b0381163314620009cd5760405162461bcd60e51b815260206004820152602f60248201527f416363657373436f6e74726f6c3a2063616e206f6e6c792072656e6f756e636560448201526e103937b632b9903337b91039b2b63360891b6064820152608401620007d7565b620009d9828262002886565b5050565b600154610100900460ff1615808015620009fb57506001805460ff16105b8062000a165750303b15801562000a1657506001805460ff16145b62000a7b5760405162461bcd60e51b815260206004820152602e60248201527f496e697469616c697a61626c653a20636f6e747261637420697320616c72656160448201526d191e481a5b9a5d1a585b1a5e995960921b6064820152608401620007d7565b6001805460ff191681179055801562000a9e576001805461ff0019166101001790555b82600160026101000a8154816001600160a01b0302191690836001600160a01b03160217905550600160029054906101000a90046001600160a01b03166001600160a01b0316630261bf8b6040518163ffffffff1660e01b8152600401602060405180830381865afa15801562000b19573d6000803e3d6000fd5b505050506040513d601f19601f8201168201806040525081019062000b3f9190620034ed565b600280546001600160a01b0319166001600160a01b039290921691909117905562000b6c600083620028ee565b62000b876000805160206200472f83398151915283620028ee565b62000ba26000805160206200470f83398151915283620028ee565b801562000956576001805461ff00191681556040519081527f7f26b83ff96e1f2b6a682f133852f6798a09c465da95921460cefb38474024989060200160405180910390a1505050565b6000805160206200472f83398151915262000c078162002610565b61271082111573__$61422835ae5e51fb34bedcfef91f75f833$__635b70017b60405180604001604052806002815260200161504360f01b81525060405180604001604052806002815260200161031360f41b8152506040518363ffffffff1660e01b815260040162000c7c92919062003402565b600060405180830381865af415801562000c9a573d6000803e3d6000fd5b505050506040513d6000823e601f3d908101601f1916820160405262000cc4919081019062003434565b9062000ce55760405162461bcd60e51b8152600401620007d7919062003186565b50600254604051632f416f6d60e21b81526001600160a01b038581166004830152600092169063bd05bdb490602401602060405180830381865afa15801562000d32573d6000803e3d6000fd5b505050506040513d601f19601f8201168201806040525081019062000d589190620034d3565b6002549091506001600160a01b031663377895628562000d798487620028fa565b6040516001600160e01b031960e085901b1681526001600160a01b0390921660048301526024820152604401600060405180830381600087803b15801562000dc057600080fd5b505af115801562000dd5573d6000803e3d6000fd5b50505050836001600160a01b03167fa9e6d8c6a7ceab34e1bbc36191cd138bd9190f9e9e04482afb77cecc652720b68460405162000e1591815260200190565b60405180910390a250505050565b6000805160206200472f83398151915262000e3e8162002610565b60025460405163031e4dc360e51b81526001600160a01b038481166004830152909116906363c9b86090602401600060405180830381600087803b15801562000e8657600080fd5b505af115801562000e9b573d6000803e3d6000fd5b50506040516001600160a01b03851692507feeec4c06f7adad215cbdb4d2960896c83c26aedce02dde76d36fa28588d62da49150600090a25050565b6000805160206200470f83398151915262000ef28162002610565b600254604051637a82ba1d60e11b81526001600160a01b038581166004830152600092169063f505743a90602401606060405180830381865afa15801562000f3e573d6000803e3d6000fd5b505050506040513d601f19601f8201168201806040525081019062000f64919062003270565b9050806040015160ff16600014620010015760025481516001600160a01b039091169063d6cc07ae90869062000f9b9087620029f1565b6040516001600160e01b031960e085901b1681526001600160a01b0390921660048301526024820152604401600060405180830381600087803b15801562000fe257600080fd5b505af115801562000ff7573d6000803e3d6000fd5b50505050620010fc565b6002546040516335ea6a7560e01b81526001600160a01b03868116600483015260009216906335ea6a759060240161016060405180830381865afa1580156200104e573d6000803e3d6000fd5b505050506040513d601f19601f8201168201806040525081019062001074919062003318565b60025481519192506001600160a01b03169063377895629087906200109a9088620029f1565b6040516001600160e01b031960e085901b1681526001600160a01b0390921660048301526024820152604401600060405180830381600087803b158015620010e157600080fd5b505af1158015620010f6573d6000803e3d6000fd5b50505050505b836001600160a01b03167fe13fd8e978509ad4668f4bb7b7eec52a12f4d28e7a675ac74af2ebf9e4c08bf68460405162000e15911515815260200190565b6000805160206200472f833981519152620011558162002610565b600254604051632f416f6d60e21b81526001600160a01b038581166004830152600092169063bd05bdb490602401602060405180830381865afa158015620011a1573d6000803e3d6000fd5b505050506040513d601f19601f82011682018060405250810190620011c79190620034d3565b6002549091506001600160a01b0316633778956285620011e8848762002a1e565b6040516001600160e01b031960e085901b1681526001600160a01b0390921660048301526024820152604401600060405180830381600087803b1580156200122f57600080fd5b505af115801562001244573d6000803e3d6000fd5b50505050836001600160a01b03167fdb0e031f017e9837f619ff44f6ce88716d74b5a62af3de735b952fb47887d9658460405162000e1591815260200190565b6000918252602082815260408084206001600160a01b0393909316845291905290205460ff1690565b6000805160206200472f833981519152620012c88162002610565b60005b82811015620016df5736848483818110620012ea57620012ea6200350d565b9050602002810190620012fe919062003523565b9050806101200135816101000135111573__$61422835ae5e51fb34bedcfef91f75f833$__635b70017b60405180604001604052806002815260200161504360f01b81525060405180604001604052806002815260200161333360f01b8152506040518363ffffffff1660e01b81526004016200137d92919062003402565b600060405180830381865af41580156200139b573d6000803e3d6000fd5b505050506040513d6000823e601f3d908101601f19168201604052620013c5919081019062003434565b90620013e65760405162461bcd60e51b8152600401620007d7919062003186565b506000620013f8602083018362002f3d565b60025430906334ec7a6960e21b906001600160a01b031662001421608087016060880162002f3d565b62001434610100880160e0890162002f3d565b6200144660c0890160a08a0162003545565b6200145560208a018a62003565565b6200146460408c018c62003565565b6040516024016200147d989796959493929190620035d8565b60408051601f198184030181529181526020820180516001600160e01b03166001600160e01b0319909416939093179092529051620014bc9062002e8d565b620014ca939291906200363c565b604051809103906000f080158015620014e7573d6000803e3d6000fd5b50905060006200150d6200150260c0850160a0860162003545565b829060ff1662002a7c565b90506200151c81600162002b6e565b90506200152b81600062002b9d565b90506200153a816000620029f1565b90506200155a6200155260a08501608086016200366a565b829062002bca565b90506200156d816101208501356200261f565b9050620015808161010085013562002711565b90506200158f81600062002bfa565b90506200159e81600062002a1e565b6002549091506001600160a01b031663ac4b088c620015c4608086016060870162002f3d565b6040516001600160e01b031960e084901b1681526001600160a01b039182166004820152602481018590529085166044820152606401600060405180830381600087803b1580156200161557600080fd5b505af11580156200162a573d6000803e3d6000fd5b5050506001600160a01b03831690506200164b608085016060860162002f3d565b6001600160a01b03167fd47ef9bfceab3b8a2b760a792bc3cb10cf40441a1f0b094da61f0a9b8081fc476200168760a08701608088016200366a565b60028111156200169b576200169b620031b9565b6040805160ff909216825261012088013560208301526101008801359082015260600160405180910390a35050508080620016d690620036a0565b915050620012cb565b50505050565b6000805160206200472f833981519152620017008162002610565b600254604051631e1a411760e11b81526001600160a01b038581166004830152848116602483015290911690633c34822e90604401600060405180830381600087803b1580156200175057600080fd5b505af115801562001765573d6000803e3d6000fd5b50506040516001600160a01b038581168252861692507f98b8c4e600dcf1afd7056e43f52404296da170af12c4b1e131d23f8dfaf765d2915060200160405180910390a2505050565b6000805160206200470f833981519152620017c98162002610565b600080600260009054906101000a90046001600160a01b03166001600160a01b031663d1946dbc6040518163ffffffff1660e01b8152600401600060405180830381865afa15801562001820573d6000803e3d6000fd5b505050506040513d6000823e601f3d908101601f191682016040526200184a919081019062003750565b9150915060005b8251811015620018cf5760006001600160a01b03168382815181106200187b576200187b6200350d565b60200260200101516001600160a01b031614620018ba57620018ba838281518110620018ab57620018ab6200350d565b60200260200101518662000ed7565b80620018c681620036a0565b91505062001851565b5060005b8151811015620019425760006001600160a01b0316828281518110620018fd57620018fd6200350d565b60200260200101516001600160a01b0316146200192d576200192d828281518110620018ab57620018ab6200350d565b806200193981620036a0565b915050620018d3565b5050505050565b6000805160206200472f833981519152620019648162002610565b60005b82811015620016df57368484838181106200198657620019866200350d565b90506020028101906200199a9190620037bb565b90506000620019ad602083018362002f3d565b60025430906334ec7a6960e21b906001600160a01b0316620019d7610100870160e0880162002f3d565b620019eb6101608801610140890162002f3d565b620019ff61012089016101008a0162003545565b62001a0e60208a018a62003565565b62001a1d60408c018c62003565565b60405160240162001a36989796959493929190620035d8565b60408051601f198184030181529181526020820180516001600160e01b03166001600160e01b031990941693909317909252905162001a759062002e8d565b62001a83939291906200363c565b604051809103906000f08015801562001aa0573d6000803e3d6000fd5b509050600062001ab7608084016060850162002f3d565b60025430906334ec7a6960e21b906001600160a01b031662001ae1610100880160e0890162002f3d565b62001af561016089016101408a0162002f3d565b62001b096101208a016101008b0162003545565b62001b1860808b018b62003565565b62001b2760a08d018d62003565565b60405160240162001b40989796959493929190620035d8565b60408051601f198184030181529181526020820180516001600160e01b03166001600160e01b031990941693909317909252905162001b7f9062002e8d565b62001b8d939291906200363c565b604051809103906000f08015801562001baa573d6000803e3d6000fd5b509050600062001bc7620015026101208601610100870162003545565b905062001bd681600162002b6e565b905062001be581600062002b9d565b905062001bf4816000620029f1565b905062001c0381600062002bca565b905062001c16816101808601356200261f565b905062001c298161016086013562002711565b905062001c4f62001c4361020086016101e08701620037d3565b829061ffff16620028fa565b905062001c62816101a086013562002bfa565b905062001c75816101c086013562002a1e565b6002549091506001600160a01b031663c1b4ab8f62001c9c610100870160e0880162002f3d565b83868662001cb160e08b0160c08c0162002f3d565b60405160e087901b6001600160e01b03191681526001600160a01b0395861660048201526024810194909452918416604484015283166064830152909116608482015260a401600060405180830381600087803b15801562001d1257600080fd5b505af115801562001d27573d6000803e3d6000fd5b5050506001600160a01b038416905062001d49610100860160e0870162002f3d565b6001600160a01b03167f20602bfdb807ffdc8ffb800a586f0660acf23bb71fbb47b500dd3d185698cbff8462001d8660e0890160c08a0162002f3d565b604080516001600160a01b03938416815292909116602083015261018089013590820152610160880135606082015260800160405180910390a350505050808062001dd190620036a0565b91505062001967565b60008281526020819052604090206001015462001df78162002610565b62000956838362002886565b6000805160206200472f83398151915262001e1e8162002610565b600254604051632f416f6d60e21b81526001600160a01b038581166004830152600092169063bd05bdb490602401602060405180830381865afa15801562001e6a573d6000803e3d6000fd5b505050506040513d601f19601f8201168201806040525081019062001e909190620034d3565b6002549091506001600160a01b0316633778956285620011e8848762002bfa565b6000805160206200470f83398151915262001ecc8162002610565b600254604051637a82ba1d60e11b81526001600160a01b038581166004830152600092169063f505743a90602401606060405180830381865afa15801562001f18573d6000803e3d6000fd5b505050506040513d601f19601f8201168201806040525081019062001f3e919062003270565b9050806040015160ff1660001462001fdb5760025481516001600160a01b039091169063d6cc07ae90869062001f75908762002b9d565b6040516001600160e01b031960e085901b1681526001600160a01b0390921660048301526024820152604401600060405180830381600087803b15801562001fbc57600080fd5b505af115801562001fd1573d6000803e3d6000fd5b50505050620020d6565b6002546040516335ea6a7560e01b81526001600160a01b03868116600483015260009216906335ea6a759060240161016060405180830381865afa15801562002028573d6000803e3d6000fd5b505050506040513d601f19601f820116820180604052508101906200204e919062003318565b60025481519192506001600160a01b031690633778956290879062002074908862002b9d565b6040516001600160e01b031960e085901b1681526001600160a01b0390921660048301526024820152604401600060405180830381600087803b158015620020bb57600080fd5b505af1158015620020d0573d6000803e3d6000fd5b50505050505b836001600160a01b03167fa4f8fa319552574260afe1eb8893c63ca08d8e7daf81c96b2ae90a3d557913748460405162000e15911515815260200190565b6000805160206200472f8339815191526200212f8162002610565b600254604051637a82ba1d60e11b81526001600160a01b038581166004830152600092169063f505743a90602401606060405180830381865afa1580156200217b573d6000803e3d6000fd5b505050506040513d601f19601f82011682018060405250810190620021a1919062003270565b9050806040015160ff166000146200238a5782620022ff5780602001516001600160a01b03166318160ddd6040518163ffffffff1660e01b8152600401602060405180830381865afa158015620021fc573d6000803e3d6000fd5b505050506040513d601f19601f82011682018060405250810190620022229190620034d3565b60001473__$61422835ae5e51fb34bedcfef91f75f833$__635b70017b60405180604001604052806002815260200161504360f01b815250604051806040016040528060028152602001610ccd60f21b8152506040518363ffffffff1660e01b81526004016200229492919062003402565b600060405180830381865af4158015620022b2573d6000803e3d6000fd5b505050506040513d6000823e601f3d908101601f19168201604052620022dc919081019062003434565b90620022fd5760405162461bcd60e51b8152600401620007d7919062003186565b505b60025481516001600160a01b039091169063d6cc07ae90869062002324908762002b6e565b6040516001600160e01b031960e085901b1681526001600160a01b0390921660048301526024820152604401600060405180830381600087803b1580156200236b57600080fd5b505af115801562002380573d6000803e3d6000fd5b50505050620025d2565b6002546040516335ea6a7560e01b81526001600160a01b03868116600483015260009216906335ea6a759060240161016060405180830381865afa158015620023d7573d6000803e3d6000fd5b505050506040513d601f19601f82011682018060405250810190620023fd919062003318565b9050836200254b578060c001516001600160a01b03166318160ddd6040518163ffffffff1660e01b8152600401602060405180830381865afa15801562002448573d6000803e3d6000fd5b505050506040513d601f19601f820116820180604052508101906200246e9190620034d3565b60001473__$61422835ae5e51fb34bedcfef91f75f833$__635b70017b60405180604001604052806002815260200161504360f01b815250604051806040016040528060028152602001610ccd60f21b8152506040518363ffffffff1660e01b8152600401620024e092919062003402565b600060405180830381865af4158015620024fe573d6000803e3d6000fd5b505050506040513d6000823e601f3d908101601f1916820160405262002528919081019062003434565b90620025495760405162461bcd60e51b8152600401620007d7919062003186565b505b60025481516001600160a01b0390911690633778956290879062002570908862002b6e565b6040516001600160e01b031960e085901b1681526001600160a01b0390921660048301526024820152604401600060405180830381600087803b158015620025b757600080fd5b505af1158015620025cc573d6000803e3d6000fd5b50505050505b836001600160a01b03167f21455e5b9cc1e66b63b57e5a58784470fc62a380fcfaedb5f8fc792ff46005668460405162000e15911515815260200190565b6200261c813362002c5d565b50565b600061ffff82111573__$61422835ae5e51fb34bedcfef91f75f833$__635b70017b60405180604001604052806002815260200161524360f01b815250604051806040016040528060018152602001600760fb1b8152506040518363ffffffff1660e01b81526004016200269592919062003402565b600060405180830381865af4158015620026b3573d6000803e3d6000fd5b505050506040513d6000823e601f3d908101601f19168201604052620026dd919081019062003434565b90620026fe5760405162461bcd60e51b8152600401620007d7919062003186565b505060101b63ffff000019919091161790565b6000611f4082111573__$61422835ae5e51fb34bedcfef91f75f833$__635b70017b60405180604001604052806002815260200161524360f01b815250604051806040016040528060018152602001603760f81b8152506040518363ffffffff1660e01b81526004016200278792919062003402565b600060405180830381865af4158015620027a5573d6000803e3d6000fd5b505050506040513d6000823e601f3d908101601f19168201604052620027cf919081019062003434565b90620027f05760405162461bcd60e51b8152600401620007d7919062003186565b505061ffff19919091161790565b6200280a828262001284565b620009d9576000828152602081815260408083206001600160a01b03851684529091529020805460ff19166001179055620028423390565b6001600160a01b0316816001600160a01b0316837f2f8788117e7eff1d82e926ec794901d17c78024a50270940304540a733656f0d60405160405180910390a45050565b62002892828262001284565b15620009d9576000828152602081815260408083206001600160a01b0385168085529252808320805460ff1916905551339285917ff6391f5c32d9c69d2a47ea670b442974b53935d1edc7fd64eb21e047a839171b9190a45050565b620009d98282620027fe565b600061ffff82111573__$61422835ae5e51fb34bedcfef91f75f833$__635b70017b60405180604001604052806002815260200161524360f01b81525060405180604001604052806002815260200161031360f41b8152506040518363ffffffff1660e01b81526004016200297192919062003402565b600060405180830381865af41580156200298f573d6000803e3d6000fd5b505050506040513d6000823e601f3d908101601f19168201604052620029b9919081019062003434565b90620029da5760405162461bcd60e51b8152600401620007d7919062003186565b5050603c1b670ffff0000000000019919091161790565b6000602a8262002a0357600062002a06565b60015b60ff16901b6504000000000019841617905092915050565b6000640fffffffff82111560405180604001604052806002815260200161343160f01b8152509062002a655760405162461bcd60e51b8152600401620007d7919062003186565b505060641b640fffffffff60641b19919091161790565b600060ff82111573__$61422835ae5e51fb34bedcfef91f75f833$__635b70017b60405180604001604052806002815260200161524360f01b815250604051806040016040528060018152602001603960f81b8152506040518363ffffffff1660e01b815260040162002af192919062003402565b600060405180830381865af415801562002b0f573d6000803e3d6000fd5b505050506040513d6000823e601f3d908101601f1916820160405262002b39919081019062003434565b9062002b5a5760405162461bcd60e51b8152600401620007d7919062003186565b505060201b64ff0000000019919091161790565b600060288262002b8057600062002b83565b60015b60ff16901b67010001000000000019841617905092915050565b600060298262002baf57600062002bb2565b60015b60ff16901b6502000000000019841617905092915050565b6000603e82600281111562002be35762002be3620031b9565b901b67c00000000000000019841617905092915050565b6000640fffffffff82111560405180604001604052806002815260200161034360f41b8152509062002c415760405162461bcd60e51b8152600401620007d7919062003186565b505060401b6c0fffffffff000000000000000019919091161790565b62002c69828262001284565b620009d95762002c84816001600160a01b0316601462002ccc565b62002c9183602062002ccc565b60405160200162002ca4929190620037f9565b60408051601f198184030181529082905262461bcd60e51b8252620007d79160040162003186565b6060600062002cdd83600262003872565b62002cea90600262003894565b67ffffffffffffffff81111562002d055762002d05620031cf565b6040519080825280601f01601f19166020018201604052801562002d30576020820181803683370190505b509050600360fc1b8160008151811062002d4e5762002d4e6200350d565b60200101906001600160f81b031916908160001a905350600f60fb1b8160018151811062002d805762002d806200350d565b60200101906001600160f81b031916908160001a905350600062002da684600262003872565b62002db390600162003894565b90505b600181111562002e35576f181899199a1a9b1b9c1cb0b131b232b360811b85600f166010811062002deb5762002deb6200350d565b1a60f81b82828151811062002e045762002e046200350d565b60200101906001600160f81b031916908160001a90535060049490941c9362002e2d81620038af565b905062002db6565b50831562002e865760405162461bcd60e51b815260206004820181905260248201527f537472696e67733a20686578206c656e67746820696e73756666696369656e746044820152606401620007d7565b9392505050565b610e4580620038ca83390190565b60006020828403121562002eae57600080fd5b81356001600160e01b03198116811462002e8657600080fd5b6001600160a01b03811681146200261c57600080fd5b600381106200261c57600080fd5b60008060006060848603121562002f0157600080fd5b833562002f0e8162002ec7565b9250602084013562002f208162002ec7565b9150604084013562002f328162002edd565b809150509250925092565b60006020828403121562002f5057600080fd5b813562002e868162002ec7565b60006020828403121562002f7057600080fd5b5035919050565b60008060006060848603121562002f8d57600080fd5b833562002f9a8162002ec7565b95602085013595506040909401359392505050565b6000806040838503121562002fc357600080fd5b82359150602083013562002fd78162002ec7565b809150509250929050565b6000806040838503121562002ff657600080fd5b8235620030038162002ec7565b9150602083013562002fd78162002ec7565b600080604083850312156200302957600080fd5b8235620030368162002ec7565b946020939093013593505050565b803580151581146200305557600080fd5b919050565b600080604083850312156200306e57600080fd5b82356200307b8162002ec7565b91506200308b6020840162003044565b90509250929050565b60008083601f840112620030a757600080fd5b50813567ffffffffffffffff811115620030c057600080fd5b6020830191508360208260051b8501011115620030dc57600080fd5b9250929050565b60008060208385031215620030f757600080fd5b823567ffffffffffffffff8111156200310f57600080fd5b6200311d8582860162003094565b90969095509350505050565b60005b83811015620031465781810151838201526020016200312c565b83811115620016df5750506000910152565b600081518084526200317281602086016020860162003129565b601f01601f19169290920160200192915050565b60208152600062002e86602083018462003158565b600060208284031215620031ae57600080fd5b62002e868262003044565b634e487b7160e01b600052602160045260246000fd5b634e487b7160e01b600052604160045260246000fd5b604051610160810167ffffffffffffffff811182821017156200320c576200320c620031cf565b60405290565b604051601f8201601f1916810167ffffffffffffffff811182821017156200323e576200323e620031cf565b604052919050565b8051620030558162002ec7565b60ff811681146200261c57600080fd5b8051620030558162003253565b6000606082840312156200328357600080fd5b6040516060810181811067ffffffffffffffff82111715620032a957620032a9620031cf565b604052825181526020830151620032c08162002ec7565b60208201526040830151620032d58162003253565b60408201529392505050565b80516fffffffffffffffffffffffffffffffff811681146200305557600080fd5b805164ffffffffff811681146200305557600080fd5b600061016082840312156200332c57600080fd5b62003336620031e5565b825181526200334860208401620032e1565b60208201526200335b60408401620032e1565b60408201526200336e60608401620032e1565b60608201526200338160808401620032e1565b60808201526200339460a0840162003302565b60a0820152620033a760c0840162003246565b60c0820152620033ba60e0840162003246565b60e0820152610100620033cf81850162003246565b90820152610120620033e384820162003246565b90820152610140620033f784820162003263565b908201529392505050565b60408152600062003417604083018562003158565b82810360208401526200342b818562003158565b95945050505050565b6000602082840312156200344757600080fd5b815167ffffffffffffffff808211156200346057600080fd5b818401915084601f8301126200347557600080fd5b8151818111156200348a576200348a620031cf565b6200349f601f8201601f191660200162003212565b9150808252856020828501011115620034b757600080fd5b620034ca81602084016020860162003129565b50949350505050565b600060208284031215620034e657600080fd5b5051919050565b6000602082840312156200350057600080fd5b815162002e868162002ec7565b634e487b7160e01b600052603260045260246000fd5b6000823561013e198336030181126200353b57600080fd5b9190910192915050565b6000602082840312156200355857600080fd5b813562002e868162003253565b6000808335601e198436030181126200357d57600080fd5b83018035915067ffffffffffffffff8211156200359957600080fd5b602001915036819003821315620030dc57600080fd5b81835281816020850137506000828201602090810191909152601f909101601f19169091010190565b6001600160a01b03898116825288811660208301528716604082015260ff8616606082015260c060808201819052600090620036189083018688620035af565b82810360a08401526200362d818587620035af565b9b9a5050505050505050505050565b6001600160a01b038481168252831660208201526060604082018190526000906200342b9083018462003158565b6000602082840312156200367d57600080fd5b813562002e868162002edd565b634e487b7160e01b600052601160045260246000fd5b600060018201620036b557620036b56200368a565b5060010190565b600082601f830112620036ce57600080fd5b8151602067ffffffffffffffff821115620036ed57620036ed620031cf565b8160051b620036fe82820162003212565b92835284810182019282810190878511156200371957600080fd5b83870192505b8483101562003745578251620037358162002ec7565b825291830191908301906200371f565b979650505050505050565b600080604083850312156200376457600080fd5b825167ffffffffffffffff808211156200377d57600080fd5b6200378b86838701620036bc565b93506020850151915080821115620037a257600080fd5b50620037b185828601620036bc565b9150509250929050565b600082356101fe198336030181126200353b57600080fd5b600060208284031215620037e657600080fd5b813561ffff8116811462002e8657600080fd5b7f416363657373436f6e74726f6c3a206163636f756e74200000000000000000008152600083516200383381601785016020880162003129565b7001034b99036b4b9b9b4b733903937b6329607d1b60179184019182015283516200386681602884016020880162003129565b01602801949350505050565b60008160001904831182151516156200388f576200388f6200368a565b500290565b60008219821115620038aa57620038aa6200368a565b500190565b600081620038c157620038c16200368a565b50600019019056fe608060405260405162000e4538038062000e45833981016040819052620000269162000490565b828162000036828260006200004d565b50620000449050826200008a565b505050620005c3565b6200005883620000e5565b600082511180620000665750805b1562000085576200008383836200012760201b6200022e1760201c565b505b505050565b7f7e644d79422f17c01e4894b5f4f588d331ebfa28653d42ae832dc59e38c9798f620000b562000156565b604080516001600160a01b03928316815291841660208301520160405180910390a1620000e2816200018f565b50565b620000f08162000244565b6040516001600160a01b038216907fbc7cd75a20ee27fd9adebab32041f755214dbc6bffa90cc0225b39da2e5c2d3b90600090a250565b60606200014f838360405180606001604052806027815260200162000e1e60279139620002f8565b9392505050565b60006200018060008051602062000dfe83398151915260001b620003de60201b620001ea1760201c565b546001600160a01b0316919050565b6001600160a01b038116620001fa5760405162461bcd60e51b815260206004820152602660248201527f455243313936373a206e65772061646d696e20697320746865207a65726f206160448201526564647265737360d01b60648201526084015b60405180910390fd5b806200022360008051602062000dfe83398151915260001b620003de60201b620001ea1760201c565b80546001600160a01b0319166001600160a01b039290921691909117905550565b6200025a81620003e160201b6200025a1760201c565b620002be5760405162461bcd60e51b815260206004820152602d60248201527f455243313936373a206e657720696d706c656d656e746174696f6e206973206e60448201526c1bdd08184818dbdb9d1c9858dd609a1b6064820152608401620001f1565b80620002237f360894a13ba1a3210667c828492db98dca3e2076cc3735a920a3ca505d382bbc60001b620003de60201b620001ea1760201c565b60606001600160a01b0384163b620003625760405162461bcd60e51b815260206004820152602660248201527f416464726573733a2064656c65676174652063616c6c20746f206e6f6e2d636f6044820152651b9d1c9858dd60d21b6064820152608401620001f1565b600080856001600160a01b0316856040516200037f919062000570565b600060405180830381855af49150503d8060008114620003bc576040519150601f19603f3d011682016040523d82523d6000602084013e620003c1565b606091505b509092509050620003d4828286620003f0565b9695505050505050565b90565b6001600160a01b03163b151590565b60608315620004015750816200014f565b825115620004125782518084602001fd5b8160405162461bcd60e51b8152600401620001f191906200058e565b80516001600160a01b03811681146200044657600080fd5b919050565b634e487b7160e01b600052604160045260246000fd5b60005b838110156200047e57818101518382015260200162000464565b83811115620000835750506000910152565b600080600060608486031215620004a657600080fd5b620004b1846200042e565b9250620004c1602085016200042e565b60408501519092506001600160401b0380821115620004df57600080fd5b818601915086601f830112620004f457600080fd5b8151818111156200050957620005096200044b565b604051601f8201601f19908116603f011681019083821181831017156200053457620005346200044b565b816040528281528960208487010111156200054e57600080fd5b6200056183602083016020880162000461565b80955050505050509250925092565b600082516200058481846020870162000461565b9190910192915050565b6020815260008251806020840152620005af81604085016020870162000461565b601f01601f19169190910160400192915050565b61082b80620005d36000396000f3fe60806040526004361061004e5760003560e01c80633659cfe6146100655780634f1ef286146100855780635c60da1b146100985780638f283970146100c9578063f851a440146100e95761005d565b3661005d5761005b6100fe565b005b61005b6100fe565b34801561007157600080fd5b5061005b6100803660046106b5565b610118565b61005b6100933660046106d0565b610155565b3480156100a457600080fd5b506100ad6101bc565b6040516001600160a01b03909116815260200160405180910390f35b3480156100d557600080fd5b5061005b6100e43660046106b5565b6101ed565b3480156100f557600080fd5b506100ad61020d565b610106610269565b6101166101116102fe565b610308565b565b61012061032c565b6001600160a01b0316330361014d5761014a8160405180602001604052806000815250600061035f565b50565b61014a6100fe565b61015d61032c565b6001600160a01b031633036101b4576101af8383838080601f0160208091040260200160405190810160405280939291908181526020018383808284376000920191909152506001925061035f915050565b505050565b6101af6100fe565b60006101c661032c565b6001600160a01b031633036101e2576101dd6102fe565b905090565b6101ea6100fe565b90565b6101f561032c565b6001600160a01b0316330361014d5761014a8161038a565b600061021761032c565b6001600160a01b031633036101e2576101dd61032c565b606061025383836040518060600160405280602781526020016107cf602791396103de565b9392505050565b6001600160a01b03163b151590565b61027161032c565b6001600160a01b031633036101165760405162461bcd60e51b815260206004820152604260248201527f5472616e73706172656e745570677261646561626c6550726f78793a2061646d60448201527f696e2063616e6e6f742066616c6c6261636b20746f2070726f78792074617267606482015261195d60f21b608482015260a4015b60405180910390fd5b60006101dd6104bb565b3660008037600080366000845af43d6000803e808015610327573d6000f35b3d6000fd5b60007fb53127684a568b3173ae13b9f8a6016e243e63b6e8ee1178d6a717850b5d61035b546001600160a01b0316919050565b610368836104e3565b6000825111806103755750805b156101af57610384838361022e565b50505050565b7f7e644d79422f17c01e4894b5f4f588d331ebfa28653d42ae832dc59e38c9798f6103b361032c565b604080516001600160a01b03928316815291841660208301520160405180910390a161014a81610523565b60606001600160a01b0384163b6104465760405162461bcd60e51b815260206004820152602660248201527f416464726573733a2064656c65676174652063616c6c20746f206e6f6e2d636f6044820152651b9d1c9858dd60d21b60648201526084016102f5565b600080856001600160a01b031685604051610461919061077f565b600060405180830381855af49150503d806000811461049c576040519150601f19603f3d011682016040523d82523d6000602084013e6104a1565b606091505b50915091506104b18282866105cc565b9695505050505050565b60007f360894a13ba1a3210667c828492db98dca3e2076cc3735a920a3ca505d382bbc610350565b6104ec81610605565b6040516001600160a01b038216907fbc7cd75a20ee27fd9adebab32041f755214dbc6bffa90cc0225b39da2e5c2d3b90600090a250565b6001600160a01b0381166105885760405162461bcd60e51b815260206004820152602660248201527f455243313936373a206e65772061646d696e20697320746865207a65726f206160448201526564647265737360d01b60648201526084016102f5565b807fb53127684a568b3173ae13b9f8a6016e243e63b6e8ee1178d6a717850b5d61035b80546001600160a01b0319166001600160a01b039290921691909117905550565b606083156105db575081610253565b8251156105eb5782518084602001fd5b8160405162461bcd60e51b81526004016102f5919061079b565b6001600160a01b0381163b6106725760405162461bcd60e51b815260206004820152602d60248201527f455243313936373a206e657720696d706c656d656e746174696f6e206973206e60448201526c1bdd08184818dbdb9d1c9858dd609a1b60648201526084016102f5565b807f360894a13ba1a3210667c828492db98dca3e2076cc3735a920a3ca505d382bbc6105ab565b80356001600160a01b03811681146106b057600080fd5b919050565b6000602082840312156106c757600080fd5b61025382610699565b6000806000604084860312156106e557600080fd5b6106ee84610699565b9250602084013567ffffffffffffffff8082111561070b57600080fd5b818601915086601f83011261071f57600080fd5b81358181111561072e57600080fd5b87602082850101111561074057600080fd5b6020830194508093505050509250925092565b60005b8381101561076e578181015183820152602001610756565b838111156103845750506000910152565b60008251610791818460208701610753565b9190910192915050565b60208152600082518060208401526107ba816040850160208701610753565b601f01601f1916919091016040019291505056fe416464726573733a206c6f772d6c6576656c2064656c65676174652063616c6c206661696c6564a2646970667358221220dcccc67f54ac9047d4665d4ddb8bb92b766ba1b969a1e325055070a87b461b7a64736f6c634300080e0033b53127684a568b3173ae13b9f8a6016e243e63b6e8ee1178d6a717850b5d6103416464726573733a206c6f772d6c6576656c2064656c65676174652063616c6c206661696c65645c91514091af31f62f596a314af7d5be40146b2f2355969392f055e12e0982fbc340ee5955cf3b892568f321fc9f8e2ed71ee4271f59db269236064210565a01a264697066735822122065a821826dd19c86677531bf4bf35f786f9bab8e35b41388c9b98eb824e5ddfd64736f6c634300080e0033",
  "linkReferences": {
    "contracts/libraries/Errors.sol": {
      "Errors": [
        {
          "length": 20,
          "start": 1825
        },
        {
          "length": 20,
          "start": 3119
        },
        {
          "length": 20,
          "start": 4912
        },
        {
          "length": 20,
          "start": 8775
        },
        {
          "length": 20,
          "start": 9363
        },
        {
          "length": 20,
          "start": 9801
        },
        {
          "length": 20,
          "start": 10043
        },
        {
          "length": 20,
          "start": 10532
        },
        {
          "length": 20,
          "start": 10917
        }
      ]
    }
  },
  "deployedLinkReferences": {
    "contracts/libraries/Errors.sol": {
      "Errors": [
        {
          "length": 20,
          "start": 1793
        },
        {
          "length": 20,
          "start": 3087
        },
        {
          "length": 20,
          "start": 4880
        },
        {
          "length": 20,
          "start": 8743
        },
        {
          "length": 20,
          "start": 9331
        },
        {
          "length": 20,
          "start": 9769
        },
        {
          "length": 20,
          "start": 10011
        },
        {
          "length": 20,
          "start": 10500
        },
        {
          "length": 20,
          "start": 10885
        }
      ]
    }
  }
}