{
  "_format": "hh-sol-artifact-1",
  "contractName": "PoolConfigurator",
  "sourceName": "contracts/pool/lendingpool/LendingPoolConfigurator.sol",
  "abi": [
    {
      "anonymous": false,
      "inputs": [
        {
          "indexed": true,
          "internalType": "address",
          "name": "asset",
          "type": "address"
        },
        {
          "indexed": false,
          "internalType": "uint256",
          "name": "liqThreshold",
          "type": "uint256"
        },
        {
          "indexed": false,
          "internalType": "uint256",
          "name": "ltv",
          "type": "uint256"
        }
      ],
      "name": "BorrowParamsUpdated",
      "type": "event"
    },
    {
      "anonymous": false,
      "inputs": [
        {
          "indexed": false,
          "internalType": "uint8",
          "name": "version",
          "type": "uint8"
        }
      ],
      "name": "Initialized",
      "type": "event"
    },
    {
      "anonymous": false,
      "inputs": [
        {
          "indexed": true,
          "internalType": "address",
          "name": "asset",
          "type": "address"
        },
        {
          "indexed": true,
          "internalType": "address",
          "name": "tNft",
          "type": "address"
        },
        {
          "indexed": false,
          "internalType": "uint8",
          "name": "tokenType",
          "type": "uint8"
        },
        {
          "indexed": false,
          "internalType": "uint256",
          "name": "liqThreshold",
          "type": "uint256"
        },
        {
          "indexed": false,
          "internalType": "uint256",
          "name": "ltv",
          "type": "uint256"
        }
      ],
      "name": "NftReserveInitialized",
      "type": "event"
    },
    {
      "anonymous": false,
      "inputs": [
        {
          "indexed": true,
          "internalType": "address",
          "name": "asset",
          "type": "address"
        },
        {
          "indexed": false,
          "internalType": "bool",
          "name": "active",
          "type": "bool"
        }
      ],
      "name": "ReserveActiveUpdated",
      "type": "event"
    },
    {
      "anonymous": false,
      "inputs": [
        {
          "indexed": true,
          "internalType": "address",
          "name": "asset",
          "type": "address"
        },
        {
          "indexed": false,
          "internalType": "uint256",
          "name": "reserveFactor",
          "type": "uint256"
        }
      ],
      "name": "ReserveFactorUpdated",
      "type": "event"
    },
    {
      "anonymous": false,
      "inputs": [
        {
          "indexed": true,
          "internalType": "address",
          "name": "asset",
          "type": "address"
        },
        {
          "indexed": false,
          "internalType": "bool",
          "name": "freeze",
          "type": "bool"
        }
      ],
      "name": "ReserveFreezeUpdated",
      "type": "event"
    },
    {
      "anonymous": false,
      "inputs": [
        {
          "indexed": true,
          "internalType": "address",
          "name": "asset",
          "type": "address"
        },
        {
          "indexed": true,
          "internalType": "address",
          "name": "tToken",
          "type": "address"
        },
        {
          "indexed": false,
          "internalType": "address",
          "name": "debtToken",
          "type": "address"
        },
        {
          "indexed": false,
          "internalType": "address",
          "name": "interestRateStrategyAddress",
          "type": "address"
        },
        {
          "indexed": false,
          "internalType": "uint256",
          "name": "liqThreshold",
          "type": "uint256"
        },
        {
          "indexed": false,
          "internalType": "uint256",
          "name": "ltv",
          "type": "uint256"
        }
      ],
      "name": "ReserveInitialized",
      "type": "event"
    },
    {
      "anonymous": false,
      "inputs": [
        {
          "indexed": true,
          "internalType": "address",
          "name": "asset",
          "type": "address"
        },
        {
          "indexed": false,
          "internalType": "address",
          "name": "interestRateCalculator",
          "type": "address"
        }
      ],
      "name": "ReserveInterestRateCalculatorUpdated",
      "type": "event"
    },
    {
      "anonymous": false,
      "inputs": [
        {
          "indexed": true,
          "internalType": "bytes32",
          "name": "role",
          "type": "bytes32"
        },
        {
          "indexed": true,
          "internalType": "bytes32",
          "name": "previousAdminRole",
          "type": "bytes32"
        },
        {
          "indexed": true,
          "internalType": "bytes32",
          "name": "newAdminRole",
          "type": "bytes32"
        }
      ],
      "name": "RoleAdminChanged",
      "type": "event"
    },
    {
      "anonymous": false,
      "inputs": [
        {
          "indexed": true,
          "internalType": "bytes32",
          "name": "role",
          "type": "bytes32"
        },
        {
          "indexed": true,
          "internalType": "address",
          "name": "account",
          "type": "address"
        },
        {
          "indexed": true,
          "internalType": "address",
          "name": "sender",
          "type": "address"
        }
      ],
      "name": "RoleGranted",
      "type": "event"
    },
    {
      "anonymous": false,
      "inputs": [
        {
          "indexed": true,
          "internalType": "bytes32",
          "name": "role",
          "type": "bytes32"
        },
        {
          "indexed": true,
          "internalType": "address",
          "name": "account",
          "type": "address"
        },
        {
          "indexed": true,
          "internalType": "address",
          "name": "sender",
          "type": "address"
        }
      ],
      "name": "RoleRevoked",
      "type": "event"
    },
    {
      "anonymous": false,
      "inputs": [
        {
          "indexed": true,
          "internalType": "address",
          "name": "asset",
          "type": "address"
        },
        {
          "indexed": true,
          "internalType": "address",
          "name": "proxy",
          "type": "address"
        },
        {
          "indexed": true,
          "internalType": "address",
          "name": "impl",
          "type": "address"
        }
      ],
      "name": "TokenImplUpgraded",
      "type": "event"
    },
    {
      "inputs": [],
      "name": "DEFAULT_ADMIN_ROLE",
      "outputs": [
        {
          "internalType": "bytes32",
          "name": "",
          "type": "bytes32"
        }
      ],
      "stateMutability": "view",
      "type": "function"
    },
    {
      "inputs": [],
      "name": "EMERGENCY_ADMIN",
      "outputs": [
        {
          "internalType": "bytes32",
          "name": "",
          "type": "bytes32"
        }
      ],
      "stateMutability": "view",
      "type": "function"
    },
    {
      "inputs": [],
      "name": "LENDING_POOL_ADMIN",
      "outputs": [
        {
          "internalType": "bytes32",
          "name": "",
          "type": "bytes32"
        }
      ],
      "stateMutability": "view",
      "type": "function"
    },
    {
      "inputs": [],
      "name": "NAME",
      "outputs": [
        {
          "internalType": "string",
          "name": "",
          "type": "string"
        }
      ],
      "stateMutability": "view",
      "type": "function"
    },
    {
      "inputs": [
        {
          "internalType": "bytes32",
          "name": "role",
          "type": "bytes32"
        }
      ],
      "name": "getRoleAdmin",
      "outputs": [
        {
          "internalType": "bytes32",
          "name": "",
          "type": "bytes32"
        }
      ],
      "stateMutability": "view",
      "type": "function"
    },
    {
      "inputs": [
        {
          "internalType": "bytes32",
          "name": "role",
          "type": "bytes32"
        },
        {
          "internalType": "address",
          "name": "account",
          "type": "address"
        }
      ],
      "name": "grantRole",
      "outputs": [],
      "stateMutability": "nonpayable",
      "type": "function"
    },
    {
      "inputs": [
        {
          "internalType": "bytes32",
          "name": "role",
          "type": "bytes32"
        },
        {
          "internalType": "address",
          "name": "account",
          "type": "address"
        }
      ],
      "name": "hasRole",
      "outputs": [
        {
          "internalType": "bool",
          "name": "",
          "type": "bool"
        }
      ],
      "stateMutability": "view",
      "type": "function"
    },
    {
      "inputs": [
        {
          "components": [
            {
              "internalType": "address",
              "name": "tTokenImpl",
              "type": "address"
            },
            {
              "internalType": "string",
              "name": "tTokenNamePrefix",
              "type": "string"
            },
            {
              "internalType": "string",
              "name": "tTokenSymbolPrefix",
              "type": "string"
            },
            {
              "internalType": "address",
              "name": "asset",
              "type": "address"
            },
            {
              "internalType": "enum ReserveConfigurator.TokenType",
              "name": "tokenType",
              "type": "uint8"
            },
            {
              "internalType": "uint8",
              "name": "decimals",
              "type": "uint8"
            },
            {
              "internalType": "address",
              "name": "treasury",
              "type": "address"
            },
            {
              "internalType": "address",
              "name": "incentivesController",
              "type": "address"
            },
            {
              "internalType": "uint256",
              "name": "ltv",
              "type": "uint256"
            },
            {
              "internalType": "uint256",
              "name": "liqThreshold",
              "type": "uint256"
            }
          ],
          "internalType": "struct ILendingPoolConfigurator.NftReserveInitParams[]",
          "name": "paramsList",
          "type": "tuple[]"
        }
      ],
      "name": "initNftReserves",
      "outputs": [],
      "stateMutability": "nonpayable",
      "type": "function"
    },
    {
      "inputs": [
        {
          "components": [
            {
              "internalType": "address",
              "name": "tTokenImpl",
              "type": "address"
            },
            {
              "internalType": "string",
              "name": "tTokenNamePrefix",
              "type": "string"
            },
            {
              "internalType": "string",
              "name": "tTokenSymbolPrefix",
              "type": "string"
            },
            {
              "internalType": "address",
              "name": "debtTokenImpl",
              "type": "address"
            },
            {
              "internalType": "string",
              "name": "debtTokenNamePrefix",
              "type": "string"
            },
            {
              "internalType": "string",
              "name": "debtTokenSymbolPrefix",
              "type": "string"
            },
            {
              "internalType": "address",
              "name": "interestRateStrategyAddress",
              "type": "address"
            },
            {
              "internalType": "address",
              "name": "asset",
              "type": "address"
            },
            {
              "internalType": "uint8",
              "name": "decimals",
              "type": "uint8"
            },
            {
              "internalType": "address",
              "name": "treasury",
              "type": "address"
            },
            {
              "internalType": "address",
              "name": "incentivesController",
              "type": "address"
            },
            {
              "internalType": "uint256",
              "name": "ltv",
              "type": "uint256"
            },
            {
              "internalType": "uint256",
              "name": "liqThreshold",
              "type": "uint256"
            },
            {
              "internalType": "uint16",
              "name": "reserveFactor",
              "type": "uint16"
            }
          ],
          "internalType": "struct ILendingPoolConfigurator.ReserveInitParams[]",
          "name": "paramsList",
          "type": "tuple[]"
        }
      ],
      "name": "initReserves",
      "outputs": [],
      "stateMutability": "nonpayable",
      "type": "function"
    },
    {
      "inputs": [
        {
          "internalType": "contract ITakerAddressesProvider",
          "name": "provider",
          "type": "address"
        }
      ],
      "name": "initialize",
      "outputs": [],
      "stateMutability": "nonpayable",
      "type": "function"
    },
    {
      "inputs": [
        {
          "internalType": "bytes32",
          "name": "role",
          "type": "bytes32"
        },
        {
          "internalType": "address",
          "name": "account",
          "type": "address"
        }
      ],
      "name": "renounceRole",
      "outputs": [],
      "stateMutability": "nonpayable",
      "type": "function"
    },
    {
      "inputs": [
        {
          "internalType": "bytes32",
          "name": "role",
          "type": "bytes32"
        },
        {
          "internalType": "address",
          "name": "account",
          "type": "address"
        }
      ],
      "name": "revokeRole",
      "outputs": [],
      "stateMutability": "nonpayable",
      "type": "function"
    },
    {
      "inputs": [
        {
          "internalType": "address",
          "name": "admin",
          "type": "address"
        }
      ],
      "name": "setAdmin",
      "outputs": [],
      "stateMutability": "nonpayable",
      "type": "function"
    },
    {
      "inputs": [
        {
          "internalType": "address",
          "name": "WETHGateway",
          "type": "address"
        }
      ],
      "name": "setWETHGateway",
      "outputs": [],
      "stateMutability": "nonpayable",
      "type": "function"
    },
    {
      "inputs": [
        {
          "internalType": "bytes4",
          "name": "interfaceId",
          "type": "bytes4"
        }
      ],
      "name": "supportsInterface",
      "outputs": [
        {
          "internalType": "bool",
          "name": "",
          "type": "bool"
        }
      ],
      "stateMutability": "view",
      "type": "function"
    },
    {
      "inputs": [
        {
          "internalType": "address",
          "name": "asset",
          "type": "address"
        },
        {
          "internalType": "uint256",
          "name": "liqThreshold",
          "type": "uint256"
        },
        {
          "internalType": "uint256",
          "name": "ltv",
          "type": "uint256"
        }
      ],
      "name": "updateBorrowParams",
      "outputs": [],
      "stateMutability": "nonpayable",
      "type": "function"
    },
    {
      "inputs": [
        {
          "internalType": "address",
          "name": "asset",
          "type": "address"
        },
        {
          "internalType": "bool",
          "name": "active",
          "type": "bool"
        },
        {
          "internalType": "bool",
          "name": "isNft",
          "type": "bool"
        }
      ],
      "name": "updateReserveActive",
      "outputs": [],
      "stateMutability": "nonpayable",
      "type": "function"
    },
    {
      "inputs": [
        {
          "internalType": "address",
          "name": "asset",
          "type": "address"
        },
        {
          "internalType": "uint256",
          "name": "reserveFactor",
          "type": "uint256"
        }
      ],
      "name": "updateReserveFactor",
      "outputs": [],
      "stateMutability": "nonpayable",
      "type": "function"
    },
    {
      "inputs": [
        {
          "internalType": "address",
          "name": "asset",
          "type": "address"
        },
        {
          "internalType": "bool",
          "name": "freeze",
          "type": "bool"
        }
      ],
      "name": "updateReserveFreeze",
      "outputs": [],
      "stateMutability": "nonpayable",
      "type": "function"
    },
    {
      "inputs": [
        {
          "internalType": "address",
          "name": "asset",
          "type": "address"
        },
        {
          "internalType": "address",
          "name": "interestRateCalculator",
          "type": "address"
        }
      ],
      "name": "updateReserveInterestRateCalculator",
      "outputs": [],
      "stateMutability": "nonpayable",
      "type": "function"
    },
    {
      "inputs": [
        {
          "internalType": "address",
          "name": "asset",
          "type": "address"
        },
        {
          "internalType": "address",
          "name": "newImpl",
          "type": "address"
        },
        {
          "internalType": "enum ILendingPoolConfigurator.TokenType",
          "name": "tokenType",
          "type": "uint8"
        }
      ],
      "name": "upgradeTokenImpl",
      "outputs": [],
      "stateMutability": "nonpayable",
      "type": "function"
    }
  ],
  "bytecode": "0x608060405234801561001057600080fd5b50613e1b806100206000396000f3fe60806040523480156200001157600080fd5b5060043610620001515760003560e01c806391d1485411620000c7578063b8e05c2a1162000086578063b8e05c2a14620002f0578063c18ccb491462000307578063c4d66de8146200031e578063d3e2507d1462000335578063d547741f146200034c578063d6585ecf146200036357600080fd5b806391d1485414620002715780639d6bc7051462000288578063a217fddf146200029f578063a3f4df7e14620002a8578063b5a993e014620002d957600080fd5b806325c5ba70116200011457806325c5ba7014620001fe5780632f2ff15d146200021557806336568abe146200022c578063530b9a0f1462000243578063704b6c02146200025a57600080fd5b806301ffc9a7146200015657806303c30a54146200018257806311e19259146200019b57806321da583714620001b2578063248a9ca314620001c9575b600080fd5b6200016d620001673660046200263d565b6200038b565b60405190151581526020015b60405180910390f35b620001996200019336600462002695565b620003c3565b005b62000199620001ac366004620026dd565b62000525565b62000199620001c33660046200272f565b62000736565b620001ef620001da3660046200274f565b60009081526020819052604090206001015490565b60405190815260200162000179565b620001996200020f36600462002769565b620007b6565b6200019962000226366004620027a1565b62000a03565b620001996200023d366004620027a1565b62000a31565b6200019962000254366004620027d4565b62000ab3565b620001996200026b3660046200272f565b62000cdc565b6200016d62000282366004620027a1565b62000d33565b620001996200029936600462002852565b62000d5c565b620001ef600081565b620002ca60405180604001604052806002815260200161504360f01b81525081565b604051620001799190620028f5565b62000199620002ea3660046200290a565b62001176565b620001ef60008051602062003dc683398151915281565b620001996200031836600462002852565b6200123f565b620001996200032f3660046200272f565b620016aa565b62000199620003463660046200293d565b62001875565b620001996200035d366004620027a1565b62001e4d565b620001ef7f5c91514091af31f62f596a314af7d5be40146b2f2355969392f055e12e0982fb81565b60006001600160e01b03198216637965db0b60e01b1480620003bd57506301ffc9a760e01b6001600160e01b03198316145b92915050565b7f5c91514091af31f62f596a314af7d5be40146b2f2355969392f055e12e0982fb620003ef8162001e76565b600254604051632f416f6d60e21b81526001600160a01b038581166004830152600092169063bd05bdb490602401602060405180830381865afa1580156200043b573d6000803e3d6000fd5b505050506040513d601f19601f8201168201806040525081019062000461919062002989565b90506200046f818462001e82565b600254604051631bbc4ab160e11b81526001600160a01b03878116600483015260248201849052929350911690633778956290604401600060405180830381600087803b158015620004c057600080fd5b505af1158015620004d5573d6000803e3d6000fd5b50505050836001600160a01b03167fd8d8ede1fe82aee5ccc9a8c262cd950fa8006c8704b67e2618148053e455387b8460405162000517911515815260200190565b60405180910390a250505050565b60008051602062003dc6833981519152620005408162001e76565b60006002836002811115620005595762000559620029a3565b03620005df57600254604051637a82ba1d60e11b81526001600160a01b038781166004830152600092169063f505743a90602401606060405180830381865afa158015620005ab573d6000803e3d6000fd5b505050506040513d601f19601f82011682018060405250810190620005d1919062002a26565b602001519150620006889050565b6002546040516335ea6a7560e01b81526001600160a01b03878116600483015260009216906335ea6a759060240161016060405180830381865afa1580156200062c573d6000803e3d6000fd5b505050506040513d601f19601f8201168201806040525081019062000652919062002ace565b905060008460028111156200066b576200066b620029a3565b036200067e578060c00151915062000686565b8060e0015191505b505b604051631b2ce7f360e11b81526001600160a01b038581166004830152821690633659cfe690602401600060405180830381600087803b158015620006cc57600080fd5b505af1158015620006e1573d6000803e3d6000fd5b50505050836001600160a01b0316816001600160a01b0316866001600160a01b03167f2ceda94e4dd959fa101239cc74310d734265077e82d69764d2ae9b2b70bc014f60405160405180910390a45050505050565b60008051602062003dc6833981519152620007518162001e76565b6002546040516321da583760e01b81526001600160a01b038481166004830152909116906321da583790602401600060405180830381600087803b1580156200079957600080fd5b505af1158015620007ae573d6000803e3d6000fd5b505050505050565b60008051602062003dc6833981519152620007d18162001e76565b8282111573__$61422835ae5e51fb34bedcfef91f75f833$__635b70017b60405180604001604052806002815260200161504360f01b815250604051806040016040528060028152602001610ccd60f21b8152506040518363ffffffff1660e01b81526004016200084492919062002bb8565b600060405180830381865af415801562000862573d6000803e3d6000fd5b505050506040513d6000823e601f3d908101601f191682016040526200088c919081019062002bea565b90620008b65760405162461bcd60e51b8152600401620008ad9190620028f5565b60405180910390fd5b506002546040516342cc41e560e01b81526001600160a01b03868116600483015260009216906342cc41e590602401602060405180830381865afa15801562000903573d6000803e3d6000fd5b505050506040513d601f19601f8201168201806040525081019062000929919062002989565b905062000937818562001eaf565b6002549091506001600160a01b031663377895628662000958848762001fa1565b6040516001600160e01b031960e085901b1681526001600160a01b0390921660048301526024820152604401600060405180830381600087803b1580156200099f57600080fd5b505af1158015620009b4573d6000803e3d6000fd5b505060408051878152602081018790526001600160a01b03891693507f573c878e64217b243ddd8557b24d40429cddc55f9bb2fbf4a260c0c33e5b6f7792500160405180910390a25050505050565b60008281526020819052604090206001015462000a208162001e76565b62000a2c83836200208e565b505050565b6001600160a01b038116331462000aa35760405162461bcd60e51b815260206004820152602f60248201527f416363657373436f6e74726f6c3a2063616e206f6e6c792072656e6f756e636560448201526e103937b632b9903337b91039b2b63360891b6064820152608401620008ad565b62000aaf828262002116565b5050565b60008051602062003dc683398151915262000ace8162001e76565b61271082111573__$61422835ae5e51fb34bedcfef91f75f833$__635b70017b60405180604001604052806002815260200161504360f01b81525060405180604001604052806002815260200161031360f41b8152506040518363ffffffff1660e01b815260040162000b4392919062002bb8565b600060405180830381865af415801562000b61573d6000803e3d6000fd5b505050506040513d6000823e601f3d908101601f1916820160405262000b8b919081019062002bea565b9062000bac5760405162461bcd60e51b8152600401620008ad9190620028f5565b50600254604051632f416f6d60e21b81526001600160a01b038581166004830152600092169063bd05bdb490602401602060405180830381865afa15801562000bf9573d6000803e3d6000fd5b505050506040513d601f19601f8201168201806040525081019062000c1f919062002989565b6002549091506001600160a01b031663377895628562000c4084876200217e565b6040516001600160e01b031960e085901b1681526001600160a01b0390921660048301526024820152604401600060405180830381600087803b15801562000c8757600080fd5b505af115801562000c9c573d6000803e3d6000fd5b50505050836001600160a01b03167fa9e6d8c6a7ceab34e1bbc36191cd138bd9190f9e9e04482afb77cecc652720b6846040516200051791815260200190565b62000d087f5c91514091af31f62f596a314af7d5be40146b2f2355969392f055e12e0982fb8262002275565b62000d2360008051602062003dc68339815191528262002275565b62000d3060008262002275565b50565b6000918252602082815260408084206001600160a01b0393909316845291905290205460ff1690565b60008051602062003dc683398151915262000d778162001e76565b60005b8281101562001170573684848381811062000d995762000d9962002ca3565b905060200281019062000dad919062002cb9565b9050806101200135816101000135111573__$61422835ae5e51fb34bedcfef91f75f833$__635b70017b60405180604001604052806002815260200161504360f01b815250604051806040016040528060028152602001610ccd60f21b8152506040518363ffffffff1660e01b815260040162000e2c92919062002bb8565b600060405180830381865af415801562000e4a573d6000803e3d6000fd5b505050506040513d6000823e601f3d908101601f1916820160405262000e74919081019062002bea565b9062000e955760405162461bcd60e51b8152600401620008ad9190620028f5565b50600062000ea760208301836200272f565b60025430906334ec7a6960e21b906001600160a01b031662000ed060808701606088016200272f565b62000ee3610100880160e089016200272f565b62000ef560c0890160a08a0162002cdb565b62000f0460208a018a62002cfb565b62000f1360408c018c62002cfb565b60405160240162000f2c98979695949392919062002d6e565b60408051601f198184030181529181526020820180516001600160e01b03166001600160e01b031990941693909317909252905162000f6b906200262f565b62000f799392919062002dd2565b604051809103906000f08015801562000f96573d6000803e3d6000fd5b509050600062000fbc62000fb160c0850160a0860162002cdb565b829060ff1662002281565b905062000fcb81600162002373565b905062000fda81600062001e82565b905062000fe9816000620023a2565b9050620010096200100160a085016080860162002e00565b8290620023cf565b90506200101c8161012085013562001eaf565b90506200102f8161010085013562001fa1565b6002549091506001600160a01b031663ac4b088c6200105560808601606087016200272f565b6040516001600160e01b031960e084901b1681526001600160a01b039182166004820152602481018590529085166044820152606401600060405180830381600087803b158015620010a657600080fd5b505af1158015620010bb573d6000803e3d6000fd5b5050506001600160a01b0383169050620010dc60808501606086016200272f565b6001600160a01b03167fd47ef9bfceab3b8a2b760a792bc3cb10cf40441a1f0b094da61f0a9b8081fc476200111860a087016080880162002e00565b60028111156200112c576200112c620029a3565b6040805160ff909216825261012088013560208301526101008801359082015260600160405180910390a35050508080620011679062002e36565b91505062000d7a565b50505050565b60008051602062003dc6833981519152620011918162001e76565b600254604051631e1a411760e11b81526001600160a01b038581166004830152848116602483015290911690633c34822e90604401600060405180830381600087803b158015620011e157600080fd5b505af1158015620011f6573d6000803e3d6000fd5b50506040516001600160a01b038581168252861692507f98b8c4e600dcf1afd7056e43f52404296da170af12c4b1e131d23f8dfaf765d2915060200160405180910390a2505050565b60008051602062003dc68339815191526200125a8162001e76565b60005b828110156200117057368484838181106200127c576200127c62002ca3565b905060200281019062001290919062002e52565b90506000620012a360208301836200272f565b60025430906334ec7a6960e21b906001600160a01b0316620012cd610100870160e088016200272f565b620012e1610160880161014089016200272f565b620012f561012089016101008a0162002cdb565b6200130460208a018a62002cfb565b6200131360408c018c62002cfb565b6040516024016200132c98979695949392919062002d6e565b60408051601f198184030181529181526020820180516001600160e01b03166001600160e01b03199094169390931790925290516200136b906200262f565b620013799392919062002dd2565b604051809103906000f08015801562001396573d6000803e3d6000fd5b5090506000620013ad60808401606085016200272f565b60025430906334ec7a6960e21b906001600160a01b0316620013d7610100880160e089016200272f565b620013eb61016089016101408a016200272f565b620013ff6101208a016101008b0162002cdb565b6200140e60808b018b62002cfb565b6200141d60a08d018d62002cfb565b6040516024016200143698979695949392919062002d6e565b60408051601f198184030181529181526020820180516001600160e01b03166001600160e01b031990941693909317909252905162001475906200262f565b620014839392919062002dd2565b604051809103906000f080158015620014a0573d6000803e3d6000fd5b5090506000620014bd62000fb16101208601610100870162002cdb565b9050620014cc81600162002373565b9050620014db81600062001e82565b9050620014ea816001620023a2565b9050620014f9816000620023cf565b90506200150c8161018086013562001eaf565b90506200151f8161016086013562001fa1565b905062001545620015396101c086016101a0870162002e6a565b829061ffff166200217e565b6002549091506001600160a01b031663c1b4ab8f6200156c610100870160e088016200272f565b8386866200158160e08b0160c08c016200272f565b60405160e087901b6001600160e01b03191681526001600160a01b0395861660048201526024810194909452918416604484015283166064830152909116608482015260a401600060405180830381600087803b158015620015e257600080fd5b505af1158015620015f7573d6000803e3d6000fd5b5050506001600160a01b038416905062001619610100860160e087016200272f565b6001600160a01b03167f20602bfdb807ffdc8ffb800a586f0660acf23bb71fbb47b500dd3d185698cbff846200165660e0890160c08a016200272f565b604080516001600160a01b03938416815292909116602083015261018089013590820152610160880135606082015260800160405180910390a3505050508080620016a19062002e36565b9150506200125d565b600154610100900460ff1615808015620016c857506001805460ff16105b80620016e35750303b158015620016e357506001805460ff16145b620017485760405162461bcd60e51b815260206004820152602e60248201527f496e697469616c697a61626c653a20636f6e747261637420697320616c72656160448201526d191e481a5b9a5d1a585b1a5e995960921b6064820152608401620008ad565b6001805460ff19168117905580156200176b576001805461ff0019166101001790555b81600160026101000a8154816001600160a01b0302191690836001600160a01b03160217905550600160029054906101000a90046001600160a01b03166001600160a01b0316630261bf8b6040518163ffffffff1660e01b8152600401602060405180830381865afa158015620017e6573d6000803e3d6000fd5b505050506040513d601f19601f820116820180604052508101906200180c919062002e90565b600280546001600160a01b0319166001600160a01b0392909216919091179055801562000aaf576001805461ff00191681556040519081527f7f26b83ff96e1f2b6a682f133852f6798a09c465da95921460cefb38474024989060200160405180910390a15050565b60008051602062003dc6833981519152620018908162001e76565b8262001c1957811562001a5d57600254604051637a82ba1d60e11b81526001600160a01b038681166004830152600092169063f505743a90602401606060405180830381865afa158015620018e9573d6000803e3d6000fd5b505050506040513d601f19601f820116820180604052508101906200190f919062002a26565b905080602001516001600160a01b03166318160ddd6040518163ffffffff1660e01b8152600401602060405180830381865afa15801562001954573d6000803e3d6000fd5b505050506040513d601f19601f820116820180604052508101906200197a919062002989565b60001473__$61422835ae5e51fb34bedcfef91f75f833$__635b70017b60405180604001604052806002815260200161504360f01b81525060405180604001604052806002815260200161333560f01b8152506040518363ffffffff1660e01b8152600401620019ec92919062002bb8565b600060405180830381865af415801562001a0a573d6000803e3d6000fd5b505050506040513d6000823e601f3d908101601f1916820160405262001a34919081019062002bea565b9062001a555760405162461bcd60e51b8152600401620008ad9190620028f5565b505062001c19565b6002546040516335ea6a7560e01b81526001600160a01b03868116600483015260009216906335ea6a759060240161016060405180830381865afa15801562001aaa573d6000803e3d6000fd5b505050506040513d601f19601f8201168201806040525081019062001ad0919062002ace565b90508060c001516001600160a01b03166318160ddd6040518163ffffffff1660e01b8152600401602060405180830381865afa15801562001b15573d6000803e3d6000fd5b505050506040513d601f19601f8201168201806040525081019062001b3b919062002989565b60001473__$61422835ae5e51fb34bedcfef91f75f833$__635b70017b60405180604001604052806002815260200161504360f01b81525060405180604001604052806002815260200161333560f01b8152506040518363ffffffff1660e01b815260040162001bad92919062002bb8565b600060405180830381865af415801562001bcb573d6000803e3d6000fd5b505050506040513d6000823e601f3d908101601f1916820160405262001bf5919081019062002bea565b9062001c165760405162461bcd60e51b8152600401620008ad9190620028f5565b50505b811562001d1a576002546040516342cc41e560e01b81526001600160a01b03868116600483015260009216906342cc41e590602401602060405180830381865afa15801562001c6c573d6000803e3d6000fd5b505050506040513d601f19601f8201168201806040525081019062001c92919062002989565b6002549091506001600160a01b031663d6cc07ae8662001cb3848862002373565b6040516001600160e01b031960e085901b1681526001600160a01b0390921660048301526024820152604401600060405180830381600087803b15801562001cfa57600080fd5b505af115801562001d0f573d6000803e3d6000fd5b505050505062001e0f565b600254604051632f416f6d60e21b81526001600160a01b038681166004830152600092169063bd05bdb490602401602060405180830381865afa15801562001d66573d6000803e3d6000fd5b505050506040513d601f19601f8201168201806040525081019062001d8c919062002989565b6002549091506001600160a01b031663377895628662001dad848862002373565b6040516001600160e01b031960e085901b1681526001600160a01b0390921660048301526024820152604401600060405180830381600087803b15801562001df457600080fd5b505af115801562001e09573d6000803e3d6000fd5b50505050505b836001600160a01b03167f8cf0ac4f2ffab002d2aedfc052b80b318cda8fef8edad46c529c03a26492c2028460405162000517911515815260200190565b60008281526020819052604090206001015462001e6a8162001e76565b62000a2c838362002116565b62000d308133620023ff565b600060298262001e9457600062001e97565b60015b60ff16901b6502000000000019841617905092915050565b600061ffff82111573__$61422835ae5e51fb34bedcfef91f75f833$__635b70017b60405180604001604052806002815260200161524360f01b815250604051806040016040528060018152602001600760fb1b8152506040518363ffffffff1660e01b815260040162001f2592919062002bb8565b600060405180830381865af415801562001f43573d6000803e3d6000fd5b505050506040513d6000823e601f3d908101601f1916820160405262001f6d919081019062002bea565b9062001f8e5760405162461bcd60e51b8152600401620008ad9190620028f5565b505060101b63ffff000019919091161790565b600061ffff82111573__$61422835ae5e51fb34bedcfef91f75f833$__635b70017b60405180604001604052806002815260200161524360f01b815250604051806040016040528060018152602001603760f81b8152506040518363ffffffff1660e01b81526004016200201792919062002bb8565b600060405180830381865af415801562002035573d6000803e3d6000fd5b505050506040513d6000823e601f3d908101601f191682016040526200205f919081019062002bea565b90620020805760405162461bcd60e51b8152600401620008ad9190620028f5565b505061ffff19919091161790565b6200209a828262000d33565b62000aaf576000828152602081815260408083206001600160a01b03851684529091529020805460ff19166001179055620020d23390565b6001600160a01b0316816001600160a01b0316837f2f8788117e7eff1d82e926ec794901d17c78024a50270940304540a733656f0d60405160405180910390a45050565b62002122828262000d33565b1562000aaf576000828152602081815260408083206001600160a01b0385168085529252808320805460ff1916905551339285917ff6391f5c32d9c69d2a47ea670b442974b53935d1edc7fd64eb21e047a839171b9190a45050565b600061ffff82111573__$61422835ae5e51fb34bedcfef91f75f833$__635b70017b60405180604001604052806002815260200161524360f01b81525060405180604001604052806002815260200161031360f41b8152506040518363ffffffff1660e01b8152600401620021f592919062002bb8565b600060405180830381865af415801562002213573d6000803e3d6000fd5b505050506040513d6000823e601f3d908101601f191682016040526200223d919081019062002bea565b906200225e5760405162461bcd60e51b8152600401620008ad9190620028f5565b5050603c1b670ffff0000000000019919091161790565b62000aaf82826200208e565b600060ff82111573__$61422835ae5e51fb34bedcfef91f75f833$__635b70017b60405180604001604052806002815260200161524360f01b815250604051806040016040528060018152602001603960f81b8152506040518363ffffffff1660e01b8152600401620022f692919062002bb8565b600060405180830381865af415801562002314573d6000803e3d6000fd5b505050506040513d6000823e601f3d908101601f191682016040526200233e919081019062002bea565b906200235f5760405162461bcd60e51b8152600401620008ad9190620028f5565b505060201b64ff0000000019919091161790565b60006028826200238557600062002388565b60015b60ff16901b67010001000000000019841617905092915050565b6000602a82620023b4576000620023b7565b60015b60ff16901b6504000000000019841617905092915050565b6000603e826002811115620023e857620023e8620029a3565b901b67c00000000000000019841617905092915050565b6200240b828262000d33565b62000aaf5762002426816001600160a01b031660146200246e565b620024338360206200246e565b6040516020016200244692919062002eb0565b60408051601f198184030181529082905262461bcd60e51b8252620008ad91600401620028f5565b606060006200247f83600262002f29565b6200248c90600262002f4b565b67ffffffffffffffff811115620024a757620024a7620029b9565b6040519080825280601f01601f191660200182016040528015620024d2576020820181803683370190505b509050600360fc1b81600081518110620024f057620024f062002ca3565b60200101906001600160f81b031916908160001a905350600f60fb1b8160018151811062002522576200252262002ca3565b60200101906001600160f81b031916908160001a90535060006200254884600262002f29565b6200255590600162002f4b565b90505b6001811115620025d7576f181899199a1a9b1b9c1cb0b131b232b360811b85600f16601081106200258d576200258d62002ca3565b1a60f81b828281518110620025a657620025a662002ca3565b60200101906001600160f81b031916908160001a90535060049490941c93620025cf8162002f66565b905062002558565b508315620026285760405162461bcd60e51b815260206004820181905260248201527f537472696e67733a20686578206c656e67746820696e73756666696369656e746044820152606401620008ad565b9392505050565b610e458062002f8183390190565b6000602082840312156200265057600080fd5b81356001600160e01b0319811681146200262857600080fd5b6001600160a01b038116811462000d3057600080fd5b803580151581146200269057600080fd5b919050565b60008060408385031215620026a957600080fd5b8235620026b68162002669565b9150620026c6602084016200267f565b90509250929050565b6003811062000d3057600080fd5b600080600060608486031215620026f357600080fd5b8335620027008162002669565b92506020840135620027128162002669565b915060408401356200272481620026cf565b809150509250925092565b6000602082840312156200274257600080fd5b8135620026288162002669565b6000602082840312156200276257600080fd5b5035919050565b6000806000606084860312156200277f57600080fd5b83356200278c8162002669565b95602085013595506040909401359392505050565b60008060408385031215620027b557600080fd5b823591506020830135620027c98162002669565b809150509250929050565b60008060408385031215620027e857600080fd5b8235620027f58162002669565b946020939093013593505050565b60008083601f8401126200281657600080fd5b50813567ffffffffffffffff8111156200282f57600080fd5b6020830191508360208260051b85010111156200284b57600080fd5b9250929050565b600080602083850312156200286657600080fd5b823567ffffffffffffffff8111156200287e57600080fd5b6200288c8582860162002803565b90969095509350505050565b60005b83811015620028b55781810151838201526020016200289b565b83811115620011705750506000910152565b60008151808452620028e181602086016020860162002898565b601f01601f19169290920160200192915050565b602081526000620026286020830184620028c7565b600080604083850312156200291e57600080fd5b82356200292b8162002669565b91506020830135620027c98162002669565b6000806000606084860312156200295357600080fd5b8335620029608162002669565b925062002970602085016200267f565b915062002980604085016200267f565b90509250925092565b6000602082840312156200299c57600080fd5b5051919050565b634e487b7160e01b600052602160045260246000fd5b634e487b7160e01b600052604160045260246000fd5b604051610160810167ffffffffffffffff81118282101715620029f657620029f6620029b9565b60405290565b8051620026908162002669565b60ff8116811462000d3057600080fd5b8051620026908162002a09565b60006060828403121562002a3957600080fd5b6040516060810181811067ffffffffffffffff8211171562002a5f5762002a5f620029b9565b60405282518152602083015162002a768162002669565b6020820152604083015162002a8b8162002a09565b60408201529392505050565b80516fffffffffffffffffffffffffffffffff811681146200269057600080fd5b805164ffffffffff811681146200269057600080fd5b6000610160828403121562002ae257600080fd5b62002aec620029cf565b8251815262002afe6020840162002a97565b602082015262002b116040840162002a97565b604082015262002b246060840162002a97565b606082015262002b376080840162002a97565b608082015262002b4a60a0840162002ab8565b60a082015262002b5d60c08401620029fc565b60c082015262002b7060e08401620029fc565b60e082015261010062002b85818501620029fc565b9082015261012062002b99848201620029fc565b9082015261014062002bad84820162002a19565b908201529392505050565b60408152600062002bcd6040830185620028c7565b828103602084015262002be18185620028c7565b95945050505050565b60006020828403121562002bfd57600080fd5b815167ffffffffffffffff8082111562002c1657600080fd5b818401915084601f83011262002c2b57600080fd5b81518181111562002c405762002c40620029b9565b604051601f8201601f19908116603f0116810190838211818310171562002c6b5762002c6b620029b9565b8160405282815287602084870101111562002c8557600080fd5b62002c9883602083016020880162002898565b979650505050505050565b634e487b7160e01b600052603260045260246000fd5b6000823561013e1983360301811262002cd157600080fd5b9190910192915050565b60006020828403121562002cee57600080fd5b8135620026288162002a09565b6000808335601e1984360301811262002d1357600080fd5b83018035915067ffffffffffffffff82111562002d2f57600080fd5b6020019150368190038213156200284b57600080fd5b81835281816020850137506000828201602090810191909152601f909101601f19169091010190565b6001600160a01b03898116825288811660208301528716604082015260ff8616606082015260c06080820181905260009062002dae908301868862002d45565b82810360a084015262002dc381858762002d45565b9b9a5050505050505050505050565b6001600160a01b0384811682528316602082015260606040820181905260009062002be190830184620028c7565b60006020828403121562002e1357600080fd5b81356200262881620026cf565b634e487b7160e01b600052601160045260246000fd5b60006001820162002e4b5762002e4b62002e20565b5060010190565b600082356101be1983360301811262002cd157600080fd5b60006020828403121562002e7d57600080fd5b813561ffff811681146200262857600080fd5b60006020828403121562002ea357600080fd5b8151620026288162002669565b7f416363657373436f6e74726f6c3a206163636f756e742000000000000000000081526000835162002eea81601785016020880162002898565b7001034b99036b4b9b9b4b733903937b6329607d1b601791840191820152835162002f1d81602884016020880162002898565b01602801949350505050565b600081600019048311821515161562002f465762002f4662002e20565b500290565b6000821982111562002f615762002f6162002e20565b500190565b60008162002f785762002f7862002e20565b50600019019056fe608060405260405162000e4538038062000e45833981016040819052620000269162000490565b828162000036828260006200004d565b50620000449050826200008a565b505050620005c3565b6200005883620000e5565b600082511180620000665750805b1562000085576200008383836200012760201b6200022e1760201c565b505b505050565b7f7e644d79422f17c01e4894b5f4f588d331ebfa28653d42ae832dc59e38c9798f620000b562000156565b604080516001600160a01b03928316815291841660208301520160405180910390a1620000e2816200018f565b50565b620000f08162000244565b6040516001600160a01b038216907fbc7cd75a20ee27fd9adebab32041f755214dbc6bffa90cc0225b39da2e5c2d3b90600090a250565b60606200014f838360405180606001604052806027815260200162000e1e60279139620002f8565b9392505050565b60006200018060008051602062000dfe83398151915260001b620003de60201b620001ea1760201c565b546001600160a01b0316919050565b6001600160a01b038116620001fa5760405162461bcd60e51b815260206004820152602660248201527f455243313936373a206e65772061646d696e20697320746865207a65726f206160448201526564647265737360d01b60648201526084015b60405180910390fd5b806200022360008051602062000dfe83398151915260001b620003de60201b620001ea1760201c565b80546001600160a01b0319166001600160a01b039290921691909117905550565b6200025a81620003e160201b6200025a1760201c565b620002be5760405162461bcd60e51b815260206004820152602d60248201527f455243313936373a206e657720696d706c656d656e746174696f6e206973206e60448201526c1bdd08184818dbdb9d1c9858dd609a1b6064820152608401620001f1565b80620002237f360894a13ba1a3210667c828492db98dca3e2076cc3735a920a3ca505d382bbc60001b620003de60201b620001ea1760201c565b60606001600160a01b0384163b620003625760405162461bcd60e51b815260206004820152602660248201527f416464726573733a2064656c65676174652063616c6c20746f206e6f6e2d636f6044820152651b9d1c9858dd60d21b6064820152608401620001f1565b600080856001600160a01b0316856040516200037f919062000570565b600060405180830381855af49150503d8060008114620003bc576040519150601f19603f3d011682016040523d82523d6000602084013e620003c1565b606091505b509092509050620003d4828286620003f0565b9695505050505050565b90565b6001600160a01b03163b151590565b60608315620004015750816200014f565b825115620004125782518084602001fd5b8160405162461bcd60e51b8152600401620001f191906200058e565b80516001600160a01b03811681146200044657600080fd5b919050565b634e487b7160e01b600052604160045260246000fd5b60005b838110156200047e57818101518382015260200162000464565b83811115620000835750506000910152565b600080600060608486031215620004a657600080fd5b620004b1846200042e565b9250620004c1602085016200042e565b60408501519092506001600160401b0380821115620004df57600080fd5b818601915086601f830112620004f457600080fd5b8151818111156200050957620005096200044b565b604051601f8201601f19908116603f011681019083821181831017156200053457620005346200044b565b816040528281528960208487010111156200054e57600080fd5b6200056183602083016020880162000461565b80955050505050509250925092565b600082516200058481846020870162000461565b9190910192915050565b6020815260008251806020840152620005af81604085016020870162000461565b601f01601f19169190910160400192915050565b61082b80620005d36000396000f3fe60806040526004361061004e5760003560e01c80633659cfe6146100655780634f1ef286146100855780635c60da1b146100985780638f283970146100c9578063f851a440146100e95761005d565b3661005d5761005b6100fe565b005b61005b6100fe565b34801561007157600080fd5b5061005b6100803660046106b5565b610118565b61005b6100933660046106d0565b610155565b3480156100a457600080fd5b506100ad6101bc565b6040516001600160a01b03909116815260200160405180910390f35b3480156100d557600080fd5b5061005b6100e43660046106b5565b6101ed565b3480156100f557600080fd5b506100ad61020d565b610106610269565b6101166101116102fe565b610308565b565b61012061032c565b6001600160a01b0316330361014d5761014a8160405180602001604052806000815250600061035f565b50565b61014a6100fe565b61015d61032c565b6001600160a01b031633036101b4576101af8383838080601f0160208091040260200160405190810160405280939291908181526020018383808284376000920191909152506001925061035f915050565b505050565b6101af6100fe565b60006101c661032c565b6001600160a01b031633036101e2576101dd6102fe565b905090565b6101ea6100fe565b90565b6101f561032c565b6001600160a01b0316330361014d5761014a8161038a565b600061021761032c565b6001600160a01b031633036101e2576101dd61032c565b606061025383836040518060600160405280602781526020016107cf602791396103de565b9392505050565b6001600160a01b03163b151590565b61027161032c565b6001600160a01b031633036101165760405162461bcd60e51b815260206004820152604260248201527f5472616e73706172656e745570677261646561626c6550726f78793a2061646d60448201527f696e2063616e6e6f742066616c6c6261636b20746f2070726f78792074617267606482015261195d60f21b608482015260a4015b60405180910390fd5b60006101dd6104bb565b3660008037600080366000845af43d6000803e808015610327573d6000f35b3d6000fd5b60007fb53127684a568b3173ae13b9f8a6016e243e63b6e8ee1178d6a717850b5d61035b546001600160a01b0316919050565b610368836104e3565b6000825111806103755750805b156101af57610384838361022e565b50505050565b7f7e644d79422f17c01e4894b5f4f588d331ebfa28653d42ae832dc59e38c9798f6103b361032c565b604080516001600160a01b03928316815291841660208301520160405180910390a161014a81610523565b60606001600160a01b0384163b6104465760405162461bcd60e51b815260206004820152602660248201527f416464726573733a2064656c65676174652063616c6c20746f206e6f6e2d636f6044820152651b9d1c9858dd60d21b60648201526084016102f5565b600080856001600160a01b031685604051610461919061077f565b600060405180830381855af49150503d806000811461049c576040519150601f19603f3d011682016040523d82523d6000602084013e6104a1565b606091505b50915091506104b18282866105cc565b9695505050505050565b60007f360894a13ba1a3210667c828492db98dca3e2076cc3735a920a3ca505d382bbc610350565b6104ec81610605565b6040516001600160a01b038216907fbc7cd75a20ee27fd9adebab32041f755214dbc6bffa90cc0225b39da2e5c2d3b90600090a250565b6001600160a01b0381166105885760405162461bcd60e51b815260206004820152602660248201527f455243313936373a206e65772061646d696e20697320746865207a65726f206160448201526564647265737360d01b60648201526084016102f5565b807fb53127684a568b3173ae13b9f8a6016e243e63b6e8ee1178d6a717850b5d61035b80546001600160a01b0319166001600160a01b039290921691909117905550565b606083156105db575081610253565b8251156105eb5782518084602001fd5b8160405162461bcd60e51b81526004016102f5919061079b565b6001600160a01b0381163b6106725760405162461bcd60e51b815260206004820152602d60248201527f455243313936373a206e657720696d706c656d656e746174696f6e206973206e60448201526c1bdd08184818dbdb9d1c9858dd609a1b60648201526084016102f5565b807f360894a13ba1a3210667c828492db98dca3e2076cc3735a920a3ca505d382bbc6105ab565b80356001600160a01b03811681146106b057600080fd5b919050565b6000602082840312156106c757600080fd5b61025382610699565b6000806000604084860312156106e557600080fd5b6106ee84610699565b9250602084013567ffffffffffffffff8082111561070b57600080fd5b818601915086601f83011261071f57600080fd5b81358181111561072e57600080fd5b87602082850101111561074057600080fd5b6020830194508093505050509250925092565b60005b8381101561076e578181015183820152602001610756565b838111156103845750506000910152565b60008251610791818460208701610753565b9190910192915050565b60208152600082518060208401526107ba816040850160208701610753565b601f01601f1916919091016040019291505056fe416464726573733a206c6f772d6c6576656c2064656c65676174652063616c6c206661696c6564a2646970667358221220dcccc67f54ac9047d4665d4ddb8bb92b766ba1b969a1e325055070a87b461b7a64736f6c634300080e0033b53127684a568b3173ae13b9f8a6016e243e63b6e8ee1178d6a717850b5d6103416464726573733a206c6f772d6c6576656c2064656c65676174652063616c6c206661696c6564c340ee5955cf3b892568f321fc9f8e2ed71ee4271f59db269236064210565a01a2646970667358221220e8c2b4499fd08b65c35cc1c342afa6ff04c162c1c4616bfdf8738fd434d18def64736f6c634300080e0033",
  "linkReferences": {
    "contracts/libraries/Errors.sol": {
      "Errors": [
        {
          "length": 20,
          "start": 2039
        },
        {
          "length": 20,
          "start": 2806
        },
        {
          "length": 20,
          "start": 3551
        },
        {
          "length": 20,
          "start": 6559
        },
        {
          "length": 20,
          "start": 7008
        },
        {
          "length": 20,
          "start": 7897
        },
        {
          "length": 20,
          "start": 8139
        },
        {
          "length": 20,
          "start": 8616
        },
        {
          "length": 20,
          "start": 8874
        }
      ]
    }
  },
  "deployedLinkReferences": {
    "contracts/libraries/Errors.sol": {
      "Errors": [
        {
          "length": 20,
          "start": 2007
        },
        {
          "length": 20,
          "start": 2774
        },
        {
          "length": 20,
          "start": 3519
        },
        {
          "length": 20,
          "start": 6527
        },
        {
          "length": 20,
          "start": 6976
        },
        {
          "length": 20,
          "start": 7865
        },
        {
          "length": 20,
          "start": 8107
        },
        {
          "length": 20,
          "start": 8584
        },
        {
          "length": 20,
          "start": 8842
        }
      ]
    }
  }
}