{
  "_format": "hh-sol-artifact-1",
  "contractName": "PoolConfigurator",
  "sourceName": "contracts/pool/lendingpool/LendingPoolConfigurator.sol",
  "abi": [
    {
      "anonymous": false,
      "inputs": [
        {
          "indexed": true,
          "internalType": "address",
          "name": "asset",
          "type": "address"
        },
        {
          "indexed": false,
          "internalType": "bool",
          "name": "active",
          "type": "bool"
        }
      ],
      "name": "AssetActiveUpdated",
      "type": "event"
    },
    {
      "anonymous": false,
      "inputs": [
        {
          "indexed": true,
          "internalType": "address",
          "name": "asset",
          "type": "address"
        },
        {
          "indexed": false,
          "internalType": "bool",
          "name": "freeze",
          "type": "bool"
        }
      ],
      "name": "AssetFreezeUpdated",
      "type": "event"
    },
    {
      "anonymous": false,
      "inputs": [
        {
          "indexed": true,
          "internalType": "address",
          "name": "asset",
          "type": "address"
        },
        {
          "indexed": false,
          "internalType": "uint256",
          "name": "liqThreshold",
          "type": "uint256"
        },
        {
          "indexed": false,
          "internalType": "uint256",
          "name": "ltv",
          "type": "uint256"
        }
      ],
      "name": "BorrowParamsUpdated",
      "type": "event"
    },
    {
      "anonymous": false,
      "inputs": [
        {
          "indexed": false,
          "internalType": "uint8",
          "name": "version",
          "type": "uint8"
        }
      ],
      "name": "Initialized",
      "type": "event"
    },
    {
      "anonymous": false,
      "inputs": [
        {
          "indexed": true,
          "internalType": "address",
          "name": "asset",
          "type": "address"
        },
        {
          "indexed": true,
          "internalType": "address",
          "name": "tNft",
          "type": "address"
        },
        {
          "indexed": false,
          "internalType": "uint8",
          "name": "tokenType",
          "type": "uint8"
        },
        {
          "indexed": false,
          "internalType": "uint256",
          "name": "liqThreshold",
          "type": "uint256"
        },
        {
          "indexed": false,
          "internalType": "uint256",
          "name": "ltv",
          "type": "uint256"
        }
      ],
      "name": "NftReserveInitialized",
      "type": "event"
    },
    {
      "anonymous": false,
      "inputs": [
        {
          "indexed": true,
          "internalType": "address",
          "name": "asset",
          "type": "address"
        }
      ],
      "name": "ReserveDropped",
      "type": "event"
    },
    {
      "anonymous": false,
      "inputs": [
        {
          "indexed": true,
          "internalType": "address",
          "name": "asset",
          "type": "address"
        },
        {
          "indexed": false,
          "internalType": "uint256",
          "name": "reserveFactor",
          "type": "uint256"
        }
      ],
      "name": "ReserveFactorUpdated",
      "type": "event"
    },
    {
      "anonymous": false,
      "inputs": [
        {
          "indexed": true,
          "internalType": "address",
          "name": "asset",
          "type": "address"
        },
        {
          "indexed": true,
          "internalType": "address",
          "name": "tToken",
          "type": "address"
        },
        {
          "indexed": false,
          "internalType": "address",
          "name": "debtToken",
          "type": "address"
        },
        {
          "indexed": false,
          "internalType": "address",
          "name": "interestRateStrategyAddress",
          "type": "address"
        },
        {
          "indexed": false,
          "internalType": "uint256",
          "name": "liqThreshold",
          "type": "uint256"
        },
        {
          "indexed": false,
          "internalType": "uint256",
          "name": "ltv",
          "type": "uint256"
        }
      ],
      "name": "ReserveInitialized",
      "type": "event"
    },
    {
      "anonymous": false,
      "inputs": [
        {
          "indexed": true,
          "internalType": "address",
          "name": "asset",
          "type": "address"
        },
        {
          "indexed": false,
          "internalType": "address",
          "name": "interestRateCalculator",
          "type": "address"
        }
      ],
      "name": "ReserveInterestRateCalculatorUpdated",
      "type": "event"
    },
    {
      "anonymous": false,
      "inputs": [
        {
          "indexed": true,
          "internalType": "bytes32",
          "name": "role",
          "type": "bytes32"
        },
        {
          "indexed": true,
          "internalType": "bytes32",
          "name": "previousAdminRole",
          "type": "bytes32"
        },
        {
          "indexed": true,
          "internalType": "bytes32",
          "name": "newAdminRole",
          "type": "bytes32"
        }
      ],
      "name": "RoleAdminChanged",
      "type": "event"
    },
    {
      "anonymous": false,
      "inputs": [
        {
          "indexed": true,
          "internalType": "bytes32",
          "name": "role",
          "type": "bytes32"
        },
        {
          "indexed": true,
          "internalType": "address",
          "name": "account",
          "type": "address"
        },
        {
          "indexed": true,
          "internalType": "address",
          "name": "sender",
          "type": "address"
        }
      ],
      "name": "RoleGranted",
      "type": "event"
    },
    {
      "anonymous": false,
      "inputs": [
        {
          "indexed": true,
          "internalType": "bytes32",
          "name": "role",
          "type": "bytes32"
        },
        {
          "indexed": true,
          "internalType": "address",
          "name": "account",
          "type": "address"
        },
        {
          "indexed": true,
          "internalType": "address",
          "name": "sender",
          "type": "address"
        }
      ],
      "name": "RoleRevoked",
      "type": "event"
    },
    {
      "anonymous": false,
      "inputs": [
        {
          "indexed": true,
          "internalType": "address",
          "name": "asset",
          "type": "address"
        },
        {
          "indexed": true,
          "internalType": "address",
          "name": "proxy",
          "type": "address"
        },
        {
          "indexed": true,
          "internalType": "address",
          "name": "impl",
          "type": "address"
        }
      ],
      "name": "TokenImplUpgraded",
      "type": "event"
    },
    {
      "inputs": [],
      "name": "DEFAULT_ADMIN_ROLE",
      "outputs": [
        {
          "internalType": "bytes32",
          "name": "",
          "type": "bytes32"
        }
      ],
      "stateMutability": "view",
      "type": "function"
    },
    {
      "inputs": [],
      "name": "EMERGENCY_ADMIN",
      "outputs": [
        {
          "internalType": "bytes32",
          "name": "",
          "type": "bytes32"
        }
      ],
      "stateMutability": "view",
      "type": "function"
    },
    {
      "inputs": [],
      "name": "LENDING_POOL_ADMIN",
      "outputs": [
        {
          "internalType": "bytes32",
          "name": "",
          "type": "bytes32"
        }
      ],
      "stateMutability": "view",
      "type": "function"
    },
    {
      "inputs": [],
      "name": "NAME",
      "outputs": [
        {
          "internalType": "string",
          "name": "",
          "type": "string"
        }
      ],
      "stateMutability": "view",
      "type": "function"
    },
    {
      "inputs": [
        {
          "internalType": "address",
          "name": "asset",
          "type": "address"
        }
      ],
      "name": "dropReserve",
      "outputs": [],
      "stateMutability": "nonpayable",
      "type": "function"
    },
    {
      "inputs": [
        {
          "internalType": "bytes32",
          "name": "role",
          "type": "bytes32"
        }
      ],
      "name": "getRoleAdmin",
      "outputs": [
        {
          "internalType": "bytes32",
          "name": "",
          "type": "bytes32"
        }
      ],
      "stateMutability": "view",
      "type": "function"
    },
    {
      "inputs": [
        {
          "internalType": "bytes32",
          "name": "role",
          "type": "bytes32"
        },
        {
          "internalType": "address",
          "name": "account",
          "type": "address"
        }
      ],
      "name": "grantRole",
      "outputs": [],
      "stateMutability": "nonpayable",
      "type": "function"
    },
    {
      "inputs": [
        {
          "internalType": "bytes32",
          "name": "role",
          "type": "bytes32"
        },
        {
          "internalType": "address",
          "name": "account",
          "type": "address"
        }
      ],
      "name": "hasRole",
      "outputs": [
        {
          "internalType": "bool",
          "name": "",
          "type": "bool"
        }
      ],
      "stateMutability": "view",
      "type": "function"
    },
    {
      "inputs": [
        {
          "components": [
            {
              "internalType": "address",
              "name": "tTokenImpl",
              "type": "address"
            },
            {
              "internalType": "string",
              "name": "tTokenNamePrefix",
              "type": "string"
            },
            {
              "internalType": "string",
              "name": "tTokenSymbolPrefix",
              "type": "string"
            },
            {
              "internalType": "address",
              "name": "asset",
              "type": "address"
            },
            {
              "internalType": "enum ReserveConfigurator.TokenType",
              "name": "tokenType",
              "type": "uint8"
            },
            {
              "internalType": "uint8",
              "name": "decimals",
              "type": "uint8"
            },
            {
              "internalType": "address",
              "name": "treasury",
              "type": "address"
            },
            {
              "internalType": "address",
              "name": "incentivesController",
              "type": "address"
            },
            {
              "internalType": "uint256",
              "name": "ltv",
              "type": "uint256"
            },
            {
              "internalType": "uint256",
              "name": "liqThreshold",
              "type": "uint256"
            }
          ],
          "internalType": "struct ILendingPoolConfigurator.NftReserveInitParams[]",
          "name": "paramsList",
          "type": "tuple[]"
        }
      ],
      "name": "initNftReserves",
      "outputs": [],
      "stateMutability": "nonpayable",
      "type": "function"
    },
    {
      "inputs": [
        {
          "components": [
            {
              "internalType": "address",
              "name": "tTokenImpl",
              "type": "address"
            },
            {
              "internalType": "string",
              "name": "tTokenNamePrefix",
              "type": "string"
            },
            {
              "internalType": "string",
              "name": "tTokenSymbolPrefix",
              "type": "string"
            },
            {
              "internalType": "address",
              "name": "debtTokenImpl",
              "type": "address"
            },
            {
              "internalType": "string",
              "name": "debtTokenNamePrefix",
              "type": "string"
            },
            {
              "internalType": "string",
              "name": "debtTokenSymbolPrefix",
              "type": "string"
            },
            {
              "internalType": "address",
              "name": "interestRateStrategyAddress",
              "type": "address"
            },
            {
              "internalType": "address",
              "name": "asset",
              "type": "address"
            },
            {
              "internalType": "uint8",
              "name": "decimals",
              "type": "uint8"
            },
            {
              "internalType": "address",
              "name": "treasury",
              "type": "address"
            },
            {
              "internalType": "address",
              "name": "incentivesController",
              "type": "address"
            },
            {
              "internalType": "uint256",
              "name": "ltv",
              "type": "uint256"
            },
            {
              "internalType": "uint256",
              "name": "liqThreshold",
              "type": "uint256"
            },
            {
              "internalType": "uint16",
              "name": "reserveFactor",
              "type": "uint16"
            }
          ],
          "internalType": "struct ILendingPoolConfigurator.ReserveInitParams[]",
          "name": "paramsList",
          "type": "tuple[]"
        }
      ],
      "name": "initReserves",
      "outputs": [],
      "stateMutability": "nonpayable",
      "type": "function"
    },
    {
      "inputs": [
        {
          "internalType": "contract ITakerAddressesProvider",
          "name": "provider",
          "type": "address"
        }
      ],
      "name": "initialize",
      "outputs": [],
      "stateMutability": "nonpayable",
      "type": "function"
    },
    {
      "inputs": [
        {
          "internalType": "bytes32",
          "name": "role",
          "type": "bytes32"
        },
        {
          "internalType": "address",
          "name": "account",
          "type": "address"
        }
      ],
      "name": "renounceRole",
      "outputs": [],
      "stateMutability": "nonpayable",
      "type": "function"
    },
    {
      "inputs": [
        {
          "internalType": "bytes32",
          "name": "role",
          "type": "bytes32"
        },
        {
          "internalType": "address",
          "name": "account",
          "type": "address"
        }
      ],
      "name": "revokeRole",
      "outputs": [],
      "stateMutability": "nonpayable",
      "type": "function"
    },
    {
      "inputs": [
        {
          "internalType": "address",
          "name": "admin",
          "type": "address"
        }
      ],
      "name": "setAdmin",
      "outputs": [],
      "stateMutability": "nonpayable",
      "type": "function"
    },
    {
      "inputs": [
        {
          "internalType": "address",
          "name": "WETHGateway",
          "type": "address"
        }
      ],
      "name": "setWETHGateway",
      "outputs": [],
      "stateMutability": "nonpayable",
      "type": "function"
    },
    {
      "inputs": [
        {
          "internalType": "bytes4",
          "name": "interfaceId",
          "type": "bytes4"
        }
      ],
      "name": "supportsInterface",
      "outputs": [
        {
          "internalType": "bool",
          "name": "",
          "type": "bool"
        }
      ],
      "stateMutability": "view",
      "type": "function"
    },
    {
      "inputs": [
        {
          "internalType": "address",
          "name": "asset",
          "type": "address"
        },
        {
          "internalType": "bool",
          "name": "active",
          "type": "bool"
        }
      ],
      "name": "updateAssetActive",
      "outputs": [],
      "stateMutability": "nonpayable",
      "type": "function"
    },
    {
      "inputs": [
        {
          "internalType": "address",
          "name": "asset",
          "type": "address"
        },
        {
          "internalType": "bool",
          "name": "freeze",
          "type": "bool"
        }
      ],
      "name": "updateAssetFreeze",
      "outputs": [],
      "stateMutability": "nonpayable",
      "type": "function"
    },
    {
      "inputs": [
        {
          "internalType": "address",
          "name": "asset",
          "type": "address"
        },
        {
          "internalType": "uint256",
          "name": "liqThreshold",
          "type": "uint256"
        },
        {
          "internalType": "uint256",
          "name": "ltv",
          "type": "uint256"
        }
      ],
      "name": "updateBorrowParams",
      "outputs": [],
      "stateMutability": "nonpayable",
      "type": "function"
    },
    {
      "inputs": [
        {
          "internalType": "address",
          "name": "asset",
          "type": "address"
        },
        {
          "internalType": "uint256",
          "name": "reserveFactor",
          "type": "uint256"
        }
      ],
      "name": "updateReserveFactor",
      "outputs": [],
      "stateMutability": "nonpayable",
      "type": "function"
    },
    {
      "inputs": [
        {
          "internalType": "address",
          "name": "asset",
          "type": "address"
        },
        {
          "internalType": "address",
          "name": "interestRateCalculator",
          "type": "address"
        }
      ],
      "name": "updateReserveInterestRateCalculator",
      "outputs": [],
      "stateMutability": "nonpayable",
      "type": "function"
    },
    {
      "inputs": [
        {
          "internalType": "address",
          "name": "asset",
          "type": "address"
        },
        {
          "internalType": "address",
          "name": "newImpl",
          "type": "address"
        },
        {
          "internalType": "enum ILendingPoolConfigurator.TokenType",
          "name": "tokenType",
          "type": "uint8"
        }
      ],
      "name": "upgradeTokenImpl",
      "outputs": [],
      "stateMutability": "nonpayable",
      "type": "function"
    }
  ],
  "bytecode": "0x608060405234801561001057600080fd5b50613f1c806100206000396000f3fe60806040523480156200001157600080fd5b50600436106200015d5760003560e01c80639d6bc70511620000c7578063c18ccb491162000086578063c18ccb491462000313578063c4d66de8146200032a578063d547741f1462000341578063d6585ecf1462000358578063e8720eac1462000380578063fb38ee07146200039757600080fd5b80639d6bc7051462000294578063a217fddf14620002ab578063a3f4df7e14620002b4578063b5a993e014620002e5578063b8e05c2a14620002fc57600080fd5b80632f2ff15d11620001205780632f2ff15d146200020a57806336568abe1462000221578063530b9a0f146200023857806363c9b860146200024f578063704b6c02146200026657806391d14854146200027d57600080fd5b806301ffc9a7146200016257806311e19259146200018e57806321da583714620001a7578063248a9ca314620001be57806325c5ba7014620001f3575b600080fd5b62000179620001733660046200279e565b620003ae565b60405190151581526020015b60405180910390f35b620001a56200019f366004620027ee565b620003e6565b005b620001a5620001b836600462002840565b620005f7565b620001e4620001cf36600462002860565b60009081526020819052604090206001015490565b60405190815260200162000185565b620001a5620002043660046200287a565b62000677565b620001a56200021b366004620028b2565b620008c4565b620001a562000232366004620028b2565b620008f2565b620001a562000249366004620028e5565b62000974565b620001a56200026036600462002840565b62000bab565b620001a56200027736600462002840565b62000c5f565b620001796200028e366004620028b2565b62000cb6565b620001a5620002a536600462002963565b62000cdf565b620001e4600081565b620002d660405180604001604052806002815260200161504360f01b81525081565b60405162000185919062002a06565b620001a5620002f636600462002a1b565b620010f9565b620001e460008051602062003ec783398151915281565b620001a56200032436600462002963565b620011c2565b620001a56200033b36600462002840565b6200162d565b620001a562000352366004620028b2565b620017f8565b620001e47f5c91514091af31f62f596a314af7d5be40146b2f2355969392f055e12e0982fb81565b620001a56200039136600462002a4e565b62001821565b620001a5620003a836600462002a4e565b62001adb565b60006001600160e01b03198216637965db0b60e01b1480620003e057506301ffc9a760e01b6001600160e01b03198316145b92915050565b60008051602062003ec7833981519152620004018162001fd7565b600060028360028111156200041a576200041a62002a85565b03620004a057600254604051637a82ba1d60e11b81526001600160a01b038781166004830152600092169063f505743a90602401606060405180830381865afa1580156200046c573d6000803e3d6000fd5b505050506040513d601f19601f8201168201806040525081019062000492919062002b0d565b602001519150620005499050565b6002546040516335ea6a7560e01b81526001600160a01b03878116600483015260009216906335ea6a759060240161016060405180830381865afa158015620004ed573d6000803e3d6000fd5b505050506040513d601f19601f8201168201806040525081019062000513919062002bb5565b905060008460028111156200052c576200052c62002a85565b036200053f578060c00151915062000547565b8060e0015191505b505b604051631b2ce7f360e11b81526001600160a01b038581166004830152821690633659cfe690602401600060405180830381600087803b1580156200058d57600080fd5b505af1158015620005a2573d6000803e3d6000fd5b50505050836001600160a01b0316816001600160a01b0316866001600160a01b03167f2ceda94e4dd959fa101239cc74310d734265077e82d69764d2ae9b2b70bc014f60405160405180910390a45050505050565b60008051602062003ec7833981519152620006128162001fd7565b6002546040516321da583760e01b81526001600160a01b038481166004830152909116906321da583790602401600060405180830381600087803b1580156200065a57600080fd5b505af11580156200066f573d6000803e3d6000fd5b505050505050565b60008051602062003ec7833981519152620006928162001fd7565b8282111573__$61422835ae5e51fb34bedcfef91f75f833$__635b70017b60405180604001604052806002815260200161504360f01b815250604051806040016040528060028152602001610ccd60f21b8152506040518363ffffffff1660e01b81526004016200070592919062002c9f565b600060405180830381865af415801562000723573d6000803e3d6000fd5b505050506040513d6000823e601f3d908101601f191682016040526200074d919081019062002cd1565b90620007775760405162461bcd60e51b81526004016200076e919062002a06565b60405180910390fd5b506002546040516342cc41e560e01b81526001600160a01b03868116600483015260009216906342cc41e590602401602060405180830381865afa158015620007c4573d6000803e3d6000fd5b505050506040513d601f19601f82011682018060405250810190620007ea919062002d8a565b9050620007f8818562001fe3565b6002549091506001600160a01b0316633778956286620008198487620020d5565b6040516001600160e01b031960e085901b1681526001600160a01b0390921660048301526024820152604401600060405180830381600087803b1580156200086057600080fd5b505af115801562000875573d6000803e3d6000fd5b505060408051878152602081018790526001600160a01b03891693507f573c878e64217b243ddd8557b24d40429cddc55f9bb2fbf4a260c0c33e5b6f7792500160405180910390a25050505050565b600082815260208190526040902060010154620008e18162001fd7565b620008ed8383620021c2565b505050565b6001600160a01b0381163314620009645760405162461bcd60e51b815260206004820152602f60248201527f416363657373436f6e74726f6c3a2063616e206f6e6c792072656e6f756e636560448201526e103937b632b9903337b91039b2b63360891b60648201526084016200076e565b6200097082826200224a565b5050565b60008051602062003ec78339815191526200098f8162001fd7565b61271082111573__$61422835ae5e51fb34bedcfef91f75f833$__635b70017b60405180604001604052806002815260200161504360f01b81525060405180604001604052806002815260200161031360f41b8152506040518363ffffffff1660e01b815260040162000a0492919062002c9f565b600060405180830381865af415801562000a22573d6000803e3d6000fd5b505050506040513d6000823e601f3d908101601f1916820160405262000a4c919081019062002cd1565b9062000a6d5760405162461bcd60e51b81526004016200076e919062002a06565b50600254604051632f416f6d60e21b81526001600160a01b038581166004830152600092169063bd05bdb490602401602060405180830381865afa15801562000aba573d6000803e3d6000fd5b505050506040513d601f19601f8201168201806040525081019062000ae0919062002d8a565b6002549091506001600160a01b031663377895628562000b018487620022b2565b6040516001600160e01b031960e085901b1681526001600160a01b0390921660048301526024820152604401600060405180830381600087803b15801562000b4857600080fd5b505af115801562000b5d573d6000803e3d6000fd5b50505050836001600160a01b03167fa9e6d8c6a7ceab34e1bbc36191cd138bd9190f9e9e04482afb77cecc652720b68460405162000b9d91815260200190565b60405180910390a250505050565b60008051602062003ec783398151915262000bc68162001fd7565b60025460405163031e4dc360e51b81526001600160a01b038481166004830152909116906363c9b86090602401600060405180830381600087803b15801562000c0e57600080fd5b505af115801562000c23573d6000803e3d6000fd5b50506040516001600160a01b03851692507feeec4c06f7adad215cbdb4d2960896c83c26aedce02dde76d36fa28588d62da49150600090a25050565b62000c8b7f5c91514091af31f62f596a314af7d5be40146b2f2355969392f055e12e0982fb82620023a9565b62000ca660008051602062003ec783398151915282620023a9565b62000cb3600082620023a9565b50565b6000918252602082815260408084206001600160a01b0393909316845291905290205460ff1690565b60008051602062003ec783398151915262000cfa8162001fd7565b60005b82811015620010f3573684848381811062000d1c5762000d1c62002da4565b905060200281019062000d30919062002dba565b9050806101200135816101000135111573__$61422835ae5e51fb34bedcfef91f75f833$__635b70017b60405180604001604052806002815260200161504360f01b815250604051806040016040528060028152602001610ccd60f21b8152506040518363ffffffff1660e01b815260040162000daf92919062002c9f565b600060405180830381865af415801562000dcd573d6000803e3d6000fd5b505050506040513d6000823e601f3d908101601f1916820160405262000df7919081019062002cd1565b9062000e185760405162461bcd60e51b81526004016200076e919062002a06565b50600062000e2a602083018362002840565b60025430906334ec7a6960e21b906001600160a01b031662000e53608087016060880162002840565b62000e66610100880160e0890162002840565b62000e7860c0890160a08a0162002ddc565b62000e8760208a018a62002dfc565b62000e9660408c018c62002dfc565b60405160240162000eaf98979695949392919062002e6f565b60408051601f198184030181529181526020820180516001600160e01b03166001600160e01b031990941693909317909252905162000eee9062002790565b62000efc9392919062002ed3565b604051809103906000f08015801562000f19573d6000803e3d6000fd5b509050600062000f3f62000f3460c0850160a0860162002ddc565b829060ff16620023b5565b905062000f4e816001620024a7565b905062000f5d816000620024d6565b905062000f6c81600062002503565b905062000f8c62000f8460a085016080860162002f01565b829062002530565b905062000f9f8161012085013562001fe3565b905062000fb281610100850135620020d5565b6002549091506001600160a01b031663ac4b088c62000fd8608086016060870162002840565b6040516001600160e01b031960e084901b1681526001600160a01b039182166004820152602481018590529085166044820152606401600060405180830381600087803b1580156200102957600080fd5b505af11580156200103e573d6000803e3d6000fd5b5050506001600160a01b03831690506200105f608085016060860162002840565b6001600160a01b03167fd47ef9bfceab3b8a2b760a792bc3cb10cf40441a1f0b094da61f0a9b8081fc476200109b60a087016080880162002f01565b6002811115620010af57620010af62002a85565b6040805160ff909216825261012088013560208301526101008801359082015260600160405180910390a35050508080620010ea9062002f37565b91505062000cfd565b50505050565b60008051602062003ec7833981519152620011148162001fd7565b600254604051631e1a411760e11b81526001600160a01b038581166004830152848116602483015290911690633c34822e90604401600060405180830381600087803b1580156200116457600080fd5b505af115801562001179573d6000803e3d6000fd5b50506040516001600160a01b038581168252861692507f98b8c4e600dcf1afd7056e43f52404296da170af12c4b1e131d23f8dfaf765d2915060200160405180910390a2505050565b60008051602062003ec7833981519152620011dd8162001fd7565b60005b82811015620010f35736848483818110620011ff57620011ff62002da4565b905060200281019062001213919062002f53565b9050600062001226602083018362002840565b60025430906334ec7a6960e21b906001600160a01b031662001250610100870160e0880162002840565b620012646101608801610140890162002840565b6200127861012089016101008a0162002ddc565b6200128760208a018a62002dfc565b6200129660408c018c62002dfc565b604051602401620012af98979695949392919062002e6f565b60408051601f198184030181529181526020820180516001600160e01b03166001600160e01b0319909416939093179092529051620012ee9062002790565b620012fc9392919062002ed3565b604051809103906000f08015801562001319573d6000803e3d6000fd5b509050600062001330608084016060850162002840565b60025430906334ec7a6960e21b906001600160a01b03166200135a610100880160e0890162002840565b6200136e61016089016101408a0162002840565b620013826101208a016101008b0162002ddc565b6200139160808b018b62002dfc565b620013a060a08d018d62002dfc565b604051602401620013b998979695949392919062002e6f565b60408051601f198184030181529181526020820180516001600160e01b03166001600160e01b0319909416939093179092529051620013f89062002790565b620014069392919062002ed3565b604051809103906000f08015801562001423573d6000803e3d6000fd5b50905060006200144062000f346101208601610100870162002ddc565b90506200144f816001620024a7565b90506200145e816000620024d6565b90506200146d81600162002503565b90506200147c81600062002530565b90506200148f8161018086013562001fe3565b9050620014a281610160860135620020d5565b9050620014c8620014bc6101c086016101a0870162002f6b565b829061ffff16620022b2565b6002549091506001600160a01b031663c1b4ab8f620014ef610100870160e0880162002840565b8386866200150460e08b0160c08c0162002840565b60405160e087901b6001600160e01b03191681526001600160a01b0395861660048201526024810194909452918416604484015283166064830152909116608482015260a401600060405180830381600087803b1580156200156557600080fd5b505af11580156200157a573d6000803e3d6000fd5b5050506001600160a01b03841690506200159c610100860160e0870162002840565b6001600160a01b03167f20602bfdb807ffdc8ffb800a586f0660acf23bb71fbb47b500dd3d185698cbff84620015d960e0890160c08a0162002840565b604080516001600160a01b03938416815292909116602083015261018089013590820152610160880135606082015260800160405180910390a3505050508080620016249062002f37565b915050620011e0565b600154610100900460ff16158080156200164b57506001805460ff16105b80620016665750303b1580156200166657506001805460ff16145b620016cb5760405162461bcd60e51b815260206004820152602e60248201527f496e697469616c697a61626c653a20636f6e747261637420697320616c72656160448201526d191e481a5b9a5d1a585b1a5e995960921b60648201526084016200076e565b6001805460ff1916811790558015620016ee576001805461ff0019166101001790555b81600160026101000a8154816001600160a01b0302191690836001600160a01b03160217905550600160029054906101000a90046001600160a01b03166001600160a01b0316630261bf8b6040518163ffffffff1660e01b8152600401602060405180830381865afa15801562001769573d6000803e3d6000fd5b505050506040513d601f19601f820116820180604052508101906200178f919062002f91565b600280546001600160a01b0319166001600160a01b0392909216919091179055801562000970576001805461ff00191681556040519081527f7f26b83ff96e1f2b6a682f133852f6798a09c465da95921460cefb38474024989060200160405180910390a15050565b600082815260208190526040902060010154620018158162001fd7565b620008ed83836200224a565b7f5c91514091af31f62f596a314af7d5be40146b2f2355969392f055e12e0982fb6200184d8162001fd7565b600254604051637a82ba1d60e11b81526001600160a01b038581166004830152600092169063f505743a90602401606060405180830381865afa15801562001899573d6000803e3d6000fd5b505050506040513d601f19601f82011682018060405250810190620018bf919062002b0d565b9050806040015160ff166000146200195c5760025481516001600160a01b039091169063d6cc07ae908690620018f69087620024d6565b6040516001600160e01b031960e085901b1681526001600160a01b0390921660048301526024820152604401600060405180830381600087803b1580156200193d57600080fd5b505af115801562001952573d6000803e3d6000fd5b5050505062001a57565b6002546040516335ea6a7560e01b81526001600160a01b03868116600483015260009216906335ea6a759060240161016060405180830381865afa158015620019a9573d6000803e3d6000fd5b505050506040513d601f19601f82011682018060405250810190620019cf919062002bb5565b60025481519192506001600160a01b0316906337789562908790620019f59088620024d6565b6040516001600160e01b031960e085901b1681526001600160a01b0390921660048301526024820152604401600060405180830381600087803b15801562001a3c57600080fd5b505af115801562001a51573d6000803e3d6000fd5b50505050505b836001600160a01b03167fa4f8fa319552574260afe1eb8893c63ca08d8e7daf81c96b2ae90a3d557913748460405162001a95911515815260200190565b60405180910390a2836001600160a01b03167fa4f8fa319552574260afe1eb8893c63ca08d8e7daf81c96b2ae90a3d557913748460405162000b9d911515815260200190565b60008051602062003ec783398151915262001af68162001fd7565b600254604051637a82ba1d60e11b81526001600160a01b038581166004830152600092169063f505743a90602401606060405180830381865afa15801562001b42573d6000803e3d6000fd5b505050506040513d601f19601f8201168201806040525081019062001b68919062002b0d565b9050806040015160ff1660001462001d51578262001cc65780602001516001600160a01b03166318160ddd6040518163ffffffff1660e01b8152600401602060405180830381865afa15801562001bc3573d6000803e3d6000fd5b505050506040513d601f19601f8201168201806040525081019062001be9919062002d8a565b60001473__$61422835ae5e51fb34bedcfef91f75f833$__635b70017b60405180604001604052806002815260200161504360f01b81525060405180604001604052806002815260200161333560f01b8152506040518363ffffffff1660e01b815260040162001c5b92919062002c9f565b600060405180830381865af415801562001c79573d6000803e3d6000fd5b505050506040513d6000823e601f3d908101601f1916820160405262001ca3919081019062002cd1565b9062001cc45760405162461bcd60e51b81526004016200076e919062002a06565b505b60025481516001600160a01b039091169063d6cc07ae90869062001ceb9087620024a7565b6040516001600160e01b031960e085901b1681526001600160a01b0390921660048301526024820152604401600060405180830381600087803b15801562001d3257600080fd5b505af115801562001d47573d6000803e3d6000fd5b5050505062001f99565b6002546040516335ea6a7560e01b81526001600160a01b03868116600483015260009216906335ea6a759060240161016060405180830381865afa15801562001d9e573d6000803e3d6000fd5b505050506040513d601f19601f8201168201806040525081019062001dc4919062002bb5565b90508362001f12578060c001516001600160a01b03166318160ddd6040518163ffffffff1660e01b8152600401602060405180830381865afa15801562001e0f573d6000803e3d6000fd5b505050506040513d601f19601f8201168201806040525081019062001e35919062002d8a565b60001473__$61422835ae5e51fb34bedcfef91f75f833$__635b70017b60405180604001604052806002815260200161504360f01b81525060405180604001604052806002815260200161333560f01b8152506040518363ffffffff1660e01b815260040162001ea792919062002c9f565b600060405180830381865af415801562001ec5573d6000803e3d6000fd5b505050506040513d6000823e601f3d908101601f1916820160405262001eef919081019062002cd1565b9062001f105760405162461bcd60e51b81526004016200076e919062002a06565b505b60025481516001600160a01b0390911690633778956290879062001f379088620024a7565b6040516001600160e01b031960e085901b1681526001600160a01b0390921660048301526024820152604401600060405180830381600087803b15801562001f7e57600080fd5b505af115801562001f93573d6000803e3d6000fd5b50505050505b836001600160a01b03167f21455e5b9cc1e66b63b57e5a58784470fc62a380fcfaedb5f8fc792ff46005668460405162000b9d911515815260200190565b62000cb3813362002560565b600061ffff82111573__$61422835ae5e51fb34bedcfef91f75f833$__635b70017b60405180604001604052806002815260200161524360f01b815250604051806040016040528060018152602001600760fb1b8152506040518363ffffffff1660e01b81526004016200205992919062002c9f565b600060405180830381865af415801562002077573d6000803e3d6000fd5b505050506040513d6000823e601f3d908101601f19168201604052620020a1919081019062002cd1565b90620020c25760405162461bcd60e51b81526004016200076e919062002a06565b505060101b63ffff000019919091161790565b600061ffff82111573__$61422835ae5e51fb34bedcfef91f75f833$__635b70017b60405180604001604052806002815260200161524360f01b815250604051806040016040528060018152602001603760f81b8152506040518363ffffffff1660e01b81526004016200214b92919062002c9f565b600060405180830381865af415801562002169573d6000803e3d6000fd5b505050506040513d6000823e601f3d908101601f1916820160405262002193919081019062002cd1565b90620021b45760405162461bcd60e51b81526004016200076e919062002a06565b505061ffff19919091161790565b620021ce828262000cb6565b62000970576000828152602081815260408083206001600160a01b03851684529091529020805460ff19166001179055620022063390565b6001600160a01b0316816001600160a01b0316837f2f8788117e7eff1d82e926ec794901d17c78024a50270940304540a733656f0d60405160405180910390a45050565b62002256828262000cb6565b1562000970576000828152602081815260408083206001600160a01b0385168085529252808320805460ff1916905551339285917ff6391f5c32d9c69d2a47ea670b442974b53935d1edc7fd64eb21e047a839171b9190a45050565b600061ffff82111573__$61422835ae5e51fb34bedcfef91f75f833$__635b70017b60405180604001604052806002815260200161524360f01b81525060405180604001604052806002815260200161031360f41b8152506040518363ffffffff1660e01b81526004016200232992919062002c9f565b600060405180830381865af415801562002347573d6000803e3d6000fd5b505050506040513d6000823e601f3d908101601f1916820160405262002371919081019062002cd1565b90620023925760405162461bcd60e51b81526004016200076e919062002a06565b5050603c1b670ffff0000000000019919091161790565b620009708282620021c2565b600060ff82111573__$61422835ae5e51fb34bedcfef91f75f833$__635b70017b60405180604001604052806002815260200161524360f01b815250604051806040016040528060018152602001603960f81b8152506040518363ffffffff1660e01b81526004016200242a92919062002c9f565b600060405180830381865af415801562002448573d6000803e3d6000fd5b505050506040513d6000823e601f3d908101601f1916820160405262002472919081019062002cd1565b90620024935760405162461bcd60e51b81526004016200076e919062002a06565b505060201b64ff0000000019919091161790565b6000602882620024b9576000620024bc565b60015b60ff16901b67010001000000000019841617905092915050565b6000602982620024e8576000620024eb565b60015b60ff16901b6502000000000019841617905092915050565b6000602a826200251557600062002518565b60015b60ff16901b6504000000000019841617905092915050565b6000603e82600281111562002549576200254962002a85565b901b67c00000000000000019841617905092915050565b6200256c828262000cb6565b620009705762002587816001600160a01b03166014620025cf565b62002594836020620025cf565b604051602001620025a792919062002fb1565b60408051601f198184030181529082905262461bcd60e51b82526200076e9160040162002a06565b60606000620025e08360026200302a565b620025ed9060026200304c565b67ffffffffffffffff81111562002608576200260862002a9b565b6040519080825280601f01601f19166020018201604052801562002633576020820181803683370190505b509050600360fc1b8160008151811062002651576200265162002da4565b60200101906001600160f81b031916908160001a905350600f60fb1b8160018151811062002683576200268362002da4565b60200101906001600160f81b031916908160001a9053506000620026a98460026200302a565b620026b69060016200304c565b90505b600181111562002738576f181899199a1a9b1b9c1cb0b131b232b360811b85600f1660108110620026ee57620026ee62002da4565b1a60f81b82828151811062002707576200270762002da4565b60200101906001600160f81b031916908160001a90535060049490941c93620027308162003067565b9050620026b9565b508315620027895760405162461bcd60e51b815260206004820181905260248201527f537472696e67733a20686578206c656e67746820696e73756666696369656e7460448201526064016200076e565b9392505050565b610e45806200308283390190565b600060208284031215620027b157600080fd5b81356001600160e01b0319811681146200278957600080fd5b6001600160a01b038116811462000cb357600080fd5b6003811062000cb357600080fd5b6000806000606084860312156200280457600080fd5b83356200281181620027ca565b925060208401356200282381620027ca565b915060408401356200283581620027e0565b809150509250925092565b6000602082840312156200285357600080fd5b81356200278981620027ca565b6000602082840312156200287357600080fd5b5035919050565b6000806000606084860312156200289057600080fd5b83356200289d81620027ca565b95602085013595506040909401359392505050565b60008060408385031215620028c657600080fd5b823591506020830135620028da81620027ca565b809150509250929050565b60008060408385031215620028f957600080fd5b82356200290681620027ca565b946020939093013593505050565b60008083601f8401126200292757600080fd5b50813567ffffffffffffffff8111156200294057600080fd5b6020830191508360208260051b85010111156200295c57600080fd5b9250929050565b600080602083850312156200297757600080fd5b823567ffffffffffffffff8111156200298f57600080fd5b6200299d8582860162002914565b90969095509350505050565b60005b83811015620029c6578181015183820152602001620029ac565b83811115620010f35750506000910152565b60008151808452620029f2816020860160208601620029a9565b601f01601f19169290920160200192915050565b602081526000620027896020830184620029d8565b6000806040838503121562002a2f57600080fd5b823562002a3c81620027ca565b91506020830135620028da81620027ca565b6000806040838503121562002a6257600080fd5b823562002a6f81620027ca565b915060208301358015158114620028da57600080fd5b634e487b7160e01b600052602160045260246000fd5b634e487b7160e01b600052604160045260246000fd5b604051610160810167ffffffffffffffff8111828210171562002ad85762002ad862002a9b565b60405290565b805162002aeb81620027ca565b919050565b60ff8116811462000cb357600080fd5b805162002aeb8162002af0565b60006060828403121562002b2057600080fd5b6040516060810181811067ffffffffffffffff8211171562002b465762002b4662002a9b565b60405282518152602083015162002b5d81620027ca565b6020820152604083015162002b728162002af0565b60408201529392505050565b80516fffffffffffffffffffffffffffffffff8116811462002aeb57600080fd5b805164ffffffffff8116811462002aeb57600080fd5b6000610160828403121562002bc957600080fd5b62002bd362002ab1565b8251815262002be56020840162002b7e565b602082015262002bf86040840162002b7e565b604082015262002c0b6060840162002b7e565b606082015262002c1e6080840162002b7e565b608082015262002c3160a0840162002b9f565b60a082015262002c4460c0840162002ade565b60c082015262002c5760e0840162002ade565b60e082015261010062002c6c81850162002ade565b9082015261012062002c8084820162002ade565b9082015261014062002c9484820162002b00565b908201529392505050565b60408152600062002cb46040830185620029d8565b828103602084015262002cc88185620029d8565b95945050505050565b60006020828403121562002ce457600080fd5b815167ffffffffffffffff8082111562002cfd57600080fd5b818401915084601f83011262002d1257600080fd5b81518181111562002d275762002d2762002a9b565b604051601f8201601f19908116603f0116810190838211818310171562002d525762002d5262002a9b565b8160405282815287602084870101111562002d6c57600080fd5b62002d7f836020830160208801620029a9565b979650505050505050565b60006020828403121562002d9d57600080fd5b5051919050565b634e487b7160e01b600052603260045260246000fd5b6000823561013e1983360301811262002dd257600080fd5b9190910192915050565b60006020828403121562002def57600080fd5b8135620027898162002af0565b6000808335601e1984360301811262002e1457600080fd5b83018035915067ffffffffffffffff82111562002e3057600080fd5b6020019150368190038213156200295c57600080fd5b81835281816020850137506000828201602090810191909152601f909101601f19169091010190565b6001600160a01b03898116825288811660208301528716604082015260ff8616606082015260c06080820181905260009062002eaf908301868862002e46565b82810360a084015262002ec481858762002e46565b9b9a5050505050505050505050565b6001600160a01b0384811682528316602082015260606040820181905260009062002cc890830184620029d8565b60006020828403121562002f1457600080fd5b81356200278981620027e0565b634e487b7160e01b600052601160045260246000fd5b60006001820162002f4c5762002f4c62002f21565b5060010190565b600082356101be1983360301811262002dd257600080fd5b60006020828403121562002f7e57600080fd5b813561ffff811681146200278957600080fd5b60006020828403121562002fa457600080fd5b81516200278981620027ca565b7f416363657373436f6e74726f6c3a206163636f756e742000000000000000000081526000835162002feb816017850160208801620029a9565b7001034b99036b4b9b9b4b733903937b6329607d1b60179184019182015283516200301e816028840160208801620029a9565b01602801949350505050565b600081600019048311821515161562003047576200304762002f21565b500290565b6000821982111562003062576200306262002f21565b500190565b60008162003079576200307962002f21565b50600019019056fe608060405260405162000e4538038062000e45833981016040819052620000269162000490565b828162000036828260006200004d565b50620000449050826200008a565b505050620005c3565b6200005883620000e5565b600082511180620000665750805b1562000085576200008383836200012760201b6200022e1760201c565b505b505050565b7f7e644d79422f17c01e4894b5f4f588d331ebfa28653d42ae832dc59e38c9798f620000b562000156565b604080516001600160a01b03928316815291841660208301520160405180910390a1620000e2816200018f565b50565b620000f08162000244565b6040516001600160a01b038216907fbc7cd75a20ee27fd9adebab32041f755214dbc6bffa90cc0225b39da2e5c2d3b90600090a250565b60606200014f838360405180606001604052806027815260200162000e1e60279139620002f8565b9392505050565b60006200018060008051602062000dfe83398151915260001b620003de60201b620001ea1760201c565b546001600160a01b0316919050565b6001600160a01b038116620001fa5760405162461bcd60e51b815260206004820152602660248201527f455243313936373a206e65772061646d696e20697320746865207a65726f206160448201526564647265737360d01b60648201526084015b60405180910390fd5b806200022360008051602062000dfe83398151915260001b620003de60201b620001ea1760201c565b80546001600160a01b0319166001600160a01b039290921691909117905550565b6200025a81620003e160201b6200025a1760201c565b620002be5760405162461bcd60e51b815260206004820152602d60248201527f455243313936373a206e657720696d706c656d656e746174696f6e206973206e60448201526c1bdd08184818dbdb9d1c9858dd609a1b6064820152608401620001f1565b80620002237f360894a13ba1a3210667c828492db98dca3e2076cc3735a920a3ca505d382bbc60001b620003de60201b620001ea1760201c565b60606001600160a01b0384163b620003625760405162461bcd60e51b815260206004820152602660248201527f416464726573733a2064656c65676174652063616c6c20746f206e6f6e2d636f6044820152651b9d1c9858dd60d21b6064820152608401620001f1565b600080856001600160a01b0316856040516200037f919062000570565b600060405180830381855af49150503d8060008114620003bc576040519150601f19603f3d011682016040523d82523d6000602084013e620003c1565b606091505b509092509050620003d4828286620003f0565b9695505050505050565b90565b6001600160a01b03163b151590565b60608315620004015750816200014f565b825115620004125782518084602001fd5b8160405162461bcd60e51b8152600401620001f191906200058e565b80516001600160a01b03811681146200044657600080fd5b919050565b634e487b7160e01b600052604160045260246000fd5b60005b838110156200047e57818101518382015260200162000464565b83811115620000835750506000910152565b600080600060608486031215620004a657600080fd5b620004b1846200042e565b9250620004c1602085016200042e565b60408501519092506001600160401b0380821115620004df57600080fd5b818601915086601f830112620004f457600080fd5b8151818111156200050957620005096200044b565b604051601f8201601f19908116603f011681019083821181831017156200053457620005346200044b565b816040528281528960208487010111156200054e57600080fd5b6200056183602083016020880162000461565b80955050505050509250925092565b600082516200058481846020870162000461565b9190910192915050565b6020815260008251806020840152620005af81604085016020870162000461565b601f01601f19169190910160400192915050565b61082b80620005d36000396000f3fe60806040526004361061004e5760003560e01c80633659cfe6146100655780634f1ef286146100855780635c60da1b146100985780638f283970146100c9578063f851a440146100e95761005d565b3661005d5761005b6100fe565b005b61005b6100fe565b34801561007157600080fd5b5061005b6100803660046106b5565b610118565b61005b6100933660046106d0565b610155565b3480156100a457600080fd5b506100ad6101bc565b6040516001600160a01b03909116815260200160405180910390f35b3480156100d557600080fd5b5061005b6100e43660046106b5565b6101ed565b3480156100f557600080fd5b506100ad61020d565b610106610269565b6101166101116102fe565b610308565b565b61012061032c565b6001600160a01b0316330361014d5761014a8160405180602001604052806000815250600061035f565b50565b61014a6100fe565b61015d61032c565b6001600160a01b031633036101b4576101af8383838080601f0160208091040260200160405190810160405280939291908181526020018383808284376000920191909152506001925061035f915050565b505050565b6101af6100fe565b60006101c661032c565b6001600160a01b031633036101e2576101dd6102fe565b905090565b6101ea6100fe565b90565b6101f561032c565b6001600160a01b0316330361014d5761014a8161038a565b600061021761032c565b6001600160a01b031633036101e2576101dd61032c565b606061025383836040518060600160405280602781526020016107cf602791396103de565b9392505050565b6001600160a01b03163b151590565b61027161032c565b6001600160a01b031633036101165760405162461bcd60e51b815260206004820152604260248201527f5472616e73706172656e745570677261646561626c6550726f78793a2061646d60448201527f696e2063616e6e6f742066616c6c6261636b20746f2070726f78792074617267606482015261195d60f21b608482015260a4015b60405180910390fd5b60006101dd6104bb565b3660008037600080366000845af43d6000803e808015610327573d6000f35b3d6000fd5b60007fb53127684a568b3173ae13b9f8a6016e243e63b6e8ee1178d6a717850b5d61035b546001600160a01b0316919050565b610368836104e3565b6000825111806103755750805b156101af57610384838361022e565b50505050565b7f7e644d79422f17c01e4894b5f4f588d331ebfa28653d42ae832dc59e38c9798f6103b361032c565b604080516001600160a01b03928316815291841660208301520160405180910390a161014a81610523565b60606001600160a01b0384163b6104465760405162461bcd60e51b815260206004820152602660248201527f416464726573733a2064656c65676174652063616c6c20746f206e6f6e2d636f6044820152651b9d1c9858dd60d21b60648201526084016102f5565b600080856001600160a01b031685604051610461919061077f565b600060405180830381855af49150503d806000811461049c576040519150601f19603f3d011682016040523d82523d6000602084013e6104a1565b606091505b50915091506104b18282866105cc565b9695505050505050565b60007f360894a13ba1a3210667c828492db98dca3e2076cc3735a920a3ca505d382bbc610350565b6104ec81610605565b6040516001600160a01b038216907fbc7cd75a20ee27fd9adebab32041f755214dbc6bffa90cc0225b39da2e5c2d3b90600090a250565b6001600160a01b0381166105885760405162461bcd60e51b815260206004820152602660248201527f455243313936373a206e65772061646d696e20697320746865207a65726f206160448201526564647265737360d01b60648201526084016102f5565b807fb53127684a568b3173ae13b9f8a6016e243e63b6e8ee1178d6a717850b5d61035b80546001600160a01b0319166001600160a01b039290921691909117905550565b606083156105db575081610253565b8251156105eb5782518084602001fd5b8160405162461bcd60e51b81526004016102f5919061079b565b6001600160a01b0381163b6106725760405162461bcd60e51b815260206004820152602d60248201527f455243313936373a206e657720696d706c656d656e746174696f6e206973206e60448201526c1bdd08184818dbdb9d1c9858dd609a1b60648201526084016102f5565b807f360894a13ba1a3210667c828492db98dca3e2076cc3735a920a3ca505d382bbc6105ab565b80356001600160a01b03811681146106b057600080fd5b919050565b6000602082840312156106c757600080fd5b61025382610699565b6000806000604084860312156106e557600080fd5b6106ee84610699565b9250602084013567ffffffffffffffff8082111561070b57600080fd5b818601915086601f83011261071f57600080fd5b81358181111561072e57600080fd5b87602082850101111561074057600080fd5b6020830194508093505050509250925092565b60005b8381101561076e578181015183820152602001610756565b838111156103845750506000910152565b60008251610791818460208701610753565b9190910192915050565b60208152600082518060208401526107ba816040850160208701610753565b601f01601f1916919091016040019291505056fe416464726573733a206c6f772d6c6576656c2064656c65676174652063616c6c206661696c6564a2646970667358221220dcccc67f54ac9047d4665d4ddb8bb92b766ba1b969a1e325055070a87b461b7a64736f6c634300080e0033b53127684a568b3173ae13b9f8a6016e243e63b6e8ee1178d6a717850b5d6103416464726573733a206c6f772d6c6576656c2064656c65676174652063616c6c206661696c6564c340ee5955cf3b892568f321fc9f8e2ed71ee4271f59db269236064210565a01a2646970667358221220feef9987120892e3528d0bce69463f5ab8d5d226db26c30f3a5c46e7e4d6d04164736f6c634300080e0033",
  "linkReferences": {
    "contracts/libraries/Errors.sol": {
      "Errors": [
        {
          "length": 20,
          "start": 1720
        },
        {
          "length": 20,
          "start": 2487
        },
        {
          "length": 20,
          "start": 3426
        },
        {
          "length": 20,
          "start": 7182
        },
        {
          "length": 20,
          "start": 7770
        },
        {
          "length": 20,
          "start": 8205
        },
        {
          "length": 20,
          "start": 8447
        },
        {
          "length": 20,
          "start": 8924
        },
        {
          "length": 20,
          "start": 9182
        }
      ]
    }
  },
  "deployedLinkReferences": {
    "contracts/libraries/Errors.sol": {
      "Errors": [
        {
          "length": 20,
          "start": 1688
        },
        {
          "length": 20,
          "start": 2455
        },
        {
          "length": 20,
          "start": 3394
        },
        {
          "length": 20,
          "start": 7150
        },
        {
          "length": 20,
          "start": 7738
        },
        {
          "length": 20,
          "start": 8173
        },
        {
          "length": 20,
          "start": 8415
        },
        {
          "length": 20,
          "start": 8892
        },
        {
          "length": 20,
          "start": 9150
        }
      ]
    }
  }
}