{
  "_format": "hh-sol-artifact-1",
  "contractName": "PoolConfigurator",
  "sourceName": "contracts/pool/lendingpool/LendingPoolConfigurator.sol",
  "abi": [
    {
      "anonymous": false,
      "inputs": [
        {
          "indexed": true,
          "internalType": "address",
          "name": "asset",
          "type": "address"
        },
        {
          "indexed": false,
          "internalType": "uint256",
          "name": "liqThreshold",
          "type": "uint256"
        },
        {
          "indexed": false,
          "internalType": "uint256",
          "name": "ltv",
          "type": "uint256"
        }
      ],
      "name": "BorrowParamsUpdated",
      "type": "event"
    },
    {
      "anonymous": false,
      "inputs": [
        {
          "indexed": false,
          "internalType": "uint8",
          "name": "version",
          "type": "uint8"
        }
      ],
      "name": "Initialized",
      "type": "event"
    },
    {
      "anonymous": false,
      "inputs": [
        {
          "indexed": true,
          "internalType": "address",
          "name": "asset",
          "type": "address"
        },
        {
          "indexed": true,
          "internalType": "address",
          "name": "tNft",
          "type": "address"
        },
        {
          "indexed": false,
          "internalType": "uint8",
          "name": "tokenType",
          "type": "uint8"
        },
        {
          "indexed": false,
          "internalType": "uint256",
          "name": "liqThreshold",
          "type": "uint256"
        },
        {
          "indexed": false,
          "internalType": "uint256",
          "name": "ltv",
          "type": "uint256"
        }
      ],
      "name": "NftReserveInitialized",
      "type": "event"
    },
    {
      "anonymous": false,
      "inputs": [
        {
          "indexed": true,
          "internalType": "address",
          "name": "asset",
          "type": "address"
        },
        {
          "indexed": false,
          "internalType": "bool",
          "name": "active",
          "type": "bool"
        }
      ],
      "name": "ReserveActiveUpdated",
      "type": "event"
    },
    {
      "anonymous": false,
      "inputs": [
        {
          "indexed": true,
          "internalType": "address",
          "name": "asset",
          "type": "address"
        }
      ],
      "name": "ReserveDeleted",
      "type": "event"
    },
    {
      "anonymous": false,
      "inputs": [
        {
          "indexed": true,
          "internalType": "address",
          "name": "asset",
          "type": "address"
        },
        {
          "indexed": false,
          "internalType": "uint256",
          "name": "reserveFactor",
          "type": "uint256"
        }
      ],
      "name": "ReserveFactorUpdated",
      "type": "event"
    },
    {
      "anonymous": false,
      "inputs": [
        {
          "indexed": true,
          "internalType": "address",
          "name": "asset",
          "type": "address"
        },
        {
          "indexed": false,
          "internalType": "bool",
          "name": "freeze",
          "type": "bool"
        }
      ],
      "name": "ReserveFreezeUpdated",
      "type": "event"
    },
    {
      "anonymous": false,
      "inputs": [
        {
          "indexed": true,
          "internalType": "address",
          "name": "asset",
          "type": "address"
        },
        {
          "indexed": true,
          "internalType": "address",
          "name": "tToken",
          "type": "address"
        },
        {
          "indexed": false,
          "internalType": "address",
          "name": "debtToken",
          "type": "address"
        },
        {
          "indexed": false,
          "internalType": "address",
          "name": "interestRateStrategyAddress",
          "type": "address"
        },
        {
          "indexed": false,
          "internalType": "uint256",
          "name": "liqThreshold",
          "type": "uint256"
        },
        {
          "indexed": false,
          "internalType": "uint256",
          "name": "ltv",
          "type": "uint256"
        }
      ],
      "name": "ReserveInitialized",
      "type": "event"
    },
    {
      "anonymous": false,
      "inputs": [
        {
          "indexed": true,
          "internalType": "address",
          "name": "asset",
          "type": "address"
        },
        {
          "indexed": false,
          "internalType": "address",
          "name": "interestRateCalculator",
          "type": "address"
        }
      ],
      "name": "ReserveInterestRateCalculatorUpdated",
      "type": "event"
    },
    {
      "anonymous": false,
      "inputs": [
        {
          "indexed": true,
          "internalType": "bytes32",
          "name": "role",
          "type": "bytes32"
        },
        {
          "indexed": true,
          "internalType": "bytes32",
          "name": "previousAdminRole",
          "type": "bytes32"
        },
        {
          "indexed": true,
          "internalType": "bytes32",
          "name": "newAdminRole",
          "type": "bytes32"
        }
      ],
      "name": "RoleAdminChanged",
      "type": "event"
    },
    {
      "anonymous": false,
      "inputs": [
        {
          "indexed": true,
          "internalType": "bytes32",
          "name": "role",
          "type": "bytes32"
        },
        {
          "indexed": true,
          "internalType": "address",
          "name": "account",
          "type": "address"
        },
        {
          "indexed": true,
          "internalType": "address",
          "name": "sender",
          "type": "address"
        }
      ],
      "name": "RoleGranted",
      "type": "event"
    },
    {
      "anonymous": false,
      "inputs": [
        {
          "indexed": true,
          "internalType": "bytes32",
          "name": "role",
          "type": "bytes32"
        },
        {
          "indexed": true,
          "internalType": "address",
          "name": "account",
          "type": "address"
        },
        {
          "indexed": true,
          "internalType": "address",
          "name": "sender",
          "type": "address"
        }
      ],
      "name": "RoleRevoked",
      "type": "event"
    },
    {
      "anonymous": false,
      "inputs": [
        {
          "indexed": true,
          "internalType": "address",
          "name": "asset",
          "type": "address"
        },
        {
          "indexed": true,
          "internalType": "address",
          "name": "proxy",
          "type": "address"
        },
        {
          "indexed": true,
          "internalType": "address",
          "name": "impl",
          "type": "address"
        }
      ],
      "name": "TokenImplUpgraded",
      "type": "event"
    },
    {
      "inputs": [],
      "name": "DEFAULT_ADMIN_ROLE",
      "outputs": [
        {
          "internalType": "bytes32",
          "name": "",
          "type": "bytes32"
        }
      ],
      "stateMutability": "view",
      "type": "function"
    },
    {
      "inputs": [],
      "name": "EMERGENCY_ADMIN",
      "outputs": [
        {
          "internalType": "bytes32",
          "name": "",
          "type": "bytes32"
        }
      ],
      "stateMutability": "view",
      "type": "function"
    },
    {
      "inputs": [],
      "name": "LENDING_POOL_ADMIN",
      "outputs": [
        {
          "internalType": "bytes32",
          "name": "",
          "type": "bytes32"
        }
      ],
      "stateMutability": "view",
      "type": "function"
    },
    {
      "inputs": [],
      "name": "NAME",
      "outputs": [
        {
          "internalType": "string",
          "name": "",
          "type": "string"
        }
      ],
      "stateMutability": "view",
      "type": "function"
    },
    {
      "inputs": [
        {
          "internalType": "address",
          "name": "asset",
          "type": "address"
        }
      ],
      "name": "deleteReserve",
      "outputs": [],
      "stateMutability": "nonpayable",
      "type": "function"
    },
    {
      "inputs": [
        {
          "internalType": "bytes32",
          "name": "role",
          "type": "bytes32"
        }
      ],
      "name": "getRoleAdmin",
      "outputs": [
        {
          "internalType": "bytes32",
          "name": "",
          "type": "bytes32"
        }
      ],
      "stateMutability": "view",
      "type": "function"
    },
    {
      "inputs": [
        {
          "internalType": "bytes32",
          "name": "role",
          "type": "bytes32"
        },
        {
          "internalType": "address",
          "name": "account",
          "type": "address"
        }
      ],
      "name": "grantRole",
      "outputs": [],
      "stateMutability": "nonpayable",
      "type": "function"
    },
    {
      "inputs": [
        {
          "internalType": "bytes32",
          "name": "role",
          "type": "bytes32"
        },
        {
          "internalType": "address",
          "name": "account",
          "type": "address"
        }
      ],
      "name": "hasRole",
      "outputs": [
        {
          "internalType": "bool",
          "name": "",
          "type": "bool"
        }
      ],
      "stateMutability": "view",
      "type": "function"
    },
    {
      "inputs": [
        {
          "components": [
            {
              "internalType": "address",
              "name": "tTokenImpl",
              "type": "address"
            },
            {
              "internalType": "string",
              "name": "tTokenNamePrefix",
              "type": "string"
            },
            {
              "internalType": "string",
              "name": "tTokenSymbolPrefix",
              "type": "string"
            },
            {
              "internalType": "address",
              "name": "asset",
              "type": "address"
            },
            {
              "internalType": "enum ReserveConfigurator.TokenType",
              "name": "tokenType",
              "type": "uint8"
            },
            {
              "internalType": "uint8",
              "name": "decimals",
              "type": "uint8"
            },
            {
              "internalType": "address",
              "name": "treasury",
              "type": "address"
            },
            {
              "internalType": "address",
              "name": "incentivesController",
              "type": "address"
            },
            {
              "internalType": "uint256",
              "name": "ltv",
              "type": "uint256"
            },
            {
              "internalType": "uint256",
              "name": "liqThreshold",
              "type": "uint256"
            }
          ],
          "internalType": "struct ILendingPoolConfigurator.NftReserveInitParams[]",
          "name": "paramsList",
          "type": "tuple[]"
        }
      ],
      "name": "initNftReserves",
      "outputs": [],
      "stateMutability": "nonpayable",
      "type": "function"
    },
    {
      "inputs": [
        {
          "components": [
            {
              "internalType": "address",
              "name": "tTokenImpl",
              "type": "address"
            },
            {
              "internalType": "string",
              "name": "tTokenNamePrefix",
              "type": "string"
            },
            {
              "internalType": "string",
              "name": "tTokenSymbolPrefix",
              "type": "string"
            },
            {
              "internalType": "address",
              "name": "debtTokenImpl",
              "type": "address"
            },
            {
              "internalType": "string",
              "name": "debtTokenNamePrefix",
              "type": "string"
            },
            {
              "internalType": "string",
              "name": "debtTokenSymbolPrefix",
              "type": "string"
            },
            {
              "internalType": "address",
              "name": "interestRateStrategyAddress",
              "type": "address"
            },
            {
              "internalType": "address",
              "name": "asset",
              "type": "address"
            },
            {
              "internalType": "uint8",
              "name": "decimals",
              "type": "uint8"
            },
            {
              "internalType": "address",
              "name": "treasury",
              "type": "address"
            },
            {
              "internalType": "address",
              "name": "incentivesController",
              "type": "address"
            },
            {
              "internalType": "uint256",
              "name": "ltv",
              "type": "uint256"
            },
            {
              "internalType": "uint256",
              "name": "liqThreshold",
              "type": "uint256"
            },
            {
              "internalType": "uint16",
              "name": "reserveFactor",
              "type": "uint16"
            }
          ],
          "internalType": "struct ILendingPoolConfigurator.ReserveInitParams[]",
          "name": "paramsList",
          "type": "tuple[]"
        }
      ],
      "name": "initReserves",
      "outputs": [],
      "stateMutability": "nonpayable",
      "type": "function"
    },
    {
      "inputs": [
        {
          "internalType": "contract ITakerAddressesProvider",
          "name": "provider",
          "type": "address"
        }
      ],
      "name": "initialize",
      "outputs": [],
      "stateMutability": "nonpayable",
      "type": "function"
    },
    {
      "inputs": [
        {
          "internalType": "bytes32",
          "name": "role",
          "type": "bytes32"
        },
        {
          "internalType": "address",
          "name": "account",
          "type": "address"
        }
      ],
      "name": "renounceRole",
      "outputs": [],
      "stateMutability": "nonpayable",
      "type": "function"
    },
    {
      "inputs": [
        {
          "internalType": "bytes32",
          "name": "role",
          "type": "bytes32"
        },
        {
          "internalType": "address",
          "name": "account",
          "type": "address"
        }
      ],
      "name": "revokeRole",
      "outputs": [],
      "stateMutability": "nonpayable",
      "type": "function"
    },
    {
      "inputs": [
        {
          "internalType": "address",
          "name": "admin",
          "type": "address"
        }
      ],
      "name": "setAdmin",
      "outputs": [],
      "stateMutability": "nonpayable",
      "type": "function"
    },
    {
      "inputs": [
        {
          "internalType": "address",
          "name": "WETHGateway",
          "type": "address"
        }
      ],
      "name": "setWETHGateway",
      "outputs": [],
      "stateMutability": "nonpayable",
      "type": "function"
    },
    {
      "inputs": [
        {
          "internalType": "bytes4",
          "name": "interfaceId",
          "type": "bytes4"
        }
      ],
      "name": "supportsInterface",
      "outputs": [
        {
          "internalType": "bool",
          "name": "",
          "type": "bool"
        }
      ],
      "stateMutability": "view",
      "type": "function"
    },
    {
      "inputs": [
        {
          "internalType": "address",
          "name": "asset",
          "type": "address"
        },
        {
          "internalType": "uint256",
          "name": "liqThreshold",
          "type": "uint256"
        },
        {
          "internalType": "uint256",
          "name": "ltv",
          "type": "uint256"
        }
      ],
      "name": "updateBorrowParams",
      "outputs": [],
      "stateMutability": "nonpayable",
      "type": "function"
    },
    {
      "inputs": [
        {
          "internalType": "address",
          "name": "asset",
          "type": "address"
        },
        {
          "internalType": "bool",
          "name": "active",
          "type": "bool"
        },
        {
          "internalType": "bool",
          "name": "isNft",
          "type": "bool"
        }
      ],
      "name": "updateReserveActive",
      "outputs": [],
      "stateMutability": "nonpayable",
      "type": "function"
    },
    {
      "inputs": [
        {
          "internalType": "address",
          "name": "asset",
          "type": "address"
        },
        {
          "internalType": "uint256",
          "name": "reserveFactor",
          "type": "uint256"
        }
      ],
      "name": "updateReserveFactor",
      "outputs": [],
      "stateMutability": "nonpayable",
      "type": "function"
    },
    {
      "inputs": [
        {
          "internalType": "address",
          "name": "asset",
          "type": "address"
        },
        {
          "internalType": "bool",
          "name": "freeze",
          "type": "bool"
        }
      ],
      "name": "updateReserveFreeze",
      "outputs": [],
      "stateMutability": "nonpayable",
      "type": "function"
    },
    {
      "inputs": [
        {
          "internalType": "address",
          "name": "asset",
          "type": "address"
        },
        {
          "internalType": "address",
          "name": "interestRateCalculator",
          "type": "address"
        }
      ],
      "name": "updateReserveInterestRateCalculator",
      "outputs": [],
      "stateMutability": "nonpayable",
      "type": "function"
    },
    {
      "inputs": [
        {
          "internalType": "address",
          "name": "asset",
          "type": "address"
        },
        {
          "internalType": "address",
          "name": "newImpl",
          "type": "address"
        },
        {
          "internalType": "enum ILendingPoolConfigurator.TokenType",
          "name": "tokenType",
          "type": "uint8"
        }
      ],
      "name": "upgradeTokenImpl",
      "outputs": [],
      "stateMutability": "nonpayable",
      "type": "function"
    }
  ],
  "bytecode": "0x608060405234801561001057600080fd5b50614019806100206000396000f3fe60806040523480156200001157600080fd5b50600436106200015d5760003560e01c806391d1485411620000c7578063b8e05c2a1162000086578063b8e05c2a1462000313578063c18ccb49146200032a578063c4d66de81462000341578063d3e2507d1462000358578063d547741f146200036f578063d6585ecf146200038657600080fd5b806391d1485414620002945780639d6bc70514620002ab578063a217fddf14620002c2578063a3f4df7e14620002cb578063b5a993e014620002fc57600080fd5b806325c5ba70116200012057806325c5ba70146200020a5780632f2ff15d146200022157806336568abe1462000238578063530b9a0f146200024f578063638141921462000266578063704b6c02146200027d57600080fd5b806301ffc9a7146200016257806303c30a54146200018e57806311e1925914620001a757806321da583714620001be578063248a9ca314620001d5575b600080fd5b62000179620001733660046200270d565b620003ae565b60405190151581526020015b60405180910390f35b620001a56200019f36600462002760565b620003e6565b005b620001a5620001b8366004620027a8565b62000548565b620001a5620001cf366004620027fa565b62000759565b620001fb620001e63660046200281a565b60009081526020819052604090206001015490565b60405190815260200162000185565b620001a56200021b36600462002834565b620007d9565b620001a5620002323660046200286c565b62000a26565b620001a5620002493660046200286c565b62000a54565b620001a5620002603660046200289f565b62000ad6565b620001a562000277366004620027fa565b62000cfe565b620001a56200028e366004620027fa565b62000db2565b62000179620002a53660046200286c565b62000e09565b620001a5620002bc3660046200291d565b62000e32565b620001fb600081565b620002ed60405180604001604052806002815260200161504360f01b81525081565b604051620001859190620029c0565b620001a56200030d366004620029d5565b6200124c565b620001fb60008051602062003fc483398151915281565b620001a56200033b3660046200291d565b62001315565b620001a562000352366004620027fa565b62001780565b620001a56200036936600462002a08565b620018b1565b620001a5620003803660046200286c565b62001e89565b620001fb7f5c91514091af31f62f596a314af7d5be40146b2f2355969392f055e12e0982fb81565b60006001600160e01b03198216637965db0b60e01b1480620003e057506301ffc9a760e01b6001600160e01b03198316145b92915050565b7f5c91514091af31f62f596a314af7d5be40146b2f2355969392f055e12e0982fb620004128162001eb2565b600254604051632f416f6d60e21b81526001600160a01b038581166004830152600092169063bd05bdb490602401602060405180830381865afa1580156200045e573d6000803e3d6000fd5b505050506040513d601f19601f8201168201806040525081019062000484919062002a54565b905062000492818462001ebe565b600254604051631bbc4ab160e11b81526001600160a01b03878116600483015260248201849052929350911690633778956290604401600060405180830381600087803b158015620004e357600080fd5b505af1158015620004f8573d6000803e3d6000fd5b50505050836001600160a01b03167fd8d8ede1fe82aee5ccc9a8c262cd950fa8006c8704b67e2618148053e455387b846040516200053a911515815260200190565b60405180910390a250505050565b60008051602062003fc4833981519152620005638162001eb2565b600060028360028111156200057c576200057c62002a6e565b036200060257600254604051637a82ba1d60e11b81526001600160a01b038781166004830152600092169063f505743a90602401606060405180830381865afa158015620005ce573d6000803e3d6000fd5b505050506040513d601f19601f82011682018060405250810190620005f4919062002af1565b602001519150620006ab9050565b6002546040516335ea6a7560e01b81526001600160a01b03878116600483015260009216906335ea6a759060240161016060405180830381865afa1580156200064f573d6000803e3d6000fd5b505050506040513d601f19601f8201168201806040525081019062000675919062002b99565b905060008460028111156200068e576200068e62002a6e565b03620006a1578060c001519150620006a9565b8060e0015191505b505b604051631b2ce7f360e11b81526001600160a01b038581166004830152821690633659cfe690602401600060405180830381600087803b158015620006ef57600080fd5b505af115801562000704573d6000803e3d6000fd5b50505050836001600160a01b0316816001600160a01b0316866001600160a01b03167f2ceda94e4dd959fa101239cc74310d734265077e82d69764d2ae9b2b70bc014f60405160405180910390a45050505050565b60008051602062003fc4833981519152620007748162001eb2565b6002546040516321da583760e01b81526001600160a01b038481166004830152909116906321da583790602401600060405180830381600087803b158015620007bc57600080fd5b505af1158015620007d1573d6000803e3d6000fd5b505050505050565b60008051602062003fc4833981519152620007f48162001eb2565b8282111573__$61422835ae5e51fb34bedcfef91f75f833$__635b70017b60405180604001604052806002815260200161504360f01b81525060405180604001604052806002815260200161323360f01b8152506040518363ffffffff1660e01b81526004016200086792919062002c83565b600060405180830381865af415801562000885573d6000803e3d6000fd5b505050506040513d6000823e601f3d908101601f19168201604052620008af919081019062002cb5565b90620008d95760405162461bcd60e51b8152600401620008d09190620029c0565b60405180910390fd5b506002546040516342cc41e560e01b81526001600160a01b03868116600483015260009216906342cc41e590602401602060405180830381865afa15801562000926573d6000803e3d6000fd5b505050506040513d601f19601f820116820180604052508101906200094c919062002a54565b90506200095a818562001eeb565b6002549091506001600160a01b03166337789562866200097b848762001fdd565b6040516001600160e01b031960e085901b1681526001600160a01b0390921660048301526024820152604401600060405180830381600087803b158015620009c257600080fd5b505af1158015620009d7573d6000803e3d6000fd5b505060408051878152602081018790526001600160a01b03891693507f573c878e64217b243ddd8557b24d40429cddc55f9bb2fbf4a260c0c33e5b6f7792500160405180910390a25050505050565b60008281526020819052604090206001015462000a438162001eb2565b62000a4f8383620020ca565b505050565b6001600160a01b038116331462000ac65760405162461bcd60e51b815260206004820152602f60248201527f416363657373436f6e74726f6c3a2063616e206f6e6c792072656e6f756e636560448201526e103937b632b9903337b91039b2b63360891b6064820152608401620008d0565b62000ad2828262002152565b5050565b60008051602062003fc483398151915262000af18162001eb2565b61271082111573__$61422835ae5e51fb34bedcfef91f75f833$__635b70017b60405180604001604052806002815260200161504360f01b815250604051806040016040528060018152602001600d60fa1b8152506040518363ffffffff1660e01b815260040162000b6592919062002c83565b600060405180830381865af415801562000b83573d6000803e3d6000fd5b505050506040513d6000823e601f3d908101601f1916820160405262000bad919081019062002cb5565b9062000bce5760405162461bcd60e51b8152600401620008d09190620029c0565b50600254604051632f416f6d60e21b81526001600160a01b038581166004830152600092169063bd05bdb490602401602060405180830381865afa15801562000c1b573d6000803e3d6000fd5b505050506040513d601f19601f8201168201806040525081019062000c41919062002a54565b6002549091506001600160a01b031663377895628562000c628487620021ba565b6040516001600160e01b031960e085901b1681526001600160a01b0390921660048301526024820152604401600060405180830381600087803b15801562000ca957600080fd5b505af115801562000cbe573d6000803e3d6000fd5b50505050836001600160a01b03167fa9e6d8c6a7ceab34e1bbc36191cd138bd9190f9e9e04482afb77cecc652720b6846040516200053a91815260200190565b60008051602062003fc483398151915262000d198162001eb2565b6002546040516331c0a0c960e11b81526001600160a01b03848116600483015290911690636381419290602401600060405180830381600087803b15801562000d6157600080fd5b505af115801562000d76573d6000803e3d6000fd5b50506040516001600160a01b03851692507fec606f1cc75725509556959811f534e1410e30db1d54f2a0c46497ed244fb3499150600090a25050565b62000dde7f5c91514091af31f62f596a314af7d5be40146b2f2355969392f055e12e0982fb82620022b0565b62000df960008051602062003fc483398151915282620022b0565b62000e06600082620022b0565b50565b6000918252602082815260408084206001600160a01b0393909316845291905290205460ff1690565b60008051602062003fc483398151915262000e4d8162001eb2565b60005b8281101562001246573684848381811062000e6f5762000e6f62002d6e565b905060200281019062000e83919062002d84565b9050806101200135816101000135111573__$61422835ae5e51fb34bedcfef91f75f833$__635b70017b60405180604001604052806002815260200161504360f01b81525060405180604001604052806002815260200161323360f01b8152506040518363ffffffff1660e01b815260040162000f0292919062002c83565b600060405180830381865af415801562000f20573d6000803e3d6000fd5b505050506040513d6000823e601f3d908101601f1916820160405262000f4a919081019062002cb5565b9062000f6b5760405162461bcd60e51b8152600401620008d09190620029c0565b50600062000f7d6020830183620027fa565b60025430906334ec7a6960e21b906001600160a01b031662000fa66080870160608801620027fa565b62000fb9610100880160e08901620027fa565b62000fcb60c0890160a08a0162002da6565b62000fda60208a018a62002dc6565b62000fe960408c018c62002dc6565b6040516024016200100298979695949392919062002e39565b60408051601f198184030181529181526020820180516001600160e01b03166001600160e01b03199094169390931790925290516200104190620026ff565b6200104f9392919062002e9d565b604051809103906000f0801580156200106c573d6000803e3d6000fd5b5090506000620010926200108760c0850160a0860162002da6565b829060ff16620022bc565b9050620010a1816001620023ae565b9050620010b081600062001ebe565b9050620010bf816000620023dd565b9050620010df620010d760a085016080860162002ecb565b82906200240a565b9050620010f28161012085013562001eeb565b9050620011058161010085013562001fdd565b6002549091506001600160a01b031663ac4b088c6200112b6080860160608701620027fa565b6040516001600160e01b031960e084901b1681526001600160a01b039182166004820152602481018590529085166044820152606401600060405180830381600087803b1580156200117c57600080fd5b505af115801562001191573d6000803e3d6000fd5b5050506001600160a01b0383169050620011b26080850160608601620027fa565b6001600160a01b03167fd47ef9bfceab3b8a2b760a792bc3cb10cf40441a1f0b094da61f0a9b8081fc47620011ee60a087016080880162002ecb565b600281111562001202576200120262002a6e565b6040805160ff909216825261012088013560208301526101008801359082015260600160405180910390a350505080806200123d9062002f01565b91505062000e50565b50505050565b60008051602062003fc4833981519152620012678162001eb2565b600254604051631e1a411760e11b81526001600160a01b038581166004830152848116602483015290911690633c34822e90604401600060405180830381600087803b158015620012b757600080fd5b505af1158015620012cc573d6000803e3d6000fd5b50506040516001600160a01b038581168252861692507f98b8c4e600dcf1afd7056e43f52404296da170af12c4b1e131d23f8dfaf765d2915060200160405180910390a2505050565b60008051602062003fc4833981519152620013308162001eb2565b60005b8281101562001246573684848381811062001352576200135262002d6e565b905060200281019062001366919062002f1d565b90506000620013796020830183620027fa565b60025430906334ec7a6960e21b906001600160a01b0316620013a3610100870160e08801620027fa565b620013b761016088016101408901620027fa565b620013cb61012089016101008a0162002da6565b620013da60208a018a62002dc6565b620013e960408c018c62002dc6565b6040516024016200140298979695949392919062002e39565b60408051601f198184030181529181526020820180516001600160e01b03166001600160e01b03199094169390931790925290516200144190620026ff565b6200144f9392919062002e9d565b604051809103906000f0801580156200146c573d6000803e3d6000fd5b5090506000620014836080840160608501620027fa565b60025430906334ec7a6960e21b906001600160a01b0316620014ad610100880160e08901620027fa565b620014c161016089016101408a01620027fa565b620014d56101208a016101008b0162002da6565b620014e460808b018b62002dc6565b620014f360a08d018d62002dc6565b6040516024016200150c98979695949392919062002e39565b60408051601f198184030181529181526020820180516001600160e01b03166001600160e01b03199094169390931790925290516200154b90620026ff565b620015599392919062002e9d565b604051809103906000f08015801562001576573d6000803e3d6000fd5b509050600062001593620010876101208601610100870162002da6565b9050620015a2816001620023ae565b9050620015b181600062001ebe565b9050620015c0816001620023dd565b9050620015cf8160006200240a565b9050620015e28161018086013562001eeb565b9050620015f58161016086013562001fdd565b90506200161b6200160f6101c086016101a0870162002f35565b829061ffff16620021ba565b6002549091506001600160a01b031663c1b4ab8f62001642610100870160e08801620027fa565b8386866200165760e08b0160c08c01620027fa565b60405160e087901b6001600160e01b03191681526001600160a01b0395861660048201526024810194909452918416604484015283166064830152909116608482015260a401600060405180830381600087803b158015620016b857600080fd5b505af1158015620016cd573d6000803e3d6000fd5b5050506001600160a01b0384169050620016ef610100860160e08701620027fa565b6001600160a01b03167f20602bfdb807ffdc8ffb800a586f0660acf23bb71fbb47b500dd3d185698cbff846200172c60e0890160c08a01620027fa565b604080516001600160a01b03938416815292909116602083015261018089013590820152610160880135606082015260800160405180910390a3505050508080620017779062002f01565b91505062001333565b60006200178e60016200243a565b90508015620017a7576001805461ff0019166101001790555b81600160026101000a8154816001600160a01b0302191690836001600160a01b03160217905550600160029054906101000a90046001600160a01b03166001600160a01b0316630261bf8b6040518163ffffffff1660e01b8152600401602060405180830381865afa15801562001822573d6000803e3d6000fd5b505050506040513d601f19601f8201168201806040525081019062001848919062002f5b565b600280546001600160a01b0319166001600160a01b0392909216919091179055801562000ad2576001805461ff00191681556040519081527f7f26b83ff96e1f2b6a682f133852f6798a09c465da95921460cefb38474024989060200160405180910390a15050565b60008051602062003fc4833981519152620018cc8162001eb2565b8262001c5557811562001a9957600254604051637a82ba1d60e11b81526001600160a01b038681166004830152600092169063f505743a90602401606060405180830381865afa15801562001925573d6000803e3d6000fd5b505050506040513d601f19601f820116820180604052508101906200194b919062002af1565b905080602001516001600160a01b03166318160ddd6040518163ffffffff1660e01b8152600401602060405180830381865afa15801562001990573d6000803e3d6000fd5b505050506040513d601f19601f82011682018060405250810190620019b6919062002a54565b60001473__$61422835ae5e51fb34bedcfef91f75f833$__635b70017b60405180604001604052806002815260200161504360f01b815250604051806040016040528060028152602001610c8d60f21b8152506040518363ffffffff1660e01b815260040162001a2892919062002c83565b600060405180830381865af415801562001a46573d6000803e3d6000fd5b505050506040513d6000823e601f3d908101601f1916820160405262001a70919081019062002cb5565b9062001a915760405162461bcd60e51b8152600401620008d09190620029c0565b505062001c55565b6002546040516335ea6a7560e01b81526001600160a01b03868116600483015260009216906335ea6a759060240161016060405180830381865afa15801562001ae6573d6000803e3d6000fd5b505050506040513d601f19601f8201168201806040525081019062001b0c919062002b99565b90508060c001516001600160a01b03166318160ddd6040518163ffffffff1660e01b8152600401602060405180830381865afa15801562001b51573d6000803e3d6000fd5b505050506040513d601f19601f8201168201806040525081019062001b77919062002a54565b60001473__$61422835ae5e51fb34bedcfef91f75f833$__635b70017b60405180604001604052806002815260200161504360f01b815250604051806040016040528060028152602001610c8d60f21b8152506040518363ffffffff1660e01b815260040162001be992919062002c83565b600060405180830381865af415801562001c07573d6000803e3d6000fd5b505050506040513d6000823e601f3d908101601f1916820160405262001c31919081019062002cb5565b9062001c525760405162461bcd60e51b8152600401620008d09190620029c0565b50505b811562001d56576002546040516342cc41e560e01b81526001600160a01b03868116600483015260009216906342cc41e590602401602060405180830381865afa15801562001ca8573d6000803e3d6000fd5b505050506040513d601f19601f8201168201806040525081019062001cce919062002a54565b6002549091506001600160a01b031663d6cc07ae8662001cef8488620023ae565b6040516001600160e01b031960e085901b1681526001600160a01b0390921660048301526024820152604401600060405180830381600087803b15801562001d3657600080fd5b505af115801562001d4b573d6000803e3d6000fd5b505050505062001e4b565b600254604051632f416f6d60e21b81526001600160a01b038681166004830152600092169063bd05bdb490602401602060405180830381865afa15801562001da2573d6000803e3d6000fd5b505050506040513d601f19601f8201168201806040525081019062001dc8919062002a54565b6002549091506001600160a01b031663377895628662001de98488620023ae565b6040516001600160e01b031960e085901b1681526001600160a01b0390921660048301526024820152604401600060405180830381600087803b15801562001e3057600080fd5b505af115801562001e45573d6000803e3d6000fd5b50505050505b836001600160a01b03167f8cf0ac4f2ffab002d2aedfc052b80b318cda8fef8edad46c529c03a26492c202846040516200053a911515815260200190565b60008281526020819052604090206001015462001ea68162001eb2565b62000a4f838362002152565b62000e068133620024cf565b600060298262001ed057600062001ed3565b60015b60ff16901b6502000000000019841617905092915050565b600061ffff82111573__$61422835ae5e51fb34bedcfef91f75f833$__635b70017b60405180604001604052806002815260200161524360f01b815250604051806040016040528060018152602001601960f91b8152506040518363ffffffff1660e01b815260040162001f6192919062002c83565b600060405180830381865af415801562001f7f573d6000803e3d6000fd5b505050506040513d6000823e601f3d908101601f1916820160405262001fa9919081019062002cb5565b9062001fca5760405162461bcd60e51b8152600401620008d09190620029c0565b505060101b63ffff000019919091161790565b600061ffff82111573__$61422835ae5e51fb34bedcfef91f75f833$__635b70017b60405180604001604052806002815260200161524360f01b815250604051806040016040528060018152602001603160f81b8152506040518363ffffffff1660e01b81526004016200205392919062002c83565b600060405180830381865af415801562002071573d6000803e3d6000fd5b505050506040513d6000823e601f3d908101601f191682016040526200209b919081019062002cb5565b90620020bc5760405162461bcd60e51b8152600401620008d09190620029c0565b505061ffff19919091161790565b620020d6828262000e09565b62000ad2576000828152602081815260408083206001600160a01b03851684529091529020805460ff191660011790556200210e3390565b6001600160a01b0316816001600160a01b0316837f2f8788117e7eff1d82e926ec794901d17c78024a50270940304540a733656f0d60405160405180910390a45050565b6200215e828262000e09565b1562000ad2576000828152602081815260408083206001600160a01b0385168085529252808320805460ff1916905551339285917ff6391f5c32d9c69d2a47ea670b442974b53935d1edc7fd64eb21e047a839171b9190a45050565b600061ffff82111573__$61422835ae5e51fb34bedcfef91f75f833$__635b70017b60405180604001604052806002815260200161524360f01b815250604051806040016040528060018152602001600d60fa1b8152506040518363ffffffff1660e01b81526004016200223092919062002c83565b600060405180830381865af41580156200224e573d6000803e3d6000fd5b505050506040513d6000823e601f3d908101601f1916820160405262002278919081019062002cb5565b90620022995760405162461bcd60e51b8152600401620008d09190620029c0565b5050603c1b670ffff0000000000019919091161790565b62000ad28282620020ca565b600060ff82111573__$61422835ae5e51fb34bedcfef91f75f833$__635b70017b60405180604001604052806002815260200161524360f01b815250604051806040016040528060018152602001603360f81b8152506040518363ffffffff1660e01b81526004016200233192919062002c83565b600060405180830381865af41580156200234f573d6000803e3d6000fd5b505050506040513d6000823e601f3d908101601f1916820160405262002379919081019062002cb5565b906200239a5760405162461bcd60e51b8152600401620008d09190620029c0565b505060201b64ff0000000019919091161790565b6000602882620023c0576000620023c3565b60015b60ff16901b67010001000000000019841617905092915050565b6000602a82620023ef576000620023f2565b60015b60ff16901b6504000000000019841617905092915050565b6000603e82600281111562002423576200242362002a6e565b901b67c00000000000000019841617905092915050565b600154600090610100900460ff161562002488578160ff166001148015620024615750303b155b620024805760405162461bcd60e51b8152600401620008d09062002f7b565b506000919050565b60015460ff808416911610620024b25760405162461bcd60e51b8152600401620008d09062002f7b565b506001805460ff191660ff9290921691909117815590565b919050565b620024db828262000e09565b62000ad257620024f6816001600160a01b031660146200253e565b620025038360206200253e565b6040516020016200251692919062002fc9565b60408051601f198184030181529082905262461bcd60e51b8252620008d091600401620029c0565b606060006200254f83600262003042565b6200255c90600262003064565b67ffffffffffffffff81111562002577576200257762002a84565b6040519080825280601f01601f191660200182016040528015620025a2576020820181803683370190505b509050600360fc1b81600081518110620025c057620025c062002d6e565b60200101906001600160f81b031916908160001a905350600f60fb1b81600181518110620025f257620025f262002d6e565b60200101906001600160f81b031916908160001a90535060006200261884600262003042565b6200262590600162003064565b90505b6001811115620026a7576f181899199a1a9b1b9c1cb0b131b232b360811b85600f16601081106200265d576200265d62002d6e565b1a60f81b82828151811062002676576200267662002d6e565b60200101906001600160f81b031916908160001a90535060049490941c936200269f816200307f565b905062002628565b508315620026f85760405162461bcd60e51b815260206004820181905260248201527f537472696e67733a20686578206c656e67746820696e73756666696369656e746044820152606401620008d0565b9392505050565b610f2a806200309a83390190565b6000602082840312156200272057600080fd5b81356001600160e01b031981168114620026f857600080fd5b6001600160a01b038116811462000e0657600080fd5b80358015158114620024ca57600080fd5b600080604083850312156200277457600080fd5b8235620027818162002739565b915062002791602084016200274f565b90509250929050565b6003811062000e0657600080fd5b600080600060608486031215620027be57600080fd5b8335620027cb8162002739565b92506020840135620027dd8162002739565b91506040840135620027ef816200279a565b809150509250925092565b6000602082840312156200280d57600080fd5b8135620026f88162002739565b6000602082840312156200282d57600080fd5b5035919050565b6000806000606084860312156200284a57600080fd5b8335620028578162002739565b95602085013595506040909401359392505050565b600080604083850312156200288057600080fd5b823591506020830135620028948162002739565b809150509250929050565b60008060408385031215620028b357600080fd5b8235620028c08162002739565b946020939093013593505050565b60008083601f840112620028e157600080fd5b50813567ffffffffffffffff811115620028fa57600080fd5b6020830191508360208260051b85010111156200291657600080fd5b9250929050565b600080602083850312156200293157600080fd5b823567ffffffffffffffff8111156200294957600080fd5b6200295785828601620028ce565b90969095509350505050565b60005b838110156200298057818101518382015260200162002966565b83811115620012465750506000910152565b60008151808452620029ac81602086016020860162002963565b601f01601f19169290920160200192915050565b602081526000620026f8602083018462002992565b60008060408385031215620029e957600080fd5b8235620029f68162002739565b91506020830135620028948162002739565b60008060006060848603121562002a1e57600080fd5b833562002a2b8162002739565b925062002a3b602085016200274f565b915062002a4b604085016200274f565b90509250925092565b60006020828403121562002a6757600080fd5b5051919050565b634e487b7160e01b600052602160045260246000fd5b634e487b7160e01b600052604160045260246000fd5b604051610160810167ffffffffffffffff8111828210171562002ac15762002ac162002a84565b60405290565b8051620024ca8162002739565b60ff8116811462000e0657600080fd5b8051620024ca8162002ad4565b60006060828403121562002b0457600080fd5b6040516060810181811067ffffffffffffffff8211171562002b2a5762002b2a62002a84565b60405282518152602083015162002b418162002739565b6020820152604083015162002b568162002ad4565b60408201529392505050565b80516fffffffffffffffffffffffffffffffff81168114620024ca57600080fd5b805164ffffffffff81168114620024ca57600080fd5b6000610160828403121562002bad57600080fd5b62002bb762002a9a565b8251815262002bc96020840162002b62565b602082015262002bdc6040840162002b62565b604082015262002bef6060840162002b62565b606082015262002c026080840162002b62565b608082015262002c1560a0840162002b83565b60a082015262002c2860c0840162002ac7565b60c082015262002c3b60e0840162002ac7565b60e082015261010062002c5081850162002ac7565b9082015261012062002c6484820162002ac7565b9082015261014062002c7884820162002ae4565b908201529392505050565b60408152600062002c98604083018562002992565b828103602084015262002cac818562002992565b95945050505050565b60006020828403121562002cc857600080fd5b815167ffffffffffffffff8082111562002ce157600080fd5b818401915084601f83011262002cf657600080fd5b81518181111562002d0b5762002d0b62002a84565b604051601f8201601f19908116603f0116810190838211818310171562002d365762002d3662002a84565b8160405282815287602084870101111562002d5057600080fd5b62002d6383602083016020880162002963565b979650505050505050565b634e487b7160e01b600052603260045260246000fd5b6000823561013e1983360301811262002d9c57600080fd5b9190910192915050565b60006020828403121562002db957600080fd5b8135620026f88162002ad4565b6000808335601e1984360301811262002dde57600080fd5b83018035915067ffffffffffffffff82111562002dfa57600080fd5b6020019150368190038213156200291657600080fd5b81835281816020850137506000828201602090810191909152601f909101601f19169091010190565b6001600160a01b03898116825288811660208301528716604082015260ff8616606082015260c06080820181905260009062002e79908301868862002e10565b82810360a084015262002e8e81858762002e10565b9b9a5050505050505050505050565b6001600160a01b0384811682528316602082015260606040820181905260009062002cac9083018462002992565b60006020828403121562002ede57600080fd5b8135620026f8816200279a565b634e487b7160e01b600052601160045260246000fd5b60006001820162002f165762002f1662002eeb565b5060010190565b600082356101be1983360301811262002d9c57600080fd5b60006020828403121562002f4857600080fd5b813561ffff81168114620026f857600080fd5b60006020828403121562002f6e57600080fd5b8151620026f88162002739565b6020808252602e908201527f496e697469616c697a61626c653a20636f6e747261637420697320616c72656160408201526d191e481a5b9a5d1a585b1a5e995960921b606082015260800190565b7f416363657373436f6e74726f6c3a206163636f756e74200000000000000000008152600083516200300381601785016020880162002963565b7001034b99036b4b9b9b4b733903937b6329607d1b60179184019182015283516200303681602884016020880162002963565b01602801949350505050565b60008160001904831182151516156200305f576200305f62002eeb565b500290565b600082198211156200307a576200307a62002eeb565b500190565b60008162003091576200309162002eeb565b50600019019056fe608060405260405162000f2a38038062000f2a833981016040819052620000269162000519565b82816200005560017f360894a13ba1a3210667c828492db98dca3e2076cc3735a920a3ca505d382bbd620005f9565b60008051602062000ee3833981519152146200007557620000756200061f565b6200008382826000620000e7565b50620000b3905060017fb53127684a568b3173ae13b9f8a6016e243e63b6e8ee1178d6a717850b5d6104620005f9565b60008051602062000ec383398151915214620000d357620000d36200061f565b620000de8262000124565b50505062000688565b620000f2836200017f565b600082511180620001005750805b156200011f576200011d8383620001c160201b6200022e1760201c565b505b505050565b7f7e644d79422f17c01e4894b5f4f588d331ebfa28653d42ae832dc59e38c9798f6200014f620001f0565b604080516001600160a01b03928316815291841660208301520160405180910390a16200017c8162000229565b50565b6200018a81620002de565b6040516001600160a01b038216907fbc7cd75a20ee27fd9adebab32041f755214dbc6bffa90cc0225b39da2e5c2d3b90600090a250565b6060620001e9838360405180606001604052806027815260200162000f036027913962000381565b9392505050565b60006200021a60008051602062000ec383398151915260001b6200046760201b620001ea1760201c565b546001600160a01b0316919050565b6001600160a01b038116620002945760405162461bcd60e51b815260206004820152602660248201527f455243313936373a206e65772061646d696e20697320746865207a65726f206160448201526564647265737360d01b60648201526084015b60405180910390fd5b80620002bd60008051602062000ec383398151915260001b6200046760201b620001ea1760201c565b80546001600160a01b0319166001600160a01b039290921691909117905550565b620002f4816200046a60201b6200025a1760201c565b620003585760405162461bcd60e51b815260206004820152602d60248201527f455243313936373a206e657720696d706c656d656e746174696f6e206973206e60448201526c1bdd08184818dbdb9d1c9858dd609a1b60648201526084016200028b565b80620002bd60008051602062000ee383398151915260001b6200046760201b620001ea1760201c565b60606001600160a01b0384163b620003eb5760405162461bcd60e51b815260206004820152602660248201527f416464726573733a2064656c65676174652063616c6c20746f206e6f6e2d636f6044820152651b9d1c9858dd60d21b60648201526084016200028b565b600080856001600160a01b03168560405162000408919062000635565b600060405180830381855af49150503d806000811462000445576040519150601f19603f3d011682016040523d82523d6000602084013e6200044a565b606091505b5090925090506200045d82828662000479565b9695505050505050565b90565b6001600160a01b03163b151590565b606083156200048a575081620001e9565b8251156200049b5782518084602001fd5b8160405162461bcd60e51b81526004016200028b919062000653565b80516001600160a01b0381168114620004cf57600080fd5b919050565b634e487b7160e01b600052604160045260246000fd5b60005b8381101562000507578181015183820152602001620004ed565b838111156200011d5750506000910152565b6000806000606084860312156200052f57600080fd5b6200053a84620004b7565b92506200054a60208501620004b7565b60408501519092506001600160401b03808211156200056857600080fd5b818601915086601f8301126200057d57600080fd5b815181811115620005925762000592620004d4565b604051601f8201601f19908116603f01168101908382118183101715620005bd57620005bd620004d4565b81604052828152896020848701011115620005d757600080fd5b620005ea836020830160208801620004ea565b80955050505050509250925092565b6000828210156200061a57634e487b7160e01b600052601160045260246000fd5b500390565b634e487b7160e01b600052600160045260246000fd5b6000825162000649818460208701620004ea565b9190910192915050565b602081526000825180602084015262000674816040850160208701620004ea565b601f01601f19169190910160400192915050565b61082b80620006986000396000f3fe60806040526004361061004e5760003560e01c80633659cfe6146100655780634f1ef286146100855780635c60da1b146100985780638f283970146100c9578063f851a440146100e95761005d565b3661005d5761005b6100fe565b005b61005b6100fe565b34801561007157600080fd5b5061005b6100803660046106b5565b610118565b61005b6100933660046106d0565b610155565b3480156100a457600080fd5b506100ad6101bc565b6040516001600160a01b03909116815260200160405180910390f35b3480156100d557600080fd5b5061005b6100e43660046106b5565b6101ed565b3480156100f557600080fd5b506100ad61020d565b610106610269565b6101166101116102fe565b610308565b565b61012061032c565b6001600160a01b0316330361014d5761014a8160405180602001604052806000815250600061035f565b50565b61014a6100fe565b61015d61032c565b6001600160a01b031633036101b4576101af8383838080601f0160208091040260200160405190810160405280939291908181526020018383808284376000920191909152506001925061035f915050565b505050565b6101af6100fe565b60006101c661032c565b6001600160a01b031633036101e2576101dd6102fe565b905090565b6101ea6100fe565b90565b6101f561032c565b6001600160a01b0316330361014d5761014a8161038a565b600061021761032c565b6001600160a01b031633036101e2576101dd61032c565b606061025383836040518060600160405280602781526020016107cf602791396103de565b9392505050565b6001600160a01b03163b151590565b61027161032c565b6001600160a01b031633036101165760405162461bcd60e51b815260206004820152604260248201527f5472616e73706172656e745570677261646561626c6550726f78793a2061646d60448201527f696e2063616e6e6f742066616c6c6261636b20746f2070726f78792074617267606482015261195d60f21b608482015260a4015b60405180910390fd5b60006101dd6104bb565b3660008037600080366000845af43d6000803e808015610327573d6000f35b3d6000fd5b60007fb53127684a568b3173ae13b9f8a6016e243e63b6e8ee1178d6a717850b5d61035b546001600160a01b0316919050565b610368836104e3565b6000825111806103755750805b156101af57610384838361022e565b50505050565b7f7e644d79422f17c01e4894b5f4f588d331ebfa28653d42ae832dc59e38c9798f6103b361032c565b604080516001600160a01b03928316815291841660208301520160405180910390a161014a81610523565b60606001600160a01b0384163b6104465760405162461bcd60e51b815260206004820152602660248201527f416464726573733a2064656c65676174652063616c6c20746f206e6f6e2d636f6044820152651b9d1c9858dd60d21b60648201526084016102f5565b600080856001600160a01b031685604051610461919061077f565b600060405180830381855af49150503d806000811461049c576040519150601f19603f3d011682016040523d82523d6000602084013e6104a1565b606091505b50915091506104b18282866105cc565b9695505050505050565b60007f360894a13ba1a3210667c828492db98dca3e2076cc3735a920a3ca505d382bbc610350565b6104ec81610605565b6040516001600160a01b038216907fbc7cd75a20ee27fd9adebab32041f755214dbc6bffa90cc0225b39da2e5c2d3b90600090a250565b6001600160a01b0381166105885760405162461bcd60e51b815260206004820152602660248201527f455243313936373a206e65772061646d696e20697320746865207a65726f206160448201526564647265737360d01b60648201526084016102f5565b807fb53127684a568b3173ae13b9f8a6016e243e63b6e8ee1178d6a717850b5d61035b80546001600160a01b0319166001600160a01b039290921691909117905550565b606083156105db575081610253565b8251156105eb5782518084602001fd5b8160405162461bcd60e51b81526004016102f5919061079b565b6001600160a01b0381163b6106725760405162461bcd60e51b815260206004820152602d60248201527f455243313936373a206e657720696d706c656d656e746174696f6e206973206e60448201526c1bdd08184818dbdb9d1c9858dd609a1b60648201526084016102f5565b807f360894a13ba1a3210667c828492db98dca3e2076cc3735a920a3ca505d382bbc6105ab565b80356001600160a01b03811681146106b057600080fd5b919050565b6000602082840312156106c757600080fd5b61025382610699565b6000806000604084860312156106e557600080fd5b6106ee84610699565b9250602084013567ffffffffffffffff8082111561070b57600080fd5b818601915086601f83011261071f57600080fd5b81358181111561072e57600080fd5b87602082850101111561074057600080fd5b6020830194508093505050509250925092565b60005b8381101561076e578181015183820152602001610756565b838111156103845750506000910152565b60008251610791818460208701610753565b9190910192915050565b60208152600082518060208401526107ba816040850160208701610753565b601f01601f1916919091016040019291505056fe416464726573733a206c6f772d6c6576656c2064656c65676174652063616c6c206661696c6564a2646970667358221220ff7822742bb9e2a99bbecef1f98e97293e744706db21b1d584c05869b5c444e764736f6c634300080e0033b53127684a568b3173ae13b9f8a6016e243e63b6e8ee1178d6a717850b5d6103360894a13ba1a3210667c828492db98dca3e2076cc3735a920a3ca505d382bbc416464726573733a206c6f772d6c6576656c2064656c65676174652063616c6c206661696c6564c340ee5955cf3b892568f321fc9f8e2ed71ee4271f59db269236064210565a01a264697066735822122055749cc9c3e582a8c00a3fbbf7f5735cf790b910fe5746c5d6f3024048d99e4f64736f6c634300080e0033",
  "linkReferences": {
    "contracts/libraries/Errors.sol": {
      "Errors": [
        {
          "length": 20,
          "start": 2074
        },
        {
          "length": 20,
          "start": 2841
        },
        {
          "length": 20,
          "start": 3765
        },
        {
          "length": 20,
          "start": 6619
        },
        {
          "length": 20,
          "start": 7068
        },
        {
          "length": 20,
          "start": 7957
        },
        {
          "length": 20,
          "start": 8199
        },
        {
          "length": 20,
          "start": 8676
        },
        {
          "length": 20,
          "start": 8933
        }
      ]
    }
  },
  "deployedLinkReferences": {
    "contracts/libraries/Errors.sol": {
      "Errors": [
        {
          "length": 20,
          "start": 2042
        },
        {
          "length": 20,
          "start": 2809
        },
        {
          "length": 20,
          "start": 3733
        },
        {
          "length": 20,
          "start": 6587
        },
        {
          "length": 20,
          "start": 7036
        },
        {
          "length": 20,
          "start": 7925
        },
        {
          "length": 20,
          "start": 8167
        },
        {
          "length": 20,
          "start": 8644
        },
        {
          "length": 20,
          "start": 8901
        }
      ]
    }
  }
}